{
	"SimpleStorage.sol": {
		"SimpleStorage": {
			"abi": [
				{
					"inputs": [
						{
							"internalType": "uint256",
							"name": "",
							"type": "uint256"
						}
					],
					"name": "favoriteNumbers",
					"outputs": [
						{
							"internalType": "uint256",
							"name": "",
							"type": "uint256"
						}
					],
					"stateMutability": "view",
					"type": "function"
				},
				{
					"inputs": [],
					"name": "getFavoriteNumber",
					"outputs": [
						{
							"internalType": "uint256",
							"name": "",
							"type": "uint256"
						}
					],
					"stateMutability": "view",
					"type": "function"
				},
				{
					"inputs": [
						{
							"internalType": "int256",
							"name": "userInputValue",
							"type": "int256"
						}
					],
					"name": "isGreatherThan",
					"outputs": [
						{
							"internalType": "bool",
							"name": "",
							"type": "bool"
						}
					],
					"stateMutability": "view",
					"type": "function"
				},
				{
					"inputs": [
						{
							"internalType": "uint256",
							"name": "",
							"type": "uint256"
						}
					],
					"name": "people",
					"outputs": [
						{
							"internalType": "string",
							"name": "name",
							"type": "string"
						},
						{
							"internalType": "uint256",
							"name": "favoriteNumber",
							"type": "uint256"
						}
					],
					"stateMutability": "view",
					"type": "function"
				},
				{
					"inputs": [],
					"name": "state",
					"outputs": [
						{
							"internalType": "enum SimpleStorage.ContractState",
							"name": "",
							"type": "uint8"
						}
					],
					"stateMutability": "view",
					"type": "function"
				},
				{
					"inputs": [
						{
							"internalType": "uint256",
							"name": "number",
							"type": "uint256"
						}
					],
					"name": "storeNumber",
					"outputs": [],
					"stateMutability": "nonpayable",
					"type": "function"
				},
				{
					"inputs": [],
					"name": "sumToFavoriteNumber",
					"outputs": [
						{
							"internalType": "uint256",
							"name": "",
							"type": "uint256"
						}
					],
					"stateMutability": "view",
					"type": "function"
				}
			],
			"devdoc": {
				"kind": "dev",
				"methods": {},
				"version": 1
			},
			"evm": {
				"assembly": "    /* \"SimpleStorage.sol\":117:1503  contract SimpleStorage {... */\n  mstore(0x40, 0x80)\n  callvalue\n  dup1\n  iszero\n  tag_1\n  jumpi\n  0x00\n  dup1\n  revert\ntag_1:\n  pop\n  dataSize(sub_0)\n  dup1\n  dataOffset(sub_0)\n  0x00\n  codecopy\n  0x00\n  return\nstop\n\nsub_0: assembly {\n        /* \"SimpleStorage.sol\":117:1503  contract SimpleStorage {... */\n      mstore(0x40, 0x80)\n      callvalue\n      dup1\n      iszero\n      tag_1\n      jumpi\n      0x00\n      dup1\n      revert\n    tag_1:\n      pop\n      jumpi(tag_2, lt(calldatasize, 0x04))\n      shr(0xe0, calldataload(0x00))\n      dup1\n      0x9e7a13ad\n      gt\n      tag_10\n      jumpi\n      dup1\n      0x9e7a13ad\n      eq\n      tag_6\n      jumpi\n      dup1\n      0xa621d15e\n      eq\n      tag_7\n      jumpi\n      dup1\n      0xb6339418\n      eq\n      tag_8\n      jumpi\n      dup1\n      0xc19d93fb\n      eq\n      tag_9\n      jumpi\n      jump(tag_2)\n    tag_10:\n      dup1\n      0x0664c448\n      eq\n      tag_3\n      jumpi\n      dup1\n      0x0cd2636e\n      eq\n      tag_4\n      jumpi\n      dup1\n      0x29cd1d96\n      eq\n      tag_5\n      jumpi\n    tag_2:\n      0x00\n      dup1\n      revert\n        /* \"SimpleStorage.sol\":1077:1288  function isGreatherThan(int userInputValue) public view returns (bool) {... */\n    tag_3:\n      tag_11\n      0x04\n      dup1\n      calldatasize\n      sub\n      dup2\n      add\n      swap1\n      tag_12\n      swap2\n      swap1\n      tag_13\n      jump\t// in\n    tag_12:\n      tag_14\n      jump\t// in\n    tag_11:\n      mload(0x40)\n      tag_15\n      swap2\n      swap1\n      tag_16\n      jump\t// in\n    tag_15:\n      mload(0x40)\n      dup1\n      swap2\n      sub\n      swap1\n      return\n        /* \"SimpleStorage.sol\":1294:1501  function sumToFavoriteNumber() public view returns (uint256) {... */\n    tag_4:\n      tag_17\n      tag_18\n      jump\t// in\n    tag_17:\n      mload(0x40)\n      tag_19\n      swap2\n      swap1\n      tag_20\n      jump\t// in\n    tag_19:\n      mload(0x40)\n      dup1\n      swap2\n      sub\n      swap1\n      return\n        /* \"SimpleStorage.sol\":220:252  uint256[] public favoriteNumbers */\n    tag_5:\n      tag_21\n      0x04\n      dup1\n      calldatasize\n      sub\n      dup2\n      add\n      swap1\n      tag_22\n      swap2\n      swap1\n      tag_23\n      jump\t// in\n    tag_22:\n      tag_24\n      jump\t// in\n    tag_21:\n      mload(0x40)\n      tag_25\n      swap2\n      swap1\n      tag_20\n      jump\t// in\n    tag_25:\n      mload(0x40)\n      dup1\n      swap2\n      sub\n      swap1\n      return\n        /* \"SimpleStorage.sol\":500:522  Person[] public people */\n    tag_6:\n      tag_26\n      0x04\n      dup1\n      calldatasize\n      sub\n      dup2\n      add\n      swap1\n      tag_27\n      swap2\n      swap1\n      tag_23\n      jump\t// in\n    tag_27:\n      tag_28\n      jump\t// in\n    tag_26:\n      mload(0x40)\n      tag_29\n      swap3\n      swap2\n      swap1\n      tag_30\n      jump\t// in\n    tag_29:\n      mload(0x40)\n      dup1\n      swap2\n      sub\n      swap1\n      return\n        /* \"SimpleStorage.sol\":974:1071  function getFavoriteNumber() public view returns (uint256) {... */\n    tag_7:\n      tag_31\n      tag_32\n      jump\t// in\n    tag_31:\n      mload(0x40)\n      tag_33\n      swap2\n      swap1\n      tag_20\n      jump\t// in\n    tag_33:\n      mload(0x40)\n      dup1\n      swap2\n      sub\n      swap1\n      return\n        /* \"SimpleStorage.sol\":883:967  function storeNumber(uint256 number) public {... */\n    tag_8:\n      tag_34\n      0x04\n      dup1\n      calldatasize\n      sub\n      dup2\n      add\n      swap1\n      tag_35\n      swap2\n      swap1\n      tag_23\n      jump\t// in\n    tag_35:\n      tag_36\n      jump\t// in\n    tag_34:\n      stop\n        /* \"SimpleStorage.sol\":796:822  ContractState public state */\n    tag_9:\n      tag_37\n      tag_38\n      jump\t// in\n    tag_37:\n      mload(0x40)\n      tag_39\n      swap2\n      swap1\n      tag_40\n      jump\t// in\n    tag_39:\n      mload(0x40)\n      dup1\n      swap2\n      sub\n      swap1\n      return\n        /* \"SimpleStorage.sol\":1077:1288  function isGreatherThan(int userInputValue) public view returns (bool) {... */\n    tag_14:\n        /* \"SimpleStorage.sol\":1142:1146  bool */\n      0x00\n        /* \"SimpleStorage.sol\":1187:1201  userInputValue */\n      dup2\n        /* \"SimpleStorage.sol\":1169:1183  favoriteNumber */\n      sload(0x00)\n        /* \"SimpleStorage.sol\":1162:1201  int256(favoriteNumber) > userInputValue */\n      sgt\n        /* \"SimpleStorage.sol\":1158:1282  if (int256(favoriteNumber) > userInputValue) {... */\n      iszero\n      tag_42\n      jumpi\n        /* \"SimpleStorage.sol\":1224:1228  true */\n      0x01\n        /* \"SimpleStorage.sol\":1217:1228  return true */\n      swap1\n      pop\n      jump(tag_41)\n        /* \"SimpleStorage.sol\":1158:1282  if (int256(favoriteNumber) > userInputValue) {... */\n    tag_42:\n        /* \"SimpleStorage.sol\":1266:1271  false */\n      0x00\n        /* \"SimpleStorage.sol\":1259:1271  return false */\n      swap1\n      pop\n        /* \"SimpleStorage.sol\":1077:1288  function isGreatherThan(int userInputValue) public view returns (bool) {... */\n    tag_41:\n      swap2\n      swap1\n      pop\n      jump\t// out\n        /* \"SimpleStorage.sol\":1294:1501  function sumToFavoriteNumber() public view returns (uint256) {... */\n    tag_18:\n        /* \"SimpleStorage.sol\":1346:1353  uint256 */\n      0x00\n        /* \"SimpleStorage.sol\":1365:1376  uint256 sum */\n      dup1\n        /* \"SimpleStorage.sol\":1379:1380  0 */\n      0x00\n        /* \"SimpleStorage.sol\":1365:1380  uint256 sum = 0 */\n      swap1\n      pop\n        /* \"SimpleStorage.sol\":1395:1404  uint256 i */\n      0x00\n        /* \"SimpleStorage.sol\":1407:1408  1 */\n      0x01\n        /* \"SimpleStorage.sol\":1395:1408  uint256 i = 1 */\n      swap1\n      pop\n        /* \"SimpleStorage.sol\":1390:1475  for (uint256 i = 1; i <= favoriteNumber; i++ ) {... */\n    tag_45:\n        /* \"SimpleStorage.sol\":1415:1429  favoriteNumber */\n      sload(0x00)\n        /* \"SimpleStorage.sol\":1410:1411  i */\n      dup2\n        /* \"SimpleStorage.sol\":1410:1429  i <= favoriteNumber */\n      gt\n        /* \"SimpleStorage.sol\":1390:1475  for (uint256 i = 1; i <= favoriteNumber; i++ ) {... */\n      tag_46\n      jumpi\n        /* \"SimpleStorage.sol\":1463:1464  i */\n      dup1\n        /* \"SimpleStorage.sol\":1457:1460  sum */\n      dup3\n        /* \"SimpleStorage.sol\":1457:1464  sum + i */\n      tag_48\n      swap2\n      swap1\n      tag_49\n      jump\t// in\n    tag_48:\n        /* \"SimpleStorage.sol\":1451:1464  sum = sum + i */\n      swap2\n      pop\n        /* \"SimpleStorage.sol\":1431:1434  i++ */\n      dup1\n      dup1\n      tag_50\n      swap1\n      tag_51\n      jump\t// in\n    tag_50:\n      swap2\n      pop\n      pop\n        /* \"SimpleStorage.sol\":1390:1475  for (uint256 i = 1; i <= favoriteNumber; i++ ) {... */\n      jump(tag_45)\n    tag_46:\n      pop\n        /* \"SimpleStorage.sol\":1491:1494  sum */\n      dup1\n        /* \"SimpleStorage.sol\":1484:1494  return sum */\n      swap2\n      pop\n      pop\n        /* \"SimpleStorage.sol\":1294:1501  function sumToFavoriteNumber() public view returns (uint256) {... */\n      swap1\n      jump\t// out\n        /* \"SimpleStorage.sol\":220:252  uint256[] public favoriteNumbers */\n    tag_24:\n      0x01\n      dup2\n      dup2\n      sload\n      dup2\n      lt\n      tag_52\n      jumpi\n      0x00\n      dup1\n      revert\n    tag_52:\n      swap1\n      0x00\n      mstore\n      keccak256(0x00, 0x20)\n      add\n      0x00\n      swap2\n      pop\n      swap1\n      pop\n      sload\n      dup2\n      jump\t// out\n        /* \"SimpleStorage.sol\":500:522  Person[] public people */\n    tag_28:\n      0x02\n      dup2\n      dup2\n      sload\n      dup2\n      lt\n      tag_54\n      jumpi\n      0x00\n      dup1\n      revert\n    tag_54:\n      swap1\n      0x00\n      mstore\n      keccak256(0x00, 0x20)\n      swap1\n      0x02\n      mul\n      add\n      0x00\n      swap2\n      pop\n      swap1\n      pop\n      dup1\n      0x00\n      add\n      dup1\n      sload\n      tag_56\n      swap1\n      tag_57\n      jump\t// in\n    tag_56:\n      dup1\n      0x1f\n      add\n      0x20\n      dup1\n      swap2\n      div\n      mul\n      0x20\n      add\n      mload(0x40)\n      swap1\n      dup2\n      add\n      0x40\n      mstore\n      dup1\n      swap3\n      swap2\n      swap1\n      dup2\n      dup2\n      mstore\n      0x20\n      add\n      dup3\n      dup1\n      sload\n      tag_58\n      swap1\n      tag_57\n      jump\t// in\n    tag_58:\n      dup1\n      iszero\n      tag_59\n      jumpi\n      dup1\n      0x1f\n      lt\n      tag_60\n      jumpi\n      0x0100\n      dup1\n      dup4\n      sload\n      div\n      mul\n      dup4\n      mstore\n      swap2\n      0x20\n      add\n      swap2\n      jump(tag_59)\n    tag_60:\n      dup3\n      add\n      swap2\n      swap1\n      0x00\n      mstore\n      keccak256(0x00, 0x20)\n      swap1\n    tag_61:\n      dup2\n      sload\n      dup2\n      mstore\n      swap1\n      0x01\n      add\n      swap1\n      0x20\n      add\n      dup1\n      dup4\n      gt\n      tag_61\n      jumpi\n      dup3\n      swap1\n      sub\n      0x1f\n      and\n      dup3\n      add\n      swap2\n    tag_59:\n      pop\n      pop\n      pop\n      pop\n      pop\n      swap1\n      dup1\n      0x01\n      add\n      sload\n      swap1\n      pop\n      dup3\n      jump\t// out\n        /* \"SimpleStorage.sol\":974:1071  function getFavoriteNumber() public view returns (uint256) {... */\n    tag_32:\n        /* \"SimpleStorage.sol\":1024:1031  uint256 */\n      0x00\n        /* \"SimpleStorage.sol\":1050:1064  favoriteNumber */\n      dup1\n      sload\n        /* \"SimpleStorage.sol\":1043:1064  return favoriteNumber */\n      swap1\n      pop\n        /* \"SimpleStorage.sol\":974:1071  function getFavoriteNumber() public view returns (uint256) {... */\n      swap1\n      jump\t// out\n        /* \"SimpleStorage.sol\":883:967  function storeNumber(uint256 number) public {... */\n    tag_36:\n        /* \"SimpleStorage.sol\":954:960  number */\n      dup1\n        /* \"SimpleStorage.sol\":937:951  favoriteNumber */\n      0x00\n        /* \"SimpleStorage.sol\":937:960  favoriteNumber = number */\n      dup2\n      swap1\n      sstore\n      pop\n        /* \"SimpleStorage.sol\":883:967  function storeNumber(uint256 number) public {... */\n      pop\n      jump\t// out\n        /* \"SimpleStorage.sol\":796:822  ContractState public state */\n    tag_38:\n      0x03\n      0x00\n      swap1\n      sload\n      swap1\n      0x0100\n      exp\n      swap1\n      div\n      0xff\n      and\n      dup2\n      jump\t// out\n        /* \"#utility.yul\":88:205   */\n    tag_65:\n        /* \"#utility.yul\":197:198   */\n      0x00\n        /* \"#utility.yul\":194:195   */\n      dup1\n        /* \"#utility.yul\":187:199   */\n      revert\n        /* \"#utility.yul\":334:410   */\n    tag_67:\n        /* \"#utility.yul\":370:377   */\n      0x00\n        /* \"#utility.yul\":399:404   */\n      dup2\n        /* \"#utility.yul\":388:404   */\n      swap1\n      pop\n        /* \"#utility.yul\":334:410   */\n      swap2\n      swap1\n      pop\n      jump\t// out\n        /* \"#utility.yul\":416:536   */\n    tag_68:\n        /* \"#utility.yul\":488:511   */\n      tag_94\n        /* \"#utility.yul\":505:510   */\n      dup2\n        /* \"#utility.yul\":488:511   */\n      tag_67\n      jump\t// in\n    tag_94:\n        /* \"#utility.yul\":481:486   */\n      dup2\n        /* \"#utility.yul\":478:512   */\n      eq\n        /* \"#utility.yul\":468:530   */\n      tag_95\n      jumpi\n        /* \"#utility.yul\":526:527   */\n      0x00\n        /* \"#utility.yul\":523:524   */\n      dup1\n        /* \"#utility.yul\":516:528   */\n      revert\n        /* \"#utility.yul\":468:530   */\n    tag_95:\n        /* \"#utility.yul\":416:536   */\n      pop\n      jump\t// out\n        /* \"#utility.yul\":542:679   */\n    tag_69:\n        /* \"#utility.yul\":587:592   */\n      0x00\n        /* \"#utility.yul\":625:631   */\n      dup2\n        /* \"#utility.yul\":612:632   */\n      calldataload\n        /* \"#utility.yul\":603:632   */\n      swap1\n      pop\n        /* \"#utility.yul\":641:673   */\n      tag_97\n        /* \"#utility.yul\":667:672   */\n      dup2\n        /* \"#utility.yul\":641:673   */\n      tag_68\n      jump\t// in\n    tag_97:\n        /* \"#utility.yul\":542:679   */\n      swap3\n      swap2\n      pop\n      pop\n      jump\t// out\n        /* \"#utility.yul\":685:1012   */\n    tag_13:\n        /* \"#utility.yul\":743:749   */\n      0x00\n        /* \"#utility.yul\":792:794   */\n      0x20\n        /* \"#utility.yul\":780:789   */\n      dup3\n        /* \"#utility.yul\":771:778   */\n      dup5\n        /* \"#utility.yul\":767:790   */\n      sub\n        /* \"#utility.yul\":763:795   */\n      slt\n        /* \"#utility.yul\":760:879   */\n      iszero\n      tag_99\n      jumpi\n        /* \"#utility.yul\":798:877   */\n      tag_100\n      tag_65\n      jump\t// in\n    tag_100:\n        /* \"#utility.yul\":760:879   */\n    tag_99:\n        /* \"#utility.yul\":918:919   */\n      0x00\n        /* \"#utility.yul\":943:995   */\n      tag_101\n        /* \"#utility.yul\":987:994   */\n      dup5\n        /* \"#utility.yul\":978:984   */\n      dup3\n        /* \"#utility.yul\":967:976   */\n      dup6\n        /* \"#utility.yul\":963:985   */\n      add\n        /* \"#utility.yul\":943:995   */\n      tag_69\n      jump\t// in\n    tag_101:\n        /* \"#utility.yul\":933:995   */\n      swap2\n      pop\n        /* \"#utility.yul\":889:1005   */\n      pop\n        /* \"#utility.yul\":685:1012   */\n      swap3\n      swap2\n      pop\n      pop\n      jump\t// out\n        /* \"#utility.yul\":1018:1108   */\n    tag_70:\n        /* \"#utility.yul\":1052:1059   */\n      0x00\n        /* \"#utility.yul\":1095:1100   */\n      dup2\n        /* \"#utility.yul\":1088:1101   */\n      iszero\n        /* \"#utility.yul\":1081:1102   */\n      iszero\n        /* \"#utility.yul\":1070:1102   */\n      swap1\n      pop\n        /* \"#utility.yul\":1018:1108   */\n      swap2\n      swap1\n      pop\n      jump\t// out\n        /* \"#utility.yul\":1114:1223   */\n    tag_71:\n        /* \"#utility.yul\":1195:1216   */\n      tag_104\n        /* \"#utility.yul\":1210:1215   */\n      dup2\n        /* \"#utility.yul\":1195:1216   */\n      tag_70\n      jump\t// in\n    tag_104:\n        /* \"#utility.yul\":1190:1193   */\n      dup3\n        /* \"#utility.yul\":1183:1217   */\n      mstore\n        /* \"#utility.yul\":1114:1223   */\n      pop\n      pop\n      jump\t// out\n        /* \"#utility.yul\":1229:1439   */\n    tag_16:\n        /* \"#utility.yul\":1316:1320   */\n      0x00\n        /* \"#utility.yul\":1354:1356   */\n      0x20\n        /* \"#utility.yul\":1343:1352   */\n      dup3\n        /* \"#utility.yul\":1339:1357   */\n      add\n        /* \"#utility.yul\":1331:1357   */\n      swap1\n      pop\n        /* \"#utility.yul\":1367:1432   */\n      tag_106\n        /* \"#utility.yul\":1429:1430   */\n      0x00\n        /* \"#utility.yul\":1418:1427   */\n      dup4\n        /* \"#utility.yul\":1414:1431   */\n      add\n        /* \"#utility.yul\":1405:1411   */\n      dup5\n        /* \"#utility.yul\":1367:1432   */\n      tag_71\n      jump\t// in\n    tag_106:\n        /* \"#utility.yul\":1229:1439   */\n      swap3\n      swap2\n      pop\n      pop\n      jump\t// out\n        /* \"#utility.yul\":1445:1522   */\n    tag_72:\n        /* \"#utility.yul\":1482:1489   */\n      0x00\n        /* \"#utility.yul\":1511:1516   */\n      dup2\n        /* \"#utility.yul\":1500:1516   */\n      swap1\n      pop\n        /* \"#utility.yul\":1445:1522   */\n      swap2\n      swap1\n      pop\n      jump\t// out\n        /* \"#utility.yul\":1528:1646   */\n    tag_73:\n        /* \"#utility.yul\":1615:1639   */\n      tag_109\n        /* \"#utility.yul\":1633:1638   */\n      dup2\n        /* \"#utility.yul\":1615:1639   */\n      tag_72\n      jump\t// in\n    tag_109:\n        /* \"#utility.yul\":1610:1613   */\n      dup3\n        /* \"#utility.yul\":1603:1640   */\n      mstore\n        /* \"#utility.yul\":1528:1646   */\n      pop\n      pop\n      jump\t// out\n        /* \"#utility.yul\":1652:1874   */\n    tag_20:\n        /* \"#utility.yul\":1745:1749   */\n      0x00\n        /* \"#utility.yul\":1783:1785   */\n      0x20\n        /* \"#utility.yul\":1772:1781   */\n      dup3\n        /* \"#utility.yul\":1768:1786   */\n      add\n        /* \"#utility.yul\":1760:1786   */\n      swap1\n      pop\n        /* \"#utility.yul\":1796:1867   */\n      tag_111\n        /* \"#utility.yul\":1864:1865   */\n      0x00\n        /* \"#utility.yul\":1853:1862   */\n      dup4\n        /* \"#utility.yul\":1849:1866   */\n      add\n        /* \"#utility.yul\":1840:1846   */\n      dup5\n        /* \"#utility.yul\":1796:1867   */\n      tag_73\n      jump\t// in\n    tag_111:\n        /* \"#utility.yul\":1652:1874   */\n      swap3\n      swap2\n      pop\n      pop\n      jump\t// out\n        /* \"#utility.yul\":1880:2002   */\n    tag_74:\n        /* \"#utility.yul\":1953:1977   */\n      tag_113\n        /* \"#utility.yul\":1971:1976   */\n      dup2\n        /* \"#utility.yul\":1953:1977   */\n      tag_72\n      jump\t// in\n    tag_113:\n        /* \"#utility.yul\":1946:1951   */\n      dup2\n        /* \"#utility.yul\":1943:1978   */\n      eq\n        /* \"#utility.yul\":1933:1996   */\n      tag_114\n      jumpi\n        /* \"#utility.yul\":1992:1993   */\n      0x00\n        /* \"#utility.yul\":1989:1990   */\n      dup1\n        /* \"#utility.yul\":1982:1994   */\n      revert\n        /* \"#utility.yul\":1933:1996   */\n    tag_114:\n        /* \"#utility.yul\":1880:2002   */\n      pop\n      jump\t// out\n        /* \"#utility.yul\":2008:2147   */\n    tag_75:\n        /* \"#utility.yul\":2054:2059   */\n      0x00\n        /* \"#utility.yul\":2092:2098   */\n      dup2\n        /* \"#utility.yul\":2079:2099   */\n      calldataload\n        /* \"#utility.yul\":2070:2099   */\n      swap1\n      pop\n        /* \"#utility.yul\":2108:2141   */\n      tag_116\n        /* \"#utility.yul\":2135:2140   */\n      dup2\n        /* \"#utility.yul\":2108:2141   */\n      tag_74\n      jump\t// in\n    tag_116:\n        /* \"#utility.yul\":2008:2147   */\n      swap3\n      swap2\n      pop\n      pop\n      jump\t// out\n        /* \"#utility.yul\":2153:2482   */\n    tag_23:\n        /* \"#utility.yul\":2212:2218   */\n      0x00\n        /* \"#utility.yul\":2261:2263   */\n      0x20\n        /* \"#utility.yul\":2249:2258   */\n      dup3\n        /* \"#utility.yul\":2240:2247   */\n      dup5\n        /* \"#utility.yul\":2236:2259   */\n      sub\n        /* \"#utility.yul\":2232:2264   */\n      slt\n        /* \"#utility.yul\":2229:2348   */\n      iszero\n      tag_118\n      jumpi\n        /* \"#utility.yul\":2267:2346   */\n      tag_119\n      tag_65\n      jump\t// in\n    tag_119:\n        /* \"#utility.yul\":2229:2348   */\n    tag_118:\n        /* \"#utility.yul\":2387:2388   */\n      0x00\n        /* \"#utility.yul\":2412:2465   */\n      tag_120\n        /* \"#utility.yul\":2457:2464   */\n      dup5\n        /* \"#utility.yul\":2448:2454   */\n      dup3\n        /* \"#utility.yul\":2437:2446   */\n      dup6\n        /* \"#utility.yul\":2433:2455   */\n      add\n        /* \"#utility.yul\":2412:2465   */\n      tag_75\n      jump\t// in\n    tag_120:\n        /* \"#utility.yul\":2402:2465   */\n      swap2\n      pop\n        /* \"#utility.yul\":2358:2475   */\n      pop\n        /* \"#utility.yul\":2153:2482   */\n      swap3\n      swap2\n      pop\n      pop\n      jump\t// out\n        /* \"#utility.yul\":2488:2587   */\n    tag_76:\n        /* \"#utility.yul\":2540:2546   */\n      0x00\n        /* \"#utility.yul\":2574:2579   */\n      dup2\n        /* \"#utility.yul\":2568:2580   */\n      mload\n        /* \"#utility.yul\":2558:2580   */\n      swap1\n      pop\n        /* \"#utility.yul\":2488:2587   */\n      swap2\n      swap1\n      pop\n      jump\t// out\n        /* \"#utility.yul\":2593:2762   */\n    tag_77:\n        /* \"#utility.yul\":2677:2688   */\n      0x00\n        /* \"#utility.yul\":2711:2717   */\n      dup3\n        /* \"#utility.yul\":2706:2709   */\n      dup3\n        /* \"#utility.yul\":2699:2718   */\n      mstore\n        /* \"#utility.yul\":2751:2755   */\n      0x20\n        /* \"#utility.yul\":2746:2749   */\n      dup3\n        /* \"#utility.yul\":2742:2756   */\n      add\n        /* \"#utility.yul\":2727:2756   */\n      swap1\n      pop\n        /* \"#utility.yul\":2593:2762   */\n      swap3\n      swap2\n      pop\n      pop\n      jump\t// out\n        /* \"#utility.yul\":2768:2907   */\n    tag_78:\n        /* \"#utility.yul\":2857:2863   */\n      dup3\n        /* \"#utility.yul\":2852:2855   */\n      dup2\n        /* \"#utility.yul\":2847:2850   */\n      dup4\n        /* \"#utility.yul\":2841:2864   */\n      mcopy\n        /* \"#utility.yul\":2898:2899   */\n      0x00\n        /* \"#utility.yul\":2889:2895   */\n      dup4\n        /* \"#utility.yul\":2884:2887   */\n      dup4\n        /* \"#utility.yul\":2880:2896   */\n      add\n        /* \"#utility.yul\":2873:2900   */\n      mstore\n        /* \"#utility.yul\":2768:2907   */\n      pop\n      pop\n      pop\n      jump\t// out\n        /* \"#utility.yul\":2913:3015   */\n    tag_79:\n        /* \"#utility.yul\":2954:2960   */\n      0x00\n        /* \"#utility.yul\":3005:3007   */\n      0x1f\n        /* \"#utility.yul\":3001:3008   */\n      not\n        /* \"#utility.yul\":2996:2998   */\n      0x1f\n        /* \"#utility.yul\":2989:2994   */\n      dup4\n        /* \"#utility.yul\":2985:2999   */\n      add\n        /* \"#utility.yul\":2981:3009   */\n      and\n        /* \"#utility.yul\":2971:3009   */\n      swap1\n      pop\n        /* \"#utility.yul\":2913:3015   */\n      swap2\n      swap1\n      pop\n      jump\t// out\n        /* \"#utility.yul\":3021:3398   */\n    tag_80:\n        /* \"#utility.yul\":3109:3112   */\n      0x00\n        /* \"#utility.yul\":3137:3176   */\n      tag_126\n        /* \"#utility.yul\":3170:3175   */\n      dup3\n        /* \"#utility.yul\":3137:3176   */\n      tag_76\n      jump\t// in\n    tag_126:\n        /* \"#utility.yul\":3192:3263   */\n      tag_127\n        /* \"#utility.yul\":3256:3262   */\n      dup2\n        /* \"#utility.yul\":3251:3254   */\n      dup6\n        /* \"#utility.yul\":3192:3263   */\n      tag_77\n      jump\t// in\n    tag_127:\n        /* \"#utility.yul\":3185:3263   */\n      swap4\n      pop\n        /* \"#utility.yul\":3272:3337   */\n      tag_128\n        /* \"#utility.yul\":3330:3336   */\n      dup2\n        /* \"#utility.yul\":3325:3328   */\n      dup6\n        /* \"#utility.yul\":3318:3322   */\n      0x20\n        /* \"#utility.yul\":3311:3316   */\n      dup7\n        /* \"#utility.yul\":3307:3323   */\n      add\n        /* \"#utility.yul\":3272:3337   */\n      tag_78\n      jump\t// in\n    tag_128:\n        /* \"#utility.yul\":3362:3391   */\n      tag_129\n        /* \"#utility.yul\":3384:3390   */\n      dup2\n        /* \"#utility.yul\":3362:3391   */\n      tag_79\n      jump\t// in\n    tag_129:\n        /* \"#utility.yul\":3357:3360   */\n      dup5\n        /* \"#utility.yul\":3353:3392   */\n      add\n        /* \"#utility.yul\":3346:3392   */\n      swap2\n      pop\n        /* \"#utility.yul\":3113:3398   */\n      pop\n        /* \"#utility.yul\":3021:3398   */\n      swap3\n      swap2\n      pop\n      pop\n      jump\t// out\n        /* \"#utility.yul\":3404:3827   */\n    tag_30:\n        /* \"#utility.yul\":3545:3549   */\n      0x00\n        /* \"#utility.yul\":3583:3585   */\n      0x40\n        /* \"#utility.yul\":3572:3581   */\n      dup3\n        /* \"#utility.yul\":3568:3586   */\n      add\n        /* \"#utility.yul\":3560:3586   */\n      swap1\n      pop\n        /* \"#utility.yul\":3632:3641   */\n      dup2\n        /* \"#utility.yul\":3626:3630   */\n      dup2\n        /* \"#utility.yul\":3622:3642   */\n      sub\n        /* \"#utility.yul\":3618:3619   */\n      0x00\n        /* \"#utility.yul\":3607:3616   */\n      dup4\n        /* \"#utility.yul\":3603:3620   */\n      add\n        /* \"#utility.yul\":3596:3643   */\n      mstore\n        /* \"#utility.yul\":3660:3738   */\n      tag_131\n        /* \"#utility.yul\":3733:3737   */\n      dup2\n        /* \"#utility.yul\":3724:3730   */\n      dup6\n        /* \"#utility.yul\":3660:3738   */\n      tag_80\n      jump\t// in\n    tag_131:\n        /* \"#utility.yul\":3652:3738   */\n      swap1\n      pop\n        /* \"#utility.yul\":3748:3820   */\n      tag_132\n        /* \"#utility.yul\":3816:3818   */\n      0x20\n        /* \"#utility.yul\":3805:3814   */\n      dup4\n        /* \"#utility.yul\":3801:3819   */\n      add\n        /* \"#utility.yul\":3792:3798   */\n      dup5\n        /* \"#utility.yul\":3748:3820   */\n      tag_73\n      jump\t// in\n    tag_132:\n        /* \"#utility.yul\":3404:3827   */\n      swap4\n      swap3\n      pop\n      pop\n      pop\n      jump\t// out\n        /* \"#utility.yul\":3833:4013   */\n    tag_81:\n        /* \"#utility.yul\":3881:3958   */\n      0x4e487b7100000000000000000000000000000000000000000000000000000000\n        /* \"#utility.yul\":3878:3879   */\n      0x00\n        /* \"#utility.yul\":3871:3959   */\n      mstore\n        /* \"#utility.yul\":3978:3982   */\n      0x21\n        /* \"#utility.yul\":3975:3976   */\n      0x04\n        /* \"#utility.yul\":3968:3983   */\n      mstore\n        /* \"#utility.yul\":4002:4006   */\n      0x24\n        /* \"#utility.yul\":3999:4000   */\n      0x00\n        /* \"#utility.yul\":3992:4007   */\n      revert\n        /* \"#utility.yul\":4019:4140   */\n    tag_82:\n        /* \"#utility.yul\":4108:4109   */\n      0x02\n        /* \"#utility.yul\":4101:4106   */\n      dup2\n        /* \"#utility.yul\":4098:4110   */\n      lt\n        /* \"#utility.yul\":4088:4134   */\n      tag_135\n      jumpi\n        /* \"#utility.yul\":4114:4132   */\n      tag_136\n      tag_81\n      jump\t// in\n    tag_136:\n        /* \"#utility.yul\":4088:4134   */\n    tag_135:\n        /* \"#utility.yul\":4019:4140   */\n      pop\n      jump\t// out\n        /* \"#utility.yul\":4146:4289   */\n    tag_83:\n        /* \"#utility.yul\":4199:4206   */\n      0x00\n        /* \"#utility.yul\":4228:4233   */\n      dup2\n        /* \"#utility.yul\":4217:4233   */\n      swap1\n      pop\n        /* \"#utility.yul\":4234:4283   */\n      tag_138\n        /* \"#utility.yul\":4277:4282   */\n      dup3\n        /* \"#utility.yul\":4234:4283   */\n      tag_82\n      jump\t// in\n    tag_138:\n        /* \"#utility.yul\":4146:4289   */\n      swap2\n      swap1\n      pop\n      jump\t// out\n        /* \"#utility.yul\":4295:4438   */\n    tag_84:\n        /* \"#utility.yul\":4359:4368   */\n      0x00\n        /* \"#utility.yul\":4392:4432   */\n      tag_140\n        /* \"#utility.yul\":4426:4431   */\n      dup3\n        /* \"#utility.yul\":4392:4432   */\n      tag_83\n      jump\t// in\n    tag_140:\n        /* \"#utility.yul\":4379:4432   */\n      swap1\n      pop\n        /* \"#utility.yul\":4295:4438   */\n      swap2\n      swap1\n      pop\n      jump\t// out\n        /* \"#utility.yul\":4444:4603   */\n    tag_85:\n        /* \"#utility.yul\":4545:4596   */\n      tag_142\n        /* \"#utility.yul\":4590:4595   */\n      dup2\n        /* \"#utility.yul\":4545:4596   */\n      tag_84\n      jump\t// in\n    tag_142:\n        /* \"#utility.yul\":4540:4543   */\n      dup3\n        /* \"#utility.yul\":4533:4597   */\n      mstore\n        /* \"#utility.yul\":4444:4603   */\n      pop\n      pop\n      jump\t// out\n        /* \"#utility.yul\":4609:4859   */\n    tag_40:\n        /* \"#utility.yul\":4716:4720   */\n      0x00\n        /* \"#utility.yul\":4754:4756   */\n      0x20\n        /* \"#utility.yul\":4743:4752   */\n      dup3\n        /* \"#utility.yul\":4739:4757   */\n      add\n        /* \"#utility.yul\":4731:4757   */\n      swap1\n      pop\n        /* \"#utility.yul\":4767:4852   */\n      tag_144\n        /* \"#utility.yul\":4849:4850   */\n      0x00\n        /* \"#utility.yul\":4838:4847   */\n      dup4\n        /* \"#utility.yul\":4834:4851   */\n      add\n        /* \"#utility.yul\":4825:4831   */\n      dup5\n        /* \"#utility.yul\":4767:4852   */\n      tag_85\n      jump\t// in\n    tag_144:\n        /* \"#utility.yul\":4609:4859   */\n      swap3\n      swap2\n      pop\n      pop\n      jump\t// out\n        /* \"#utility.yul\":4865:5045   */\n    tag_86:\n        /* \"#utility.yul\":4913:4990   */\n      0x4e487b7100000000000000000000000000000000000000000000000000000000\n        /* \"#utility.yul\":4910:4911   */\n      0x00\n        /* \"#utility.yul\":4903:4991   */\n      mstore\n        /* \"#utility.yul\":5010:5014   */\n      0x11\n        /* \"#utility.yul\":5007:5008   */\n      0x04\n        /* \"#utility.yul\":5000:5015   */\n      mstore\n        /* \"#utility.yul\":5034:5038   */\n      0x24\n        /* \"#utility.yul\":5031:5032   */\n      0x00\n        /* \"#utility.yul\":5024:5039   */\n      revert\n        /* \"#utility.yul\":5051:5242   */\n    tag_49:\n        /* \"#utility.yul\":5091:5094   */\n      0x00\n        /* \"#utility.yul\":5110:5130   */\n      tag_147\n        /* \"#utility.yul\":5128:5129   */\n      dup3\n        /* \"#utility.yul\":5110:5130   */\n      tag_72\n      jump\t// in\n    tag_147:\n        /* \"#utility.yul\":5105:5130   */\n      swap2\n      pop\n        /* \"#utility.yul\":5144:5164   */\n      tag_148\n        /* \"#utility.yul\":5162:5163   */\n      dup4\n        /* \"#utility.yul\":5144:5164   */\n      tag_72\n      jump\t// in\n    tag_148:\n        /* \"#utility.yul\":5139:5164   */\n      swap3\n      pop\n        /* \"#utility.yul\":5187:5188   */\n      dup3\n        /* \"#utility.yul\":5184:5185   */\n      dup3\n        /* \"#utility.yul\":5180:5189   */\n      add\n        /* \"#utility.yul\":5173:5189   */\n      swap1\n      pop\n        /* \"#utility.yul\":5208:5211   */\n      dup1\n        /* \"#utility.yul\":5205:5206   */\n      dup3\n        /* \"#utility.yul\":5202:5212   */\n      gt\n        /* \"#utility.yul\":5199:5235   */\n      iszero\n      tag_149\n      jumpi\n        /* \"#utility.yul\":5215:5233   */\n      tag_150\n      tag_86\n      jump\t// in\n    tag_150:\n        /* \"#utility.yul\":5199:5235   */\n    tag_149:\n        /* \"#utility.yul\":5051:5242   */\n      swap3\n      swap2\n      pop\n      pop\n      jump\t// out\n        /* \"#utility.yul\":5248:5481   */\n    tag_51:\n        /* \"#utility.yul\":5287:5290   */\n      0x00\n        /* \"#utility.yul\":5310:5334   */\n      tag_152\n        /* \"#utility.yul\":5328:5333   */\n      dup3\n        /* \"#utility.yul\":5310:5334   */\n      tag_72\n      jump\t// in\n    tag_152:\n        /* \"#utility.yul\":5301:5334   */\n      swap2\n      pop\n        /* \"#utility.yul\":5356:5422   */\n      0xffffffffffffffffffffffffffffffffffffffffffffffffffffffffffffffff\n        /* \"#utility.yul\":5349:5354   */\n      dup3\n        /* \"#utility.yul\":5346:5423   */\n      sub\n        /* \"#utility.yul\":5343:5446   */\n      tag_153\n      jumpi\n        /* \"#utility.yul\":5426:5444   */\n      tag_154\n      tag_86\n      jump\t// in\n    tag_154:\n        /* \"#utility.yul\":5343:5446   */\n    tag_153:\n        /* \"#utility.yul\":5473:5474   */\n      0x01\n        /* \"#utility.yul\":5466:5471   */\n      dup3\n        /* \"#utility.yul\":5462:5475   */\n      add\n        /* \"#utility.yul\":5455:5475   */\n      swap1\n      pop\n        /* \"#utility.yul\":5248:5481   */\n      swap2\n      swap1\n      pop\n      jump\t// out\n        /* \"#utility.yul\":5487:5667   */\n    tag_87:\n        /* \"#utility.yul\":5535:5612   */\n      0x4e487b7100000000000000000000000000000000000000000000000000000000\n        /* \"#utility.yul\":5532:5533   */\n      0x00\n        /* \"#utility.yul\":5525:5613   */\n      mstore\n        /* \"#utility.yul\":5632:5636   */\n      0x22\n        /* \"#utility.yul\":5629:5630   */\n      0x04\n        /* \"#utility.yul\":5622:5637   */\n      mstore\n        /* \"#utility.yul\":5656:5660   */\n      0x24\n        /* \"#utility.yul\":5653:5654   */\n      0x00\n        /* \"#utility.yul\":5646:5661   */\n      revert\n        /* \"#utility.yul\":5673:5993   */\n    tag_57:\n        /* \"#utility.yul\":5717:5723   */\n      0x00\n        /* \"#utility.yul\":5754:5755   */\n      0x02\n        /* \"#utility.yul\":5748:5752   */\n      dup3\n        /* \"#utility.yul\":5744:5756   */\n      div\n        /* \"#utility.yul\":5734:5756   */\n      swap1\n      pop\n        /* \"#utility.yul\":5801:5802   */\n      0x01\n        /* \"#utility.yul\":5795:5799   */\n      dup3\n        /* \"#utility.yul\":5791:5803   */\n      and\n        /* \"#utility.yul\":5822:5840   */\n      dup1\n        /* \"#utility.yul\":5812:5893   */\n      tag_157\n      jumpi\n        /* \"#utility.yul\":5878:5882   */\n      0x7f\n        /* \"#utility.yul\":5870:5876   */\n      dup3\n        /* \"#utility.yul\":5866:5883   */\n      and\n        /* \"#utility.yul\":5856:5883   */\n      swap2\n      pop\n        /* \"#utility.yul\":5812:5893   */\n    tag_157:\n        /* \"#utility.yul\":5940:5942   */\n      0x20\n        /* \"#utility.yul\":5932:5938   */\n      dup3\n        /* \"#utility.yul\":5929:5943   */\n      lt\n        /* \"#utility.yul\":5909:5927   */\n      dup2\n        /* \"#utility.yul\":5906:5944   */\n      sub\n        /* \"#utility.yul\":5903:5987   */\n      tag_158\n      jumpi\n        /* \"#utility.yul\":5959:5977   */\n      tag_159\n      tag_87\n      jump\t// in\n    tag_159:\n        /* \"#utility.yul\":5903:5987   */\n    tag_158:\n        /* \"#utility.yul\":5724:5993   */\n      pop\n        /* \"#utility.yul\":5673:5993   */\n      swap2\n      swap1\n      pop\n      jump\t// out\n\n    auxdata: 0xa26469706673582212209107eda3a321e7d74ae82dc322e443d93712250cde602714c4bc92deb8cbcee264736f6c634300081a0033\n}\n",
				"bytecode": {
					"linkReferences": {},
					"object": "6080604052348015600e575f80fd5b506106558061001c5f395ff3fe608060405234801561000f575f80fd5b506004361061007b575f3560e01c80639e7a13ad116100595780639e7a13ad146100fd578063a621d15e1461012e578063b63394181461014c578063c19d93fb146101685761007b565b80630664c4481461007f5780630cd2636e146100af57806329cd1d96146100cd575b5f80fd5b6100996004803603810190610094919061030d565b610186565b6040516100a69190610352565b60405180910390f35b6100b76101a2565b6040516100c49190610383565b60405180910390f35b6100e760048036038101906100e291906103c6565b6101de565b6040516100f49190610383565b60405180910390f35b610117600480360381019061011291906103c6565b6101fe565b604051610125929190610461565b60405180910390f35b6101366102b3565b6040516101439190610383565b60405180910390f35b610166600480360381019061016191906103c6565b6102bb565b005b6101706102c4565b60405161017d9190610502565b60405180910390f35b5f815f541315610199576001905061019d565b5f90505b919050565b5f805f90505f600190505b5f5481116101d65780826101c19190610548565b915080806101ce9061057b565b9150506101ad565b508091505090565b600181815481106101ed575f80fd5b905f5260205f20015f915090505481565b6002818154811061020d575f80fd5b905f5260205f2090600202015f91509050805f01805461022c906105ef565b80601f0160208091040260200160405190810160405280929190818152602001828054610258906105ef565b80156102a35780601f1061027a576101008083540402835291602001916102a3565b820191905f5260205f20905b81548152906001019060200180831161028657829003601f168201915b5050505050908060010154905082565b5f8054905090565b805f8190555050565b60035f9054906101000a900460ff1681565b5f80fd5b5f819050919050565b6102ec816102da565b81146102f6575f80fd5b50565b5f81359050610307816102e3565b92915050565b5f60208284031215610322576103216102d6565b5b5f61032f848285016102f9565b91505092915050565b5f8115159050919050565b61034c81610338565b82525050565b5f6020820190506103655f830184610343565b92915050565b5f819050919050565b61037d8161036b565b82525050565b5f6020820190506103965f830184610374565b92915050565b6103a58161036b565b81146103af575f80fd5b50565b5f813590506103c08161039c565b92915050565b5f602082840312156103db576103da6102d6565b5b5f6103e8848285016103b2565b91505092915050565b5f81519050919050565b5f82825260208201905092915050565b8281835e5f83830152505050565b5f601f19601f8301169050919050565b5f610433826103f1565b61043d81856103fb565b935061044d81856020860161040b565b61045681610419565b840191505092915050565b5f6040820190508181035f8301526104798185610429565b90506104886020830184610374565b9392505050565b7f4e487b71000000000000000000000000000000000000000000000000000000005f52602160045260245ffd5b600281106104cd576104cc61048f565b5b50565b5f8190506104dd826104bc565b919050565b5f6104ec826104d0565b9050919050565b6104fc816104e2565b82525050565b5f6020820190506105155f8301846104f3565b92915050565b7f4e487b71000000000000000000000000000000000000000000000000000000005f52601160045260245ffd5b5f6105528261036b565b915061055d8361036b565b92508282019050808211156105755761057461051b565b5b92915050565b5f6105858261036b565b91507fffffffffffffffffffffffffffffffffffffffffffffffffffffffffffffffff82036105b7576105b661051b565b5b600182019050919050565b7f4e487b71000000000000000000000000000000000000000000000000000000005f52602260045260245ffd5b5f600282049050600182168061060657607f821691505b602082108103610619576106186105c2565b5b5091905056fea26469706673582212209107eda3a321e7d74ae82dc322e443d93712250cde602714c4bc92deb8cbcee264736f6c634300081a0033",
					"opcodes": "PUSH1 0x80 PUSH1 0x40 MSTORE CALLVALUE DUP1 ISZERO PUSH1 0xE JUMPI PUSH0 DUP1 REVERT JUMPDEST POP PUSH2 0x655 DUP1 PUSH2 0x1C PUSH0 CODECOPY PUSH0 RETURN INVALID PUSH1 0x80 PUSH1 0x40 MSTORE CALLVALUE DUP1 ISZERO PUSH2 0xF JUMPI PUSH0 DUP1 REVERT JUMPDEST POP PUSH1 0x4 CALLDATASIZE LT PUSH2 0x7B JUMPI PUSH0 CALLDATALOAD PUSH1 0xE0 SHR DUP1 PUSH4 0x9E7A13AD GT PUSH2 0x59 JUMPI DUP1 PUSH4 0x9E7A13AD EQ PUSH2 0xFD JUMPI DUP1 PUSH4 0xA621D15E EQ PUSH2 0x12E JUMPI DUP1 PUSH4 0xB6339418 EQ PUSH2 0x14C JUMPI DUP1 PUSH4 0xC19D93FB EQ PUSH2 0x168 JUMPI PUSH2 0x7B JUMP JUMPDEST DUP1 PUSH4 0x664C448 EQ PUSH2 0x7F JUMPI DUP1 PUSH4 0xCD2636E EQ PUSH2 0xAF JUMPI DUP1 PUSH4 0x29CD1D96 EQ PUSH2 0xCD JUMPI JUMPDEST PUSH0 DUP1 REVERT JUMPDEST PUSH2 0x99 PUSH1 0x4 DUP1 CALLDATASIZE SUB DUP2 ADD SWAP1 PUSH2 0x94 SWAP2 SWAP1 PUSH2 0x30D JUMP JUMPDEST PUSH2 0x186 JUMP JUMPDEST PUSH1 0x40 MLOAD PUSH2 0xA6 SWAP2 SWAP1 PUSH2 0x352 JUMP JUMPDEST PUSH1 0x40 MLOAD DUP1 SWAP2 SUB SWAP1 RETURN JUMPDEST PUSH2 0xB7 PUSH2 0x1A2 JUMP JUMPDEST PUSH1 0x40 MLOAD PUSH2 0xC4 SWAP2 SWAP1 PUSH2 0x383 JUMP JUMPDEST PUSH1 0x40 MLOAD DUP1 SWAP2 SUB SWAP1 RETURN JUMPDEST PUSH2 0xE7 PUSH1 0x4 DUP1 CALLDATASIZE SUB DUP2 ADD SWAP1 PUSH2 0xE2 SWAP2 SWAP1 PUSH2 0x3C6 JUMP JUMPDEST PUSH2 0x1DE JUMP JUMPDEST PUSH1 0x40 MLOAD PUSH2 0xF4 SWAP2 SWAP1 PUSH2 0x383 JUMP JUMPDEST PUSH1 0x40 MLOAD DUP1 SWAP2 SUB SWAP1 RETURN JUMPDEST PUSH2 0x117 PUSH1 0x4 DUP1 CALLDATASIZE SUB DUP2 ADD SWAP1 PUSH2 0x112 SWAP2 SWAP1 PUSH2 0x3C6 JUMP JUMPDEST PUSH2 0x1FE JUMP JUMPDEST PUSH1 0x40 MLOAD PUSH2 0x125 SWAP3 SWAP2 SWAP1 PUSH2 0x461 JUMP JUMPDEST PUSH1 0x40 MLOAD DUP1 SWAP2 SUB SWAP1 RETURN JUMPDEST PUSH2 0x136 PUSH2 0x2B3 JUMP JUMPDEST PUSH1 0x40 MLOAD PUSH2 0x143 SWAP2 SWAP1 PUSH2 0x383 JUMP JUMPDEST PUSH1 0x40 MLOAD DUP1 SWAP2 SUB SWAP1 RETURN JUMPDEST PUSH2 0x166 PUSH1 0x4 DUP1 CALLDATASIZE SUB DUP2 ADD SWAP1 PUSH2 0x161 SWAP2 SWAP1 PUSH2 0x3C6 JUMP JUMPDEST PUSH2 0x2BB JUMP JUMPDEST STOP JUMPDEST PUSH2 0x170 PUSH2 0x2C4 JUMP JUMPDEST PUSH1 0x40 MLOAD PUSH2 0x17D SWAP2 SWAP1 PUSH2 0x502 JUMP JUMPDEST PUSH1 0x40 MLOAD DUP1 SWAP2 SUB SWAP1 RETURN JUMPDEST PUSH0 DUP2 PUSH0 SLOAD SGT ISZERO PUSH2 0x199 JUMPI PUSH1 0x1 SWAP1 POP PUSH2 0x19D JUMP JUMPDEST PUSH0 SWAP1 POP JUMPDEST SWAP2 SWAP1 POP JUMP JUMPDEST PUSH0 DUP1 PUSH0 SWAP1 POP PUSH0 PUSH1 0x1 SWAP1 POP JUMPDEST PUSH0 SLOAD DUP2 GT PUSH2 0x1D6 JUMPI DUP1 DUP3 PUSH2 0x1C1 SWAP2 SWAP1 PUSH2 0x548 JUMP JUMPDEST SWAP2 POP DUP1 DUP1 PUSH2 0x1CE SWAP1 PUSH2 0x57B JUMP JUMPDEST SWAP2 POP POP PUSH2 0x1AD JUMP JUMPDEST POP DUP1 SWAP2 POP POP SWAP1 JUMP JUMPDEST PUSH1 0x1 DUP2 DUP2 SLOAD DUP2 LT PUSH2 0x1ED JUMPI PUSH0 DUP1 REVERT JUMPDEST SWAP1 PUSH0 MSTORE PUSH1 0x20 PUSH0 KECCAK256 ADD PUSH0 SWAP2 POP SWAP1 POP SLOAD DUP2 JUMP JUMPDEST PUSH1 0x2 DUP2 DUP2 SLOAD DUP2 LT PUSH2 0x20D JUMPI PUSH0 DUP1 REVERT JUMPDEST SWAP1 PUSH0 MSTORE PUSH1 0x20 PUSH0 KECCAK256 SWAP1 PUSH1 0x2 MUL ADD PUSH0 SWAP2 POP SWAP1 POP DUP1 PUSH0 ADD DUP1 SLOAD PUSH2 0x22C SWAP1 PUSH2 0x5EF JUMP JUMPDEST DUP1 PUSH1 0x1F ADD PUSH1 0x20 DUP1 SWAP2 DIV MUL PUSH1 0x20 ADD PUSH1 0x40 MLOAD SWAP1 DUP2 ADD PUSH1 0x40 MSTORE DUP1 SWAP3 SWAP2 SWAP1 DUP2 DUP2 MSTORE PUSH1 0x20 ADD DUP3 DUP1 SLOAD PUSH2 0x258 SWAP1 PUSH2 0x5EF JUMP JUMPDEST DUP1 ISZERO PUSH2 0x2A3 JUMPI DUP1 PUSH1 0x1F LT PUSH2 0x27A JUMPI PUSH2 0x100 DUP1 DUP4 SLOAD DIV MUL DUP4 MSTORE SWAP2 PUSH1 0x20 ADD SWAP2 PUSH2 0x2A3 JUMP JUMPDEST DUP3 ADD SWAP2 SWAP1 PUSH0 MSTORE PUSH1 0x20 PUSH0 KECCAK256 SWAP1 JUMPDEST DUP2 SLOAD DUP2 MSTORE SWAP1 PUSH1 0x1 ADD SWAP1 PUSH1 0x20 ADD DUP1 DUP4 GT PUSH2 0x286 JUMPI DUP3 SWAP1 SUB PUSH1 0x1F AND DUP3 ADD SWAP2 JUMPDEST POP POP POP POP POP SWAP1 DUP1 PUSH1 0x1 ADD SLOAD SWAP1 POP DUP3 JUMP JUMPDEST PUSH0 DUP1 SLOAD SWAP1 POP SWAP1 JUMP JUMPDEST DUP1 PUSH0 DUP2 SWAP1 SSTORE POP POP JUMP JUMPDEST PUSH1 0x3 PUSH0 SWAP1 SLOAD SWAP1 PUSH2 0x100 EXP SWAP1 DIV PUSH1 0xFF AND DUP2 JUMP JUMPDEST PUSH0 DUP1 REVERT JUMPDEST PUSH0 DUP2 SWAP1 POP SWAP2 SWAP1 POP JUMP JUMPDEST PUSH2 0x2EC DUP2 PUSH2 0x2DA JUMP JUMPDEST DUP2 EQ PUSH2 0x2F6 JUMPI PUSH0 DUP1 REVERT JUMPDEST POP JUMP JUMPDEST PUSH0 DUP2 CALLDATALOAD SWAP1 POP PUSH2 0x307 DUP2 PUSH2 0x2E3 JUMP JUMPDEST SWAP3 SWAP2 POP POP JUMP JUMPDEST PUSH0 PUSH1 0x20 DUP3 DUP5 SUB SLT ISZERO PUSH2 0x322 JUMPI PUSH2 0x321 PUSH2 0x2D6 JUMP JUMPDEST JUMPDEST PUSH0 PUSH2 0x32F DUP5 DUP3 DUP6 ADD PUSH2 0x2F9 JUMP JUMPDEST SWAP2 POP POP SWAP3 SWAP2 POP POP JUMP JUMPDEST PUSH0 DUP2 ISZERO ISZERO SWAP1 POP SWAP2 SWAP1 POP JUMP JUMPDEST PUSH2 0x34C DUP2 PUSH2 0x338 JUMP JUMPDEST DUP3 MSTORE POP POP JUMP JUMPDEST PUSH0 PUSH1 0x20 DUP3 ADD SWAP1 POP PUSH2 0x365 PUSH0 DUP4 ADD DUP5 PUSH2 0x343 JUMP JUMPDEST SWAP3 SWAP2 POP POP JUMP JUMPDEST PUSH0 DUP2 SWAP1 POP SWAP2 SWAP1 POP JUMP JUMPDEST PUSH2 0x37D DUP2 PUSH2 0x36B JUMP JUMPDEST DUP3 MSTORE POP POP JUMP JUMPDEST PUSH0 PUSH1 0x20 DUP3 ADD SWAP1 POP PUSH2 0x396 PUSH0 DUP4 ADD DUP5 PUSH2 0x374 JUMP JUMPDEST SWAP3 SWAP2 POP POP JUMP JUMPDEST PUSH2 0x3A5 DUP2 PUSH2 0x36B JUMP JUMPDEST DUP2 EQ PUSH2 0x3AF JUMPI PUSH0 DUP1 REVERT JUMPDEST POP JUMP JUMPDEST PUSH0 DUP2 CALLDATALOAD SWAP1 POP PUSH2 0x3C0 DUP2 PUSH2 0x39C JUMP JUMPDEST SWAP3 SWAP2 POP POP JUMP JUMPDEST PUSH0 PUSH1 0x20 DUP3 DUP5 SUB SLT ISZERO PUSH2 0x3DB JUMPI PUSH2 0x3DA PUSH2 0x2D6 JUMP JUMPDEST JUMPDEST PUSH0 PUSH2 0x3E8 DUP5 DUP3 DUP6 ADD PUSH2 0x3B2 JUMP JUMPDEST SWAP2 POP POP SWAP3 SWAP2 POP POP JUMP JUMPDEST PUSH0 DUP2 MLOAD SWAP1 POP SWAP2 SWAP1 POP JUMP JUMPDEST PUSH0 DUP3 DUP3 MSTORE PUSH1 0x20 DUP3 ADD SWAP1 POP SWAP3 SWAP2 POP POP JUMP JUMPDEST DUP3 DUP2 DUP4 MCOPY PUSH0 DUP4 DUP4 ADD MSTORE POP POP POP JUMP JUMPDEST PUSH0 PUSH1 0x1F NOT PUSH1 0x1F DUP4 ADD AND SWAP1 POP SWAP2 SWAP1 POP JUMP JUMPDEST PUSH0 PUSH2 0x433 DUP3 PUSH2 0x3F1 JUMP JUMPDEST PUSH2 0x43D DUP2 DUP6 PUSH2 0x3FB JUMP JUMPDEST SWAP4 POP PUSH2 0x44D DUP2 DUP6 PUSH1 0x20 DUP7 ADD PUSH2 0x40B JUMP JUMPDEST PUSH2 0x456 DUP2 PUSH2 0x419 JUMP JUMPDEST DUP5 ADD SWAP2 POP POP SWAP3 SWAP2 POP POP JUMP JUMPDEST PUSH0 PUSH1 0x40 DUP3 ADD SWAP1 POP DUP2 DUP2 SUB PUSH0 DUP4 ADD MSTORE PUSH2 0x479 DUP2 DUP6 PUSH2 0x429 JUMP JUMPDEST SWAP1 POP PUSH2 0x488 PUSH1 0x20 DUP4 ADD DUP5 PUSH2 0x374 JUMP JUMPDEST SWAP4 SWAP3 POP POP POP JUMP JUMPDEST PUSH32 0x4E487B7100000000000000000000000000000000000000000000000000000000 PUSH0 MSTORE PUSH1 0x21 PUSH1 0x4 MSTORE PUSH1 0x24 PUSH0 REVERT JUMPDEST PUSH1 0x2 DUP2 LT PUSH2 0x4CD JUMPI PUSH2 0x4CC PUSH2 0x48F JUMP JUMPDEST JUMPDEST POP JUMP JUMPDEST PUSH0 DUP2 SWAP1 POP PUSH2 0x4DD DUP3 PUSH2 0x4BC JUMP JUMPDEST SWAP2 SWAP1 POP JUMP JUMPDEST PUSH0 PUSH2 0x4EC DUP3 PUSH2 0x4D0 JUMP JUMPDEST SWAP1 POP SWAP2 SWAP1 POP JUMP JUMPDEST PUSH2 0x4FC DUP2 PUSH2 0x4E2 JUMP JUMPDEST DUP3 MSTORE POP POP JUMP JUMPDEST PUSH0 PUSH1 0x20 DUP3 ADD SWAP1 POP PUSH2 0x515 PUSH0 DUP4 ADD DUP5 PUSH2 0x4F3 JUMP JUMPDEST SWAP3 SWAP2 POP POP JUMP JUMPDEST PUSH32 0x4E487B7100000000000000000000000000000000000000000000000000000000 PUSH0 MSTORE PUSH1 0x11 PUSH1 0x4 MSTORE PUSH1 0x24 PUSH0 REVERT JUMPDEST PUSH0 PUSH2 0x552 DUP3 PUSH2 0x36B JUMP JUMPDEST SWAP2 POP PUSH2 0x55D DUP4 PUSH2 0x36B JUMP JUMPDEST SWAP3 POP DUP3 DUP3 ADD SWAP1 POP DUP1 DUP3 GT ISZERO PUSH2 0x575 JUMPI PUSH2 0x574 PUSH2 0x51B JUMP JUMPDEST JUMPDEST SWAP3 SWAP2 POP POP JUMP JUMPDEST PUSH0 PUSH2 0x585 DUP3 PUSH2 0x36B JUMP JUMPDEST SWAP2 POP PUSH32 0xFFFFFFFFFFFFFFFFFFFFFFFFFFFFFFFFFFFFFFFFFFFFFFFFFFFFFFFFFFFFFFFF DUP3 SUB PUSH2 0x5B7 JUMPI PUSH2 0x5B6 PUSH2 0x51B JUMP JUMPDEST JUMPDEST PUSH1 0x1 DUP3 ADD SWAP1 POP SWAP2 SWAP1 POP JUMP JUMPDEST PUSH32 0x4E487B7100000000000000000000000000000000000000000000000000000000 PUSH0 MSTORE PUSH1 0x22 PUSH1 0x4 MSTORE PUSH1 0x24 PUSH0 REVERT JUMPDEST PUSH0 PUSH1 0x2 DUP3 DIV SWAP1 POP PUSH1 0x1 DUP3 AND DUP1 PUSH2 0x606 JUMPI PUSH1 0x7F DUP3 AND SWAP2 POP JUMPDEST PUSH1 0x20 DUP3 LT DUP2 SUB PUSH2 0x619 JUMPI PUSH2 0x618 PUSH2 0x5C2 JUMP JUMPDEST JUMPDEST POP SWAP2 SWAP1 POP JUMP INVALID LOG2 PUSH5 0x6970667358 0x22 SLT KECCAK256 SWAP2 SMOD 0xED LOG3 LOG3 0x21 0xE7 0xD7 BLOBBASEFEE 0xE8 0x2D 0xC3 0x22 0xE4 NUMBER 0xD9 CALLDATACOPY SLT 0x25 0xC 0xDE PUSH1 0x27 EQ 0xC4 0xBC SWAP3 0xDE 0xB8 0xCB 0xCE 0xE2 PUSH5 0x736F6C6343 STOP ADDMOD BYTE STOP CALLER "
				},
				"gasEstimates": {
					"creation": {
						"codeDepositCost": "324200",
						"executionCost": "360",
						"totalCost": "324560"
					},
					"external": {
						"favoriteNumbers(uint256)": "infinite",
						"getFavoriteNumber()": "2454",
						"isGreatherThan(int256)": "2736",
						"people(uint256)": "infinite",
						"state()": "2620",
						"storeNumber(uint256)": "22558",
						"sumToFavoriteNumber()": "infinite"
					}
				},
				"methodIdentifiers": {
					"favoriteNumbers(uint256)": "29cd1d96",
					"getFavoriteNumber()": "a621d15e",
					"isGreatherThan(int256)": "0664c448",
					"people(uint256)": "9e7a13ad",
					"state()": "c19d93fb",
					"storeNumber(uint256)": "b6339418",
					"sumToFavoriteNumber()": "0cd2636e"
				}
			},
			"storageLayout": {
				"storage": [
					{
						"astId": 3,
						"contract": "SimpleStorage.sol:SimpleStorage",
						"label": "favoriteNumber",
						"offset": 0,
						"slot": "0",
						"type": "t_uint256"
					},
					{
						"astId": 6,
						"contract": "SimpleStorage.sol:SimpleStorage",
						"label": "favoriteNumbers",
						"offset": 0,
						"slot": "1",
						"type": "t_array(t_uint256)dyn_storage"
					},
					{
						"astId": 15,
						"contract": "SimpleStorage.sol:SimpleStorage",
						"label": "people",
						"offset": 0,
						"slot": "2",
						"type": "t_array(t_struct(Person)11_storage)dyn_storage"
					},
					{
						"astId": 21,
						"contract": "SimpleStorage.sol:SimpleStorage",
						"label": "state",
						"offset": 0,
						"slot": "3",
						"type": "t_enum(ContractState)18"
					}
				],
				"types": {
					"t_array(t_struct(Person)11_storage)dyn_storage": {
						"base": "t_struct(Person)11_storage",
						"encoding": "dynamic_array",
						"label": "struct SimpleStorage.Person[]",
						"numberOfBytes": "32"
					},
					"t_array(t_uint256)dyn_storage": {
						"base": "t_uint256",
						"encoding": "dynamic_array",
						"label": "uint256[]",
						"numberOfBytes": "32"
					},
					"t_enum(ContractState)18": {
						"encoding": "inplace",
						"label": "enum SimpleStorage.ContractState",
						"numberOfBytes": "1"
					},
					"t_string_storage": {
						"encoding": "bytes",
						"label": "string",
						"numberOfBytes": "32"
					},
					"t_struct(Person)11_storage": {
						"encoding": "inplace",
						"label": "struct SimpleStorage.Person",
						"members": [
							{
								"astId": 8,
								"contract": "SimpleStorage.sol:SimpleStorage",
								"label": "name",
								"offset": 0,
								"slot": "0",
								"type": "t_string_storage"
							},
							{
								"astId": 10,
								"contract": "SimpleStorage.sol:SimpleStorage",
								"label": "favoriteNumber",
								"offset": 0,
								"slot": "1",
								"type": "t_uint256"
							}
						],
						"numberOfBytes": "64"
					},
					"t_uint256": {
						"encoding": "inplace",
						"label": "uint256",
						"numberOfBytes": "32"
					}
				}
			},
			"userdoc": {
				"kind": "user",
				"methods": {},
				"version": 1
			}
		}
	}
}