{
	"SimpleStorage.sol": {
		"SimpleStorage": {
			"abi": [
				{
					"anonymous": false,
					"inputs": [
						{
							"indexed": false,
							"internalType": "uint256",
							"name": "newNumber",
							"type": "uint256"
						}
					],
					"name": "NumberUpdated",
					"type": "event"
				},
				{
					"inputs": [],
					"name": "activateContract",
					"outputs": [],
					"stateMutability": "nonpayable",
					"type": "function"
				},
				{
					"inputs": [
						{
							"internalType": "uint256",
							"name": "userFavoriteNumber",
							"type": "uint256"
						}
					],
					"name": "addFavoriteNumber",
					"outputs": [],
					"stateMutability": "nonpayable",
					"type": "function"
				},
				{
					"inputs": [
						{
							"internalType": "string",
							"name": "_name",
							"type": "string"
						},
						{
							"internalType": "uint256",
							"name": "_favoriteNumber",
							"type": "uint256"
						}
					],
					"name": "addPerson",
					"outputs": [],
					"stateMutability": "nonpayable",
					"type": "function"
				},
				{
					"inputs": [],
					"name": "deactivateContract",
					"outputs": [],
					"stateMutability": "nonpayable",
					"type": "function"
				},
				{
					"inputs": [],
					"name": "externalFunction",
					"outputs": [
						{
							"internalType": "string",
							"name": "",
							"type": "string"
						}
					],
					"stateMutability": "pure",
					"type": "function"
				},
				{
					"inputs": [
						{
							"internalType": "uint256",
							"name": "",
							"type": "uint256"
						}
					],
					"name": "favoriteNumbers",
					"outputs": [
						{
							"internalType": "uint256",
							"name": "",
							"type": "uint256"
						}
					],
					"stateMutability": "view",
					"type": "function"
				},
				{
					"inputs": [],
					"name": "getFavoriteNumber",
					"outputs": [
						{
							"internalType": "uint256",
							"name": "",
							"type": "uint256"
						}
					],
					"stateMutability": "view",
					"type": "function"
				},
				{
					"inputs": [],
					"name": "isActive",
					"outputs": [
						{
							"internalType": "bool",
							"name": "",
							"type": "bool"
						}
					],
					"stateMutability": "view",
					"type": "function"
				},
				{
					"inputs": [
						{
							"internalType": "int256",
							"name": "userInputValue",
							"type": "int256"
						}
					],
					"name": "isGreatherThan",
					"outputs": [
						{
							"internalType": "bool",
							"name": "",
							"type": "bool"
						}
					],
					"stateMutability": "view",
					"type": "function"
				},
				{
					"inputs": [
						{
							"internalType": "string",
							"name": "",
							"type": "string"
						}
					],
					"name": "nameToFavoriteNumber",
					"outputs": [
						{
							"internalType": "uint256",
							"name": "",
							"type": "uint256"
						}
					],
					"stateMutability": "view",
					"type": "function"
				},
				{
					"inputs": [
						{
							"internalType": "uint256",
							"name": "",
							"type": "uint256"
						}
					],
					"name": "people",
					"outputs": [
						{
							"internalType": "string",
							"name": "name",
							"type": "string"
						},
						{
							"internalType": "uint256",
							"name": "favoriteNumber",
							"type": "uint256"
						}
					],
					"stateMutability": "view",
					"type": "function"
				},
				{
					"inputs": [],
					"name": "state",
					"outputs": [
						{
							"internalType": "enum SimpleStorage.ContractState",
							"name": "",
							"type": "uint8"
						}
					],
					"stateMutability": "view",
					"type": "function"
				},
				{
					"inputs": [
						{
							"internalType": "uint256",
							"name": "number",
							"type": "uint256"
						}
					],
					"name": "storeNumber",
					"outputs": [],
					"stateMutability": "nonpayable",
					"type": "function"
				},
				{
					"inputs": [],
					"name": "sumToFavoriteNumber",
					"outputs": [
						{
							"internalType": "uint256",
							"name": "",
							"type": "uint256"
						}
					],
					"stateMutability": "view",
					"type": "function"
				},
				{
					"inputs": [],
					"name": "testExternalFunction",
					"outputs": [
						{
							"internalType": "string",
							"name": "",
							"type": "string"
						}
					],
					"stateMutability": "view",
					"type": "function"
				}
			],
			"devdoc": {
				"kind": "dev",
				"methods": {},
				"version": 1
			},
			"evm": {
				"assembly": "    /* \"SimpleStorage.sol\":117:3233  contract SimpleStorage {... */\n  mstore(0x40, 0x80)\n    /* \"SimpleStorage.sol\":1780:1836  string internal AnInternalVariable = \"Holds some string\" */\n  mload(0x40)\n  dup1\n  0x40\n  add\n  0x40\n  mstore\n  dup1\n  0x11\n  dup2\n  mstore\n  0x20\n  add\n  0x486f6c647320736f6d6520737472696e67000000000000000000000000000000\n  dup2\n  mstore\n  pop\n  0x05\n  swap1\n  dup2\n  tag_1\n  swap2\n  swap1\n  tag_2\n  jump\t// in\ntag_1:\n  pop\n    /* \"SimpleStorage.sol\":117:3233  contract SimpleStorage {... */\n  callvalue\n  dup1\n  iszero\n  tag_3\n  jumpi\n  0x00\n  dup1\n  revert\ntag_3:\n  pop\n  jump(tag_4)\n    /* \"#utility.yul\":7:106   */\ntag_5:\n    /* \"#utility.yul\":59:65   */\n  0x00\n    /* \"#utility.yul\":93:98   */\n  dup2\n    /* \"#utility.yul\":87:99   */\n  mload\n    /* \"#utility.yul\":77:99   */\n  swap1\n  pop\n    /* \"#utility.yul\":7:106   */\n  swap2\n  swap1\n  pop\n  jump\t// out\n    /* \"#utility.yul\":112:292   */\ntag_6:\n    /* \"#utility.yul\":160:237   */\n  0x4e487b7100000000000000000000000000000000000000000000000000000000\n    /* \"#utility.yul\":157:158   */\n  0x00\n    /* \"#utility.yul\":150:238   */\n  mstore\n    /* \"#utility.yul\":257:261   */\n  0x41\n    /* \"#utility.yul\":254:255   */\n  0x04\n    /* \"#utility.yul\":247:262   */\n  mstore\n    /* \"#utility.yul\":281:285   */\n  0x24\n    /* \"#utility.yul\":278:279   */\n  0x00\n    /* \"#utility.yul\":271:286   */\n  revert\n    /* \"#utility.yul\":298:478   */\ntag_7:\n    /* \"#utility.yul\":346:423   */\n  0x4e487b7100000000000000000000000000000000000000000000000000000000\n    /* \"#utility.yul\":343:344   */\n  0x00\n    /* \"#utility.yul\":336:424   */\n  mstore\n    /* \"#utility.yul\":443:447   */\n  0x22\n    /* \"#utility.yul\":440:441   */\n  0x04\n    /* \"#utility.yul\":433:448   */\n  mstore\n    /* \"#utility.yul\":467:471   */\n  0x24\n    /* \"#utility.yul\":464:465   */\n  0x00\n    /* \"#utility.yul\":457:472   */\n  revert\n    /* \"#utility.yul\":484:804   */\ntag_8:\n    /* \"#utility.yul\":528:534   */\n  0x00\n    /* \"#utility.yul\":565:566   */\n  0x02\n    /* \"#utility.yul\":559:563   */\n  dup3\n    /* \"#utility.yul\":555:567   */\n  div\n    /* \"#utility.yul\":545:567   */\n  swap1\n  pop\n    /* \"#utility.yul\":612:613   */\n  0x01\n    /* \"#utility.yul\":606:610   */\n  dup3\n    /* \"#utility.yul\":602:614   */\n  and\n    /* \"#utility.yul\":633:651   */\n  dup1\n    /* \"#utility.yul\":623:704   */\n  tag_30\n  jumpi\n    /* \"#utility.yul\":689:693   */\n  0x7f\n    /* \"#utility.yul\":681:687   */\n  dup3\n    /* \"#utility.yul\":677:694   */\n  and\n    /* \"#utility.yul\":667:694   */\n  swap2\n  pop\n    /* \"#utility.yul\":623:704   */\ntag_30:\n    /* \"#utility.yul\":751:753   */\n  0x20\n    /* \"#utility.yul\":743:749   */\n  dup3\n    /* \"#utility.yul\":740:754   */\n  lt\n    /* \"#utility.yul\":720:738   */\n  dup2\n    /* \"#utility.yul\":717:755   */\n  sub\n    /* \"#utility.yul\":714:798   */\n  tag_31\n  jumpi\n    /* \"#utility.yul\":770:788   */\n  tag_32\n  tag_7\n  jump\t// in\ntag_32:\n    /* \"#utility.yul\":714:798   */\ntag_31:\n    /* \"#utility.yul\":535:804   */\n  pop\n    /* \"#utility.yul\":484:804   */\n  swap2\n  swap1\n  pop\n  jump\t// out\n    /* \"#utility.yul\":810:951   */\ntag_9:\n    /* \"#utility.yul\":859:863   */\n  0x00\n    /* \"#utility.yul\":882:885   */\n  dup2\n    /* \"#utility.yul\":874:885   */\n  swap1\n  pop\n    /* \"#utility.yul\":905:908   */\n  dup2\n    /* \"#utility.yul\":902:903   */\n  0x00\n    /* \"#utility.yul\":895:909   */\n  mstore\n    /* \"#utility.yul\":939:943   */\n  0x20\n    /* \"#utility.yul\":936:937   */\n  0x00\n    /* \"#utility.yul\":926:944   */\n  keccak256\n    /* \"#utility.yul\":918:944   */\n  swap1\n  pop\n    /* \"#utility.yul\":810:951   */\n  swap2\n  swap1\n  pop\n  jump\t// out\n    /* \"#utility.yul\":957:1050   */\ntag_10:\n    /* \"#utility.yul\":994:1000   */\n  0x00\n    /* \"#utility.yul\":1041:1043   */\n  0x20\n    /* \"#utility.yul\":1036:1038   */\n  0x1f\n    /* \"#utility.yul\":1029:1034   */\n  dup4\n    /* \"#utility.yul\":1025:1039   */\n  add\n    /* \"#utility.yul\":1021:1044   */\n  div\n    /* \"#utility.yul\":1011:1044   */\n  swap1\n  pop\n    /* \"#utility.yul\":957:1050   */\n  swap2\n  swap1\n  pop\n  jump\t// out\n    /* \"#utility.yul\":1056:1163   */\ntag_11:\n    /* \"#utility.yul\":1100:1108   */\n  0x00\n    /* \"#utility.yul\":1150:1155   */\n  dup3\n    /* \"#utility.yul\":1144:1148   */\n  dup3\n    /* \"#utility.yul\":1140:1156   */\n  shl\n    /* \"#utility.yul\":1119:1156   */\n  swap1\n  pop\n    /* \"#utility.yul\":1056:1163   */\n  swap3\n  swap2\n  pop\n  pop\n  jump\t// out\n    /* \"#utility.yul\":1169:1562   */\ntag_12:\n    /* \"#utility.yul\":1238:1244   */\n  0x00\n    /* \"#utility.yul\":1288:1289   */\n  0x08\n    /* \"#utility.yul\":1276:1286   */\n  dup4\n    /* \"#utility.yul\":1272:1290   */\n  mul\n    /* \"#utility.yul\":1311:1408   */\n  tag_37\n    /* \"#utility.yul\":1341:1407   */\n  0xffffffffffffffffffffffffffffffffffffffffffffffffffffffffffffffff\n    /* \"#utility.yul\":1330:1339   */\n  dup3\n    /* \"#utility.yul\":1311:1408   */\n  tag_11\n  jump\t// in\ntag_37:\n    /* \"#utility.yul\":1429:1468   */\n  tag_38\n    /* \"#utility.yul\":1459:1467   */\n  dup7\n    /* \"#utility.yul\":1448:1457   */\n  dup4\n    /* \"#utility.yul\":1429:1468   */\n  tag_11\n  jump\t// in\ntag_38:\n    /* \"#utility.yul\":1417:1468   */\n  swap6\n  pop\n    /* \"#utility.yul\":1501:1505   */\n  dup1\n    /* \"#utility.yul\":1497:1506   */\n  not\n    /* \"#utility.yul\":1490:1495   */\n  dup5\n    /* \"#utility.yul\":1486:1507   */\n  and\n    /* \"#utility.yul\":1477:1507   */\n  swap4\n  pop\n    /* \"#utility.yul\":1550:1554   */\n  dup1\n    /* \"#utility.yul\":1540:1548   */\n  dup7\n    /* \"#utility.yul\":1536:1555   */\n  and\n    /* \"#utility.yul\":1529:1534   */\n  dup5\n    /* \"#utility.yul\":1526:1556   */\n  or\n    /* \"#utility.yul\":1516:1556   */\n  swap3\n  pop\n    /* \"#utility.yul\":1245:1562   */\n  pop\n  pop\n    /* \"#utility.yul\":1169:1562   */\n  swap4\n  swap3\n  pop\n  pop\n  pop\n  jump\t// out\n    /* \"#utility.yul\":1568:1645   */\ntag_13:\n    /* \"#utility.yul\":1605:1612   */\n  0x00\n    /* \"#utility.yul\":1634:1639   */\n  dup2\n    /* \"#utility.yul\":1623:1639   */\n  swap1\n  pop\n    /* \"#utility.yul\":1568:1645   */\n  swap2\n  swap1\n  pop\n  jump\t// out\n    /* \"#utility.yul\":1651:1711   */\ntag_14:\n    /* \"#utility.yul\":1679:1682   */\n  0x00\n    /* \"#utility.yul\":1700:1705   */\n  dup2\n    /* \"#utility.yul\":1693:1705   */\n  swap1\n  pop\n    /* \"#utility.yul\":1651:1711   */\n  swap2\n  swap1\n  pop\n  jump\t// out\n    /* \"#utility.yul\":1717:1859   */\ntag_15:\n    /* \"#utility.yul\":1767:1776   */\n  0x00\n    /* \"#utility.yul\":1800:1853   */\n  tag_42\n    /* \"#utility.yul\":1818:1852   */\n  tag_43\n    /* \"#utility.yul\":1827:1851   */\n  tag_44\n    /* \"#utility.yul\":1845:1850   */\n  dup5\n    /* \"#utility.yul\":1827:1851   */\n  tag_13\n  jump\t// in\ntag_44:\n    /* \"#utility.yul\":1818:1852   */\n  tag_14\n  jump\t// in\ntag_43:\n    /* \"#utility.yul\":1800:1853   */\n  tag_13\n  jump\t// in\ntag_42:\n    /* \"#utility.yul\":1787:1853   */\n  swap1\n  pop\n    /* \"#utility.yul\":1717:1859   */\n  swap2\n  swap1\n  pop\n  jump\t// out\n    /* \"#utility.yul\":1865:1940   */\ntag_16:\n    /* \"#utility.yul\":1908:1911   */\n  0x00\n    /* \"#utility.yul\":1929:1934   */\n  dup2\n    /* \"#utility.yul\":1922:1934   */\n  swap1\n  pop\n    /* \"#utility.yul\":1865:1940   */\n  swap2\n  swap1\n  pop\n  jump\t// out\n    /* \"#utility.yul\":1946:2215   */\ntag_17:\n    /* \"#utility.yul\":2056:2095   */\n  tag_47\n    /* \"#utility.yul\":2087:2094   */\n  dup4\n    /* \"#utility.yul\":2056:2095   */\n  tag_15\n  jump\t// in\ntag_47:\n    /* \"#utility.yul\":2117:2208   */\n  tag_48\n    /* \"#utility.yul\":2166:2207   */\n  tag_49\n    /* \"#utility.yul\":2190:2206   */\n  dup3\n    /* \"#utility.yul\":2166:2207   */\n  tag_16\n  jump\t// in\ntag_49:\n    /* \"#utility.yul\":2158:2164   */\n  dup5\n    /* \"#utility.yul\":2151:2155   */\n  dup5\n    /* \"#utility.yul\":2145:2156   */\n  sload\n    /* \"#utility.yul\":2117:2208   */\n  tag_12\n  jump\t// in\ntag_48:\n    /* \"#utility.yul\":2111:2115   */\n  dup3\n    /* \"#utility.yul\":2104:2209   */\n  sstore\n    /* \"#utility.yul\":2022:2215   */\n  pop\n    /* \"#utility.yul\":1946:2215   */\n  pop\n  pop\n  pop\n  jump\t// out\n    /* \"#utility.yul\":2221:2294   */\ntag_18:\n    /* \"#utility.yul\":2266:2269   */\n  0x00\n    /* \"#utility.yul\":2221:2294   */\n  swap1\n  jump\t// out\n    /* \"#utility.yul\":2300:2489   */\ntag_19:\n    /* \"#utility.yul\":2377:2409   */\n  tag_52\n  tag_18\n  jump\t// in\ntag_52:\n    /* \"#utility.yul\":2418:2483   */\n  tag_53\n    /* \"#utility.yul\":2476:2482   */\n  dup2\n    /* \"#utility.yul\":2468:2474   */\n  dup5\n    /* \"#utility.yul\":2462:2466   */\n  dup5\n    /* \"#utility.yul\":2418:2483   */\n  tag_17\n  jump\t// in\ntag_53:\n    /* \"#utility.yul\":2353:2489   */\n  pop\n    /* \"#utility.yul\":2300:2489   */\n  pop\n  pop\n  jump\t// out\n    /* \"#utility.yul\":2495:2681   */\ntag_20:\n    /* \"#utility.yul\":2555:2675   */\ntag_55:\n    /* \"#utility.yul\":2572:2575   */\n  dup2\n    /* \"#utility.yul\":2565:2570   */\n  dup2\n    /* \"#utility.yul\":2562:2576   */\n  lt\n    /* \"#utility.yul\":2555:2675   */\n  iszero\n  tag_57\n  jumpi\n    /* \"#utility.yul\":2626:2665   */\n  tag_58\n    /* \"#utility.yul\":2663:2664   */\n  0x00\n    /* \"#utility.yul\":2656:2661   */\n  dup3\n    /* \"#utility.yul\":2626:2665   */\n  tag_19\n  jump\t// in\ntag_58:\n    /* \"#utility.yul\":2599:2600   */\n  0x01\n    /* \"#utility.yul\":2592:2597   */\n  dup2\n    /* \"#utility.yul\":2588:2601   */\n  add\n    /* \"#utility.yul\":2579:2601   */\n  swap1\n  pop\n    /* \"#utility.yul\":2555:2675   */\n  jump(tag_55)\ntag_57:\n    /* \"#utility.yul\":2495:2681   */\n  pop\n  pop\n  jump\t// out\n    /* \"#utility.yul\":2687:3230   */\ntag_21:\n    /* \"#utility.yul\":2788:2790   */\n  0x1f\n    /* \"#utility.yul\":2783:2786   */\n  dup3\n    /* \"#utility.yul\":2780:2791   */\n  gt\n    /* \"#utility.yul\":2777:3223   */\n  iszero\n  tag_60\n  jumpi\n    /* \"#utility.yul\":2822:2860   */\n  tag_61\n    /* \"#utility.yul\":2854:2859   */\n  dup2\n    /* \"#utility.yul\":2822:2860   */\n  tag_9\n  jump\t// in\ntag_61:\n    /* \"#utility.yul\":2906:2935   */\n  tag_62\n    /* \"#utility.yul\":2924:2934   */\n  dup5\n    /* \"#utility.yul\":2906:2935   */\n  tag_10\n  jump\t// in\ntag_62:\n    /* \"#utility.yul\":2896:2904   */\n  dup2\n    /* \"#utility.yul\":2892:2936   */\n  add\n    /* \"#utility.yul\":3089:3091   */\n  0x20\n    /* \"#utility.yul\":3077:3087   */\n  dup6\n    /* \"#utility.yul\":3074:3092   */\n  lt\n    /* \"#utility.yul\":3071:3120   */\n  iszero\n  tag_63\n  jumpi\n    /* \"#utility.yul\":3110:3118   */\n  dup2\n    /* \"#utility.yul\":3095:3118   */\n  swap1\n  pop\n    /* \"#utility.yul\":3071:3120   */\ntag_63:\n    /* \"#utility.yul\":3133:3213   */\n  tag_64\n    /* \"#utility.yul\":3189:3211   */\n  tag_65\n    /* \"#utility.yul\":3207:3210   */\n  dup6\n    /* \"#utility.yul\":3189:3211   */\n  tag_10\n  jump\t// in\ntag_65:\n    /* \"#utility.yul\":3179:3187   */\n  dup4\n    /* \"#utility.yul\":3175:3212   */\n  add\n    /* \"#utility.yul\":3162:3173   */\n  dup3\n    /* \"#utility.yul\":3133:3213   */\n  tag_20\n  jump\t// in\ntag_64:\n    /* \"#utility.yul\":2792:3223   */\n  pop\n  pop\n    /* \"#utility.yul\":2777:3223   */\ntag_60:\n    /* \"#utility.yul\":2687:3230   */\n  pop\n  pop\n  pop\n  jump\t// out\n    /* \"#utility.yul\":3236:3353   */\ntag_22:\n    /* \"#utility.yul\":3290:3298   */\n  0x00\n    /* \"#utility.yul\":3340:3345   */\n  dup3\n    /* \"#utility.yul\":3334:3338   */\n  dup3\n    /* \"#utility.yul\":3330:3346   */\n  shr\n    /* \"#utility.yul\":3309:3346   */\n  swap1\n  pop\n    /* \"#utility.yul\":3236:3353   */\n  swap3\n  swap2\n  pop\n  pop\n  jump\t// out\n    /* \"#utility.yul\":3359:3528   */\ntag_23:\n    /* \"#utility.yul\":3403:3409   */\n  0x00\n    /* \"#utility.yul\":3436:3487   */\n  tag_68\n    /* \"#utility.yul\":3484:3485   */\n  0x00\n    /* \"#utility.yul\":3480:3486   */\n  not\n    /* \"#utility.yul\":3472:3477   */\n  dup5\n    /* \"#utility.yul\":3469:3470   */\n  0x08\n    /* \"#utility.yul\":3465:3478   */\n  mul\n    /* \"#utility.yul\":3436:3487   */\n  tag_22\n  jump\t// in\ntag_68:\n    /* \"#utility.yul\":3432:3488   */\n  not\n    /* \"#utility.yul\":3517:3521   */\n  dup1\n    /* \"#utility.yul\":3511:3515   */\n  dup4\n    /* \"#utility.yul\":3507:3522   */\n  and\n    /* \"#utility.yul\":3497:3522   */\n  swap2\n  pop\n    /* \"#utility.yul\":3410:3528   */\n  pop\n    /* \"#utility.yul\":3359:3528   */\n  swap3\n  swap2\n  pop\n  pop\n  jump\t// out\n    /* \"#utility.yul\":3533:3828   */\ntag_24:\n    /* \"#utility.yul\":3609:3613   */\n  0x00\n    /* \"#utility.yul\":3755:3784   */\n  tag_70\n    /* \"#utility.yul\":3780:3783   */\n  dup4\n    /* \"#utility.yul\":3774:3778   */\n  dup4\n    /* \"#utility.yul\":3755:3784   */\n  tag_23\n  jump\t// in\ntag_70:\n    /* \"#utility.yul\":3747:3784   */\n  swap2\n  pop\n    /* \"#utility.yul\":3817:3820   */\n  dup3\n    /* \"#utility.yul\":3814:3815   */\n  0x02\n    /* \"#utility.yul\":3810:3821   */\n  mul\n    /* \"#utility.yul\":3804:3808   */\n  dup3\n    /* \"#utility.yul\":3801:3822   */\n  or\n    /* \"#utility.yul\":3793:3822   */\n  swap1\n  pop\n    /* \"#utility.yul\":3533:3828   */\n  swap3\n  swap2\n  pop\n  pop\n  jump\t// out\n    /* \"#utility.yul\":3833:5228   */\ntag_2:\n    /* \"#utility.yul\":3950:3987   */\n  tag_72\n    /* \"#utility.yul\":3983:3986   */\n  dup3\n    /* \"#utility.yul\":3950:3987   */\n  tag_5\n  jump\t// in\ntag_72:\n    /* \"#utility.yul\":4052:4070   */\n  0xffffffffffffffff\n    /* \"#utility.yul\":4044:4050   */\n  dup2\n    /* \"#utility.yul\":4041:4071   */\n  gt\n    /* \"#utility.yul\":4038:4094   */\n  iszero\n  tag_73\n  jumpi\n    /* \"#utility.yul\":4074:4092   */\n  tag_74\n  tag_6\n  jump\t// in\ntag_74:\n    /* \"#utility.yul\":4038:4094   */\ntag_73:\n    /* \"#utility.yul\":4118:4156   */\n  tag_75\n    /* \"#utility.yul\":4150:4154   */\n  dup3\n    /* \"#utility.yul\":4144:4155   */\n  sload\n    /* \"#utility.yul\":4118:4156   */\n  tag_8\n  jump\t// in\ntag_75:\n    /* \"#utility.yul\":4203:4270   */\n  tag_76\n    /* \"#utility.yul\":4263:4269   */\n  dup3\n    /* \"#utility.yul\":4255:4261   */\n  dup3\n    /* \"#utility.yul\":4249:4253   */\n  dup6\n    /* \"#utility.yul\":4203:4270   */\n  tag_21\n  jump\t// in\ntag_76:\n    /* \"#utility.yul\":4297:4298   */\n  0x00\n    /* \"#utility.yul\":4321:4325   */\n  0x20\n    /* \"#utility.yul\":4308:4325   */\n  swap1\n  pop\n    /* \"#utility.yul\":4353:4355   */\n  0x1f\n    /* \"#utility.yul\":4345:4351   */\n  dup4\n    /* \"#utility.yul\":4342:4356   */\n  gt\n    /* \"#utility.yul\":4370:4371   */\n  0x01\n    /* \"#utility.yul\":4365:4983   */\n  dup2\n  eq\n  tag_78\n  jumpi\n    /* \"#utility.yul\":5027:5028   */\n  0x00\n    /* \"#utility.yul\":5044:5050   */\n  dup5\n    /* \"#utility.yul\":5041:5118   */\n  iszero\n  tag_79\n  jumpi\n    /* \"#utility.yul\":5093:5102   */\n  dup3\n    /* \"#utility.yul\":5088:5091   */\n  dup8\n    /* \"#utility.yul\":5084:5103   */\n  add\n    /* \"#utility.yul\":5078:5104   */\n  mload\n    /* \"#utility.yul\":5069:5104   */\n  swap1\n  pop\n    /* \"#utility.yul\":5041:5118   */\ntag_79:\n    /* \"#utility.yul\":5144:5211   */\n  tag_80\n    /* \"#utility.yul\":5204:5210   */\n  dup6\n    /* \"#utility.yul\":5197:5202   */\n  dup3\n    /* \"#utility.yul\":5144:5211   */\n  tag_24\n  jump\t// in\ntag_80:\n    /* \"#utility.yul\":5138:5142   */\n  dup7\n    /* \"#utility.yul\":5131:5212   */\n  sstore\n    /* \"#utility.yul\":5000:5222   */\n  pop\n    /* \"#utility.yul\":4335:5222   */\n  jump(tag_77)\n    /* \"#utility.yul\":4365:4983   */\ntag_78:\n    /* \"#utility.yul\":4417:4421   */\n  0x1f\n    /* \"#utility.yul\":4413:4422   */\n  not\n    /* \"#utility.yul\":4405:4411   */\n  dup5\n    /* \"#utility.yul\":4401:4423   */\n  and\n    /* \"#utility.yul\":4451:4488   */\n  tag_81\n    /* \"#utility.yul\":4483:4487   */\n  dup7\n    /* \"#utility.yul\":4451:4488   */\n  tag_9\n  jump\t// in\ntag_81:\n    /* \"#utility.yul\":4510:4511   */\n  0x00\n    /* \"#utility.yul\":4524:4732   */\ntag_82:\n    /* \"#utility.yul\":4538:4545   */\n  dup3\n    /* \"#utility.yul\":4535:4536   */\n  dup2\n    /* \"#utility.yul\":4532:4546   */\n  lt\n    /* \"#utility.yul\":4524:4732   */\n  iszero\n  tag_84\n  jumpi\n    /* \"#utility.yul\":4617:4626   */\n  dup5\n    /* \"#utility.yul\":4612:4615   */\n  dup10\n    /* \"#utility.yul\":4608:4627   */\n  add\n    /* \"#utility.yul\":4602:4628   */\n  mload\n    /* \"#utility.yul\":4594:4600   */\n  dup3\n    /* \"#utility.yul\":4587:4629   */\n  sstore\n    /* \"#utility.yul\":4668:4669   */\n  0x01\n    /* \"#utility.yul\":4660:4666   */\n  dup3\n    /* \"#utility.yul\":4656:4670   */\n  add\n    /* \"#utility.yul\":4646:4670   */\n  swap2\n  pop\n    /* \"#utility.yul\":4715:4717   */\n  0x20\n    /* \"#utility.yul\":4704:4713   */\n  dup6\n    /* \"#utility.yul\":4700:4718   */\n  add\n    /* \"#utility.yul\":4687:4718   */\n  swap5\n  pop\n    /* \"#utility.yul\":4561:4565   */\n  0x20\n    /* \"#utility.yul\":4558:4559   */\n  dup2\n    /* \"#utility.yul\":4554:4566   */\n  add\n    /* \"#utility.yul\":4549:4566   */\n  swap1\n  pop\n    /* \"#utility.yul\":4524:4732   */\n  jump(tag_82)\ntag_84:\n    /* \"#utility.yul\":4760:4766   */\n  dup7\n    /* \"#utility.yul\":4751:4758   */\n  dup4\n    /* \"#utility.yul\":4748:4767   */\n  lt\n    /* \"#utility.yul\":4745:4924   */\n  iszero\n  tag_85\n  jumpi\n    /* \"#utility.yul\":4818:4827   */\n  dup5\n    /* \"#utility.yul\":4813:4816   */\n  dup10\n    /* \"#utility.yul\":4809:4828   */\n  add\n    /* \"#utility.yul\":4803:4829   */\n  mload\n    /* \"#utility.yul\":4861:4909   */\n  tag_86\n    /* \"#utility.yul\":4903:4907   */\n  0x1f\n    /* \"#utility.yul\":4895:4901   */\n  dup10\n    /* \"#utility.yul\":4891:4908   */\n  and\n    /* \"#utility.yul\":4880:4889   */\n  dup3\n    /* \"#utility.yul\":4861:4909   */\n  tag_23\n  jump\t// in\ntag_86:\n    /* \"#utility.yul\":4853:4859   */\n  dup4\n    /* \"#utility.yul\":4846:4910   */\n  sstore\n    /* \"#utility.yul\":4768:4924   */\n  pop\n    /* \"#utility.yul\":4745:4924   */\ntag_85:\n    /* \"#utility.yul\":4970:4971   */\n  0x01\n    /* \"#utility.yul\":4966:4967   */\n  0x02\n    /* \"#utility.yul\":4958:4964   */\n  dup9\n    /* \"#utility.yul\":4954:4968   */\n  mul\n    /* \"#utility.yul\":4950:4972   */\n  add\n    /* \"#utility.yul\":4944:4948   */\n  dup9\n    /* \"#utility.yul\":4937:4973   */\n  sstore\n    /* \"#utility.yul\":4372:4983   */\n  pop\n  pop\n  pop\n    /* \"#utility.yul\":4335:5222   */\ntag_77:\n  pop\n    /* \"#utility.yul\":3925:5228   */\n  pop\n  pop\n  pop\n    /* \"#utility.yul\":3833:5228   */\n  pop\n  pop\n  jump\t// out\n    /* \"SimpleStorage.sol\":117:3233  contract SimpleStorage {... */\ntag_4:\n  dataSize(sub_0)\n  dup1\n  dataOffset(sub_0)\n  0x00\n  codecopy\n  0x00\n  return\nstop\n\nsub_0: assembly {\n        /* \"SimpleStorage.sol\":117:3233  contract SimpleStorage {... */\n      mstore(0x40, 0x80)\n      callvalue\n      dup1\n      iszero\n      tag_1\n      jumpi\n      0x00\n      dup1\n      revert\n    tag_1:\n      pop\n      jumpi(tag_2, lt(calldatasize, 0x04))\n      shr(0xe0, calldataload(0x00))\n      dup1\n      0x8fda356d\n      gt\n      tag_18\n      jumpi\n      dup1\n      0xb6339418\n      gt\n      tag_19\n      jumpi\n      dup1\n      0xb6339418\n      eq\n      tag_14\n      jumpi\n      dup1\n      0xbca353be\n      eq\n      tag_15\n      jumpi\n      dup1\n      0xc19d93fb\n      eq\n      tag_16\n      jumpi\n      dup1\n      0xe0819c9a\n      eq\n      tag_17\n      jumpi\n      jump(tag_2)\n    tag_19:\n      dup1\n      0x8fda356d\n      eq\n      tag_10\n      jumpi\n      dup1\n      0x9e7a13ad\n      eq\n      tag_11\n      jumpi\n      dup1\n      0xa621d15e\n      eq\n      tag_12\n      jumpi\n      dup1\n      0xa7e1a364\n      eq\n      tag_13\n      jumpi\n      jump(tag_2)\n    tag_18:\n      dup1\n      0x29cd1d96\n      gt\n      tag_20\n      jumpi\n      dup1\n      0x29cd1d96\n      eq\n      tag_6\n      jumpi\n      dup1\n      0x3a32b549\n      eq\n      tag_7\n      jumpi\n      dup1\n      0x6f760f41\n      eq\n      tag_8\n      jumpi\n      dup1\n      0x8bab8dd5\n      eq\n      tag_9\n      jumpi\n      jump(tag_2)\n    tag_20:\n      dup1\n      0x0664c448\n      eq\n      tag_3\n      jumpi\n      dup1\n      0x0cd2636e\n      eq\n      tag_4\n      jumpi\n      dup1\n      0x22f3e2d4\n      eq\n      tag_5\n      jumpi\n    tag_2:\n      0x00\n      dup1\n      revert\n        /* \"SimpleStorage.sol\":1350:1561  function isGreatherThan(int userInputValue) public view returns (bool) {... */\n    tag_3:\n      tag_21\n      0x04\n      dup1\n      calldatasize\n      sub\n      dup2\n      add\n      swap1\n      tag_22\n      swap2\n      swap1\n      tag_23\n      jump\t// in\n    tag_22:\n      tag_24\n      jump\t// in\n    tag_21:\n      mload(0x40)\n      tag_25\n      swap2\n      swap1\n      tag_26\n      jump\t// in\n    tag_25:\n      mload(0x40)\n      dup1\n      swap2\n      sub\n      swap1\n      return\n        /* \"SimpleStorage.sol\":1567:1774  function sumToFavoriteNumber() public view returns (uint256) {... */\n    tag_4:\n      tag_27\n      tag_28\n      jump\t// in\n    tag_27:\n      mload(0x40)\n      tag_29\n      swap2\n      swap1\n      tag_30\n      jump\t// in\n    tag_29:\n      mload(0x40)\n      dup1\n      swap2\n      sub\n      swap1\n      return\n        /* \"SimpleStorage.sol\":3073:3223  function isActive() public view returns (bool) {... */\n    tag_5:\n      tag_31\n      tag_32\n      jump\t// in\n    tag_31:\n      mload(0x40)\n      tag_33\n      swap2\n      swap1\n      tag_26\n      jump\t// in\n    tag_33:\n      mload(0x40)\n      dup1\n      swap2\n      sub\n      swap1\n      return\n        /* \"SimpleStorage.sol\":220:252  uint256[] public favoriteNumbers */\n    tag_6:\n      tag_34\n      0x04\n      dup1\n      calldatasize\n      sub\n      dup2\n      add\n      swap1\n      tag_35\n      swap2\n      swap1\n      tag_36\n      jump\t// in\n    tag_35:\n      tag_37\n      jump\t// in\n    tag_34:\n      mload(0x40)\n      tag_38\n      swap2\n      swap1\n      tag_30\n      jump\t// in\n    tag_38:\n      mload(0x40)\n      dup1\n      swap2\n      sub\n      swap1\n      return\n        /* \"SimpleStorage.sol\":2100:2220  function externalFunction() external pure returns (string memory) {... */\n    tag_7:\n      tag_39\n      tag_40\n      jump\t// in\n    tag_39:\n      mload(0x40)\n      tag_41\n      swap2\n      swap1\n      tag_42\n      jump\t// in\n    tag_41:\n      mload(0x40)\n      dup1\n      swap2\n      sub\n      swap1\n      return\n        /* \"SimpleStorage.sol\":2562:2748  function addPerson(string memory _name, uint _favoriteNumber) public {... */\n    tag_8:\n      tag_43\n      0x04\n      dup1\n      calldatasize\n      sub\n      dup2\n      add\n      swap1\n      tag_44\n      swap2\n      swap1\n      tag_45\n      jump\t// in\n    tag_44:\n      tag_46\n      jump\t// in\n    tag_43:\n      stop\n        /* \"SimpleStorage.sol\":928:982  mapping(string => uint256) public nameToFavoriteNumber */\n    tag_9:\n      tag_47\n      0x04\n      dup1\n      calldatasize\n      sub\n      dup2\n      add\n      swap1\n      tag_48\n      swap2\n      swap1\n      tag_49\n      jump\t// in\n    tag_48:\n      tag_50\n      jump\t// in\n    tag_47:\n      mload(0x40)\n      tag_51\n      swap2\n      swap1\n      tag_30\n      jump\t// in\n    tag_51:\n      mload(0x40)\n      dup1\n      swap2\n      sub\n      swap1\n      return\n        /* \"SimpleStorage.sol\":2796:2875  function activateContract() public {... */\n    tag_10:\n      tag_52\n      tag_53\n      jump\t// in\n    tag_52:\n      stop\n        /* \"SimpleStorage.sol\":500:522  Person[] public people */\n    tag_11:\n      tag_54\n      0x04\n      dup1\n      calldatasize\n      sub\n      dup2\n      add\n      swap1\n      tag_55\n      swap2\n      swap1\n      tag_36\n      jump\t// in\n    tag_55:\n      tag_56\n      jump\t// in\n    tag_54:\n      mload(0x40)\n      tag_57\n      swap3\n      swap2\n      swap1\n      tag_58\n      jump\t// in\n    tag_57:\n      mload(0x40)\n      dup1\n      swap2\n      sub\n      swap1\n      return\n        /* \"SimpleStorage.sol\":1247:1344  function getFavoriteNumber() public view returns (uint256) {... */\n    tag_12:\n      tag_59\n      tag_60\n      jump\t// in\n    tag_59:\n      mload(0x40)\n      tag_61\n      swap2\n      swap1\n      tag_30\n      jump\t// in\n    tag_61:\n      mload(0x40)\n      dup1\n      swap2\n      sub\n      swap1\n      return\n        /* \"SimpleStorage.sol\":2410:2526  function addFavoriteNumber(uint userFavoriteNumber) public {... */\n    tag_13:\n      tag_62\n      0x04\n      dup1\n      calldatasize\n      sub\n      dup2\n      add\n      swap1\n      tag_63\n      swap2\n      swap1\n      tag_36\n      jump\t// in\n    tag_63:\n      tag_64\n      jump\t// in\n    tag_62:\n      stop\n        /* \"SimpleStorage.sol\":1075:1240  function storeNumber(uint256 number) public {... */\n    tag_14:\n      tag_65\n      0x04\n      dup1\n      calldatasize\n      sub\n      dup2\n      add\n      swap1\n      tag_66\n      swap2\n      swap1\n      tag_36\n      jump\t// in\n    tag_66:\n      tag_67\n      jump\t// in\n    tag_65:\n      stop\n        /* \"SimpleStorage.sol\":2923:3006  function deactivateContract() public {... */\n    tag_15:\n      tag_68\n      tag_69\n      jump\t// in\n    tag_68:\n      stop\n        /* \"SimpleStorage.sol\":796:822  ContractState public state */\n    tag_16:\n      tag_70\n      tag_71\n      jump\t// in\n    tag_70:\n      mload(0x40)\n      tag_72\n      swap2\n      swap1\n      tag_73\n      jump\t// in\n    tag_72:\n      mload(0x40)\n      dup1\n      swap2\n      sub\n      swap1\n      return\n        /* \"SimpleStorage.sol\":2256:2370  function testExternalFunction() public view returns(string memory) {... */\n    tag_17:\n      tag_74\n      tag_75\n      jump\t// in\n    tag_74:\n      mload(0x40)\n      tag_76\n      swap2\n      swap1\n      tag_42\n      jump\t// in\n    tag_76:\n      mload(0x40)\n      dup1\n      swap2\n      sub\n      swap1\n      return\n        /* \"SimpleStorage.sol\":1350:1561  function isGreatherThan(int userInputValue) public view returns (bool) {... */\n    tag_24:\n        /* \"SimpleStorage.sol\":1415:1419  bool */\n      0x00\n        /* \"SimpleStorage.sol\":1460:1474  userInputValue */\n      dup2\n        /* \"SimpleStorage.sol\":1442:1456  favoriteNumber */\n      sload(0x00)\n        /* \"SimpleStorage.sol\":1435:1474  int256(favoriteNumber) > userInputValue */\n      sgt\n        /* \"SimpleStorage.sol\":1431:1555  if (int256(favoriteNumber) > userInputValue) {... */\n      iszero\n      tag_78\n      jumpi\n        /* \"SimpleStorage.sol\":1497:1501  true */\n      0x01\n        /* \"SimpleStorage.sol\":1490:1501  return true */\n      swap1\n      pop\n      jump(tag_77)\n        /* \"SimpleStorage.sol\":1431:1555  if (int256(favoriteNumber) > userInputValue) {... */\n    tag_78:\n        /* \"SimpleStorage.sol\":1539:1544  false */\n      0x00\n        /* \"SimpleStorage.sol\":1532:1544  return false */\n      swap1\n      pop\n        /* \"SimpleStorage.sol\":1350:1561  function isGreatherThan(int userInputValue) public view returns (bool) {... */\n    tag_77:\n      swap2\n      swap1\n      pop\n      jump\t// out\n        /* \"SimpleStorage.sol\":1567:1774  function sumToFavoriteNumber() public view returns (uint256) {... */\n    tag_28:\n        /* \"SimpleStorage.sol\":1619:1626  uint256 */\n      0x00\n        /* \"SimpleStorage.sol\":1638:1649  uint256 sum */\n      dup1\n        /* \"SimpleStorage.sol\":1652:1653  0 */\n      0x00\n        /* \"SimpleStorage.sol\":1638:1653  uint256 sum = 0 */\n      swap1\n      pop\n        /* \"SimpleStorage.sol\":1668:1677  uint256 i */\n      0x00\n        /* \"SimpleStorage.sol\":1680:1681  1 */\n      0x01\n        /* \"SimpleStorage.sol\":1668:1681  uint256 i = 1 */\n      swap1\n      pop\n        /* \"SimpleStorage.sol\":1663:1748  for (uint256 i = 1; i <= favoriteNumber; i++ ) {... */\n    tag_81:\n        /* \"SimpleStorage.sol\":1688:1702  favoriteNumber */\n      sload(0x00)\n        /* \"SimpleStorage.sol\":1683:1684  i */\n      dup2\n        /* \"SimpleStorage.sol\":1683:1702  i <= favoriteNumber */\n      gt\n        /* \"SimpleStorage.sol\":1663:1748  for (uint256 i = 1; i <= favoriteNumber; i++ ) {... */\n      tag_82\n      jumpi\n        /* \"SimpleStorage.sol\":1736:1737  i */\n      dup1\n        /* \"SimpleStorage.sol\":1730:1733  sum */\n      dup3\n        /* \"SimpleStorage.sol\":1730:1737  sum + i */\n      tag_84\n      swap2\n      swap1\n      tag_85\n      jump\t// in\n    tag_84:\n        /* \"SimpleStorage.sol\":1724:1737  sum = sum + i */\n      swap2\n      pop\n        /* \"SimpleStorage.sol\":1704:1707  i++ */\n      dup1\n      dup1\n      tag_86\n      swap1\n      tag_87\n      jump\t// in\n    tag_86:\n      swap2\n      pop\n      pop\n        /* \"SimpleStorage.sol\":1663:1748  for (uint256 i = 1; i <= favoriteNumber; i++ ) {... */\n      jump(tag_81)\n    tag_82:\n      pop\n        /* \"SimpleStorage.sol\":1764:1767  sum */\n      dup1\n        /* \"SimpleStorage.sol\":1757:1767  return sum */\n      swap2\n      pop\n      pop\n        /* \"SimpleStorage.sol\":1567:1774  function sumToFavoriteNumber() public view returns (uint256) {... */\n      swap1\n      jump\t// out\n        /* \"SimpleStorage.sol\":3073:3223  function isActive() public view returns (bool) {... */\n    tag_32:\n        /* \"SimpleStorage.sol\":3114:3118  bool */\n      0x00\n        /* \"SimpleStorage.sol\":3130:3148  bool isActiveState */\n      dup1\n        /* \"SimpleStorage.sol\":3161:3181  ContractState.Active */\n      0x00\n        /* \"SimpleStorage.sol\":3152:3181  state == ContractState.Active */\n      0x01\n      dup2\n      gt\n      iszero\n      tag_89\n      jumpi\n      tag_90\n      tag_91\n      jump\t// in\n    tag_90:\n    tag_89:\n        /* \"SimpleStorage.sol\":3152:3157  state */\n      0x03\n      0x00\n      swap1\n      sload\n      swap1\n      0x0100\n      exp\n      swap1\n      div\n      0xff\n      and\n        /* \"SimpleStorage.sol\":3152:3181  state == ContractState.Active */\n      0x01\n      dup2\n      gt\n      iszero\n      tag_92\n      jumpi\n      tag_93\n      tag_91\n      jump\t// in\n    tag_93:\n    tag_92:\n      eq\n        /* \"SimpleStorage.sol\":3130:3182  bool isActiveState = (state == ContractState.Active) */\n      swap1\n      pop\n        /* \"SimpleStorage.sol\":3203:3216  isActiveState */\n      dup1\n        /* \"SimpleStorage.sol\":3196:3216  return isActiveState */\n      swap2\n      pop\n      pop\n        /* \"SimpleStorage.sol\":3073:3223  function isActive() public view returns (bool) {... */\n      swap1\n      jump\t// out\n        /* \"SimpleStorage.sol\":220:252  uint256[] public favoriteNumbers */\n    tag_37:\n      0x01\n      dup2\n      dup2\n      sload\n      dup2\n      lt\n      tag_94\n      jumpi\n      0x00\n      dup1\n      revert\n    tag_94:\n      swap1\n      0x00\n      mstore\n      keccak256(0x00, 0x20)\n      add\n      0x00\n      swap2\n      pop\n      swap1\n      pop\n      sload\n      dup2\n      jump\t// out\n        /* \"SimpleStorage.sol\":2100:2220  function externalFunction() external pure returns (string memory) {... */\n    tag_40:\n        /* \"SimpleStorage.sol\":2151:2164  string memory */\n      0x60\n        /* \"SimpleStorage.sol\":2176:2213  return \"This is an external function\" */\n      mload(0x40)\n      dup1\n      0x40\n      add\n      0x40\n      mstore\n      dup1\n      0x1c\n      dup2\n      mstore\n      0x20\n      add\n      0x5468697320697320616e2065787465726e616c2066756e6374696f6e00000000\n      dup2\n      mstore\n      pop\n      swap1\n      pop\n        /* \"SimpleStorage.sol\":2100:2220  function externalFunction() external pure returns (string memory) {... */\n      swap1\n      jump\t// out\n        /* \"SimpleStorage.sol\":2562:2748  function addPerson(string memory _name, uint _favoriteNumber) public {... */\n    tag_46:\n        /* \"SimpleStorage.sol\":2727:2742  _favoriteNumber */\n      dup1\n        /* \"SimpleStorage.sol\":2697:2717  nameToFavoriteNumber */\n      0x04\n        /* \"SimpleStorage.sol\":2718:2723  _name */\n      dup4\n        /* \"SimpleStorage.sol\":2697:2724  nameToFavoriteNumber[_name] */\n      mload(0x40)\n      tag_98\n      swap2\n      swap1\n      tag_99\n      jump\t// in\n    tag_98:\n      swap1\n      dup2\n      mstore\n      0x20\n      add\n      mload(0x40)\n      dup1\n      swap2\n      sub\n      swap1\n      keccak256\n        /* \"SimpleStorage.sol\":2697:2742  nameToFavoriteNumber[_name] = _favoriteNumber */\n      dup2\n      swap1\n      sstore\n      pop\n        /* \"SimpleStorage.sol\":2562:2748  function addPerson(string memory _name, uint _favoriteNumber) public {... */\n      pop\n      pop\n      jump\t// out\n        /* \"SimpleStorage.sol\":928:982  mapping(string => uint256) public nameToFavoriteNumber */\n    tag_50:\n      0x04\n      dup2\n      dup1\n      mload\n      0x20\n      dup2\n      add\n      dup3\n      add\n      dup1\n      mload\n      dup5\n      dup3\n      mstore\n      0x20\n      dup4\n      add\n      0x20\n      dup6\n      add\n      keccak256\n      dup2\n      dup4\n      mstore\n      dup1\n      swap6\n      pop\n      pop\n      pop\n      pop\n      pop\n      pop\n      0x00\n      swap2\n      pop\n      swap1\n      pop\n      sload\n      dup2\n      jump\t// out\n        /* \"SimpleStorage.sol\":2796:2875  function activateContract() public {... */\n    tag_53:\n        /* \"SimpleStorage.sol\":2849:2869  ContractState.Active */\n      0x00\n        /* \"SimpleStorage.sol\":2841:2846  state */\n      0x03\n      0x00\n        /* \"SimpleStorage.sol\":2841:2869  state = ContractState.Active */\n      0x0100\n      exp\n      dup2\n      sload\n      dup2\n      0xff\n      mul\n      not\n      and\n      swap1\n      dup4\n      0x01\n      dup2\n      gt\n      iszero\n      tag_101\n      jumpi\n      tag_102\n      tag_91\n      jump\t// in\n    tag_102:\n    tag_101:\n      mul\n      or\n      swap1\n      sstore\n      pop\n        /* \"SimpleStorage.sol\":2796:2875  function activateContract() public {... */\n      jump\t// out\n        /* \"SimpleStorage.sol\":500:522  Person[] public people */\n    tag_56:\n      0x02\n      dup2\n      dup2\n      sload\n      dup2\n      lt\n      tag_103\n      jumpi\n      0x00\n      dup1\n      revert\n    tag_103:\n      swap1\n      0x00\n      mstore\n      keccak256(0x00, 0x20)\n      swap1\n      0x02\n      mul\n      add\n      0x00\n      swap2\n      pop\n      swap1\n      pop\n      dup1\n      0x00\n      add\n      dup1\n      sload\n      tag_105\n      swap1\n      tag_106\n      jump\t// in\n    tag_105:\n      dup1\n      0x1f\n      add\n      0x20\n      dup1\n      swap2\n      div\n      mul\n      0x20\n      add\n      mload(0x40)\n      swap1\n      dup2\n      add\n      0x40\n      mstore\n      dup1\n      swap3\n      swap2\n      swap1\n      dup2\n      dup2\n      mstore\n      0x20\n      add\n      dup3\n      dup1\n      sload\n      tag_107\n      swap1\n      tag_106\n      jump\t// in\n    tag_107:\n      dup1\n      iszero\n      tag_108\n      jumpi\n      dup1\n      0x1f\n      lt\n      tag_109\n      jumpi\n      0x0100\n      dup1\n      dup4\n      sload\n      div\n      mul\n      dup4\n      mstore\n      swap2\n      0x20\n      add\n      swap2\n      jump(tag_108)\n    tag_109:\n      dup3\n      add\n      swap2\n      swap1\n      0x00\n      mstore\n      keccak256(0x00, 0x20)\n      swap1\n    tag_110:\n      dup2\n      sload\n      dup2\n      mstore\n      swap1\n      0x01\n      add\n      swap1\n      0x20\n      add\n      dup1\n      dup4\n      gt\n      tag_110\n      jumpi\n      dup3\n      swap1\n      sub\n      0x1f\n      and\n      dup3\n      add\n      swap2\n    tag_108:\n      pop\n      pop\n      pop\n      pop\n      pop\n      swap1\n      dup1\n      0x01\n      add\n      sload\n      swap1\n      pop\n      dup3\n      jump\t// out\n        /* \"SimpleStorage.sol\":1247:1344  function getFavoriteNumber() public view returns (uint256) {... */\n    tag_60:\n        /* \"SimpleStorage.sol\":1297:1304  uint256 */\n      0x00\n        /* \"SimpleStorage.sol\":1323:1337  favoriteNumber */\n      dup1\n      sload\n        /* \"SimpleStorage.sol\":1316:1337  return favoriteNumber */\n      swap1\n      pop\n        /* \"SimpleStorage.sol\":1247:1344  function getFavoriteNumber() public view returns (uint256) {... */\n      swap1\n      jump\t// out\n        /* \"SimpleStorage.sol\":2410:2526  function addFavoriteNumber(uint userFavoriteNumber) public {... */\n    tag_64:\n        /* \"SimpleStorage.sol\":2479:2494  favoriteNumbers */\n      0x01\n        /* \"SimpleStorage.sol\":2500:2518  userFavoriteNumber */\n      dup2\n        /* \"SimpleStorage.sol\":2479:2519  favoriteNumbers.push(userFavoriteNumber) */\n      swap1\n      dup1\n      0x01\n      dup2\n      sload\n      add\n      dup1\n      dup3\n      sstore\n      dup1\n      swap2\n      pop\n      pop\n      0x01\n      swap1\n      sub\n      swap1\n      0x00\n      mstore\n      keccak256(0x00, 0x20)\n      add\n      0x00\n      swap1\n      swap2\n      swap1\n      swap2\n      swap1\n      swap2\n      pop\n      sstore\n        /* \"SimpleStorage.sol\":2410:2526  function addFavoriteNumber(uint userFavoriteNumber) public {... */\n      pop\n      jump\t// out\n        /* \"SimpleStorage.sol\":1075:1240  function storeNumber(uint256 number) public {... */\n    tag_67:\n        /* \"SimpleStorage.sol\":1146:1152  number */\n      dup1\n        /* \"SimpleStorage.sol\":1129:1143  favoriteNumber */\n      0x00\n        /* \"SimpleStorage.sol\":1129:1152  favoriteNumber = number */\n      dup2\n      swap1\n      sstore\n      pop\n        /* \"SimpleStorage.sol\":1204:1233  NumberUpdated(favoriteNumber) */\n      0x939f2783f4b99373bd9b6912aff8f7316ea141b98eb02e47c8a96bdae0d654b3\n        /* \"SimpleStorage.sol\":1218:1232  favoriteNumber */\n      sload(0x00)\n        /* \"SimpleStorage.sol\":1204:1233  NumberUpdated(favoriteNumber) */\n      mload(0x40)\n      tag_115\n      swap2\n      swap1\n      tag_30\n      jump\t// in\n    tag_115:\n      mload(0x40)\n      dup1\n      swap2\n      sub\n      swap1\n      log1\n        /* \"SimpleStorage.sol\":1075:1240  function storeNumber(uint256 number) public {... */\n      pop\n      jump\t// out\n        /* \"SimpleStorage.sol\":2923:3006  function deactivateContract() public {... */\n    tag_69:\n        /* \"SimpleStorage.sol\":2978:3000  ContractState.Inactive */\n      0x01\n        /* \"SimpleStorage.sol\":2970:2975  state */\n      0x03\n      0x00\n        /* \"SimpleStorage.sol\":2970:3000  state = ContractState.Inactive */\n      0x0100\n      exp\n      dup2\n      sload\n      dup2\n      0xff\n      mul\n      not\n      and\n      swap1\n      dup4\n      0x01\n      dup2\n      gt\n      iszero\n      tag_117\n      jumpi\n      tag_118\n      tag_91\n      jump\t// in\n    tag_118:\n    tag_117:\n      mul\n      or\n      swap1\n      sstore\n      pop\n        /* \"SimpleStorage.sol\":2923:3006  function deactivateContract() public {... */\n      jump\t// out\n        /* \"SimpleStorage.sol\":796:822  ContractState public state */\n    tag_71:\n      0x03\n      0x00\n      swap1\n      sload\n      swap1\n      0x0100\n      exp\n      swap1\n      div\n      0xff\n      and\n      dup2\n      jump\t// out\n        /* \"SimpleStorage.sol\":2256:2370  function testExternalFunction() public view returns(string memory) {... */\n    tag_75:\n        /* \"SimpleStorage.sol\":2308:2321  string memory */\n      0x60\n        /* \"SimpleStorage.sol\":2340:2344  this */\n      address\n        /* \"SimpleStorage.sol\":2340:2361  this.externalFunction */\n      0xffffffffffffffffffffffffffffffffffffffff\n      and\n      0x3a32b549\n        /* \"SimpleStorage.sol\":2340:2363  this.externalFunction() */\n      mload(0x40)\n      dup2\n      0xffffffff\n      and\n      0xe0\n      shl\n      dup2\n      mstore\n      0x04\n      add\n      0x00\n      mload(0x40)\n      dup1\n      dup4\n      sub\n      dup2\n      dup7\n      gas\n      staticcall\n      iszero\n      dup1\n      iszero\n      tag_121\n      jumpi\n      returndatasize\n      0x00\n      dup1\n      returndatacopy\n      revert(0x00, returndatasize)\n    tag_121:\n      pop\n      pop\n      pop\n      pop\n      mload(0x40)\n      returndatasize\n      0x00\n      dup3\n      returndatacopy\n      returndatasize\n      not(0x1f)\n      0x1f\n      dup3\n      add\n      and\n      dup3\n      add\n      dup1\n      0x40\n      mstore\n      pop\n      dup2\n      add\n      swap1\n      tag_122\n      swap2\n      swap1\n      tag_123\n      jump\t// in\n    tag_122:\n        /* \"SimpleStorage.sol\":2333:2363  return this.externalFunction() */\n      swap1\n      pop\n        /* \"SimpleStorage.sol\":2256:2370  function testExternalFunction() public view returns(string memory) {... */\n      swap1\n      jump\t// out\n        /* \"#utility.yul\":7:82   */\n    tag_124:\n        /* \"#utility.yul\":40:46   */\n      0x00\n        /* \"#utility.yul\":73:75   */\n      0x40\n        /* \"#utility.yul\":67:76   */\n      mload\n        /* \"#utility.yul\":57:76   */\n      swap1\n      pop\n        /* \"#utility.yul\":7:82   */\n      swap1\n      jump\t// out\n        /* \"#utility.yul\":88:205   */\n    tag_125:\n        /* \"#utility.yul\":197:198   */\n      0x00\n        /* \"#utility.yul\":194:195   */\n      dup1\n        /* \"#utility.yul\":187:199   */\n      revert\n        /* \"#utility.yul\":211:328   */\n    tag_126:\n        /* \"#utility.yul\":320:321   */\n      0x00\n        /* \"#utility.yul\":317:318   */\n      dup1\n        /* \"#utility.yul\":310:322   */\n      revert\n        /* \"#utility.yul\":334:410   */\n    tag_127:\n        /* \"#utility.yul\":370:377   */\n      0x00\n        /* \"#utility.yul\":399:404   */\n      dup2\n        /* \"#utility.yul\":388:404   */\n      swap1\n      pop\n        /* \"#utility.yul\":334:410   */\n      swap2\n      swap1\n      pop\n      jump\t// out\n        /* \"#utility.yul\":416:536   */\n    tag_128:\n        /* \"#utility.yul\":488:511   */\n      tag_166\n        /* \"#utility.yul\":505:510   */\n      dup2\n        /* \"#utility.yul\":488:511   */\n      tag_127\n      jump\t// in\n    tag_166:\n        /* \"#utility.yul\":481:486   */\n      dup2\n        /* \"#utility.yul\":478:512   */\n      eq\n        /* \"#utility.yul\":468:530   */\n      tag_167\n      jumpi\n        /* \"#utility.yul\":526:527   */\n      0x00\n        /* \"#utility.yul\":523:524   */\n      dup1\n        /* \"#utility.yul\":516:528   */\n      revert\n        /* \"#utility.yul\":468:530   */\n    tag_167:\n        /* \"#utility.yul\":416:536   */\n      pop\n      jump\t// out\n        /* \"#utility.yul\":542:679   */\n    tag_129:\n        /* \"#utility.yul\":587:592   */\n      0x00\n        /* \"#utility.yul\":625:631   */\n      dup2\n        /* \"#utility.yul\":612:632   */\n      calldataload\n        /* \"#utility.yul\":603:632   */\n      swap1\n      pop\n        /* \"#utility.yul\":641:673   */\n      tag_169\n        /* \"#utility.yul\":667:672   */\n      dup2\n        /* \"#utility.yul\":641:673   */\n      tag_128\n      jump\t// in\n    tag_169:\n        /* \"#utility.yul\":542:679   */\n      swap3\n      swap2\n      pop\n      pop\n      jump\t// out\n        /* \"#utility.yul\":685:1012   */\n    tag_23:\n        /* \"#utility.yul\":743:749   */\n      0x00\n        /* \"#utility.yul\":792:794   */\n      0x20\n        /* \"#utility.yul\":780:789   */\n      dup3\n        /* \"#utility.yul\":771:778   */\n      dup5\n        /* \"#utility.yul\":767:790   */\n      sub\n        /* \"#utility.yul\":763:795   */\n      slt\n        /* \"#utility.yul\":760:879   */\n      iszero\n      tag_171\n      jumpi\n        /* \"#utility.yul\":798:877   */\n      tag_172\n      tag_125\n      jump\t// in\n    tag_172:\n        /* \"#utility.yul\":760:879   */\n    tag_171:\n        /* \"#utility.yul\":918:919   */\n      0x00\n        /* \"#utility.yul\":943:995   */\n      tag_173\n        /* \"#utility.yul\":987:994   */\n      dup5\n        /* \"#utility.yul\":978:984   */\n      dup3\n        /* \"#utility.yul\":967:976   */\n      dup6\n        /* \"#utility.yul\":963:985   */\n      add\n        /* \"#utility.yul\":943:995   */\n      tag_129\n      jump\t// in\n    tag_173:\n        /* \"#utility.yul\":933:995   */\n      swap2\n      pop\n        /* \"#utility.yul\":889:1005   */\n      pop\n        /* \"#utility.yul\":685:1012   */\n      swap3\n      swap2\n      pop\n      pop\n      jump\t// out\n        /* \"#utility.yul\":1018:1108   */\n    tag_130:\n        /* \"#utility.yul\":1052:1059   */\n      0x00\n        /* \"#utility.yul\":1095:1100   */\n      dup2\n        /* \"#utility.yul\":1088:1101   */\n      iszero\n        /* \"#utility.yul\":1081:1102   */\n      iszero\n        /* \"#utility.yul\":1070:1102   */\n      swap1\n      pop\n        /* \"#utility.yul\":1018:1108   */\n      swap2\n      swap1\n      pop\n      jump\t// out\n        /* \"#utility.yul\":1114:1223   */\n    tag_131:\n        /* \"#utility.yul\":1195:1216   */\n      tag_176\n        /* \"#utility.yul\":1210:1215   */\n      dup2\n        /* \"#utility.yul\":1195:1216   */\n      tag_130\n      jump\t// in\n    tag_176:\n        /* \"#utility.yul\":1190:1193   */\n      dup3\n        /* \"#utility.yul\":1183:1217   */\n      mstore\n        /* \"#utility.yul\":1114:1223   */\n      pop\n      pop\n      jump\t// out\n        /* \"#utility.yul\":1229:1439   */\n    tag_26:\n        /* \"#utility.yul\":1316:1320   */\n      0x00\n        /* \"#utility.yul\":1354:1356   */\n      0x20\n        /* \"#utility.yul\":1343:1352   */\n      dup3\n        /* \"#utility.yul\":1339:1357   */\n      add\n        /* \"#utility.yul\":1331:1357   */\n      swap1\n      pop\n        /* \"#utility.yul\":1367:1432   */\n      tag_178\n        /* \"#utility.yul\":1429:1430   */\n      0x00\n        /* \"#utility.yul\":1418:1427   */\n      dup4\n        /* \"#utility.yul\":1414:1431   */\n      add\n        /* \"#utility.yul\":1405:1411   */\n      dup5\n        /* \"#utility.yul\":1367:1432   */\n      tag_131\n      jump\t// in\n    tag_178:\n        /* \"#utility.yul\":1229:1439   */\n      swap3\n      swap2\n      pop\n      pop\n      jump\t// out\n        /* \"#utility.yul\":1445:1522   */\n    tag_132:\n        /* \"#utility.yul\":1482:1489   */\n      0x00\n        /* \"#utility.yul\":1511:1516   */\n      dup2\n        /* \"#utility.yul\":1500:1516   */\n      swap1\n      pop\n        /* \"#utility.yul\":1445:1522   */\n      swap2\n      swap1\n      pop\n      jump\t// out\n        /* \"#utility.yul\":1528:1646   */\n    tag_133:\n        /* \"#utility.yul\":1615:1639   */\n      tag_181\n        /* \"#utility.yul\":1633:1638   */\n      dup2\n        /* \"#utility.yul\":1615:1639   */\n      tag_132\n      jump\t// in\n    tag_181:\n        /* \"#utility.yul\":1610:1613   */\n      dup3\n        /* \"#utility.yul\":1603:1640   */\n      mstore\n        /* \"#utility.yul\":1528:1646   */\n      pop\n      pop\n      jump\t// out\n        /* \"#utility.yul\":1652:1874   */\n    tag_30:\n        /* \"#utility.yul\":1745:1749   */\n      0x00\n        /* \"#utility.yul\":1783:1785   */\n      0x20\n        /* \"#utility.yul\":1772:1781   */\n      dup3\n        /* \"#utility.yul\":1768:1786   */\n      add\n        /* \"#utility.yul\":1760:1786   */\n      swap1\n      pop\n        /* \"#utility.yul\":1796:1867   */\n      tag_183\n        /* \"#utility.yul\":1864:1865   */\n      0x00\n        /* \"#utility.yul\":1853:1862   */\n      dup4\n        /* \"#utility.yul\":1849:1866   */\n      add\n        /* \"#utility.yul\":1840:1846   */\n      dup5\n        /* \"#utility.yul\":1796:1867   */\n      tag_133\n      jump\t// in\n    tag_183:\n        /* \"#utility.yul\":1652:1874   */\n      swap3\n      swap2\n      pop\n      pop\n      jump\t// out\n        /* \"#utility.yul\":1880:2002   */\n    tag_134:\n        /* \"#utility.yul\":1953:1977   */\n      tag_185\n        /* \"#utility.yul\":1971:1976   */\n      dup2\n        /* \"#utility.yul\":1953:1977   */\n      tag_132\n      jump\t// in\n    tag_185:\n        /* \"#utility.yul\":1946:1951   */\n      dup2\n        /* \"#utility.yul\":1943:1978   */\n      eq\n        /* \"#utility.yul\":1933:1996   */\n      tag_186\n      jumpi\n        /* \"#utility.yul\":1992:1993   */\n      0x00\n        /* \"#utility.yul\":1989:1990   */\n      dup1\n        /* \"#utility.yul\":1982:1994   */\n      revert\n        /* \"#utility.yul\":1933:1996   */\n    tag_186:\n        /* \"#utility.yul\":1880:2002   */\n      pop\n      jump\t// out\n        /* \"#utility.yul\":2008:2147   */\n    tag_135:\n        /* \"#utility.yul\":2054:2059   */\n      0x00\n        /* \"#utility.yul\":2092:2098   */\n      dup2\n        /* \"#utility.yul\":2079:2099   */\n      calldataload\n        /* \"#utility.yul\":2070:2099   */\n      swap1\n      pop\n        /* \"#utility.yul\":2108:2141   */\n      tag_188\n        /* \"#utility.yul\":2135:2140   */\n      dup2\n        /* \"#utility.yul\":2108:2141   */\n      tag_134\n      jump\t// in\n    tag_188:\n        /* \"#utility.yul\":2008:2147   */\n      swap3\n      swap2\n      pop\n      pop\n      jump\t// out\n        /* \"#utility.yul\":2153:2482   */\n    tag_36:\n        /* \"#utility.yul\":2212:2218   */\n      0x00\n        /* \"#utility.yul\":2261:2263   */\n      0x20\n        /* \"#utility.yul\":2249:2258   */\n      dup3\n        /* \"#utility.yul\":2240:2247   */\n      dup5\n        /* \"#utility.yul\":2236:2259   */\n      sub\n        /* \"#utility.yul\":2232:2264   */\n      slt\n        /* \"#utility.yul\":2229:2348   */\n      iszero\n      tag_190\n      jumpi\n        /* \"#utility.yul\":2267:2346   */\n      tag_191\n      tag_125\n      jump\t// in\n    tag_191:\n        /* \"#utility.yul\":2229:2348   */\n    tag_190:\n        /* \"#utility.yul\":2387:2388   */\n      0x00\n        /* \"#utility.yul\":2412:2465   */\n      tag_192\n        /* \"#utility.yul\":2457:2464   */\n      dup5\n        /* \"#utility.yul\":2448:2454   */\n      dup3\n        /* \"#utility.yul\":2437:2446   */\n      dup6\n        /* \"#utility.yul\":2433:2455   */\n      add\n        /* \"#utility.yul\":2412:2465   */\n      tag_135\n      jump\t// in\n    tag_192:\n        /* \"#utility.yul\":2402:2465   */\n      swap2\n      pop\n        /* \"#utility.yul\":2358:2475   */\n      pop\n        /* \"#utility.yul\":2153:2482   */\n      swap3\n      swap2\n      pop\n      pop\n      jump\t// out\n        /* \"#utility.yul\":2488:2587   */\n    tag_136:\n        /* \"#utility.yul\":2540:2546   */\n      0x00\n        /* \"#utility.yul\":2574:2579   */\n      dup2\n        /* \"#utility.yul\":2568:2580   */\n      mload\n        /* \"#utility.yul\":2558:2580   */\n      swap1\n      pop\n        /* \"#utility.yul\":2488:2587   */\n      swap2\n      swap1\n      pop\n      jump\t// out\n        /* \"#utility.yul\":2593:2762   */\n    tag_137:\n        /* \"#utility.yul\":2677:2688   */\n      0x00\n        /* \"#utility.yul\":2711:2717   */\n      dup3\n        /* \"#utility.yul\":2706:2709   */\n      dup3\n        /* \"#utility.yul\":2699:2718   */\n      mstore\n        /* \"#utility.yul\":2751:2755   */\n      0x20\n        /* \"#utility.yul\":2746:2749   */\n      dup3\n        /* \"#utility.yul\":2742:2756   */\n      add\n        /* \"#utility.yul\":2727:2756   */\n      swap1\n      pop\n        /* \"#utility.yul\":2593:2762   */\n      swap3\n      swap2\n      pop\n      pop\n      jump\t// out\n        /* \"#utility.yul\":2768:2907   */\n    tag_138:\n        /* \"#utility.yul\":2857:2863   */\n      dup3\n        /* \"#utility.yul\":2852:2855   */\n      dup2\n        /* \"#utility.yul\":2847:2850   */\n      dup4\n        /* \"#utility.yul\":2841:2864   */\n      mcopy\n        /* \"#utility.yul\":2898:2899   */\n      0x00\n        /* \"#utility.yul\":2889:2895   */\n      dup4\n        /* \"#utility.yul\":2884:2887   */\n      dup4\n        /* \"#utility.yul\":2880:2896   */\n      add\n        /* \"#utility.yul\":2873:2900   */\n      mstore\n        /* \"#utility.yul\":2768:2907   */\n      pop\n      pop\n      pop\n      jump\t// out\n        /* \"#utility.yul\":2913:3015   */\n    tag_139:\n        /* \"#utility.yul\":2954:2960   */\n      0x00\n        /* \"#utility.yul\":3005:3007   */\n      0x1f\n        /* \"#utility.yul\":3001:3008   */\n      not\n        /* \"#utility.yul\":2996:2998   */\n      0x1f\n        /* \"#utility.yul\":2989:2994   */\n      dup4\n        /* \"#utility.yul\":2985:2999   */\n      add\n        /* \"#utility.yul\":2981:3009   */\n      and\n        /* \"#utility.yul\":2971:3009   */\n      swap1\n      pop\n        /* \"#utility.yul\":2913:3015   */\n      swap2\n      swap1\n      pop\n      jump\t// out\n        /* \"#utility.yul\":3021:3398   */\n    tag_140:\n        /* \"#utility.yul\":3109:3112   */\n      0x00\n        /* \"#utility.yul\":3137:3176   */\n      tag_198\n        /* \"#utility.yul\":3170:3175   */\n      dup3\n        /* \"#utility.yul\":3137:3176   */\n      tag_136\n      jump\t// in\n    tag_198:\n        /* \"#utility.yul\":3192:3263   */\n      tag_199\n        /* \"#utility.yul\":3256:3262   */\n      dup2\n        /* \"#utility.yul\":3251:3254   */\n      dup6\n        /* \"#utility.yul\":3192:3263   */\n      tag_137\n      jump\t// in\n    tag_199:\n        /* \"#utility.yul\":3185:3263   */\n      swap4\n      pop\n        /* \"#utility.yul\":3272:3337   */\n      tag_200\n        /* \"#utility.yul\":3330:3336   */\n      dup2\n        /* \"#utility.yul\":3325:3328   */\n      dup6\n        /* \"#utility.yul\":3318:3322   */\n      0x20\n        /* \"#utility.yul\":3311:3316   */\n      dup7\n        /* \"#utility.yul\":3307:3323   */\n      add\n        /* \"#utility.yul\":3272:3337   */\n      tag_138\n      jump\t// in\n    tag_200:\n        /* \"#utility.yul\":3362:3391   */\n      tag_201\n        /* \"#utility.yul\":3384:3390   */\n      dup2\n        /* \"#utility.yul\":3362:3391   */\n      tag_139\n      jump\t// in\n    tag_201:\n        /* \"#utility.yul\":3357:3360   */\n      dup5\n        /* \"#utility.yul\":3353:3392   */\n      add\n        /* \"#utility.yul\":3346:3392   */\n      swap2\n      pop\n        /* \"#utility.yul\":3113:3398   */\n      pop\n        /* \"#utility.yul\":3021:3398   */\n      swap3\n      swap2\n      pop\n      pop\n      jump\t// out\n        /* \"#utility.yul\":3404:3717   */\n    tag_42:\n        /* \"#utility.yul\":3517:3521   */\n      0x00\n        /* \"#utility.yul\":3555:3557   */\n      0x20\n        /* \"#utility.yul\":3544:3553   */\n      dup3\n        /* \"#utility.yul\":3540:3558   */\n      add\n        /* \"#utility.yul\":3532:3558   */\n      swap1\n      pop\n        /* \"#utility.yul\":3604:3613   */\n      dup2\n        /* \"#utility.yul\":3598:3602   */\n      dup2\n        /* \"#utility.yul\":3594:3614   */\n      sub\n        /* \"#utility.yul\":3590:3591   */\n      0x00\n        /* \"#utility.yul\":3579:3588   */\n      dup4\n        /* \"#utility.yul\":3575:3592   */\n      add\n        /* \"#utility.yul\":3568:3615   */\n      mstore\n        /* \"#utility.yul\":3632:3710   */\n      tag_203\n        /* \"#utility.yul\":3705:3709   */\n      dup2\n        /* \"#utility.yul\":3696:3702   */\n      dup5\n        /* \"#utility.yul\":3632:3710   */\n      tag_140\n      jump\t// in\n    tag_203:\n        /* \"#utility.yul\":3624:3710   */\n      swap1\n      pop\n        /* \"#utility.yul\":3404:3717   */\n      swap3\n      swap2\n      pop\n      pop\n      jump\t// out\n        /* \"#utility.yul\":3723:3840   */\n    tag_141:\n        /* \"#utility.yul\":3832:3833   */\n      0x00\n        /* \"#utility.yul\":3829:3830   */\n      dup1\n        /* \"#utility.yul\":3822:3834   */\n      revert\n        /* \"#utility.yul\":3846:3963   */\n    tag_142:\n        /* \"#utility.yul\":3955:3956   */\n      0x00\n        /* \"#utility.yul\":3952:3953   */\n      dup1\n        /* \"#utility.yul\":3945:3957   */\n      revert\n        /* \"#utility.yul\":3969:4149   */\n    tag_143:\n        /* \"#utility.yul\":4017:4094   */\n      0x4e487b7100000000000000000000000000000000000000000000000000000000\n        /* \"#utility.yul\":4014:4015   */\n      0x00\n        /* \"#utility.yul\":4007:4095   */\n      mstore\n        /* \"#utility.yul\":4114:4118   */\n      0x41\n        /* \"#utility.yul\":4111:4112   */\n      0x04\n        /* \"#utility.yul\":4104:4119   */\n      mstore\n        /* \"#utility.yul\":4138:4142   */\n      0x24\n        /* \"#utility.yul\":4135:4136   */\n      0x00\n        /* \"#utility.yul\":4128:4143   */\n      revert\n        /* \"#utility.yul\":4155:4436   */\n    tag_144:\n        /* \"#utility.yul\":4238:4265   */\n      tag_208\n        /* \"#utility.yul\":4260:4264   */\n      dup3\n        /* \"#utility.yul\":4238:4265   */\n      tag_139\n      jump\t// in\n    tag_208:\n        /* \"#utility.yul\":4230:4236   */\n      dup2\n        /* \"#utility.yul\":4226:4266   */\n      add\n        /* \"#utility.yul\":4368:4374   */\n      dup2\n        /* \"#utility.yul\":4356:4366   */\n      dup2\n        /* \"#utility.yul\":4353:4375   */\n      lt\n        /* \"#utility.yul\":4332:4350   */\n      0xffffffffffffffff\n        /* \"#utility.yul\":4320:4330   */\n      dup3\n        /* \"#utility.yul\":4317:4351   */\n      gt\n        /* \"#utility.yul\":4314:4376   */\n      or\n        /* \"#utility.yul\":4311:4399   */\n      iszero\n      tag_209\n      jumpi\n        /* \"#utility.yul\":4379:4397   */\n      tag_210\n      tag_143\n      jump\t// in\n    tag_210:\n        /* \"#utility.yul\":4311:4399   */\n    tag_209:\n        /* \"#utility.yul\":4419:4429   */\n      dup1\n        /* \"#utility.yul\":4415:4417   */\n      0x40\n        /* \"#utility.yul\":4408:4430   */\n      mstore\n        /* \"#utility.yul\":4198:4436   */\n      pop\n        /* \"#utility.yul\":4155:4436   */\n      pop\n      pop\n      jump\t// out\n        /* \"#utility.yul\":4442:4571   */\n    tag_145:\n        /* \"#utility.yul\":4476:4482   */\n      0x00\n        /* \"#utility.yul\":4503:4523   */\n      tag_212\n      tag_124\n      jump\t// in\n    tag_212:\n        /* \"#utility.yul\":4493:4523   */\n      swap1\n      pop\n        /* \"#utility.yul\":4532:4565   */\n      tag_213\n        /* \"#utility.yul\":4560:4564   */\n      dup3\n        /* \"#utility.yul\":4552:4558   */\n      dup3\n        /* \"#utility.yul\":4532:4565   */\n      tag_144\n      jump\t// in\n    tag_213:\n        /* \"#utility.yul\":4442:4571   */\n      swap2\n      swap1\n      pop\n      jump\t// out\n        /* \"#utility.yul\":4577:4885   */\n    tag_146:\n        /* \"#utility.yul\":4639:4643   */\n      0x00\n        /* \"#utility.yul\":4729:4747   */\n      0xffffffffffffffff\n        /* \"#utility.yul\":4721:4727   */\n      dup3\n        /* \"#utility.yul\":4718:4748   */\n      gt\n        /* \"#utility.yul\":4715:4771   */\n      iszero\n      tag_215\n      jumpi\n        /* \"#utility.yul\":4751:4769   */\n      tag_216\n      tag_143\n      jump\t// in\n    tag_216:\n        /* \"#utility.yul\":4715:4771   */\n    tag_215:\n        /* \"#utility.yul\":4789:4818   */\n      tag_217\n        /* \"#utility.yul\":4811:4817   */\n      dup3\n        /* \"#utility.yul\":4789:4818   */\n      tag_139\n      jump\t// in\n    tag_217:\n        /* \"#utility.yul\":4781:4818   */\n      swap1\n      pop\n        /* \"#utility.yul\":4873:4877   */\n      0x20\n        /* \"#utility.yul\":4867:4871   */\n      dup2\n        /* \"#utility.yul\":4863:4878   */\n      add\n        /* \"#utility.yul\":4855:4878   */\n      swap1\n      pop\n        /* \"#utility.yul\":4577:4885   */\n      swap2\n      swap1\n      pop\n      jump\t// out\n        /* \"#utility.yul\":4891:5039   */\n    tag_147:\n        /* \"#utility.yul\":4989:4995   */\n      dup3\n        /* \"#utility.yul\":4984:4987   */\n      dup2\n        /* \"#utility.yul\":4979:4982   */\n      dup4\n        /* \"#utility.yul\":4966:4996   */\n      calldatacopy\n        /* \"#utility.yul\":5030:5031   */\n      0x00\n        /* \"#utility.yul\":5021:5027   */\n      dup4\n        /* \"#utility.yul\":5016:5019   */\n      dup4\n        /* \"#utility.yul\":5012:5028   */\n      add\n        /* \"#utility.yul\":5005:5032   */\n      mstore\n        /* \"#utility.yul\":4891:5039   */\n      pop\n      pop\n      pop\n      jump\t// out\n        /* \"#utility.yul\":5045:5470   */\n    tag_148:\n        /* \"#utility.yul\":5123:5128   */\n      0x00\n        /* \"#utility.yul\":5148:5214   */\n      tag_220\n        /* \"#utility.yul\":5164:5213   */\n      tag_221\n        /* \"#utility.yul\":5206:5212   */\n      dup5\n        /* \"#utility.yul\":5164:5213   */\n      tag_146\n      jump\t// in\n    tag_221:\n        /* \"#utility.yul\":5148:5214   */\n      tag_145\n      jump\t// in\n    tag_220:\n        /* \"#utility.yul\":5139:5214   */\n      swap1\n      pop\n        /* \"#utility.yul\":5237:5243   */\n      dup3\n        /* \"#utility.yul\":5230:5235   */\n      dup2\n        /* \"#utility.yul\":5223:5244   */\n      mstore\n        /* \"#utility.yul\":5275:5279   */\n      0x20\n        /* \"#utility.yul\":5268:5273   */\n      dup2\n        /* \"#utility.yul\":5264:5280   */\n      add\n        /* \"#utility.yul\":5313:5316   */\n      dup5\n        /* \"#utility.yul\":5304:5310   */\n      dup5\n        /* \"#utility.yul\":5299:5302   */\n      dup5\n        /* \"#utility.yul\":5295:5311   */\n      add\n        /* \"#utility.yul\":5292:5317   */\n      gt\n        /* \"#utility.yul\":5289:5401   */\n      iszero\n      tag_222\n      jumpi\n        /* \"#utility.yul\":5320:5399   */\n      tag_223\n      tag_142\n      jump\t// in\n    tag_223:\n        /* \"#utility.yul\":5289:5401   */\n    tag_222:\n        /* \"#utility.yul\":5410:5464   */\n      tag_224\n        /* \"#utility.yul\":5457:5463   */\n      dup5\n        /* \"#utility.yul\":5452:5455   */\n      dup3\n        /* \"#utility.yul\":5447:5450   */\n      dup6\n        /* \"#utility.yul\":5410:5464   */\n      tag_147\n      jump\t// in\n    tag_224:\n        /* \"#utility.yul\":5129:5470   */\n      pop\n        /* \"#utility.yul\":5045:5470   */\n      swap4\n      swap3\n      pop\n      pop\n      pop\n      jump\t// out\n        /* \"#utility.yul\":5490:5830   */\n    tag_149:\n        /* \"#utility.yul\":5546:5551   */\n      0x00\n        /* \"#utility.yul\":5595:5598   */\n      dup3\n        /* \"#utility.yul\":5588:5592   */\n      0x1f\n        /* \"#utility.yul\":5580:5586   */\n      dup4\n        /* \"#utility.yul\":5576:5593   */\n      add\n        /* \"#utility.yul\":5572:5599   */\n      slt\n        /* \"#utility.yul\":5562:5684   */\n      tag_226\n      jumpi\n        /* \"#utility.yul\":5603:5682   */\n      tag_227\n      tag_141\n      jump\t// in\n    tag_227:\n        /* \"#utility.yul\":5562:5684   */\n    tag_226:\n        /* \"#utility.yul\":5720:5726   */\n      dup2\n        /* \"#utility.yul\":5707:5727   */\n      calldataload\n        /* \"#utility.yul\":5745:5824   */\n      tag_228\n        /* \"#utility.yul\":5820:5823   */\n      dup5\n        /* \"#utility.yul\":5812:5818   */\n      dup3\n        /* \"#utility.yul\":5805:5809   */\n      0x20\n        /* \"#utility.yul\":5797:5803   */\n      dup7\n        /* \"#utility.yul\":5793:5810   */\n      add\n        /* \"#utility.yul\":5745:5824   */\n      tag_148\n      jump\t// in\n    tag_228:\n        /* \"#utility.yul\":5736:5824   */\n      swap2\n      pop\n        /* \"#utility.yul\":5552:5830   */\n      pop\n        /* \"#utility.yul\":5490:5830   */\n      swap3\n      swap2\n      pop\n      pop\n      jump\t// out\n        /* \"#utility.yul\":5836:6490   */\n    tag_45:\n        /* \"#utility.yul\":5914:5920   */\n      0x00\n        /* \"#utility.yul\":5922:5928   */\n      dup1\n        /* \"#utility.yul\":5971:5973   */\n      0x40\n        /* \"#utility.yul\":5959:5968   */\n      dup4\n        /* \"#utility.yul\":5950:5957   */\n      dup6\n        /* \"#utility.yul\":5946:5969   */\n      sub\n        /* \"#utility.yul\":5942:5974   */\n      slt\n        /* \"#utility.yul\":5939:6058   */\n      iszero\n      tag_230\n      jumpi\n        /* \"#utility.yul\":5977:6056   */\n      tag_231\n      tag_125\n      jump\t// in\n    tag_231:\n        /* \"#utility.yul\":5939:6058   */\n    tag_230:\n        /* \"#utility.yul\":6125:6126   */\n      0x00\n        /* \"#utility.yul\":6114:6123   */\n      dup4\n        /* \"#utility.yul\":6110:6127   */\n      add\n        /* \"#utility.yul\":6097:6128   */\n      calldataload\n        /* \"#utility.yul\":6155:6173   */\n      0xffffffffffffffff\n        /* \"#utility.yul\":6147:6153   */\n      dup2\n        /* \"#utility.yul\":6144:6174   */\n      gt\n        /* \"#utility.yul\":6141:6258   */\n      iszero\n      tag_232\n      jumpi\n        /* \"#utility.yul\":6177:6256   */\n      tag_233\n      tag_126\n      jump\t// in\n    tag_233:\n        /* \"#utility.yul\":6141:6258   */\n    tag_232:\n        /* \"#utility.yul\":6282:6345   */\n      tag_234\n        /* \"#utility.yul\":6337:6344   */\n      dup6\n        /* \"#utility.yul\":6328:6334   */\n      dup3\n        /* \"#utility.yul\":6317:6326   */\n      dup7\n        /* \"#utility.yul\":6313:6335   */\n      add\n        /* \"#utility.yul\":6282:6345   */\n      tag_149\n      jump\t// in\n    tag_234:\n        /* \"#utility.yul\":6272:6345   */\n      swap3\n      pop\n        /* \"#utility.yul\":6068:6355   */\n      pop\n        /* \"#utility.yul\":6394:6396   */\n      0x20\n        /* \"#utility.yul\":6420:6473   */\n      tag_235\n        /* \"#utility.yul\":6465:6472   */\n      dup6\n        /* \"#utility.yul\":6456:6462   */\n      dup3\n        /* \"#utility.yul\":6445:6454   */\n      dup7\n        /* \"#utility.yul\":6441:6463   */\n      add\n        /* \"#utility.yul\":6420:6473   */\n      tag_135\n      jump\t// in\n    tag_235:\n        /* \"#utility.yul\":6410:6473   */\n      swap2\n      pop\n        /* \"#utility.yul\":6365:6483   */\n      pop\n        /* \"#utility.yul\":5836:6490   */\n      swap3\n      pop\n      swap3\n      swap1\n      pop\n      jump\t// out\n        /* \"#utility.yul\":6496:7005   */\n    tag_49:\n        /* \"#utility.yul\":6565:6571   */\n      0x00\n        /* \"#utility.yul\":6614:6616   */\n      0x20\n        /* \"#utility.yul\":6602:6611   */\n      dup3\n        /* \"#utility.yul\":6593:6600   */\n      dup5\n        /* \"#utility.yul\":6589:6612   */\n      sub\n        /* \"#utility.yul\":6585:6617   */\n      slt\n        /* \"#utility.yul\":6582:6701   */\n      iszero\n      tag_237\n      jumpi\n        /* \"#utility.yul\":6620:6699   */\n      tag_238\n      tag_125\n      jump\t// in\n    tag_238:\n        /* \"#utility.yul\":6582:6701   */\n    tag_237:\n        /* \"#utility.yul\":6768:6769   */\n      0x00\n        /* \"#utility.yul\":6757:6766   */\n      dup3\n        /* \"#utility.yul\":6753:6770   */\n      add\n        /* \"#utility.yul\":6740:6771   */\n      calldataload\n        /* \"#utility.yul\":6798:6816   */\n      0xffffffffffffffff\n        /* \"#utility.yul\":6790:6796   */\n      dup2\n        /* \"#utility.yul\":6787:6817   */\n      gt\n        /* \"#utility.yul\":6784:6901   */\n      iszero\n      tag_239\n      jumpi\n        /* \"#utility.yul\":6820:6899   */\n      tag_240\n      tag_126\n      jump\t// in\n    tag_240:\n        /* \"#utility.yul\":6784:6901   */\n    tag_239:\n        /* \"#utility.yul\":6925:6988   */\n      tag_241\n        /* \"#utility.yul\":6980:6987   */\n      dup5\n        /* \"#utility.yul\":6971:6977   */\n      dup3\n        /* \"#utility.yul\":6960:6969   */\n      dup6\n        /* \"#utility.yul\":6956:6978   */\n      add\n        /* \"#utility.yul\":6925:6988   */\n      tag_149\n      jump\t// in\n    tag_241:\n        /* \"#utility.yul\":6915:6988   */\n      swap2\n      pop\n        /* \"#utility.yul\":6711:6998   */\n      pop\n        /* \"#utility.yul\":6496:7005   */\n      swap3\n      swap2\n      pop\n      pop\n      jump\t// out\n        /* \"#utility.yul\":7011:7434   */\n    tag_58:\n        /* \"#utility.yul\":7152:7156   */\n      0x00\n        /* \"#utility.yul\":7190:7192   */\n      0x40\n        /* \"#utility.yul\":7179:7188   */\n      dup3\n        /* \"#utility.yul\":7175:7193   */\n      add\n        /* \"#utility.yul\":7167:7193   */\n      swap1\n      pop\n        /* \"#utility.yul\":7239:7248   */\n      dup2\n        /* \"#utility.yul\":7233:7237   */\n      dup2\n        /* \"#utility.yul\":7229:7249   */\n      sub\n        /* \"#utility.yul\":7225:7226   */\n      0x00\n        /* \"#utility.yul\":7214:7223   */\n      dup4\n        /* \"#utility.yul\":7210:7227   */\n      add\n        /* \"#utility.yul\":7203:7250   */\n      mstore\n        /* \"#utility.yul\":7267:7345   */\n      tag_243\n        /* \"#utility.yul\":7340:7344   */\n      dup2\n        /* \"#utility.yul\":7331:7337   */\n      dup6\n        /* \"#utility.yul\":7267:7345   */\n      tag_140\n      jump\t// in\n    tag_243:\n        /* \"#utility.yul\":7259:7345   */\n      swap1\n      pop\n        /* \"#utility.yul\":7355:7427   */\n      tag_244\n        /* \"#utility.yul\":7423:7425   */\n      0x20\n        /* \"#utility.yul\":7412:7421   */\n      dup4\n        /* \"#utility.yul\":7408:7426   */\n      add\n        /* \"#utility.yul\":7399:7405   */\n      dup5\n        /* \"#utility.yul\":7355:7427   */\n      tag_133\n      jump\t// in\n    tag_244:\n        /* \"#utility.yul\":7011:7434   */\n      swap4\n      swap3\n      pop\n      pop\n      pop\n      jump\t// out\n        /* \"#utility.yul\":7440:7620   */\n    tag_91:\n        /* \"#utility.yul\":7488:7565   */\n      0x4e487b7100000000000000000000000000000000000000000000000000000000\n        /* \"#utility.yul\":7485:7486   */\n      0x00\n        /* \"#utility.yul\":7478:7566   */\n      mstore\n        /* \"#utility.yul\":7585:7589   */\n      0x21\n        /* \"#utility.yul\":7582:7583   */\n      0x04\n        /* \"#utility.yul\":7575:7590   */\n      mstore\n        /* \"#utility.yul\":7609:7613   */\n      0x24\n        /* \"#utility.yul\":7606:7607   */\n      0x00\n        /* \"#utility.yul\":7599:7614   */\n      revert\n        /* \"#utility.yul\":7626:7747   */\n    tag_150:\n        /* \"#utility.yul\":7715:7716   */\n      0x02\n        /* \"#utility.yul\":7708:7713   */\n      dup2\n        /* \"#utility.yul\":7705:7717   */\n      lt\n        /* \"#utility.yul\":7695:7741   */\n      tag_247\n      jumpi\n        /* \"#utility.yul\":7721:7739   */\n      tag_248\n      tag_91\n      jump\t// in\n    tag_248:\n        /* \"#utility.yul\":7695:7741   */\n    tag_247:\n        /* \"#utility.yul\":7626:7747   */\n      pop\n      jump\t// out\n        /* \"#utility.yul\":7753:7896   */\n    tag_151:\n        /* \"#utility.yul\":7806:7813   */\n      0x00\n        /* \"#utility.yul\":7835:7840   */\n      dup2\n        /* \"#utility.yul\":7824:7840   */\n      swap1\n      pop\n        /* \"#utility.yul\":7841:7890   */\n      tag_250\n        /* \"#utility.yul\":7884:7889   */\n      dup3\n        /* \"#utility.yul\":7841:7890   */\n      tag_150\n      jump\t// in\n    tag_250:\n        /* \"#utility.yul\":7753:7896   */\n      swap2\n      swap1\n      pop\n      jump\t// out\n        /* \"#utility.yul\":7902:8045   */\n    tag_152:\n        /* \"#utility.yul\":7966:7975   */\n      0x00\n        /* \"#utility.yul\":7999:8039   */\n      tag_252\n        /* \"#utility.yul\":8033:8038   */\n      dup3\n        /* \"#utility.yul\":7999:8039   */\n      tag_151\n      jump\t// in\n    tag_252:\n        /* \"#utility.yul\":7986:8039   */\n      swap1\n      pop\n        /* \"#utility.yul\":7902:8045   */\n      swap2\n      swap1\n      pop\n      jump\t// out\n        /* \"#utility.yul\":8051:8210   */\n    tag_153:\n        /* \"#utility.yul\":8152:8203   */\n      tag_254\n        /* \"#utility.yul\":8197:8202   */\n      dup2\n        /* \"#utility.yul\":8152:8203   */\n      tag_152\n      jump\t// in\n    tag_254:\n        /* \"#utility.yul\":8147:8150   */\n      dup3\n        /* \"#utility.yul\":8140:8204   */\n      mstore\n        /* \"#utility.yul\":8051:8210   */\n      pop\n      pop\n      jump\t// out\n        /* \"#utility.yul\":8216:8466   */\n    tag_73:\n        /* \"#utility.yul\":8323:8327   */\n      0x00\n        /* \"#utility.yul\":8361:8363   */\n      0x20\n        /* \"#utility.yul\":8350:8359   */\n      dup3\n        /* \"#utility.yul\":8346:8364   */\n      add\n        /* \"#utility.yul\":8338:8364   */\n      swap1\n      pop\n        /* \"#utility.yul\":8374:8459   */\n      tag_256\n        /* \"#utility.yul\":8456:8457   */\n      0x00\n        /* \"#utility.yul\":8445:8454   */\n      dup4\n        /* \"#utility.yul\":8441:8458   */\n      add\n        /* \"#utility.yul\":8432:8438   */\n      dup5\n        /* \"#utility.yul\":8374:8459   */\n      tag_153\n      jump\t// in\n    tag_256:\n        /* \"#utility.yul\":8216:8466   */\n      swap3\n      swap2\n      pop\n      pop\n      jump\t// out\n        /* \"#utility.yul\":8472:8652   */\n    tag_154:\n        /* \"#utility.yul\":8520:8597   */\n      0x4e487b7100000000000000000000000000000000000000000000000000000000\n        /* \"#utility.yul\":8517:8518   */\n      0x00\n        /* \"#utility.yul\":8510:8598   */\n      mstore\n        /* \"#utility.yul\":8617:8621   */\n      0x11\n        /* \"#utility.yul\":8614:8615   */\n      0x04\n        /* \"#utility.yul\":8607:8622   */\n      mstore\n        /* \"#utility.yul\":8641:8645   */\n      0x24\n        /* \"#utility.yul\":8638:8639   */\n      0x00\n        /* \"#utility.yul\":8631:8646   */\n      revert\n        /* \"#utility.yul\":8658:8849   */\n    tag_85:\n        /* \"#utility.yul\":8698:8701   */\n      0x00\n        /* \"#utility.yul\":8717:8737   */\n      tag_259\n        /* \"#utility.yul\":8735:8736   */\n      dup3\n        /* \"#utility.yul\":8717:8737   */\n      tag_132\n      jump\t// in\n    tag_259:\n        /* \"#utility.yul\":8712:8737   */\n      swap2\n      pop\n        /* \"#utility.yul\":8751:8771   */\n      tag_260\n        /* \"#utility.yul\":8769:8770   */\n      dup4\n        /* \"#utility.yul\":8751:8771   */\n      tag_132\n      jump\t// in\n    tag_260:\n        /* \"#utility.yul\":8746:8771   */\n      swap3\n      pop\n        /* \"#utility.yul\":8794:8795   */\n      dup3\n        /* \"#utility.yul\":8791:8792   */\n      dup3\n        /* \"#utility.yul\":8787:8796   */\n      add\n        /* \"#utility.yul\":8780:8796   */\n      swap1\n      pop\n        /* \"#utility.yul\":8815:8818   */\n      dup1\n        /* \"#utility.yul\":8812:8813   */\n      dup3\n        /* \"#utility.yul\":8809:8819   */\n      gt\n        /* \"#utility.yul\":8806:8842   */\n      iszero\n      tag_261\n      jumpi\n        /* \"#utility.yul\":8822:8840   */\n      tag_262\n      tag_154\n      jump\t// in\n    tag_262:\n        /* \"#utility.yul\":8806:8842   */\n    tag_261:\n        /* \"#utility.yul\":8658:8849   */\n      swap3\n      swap2\n      pop\n      pop\n      jump\t// out\n        /* \"#utility.yul\":8855:9088   */\n    tag_87:\n        /* \"#utility.yul\":8894:8897   */\n      0x00\n        /* \"#utility.yul\":8917:8941   */\n      tag_264\n        /* \"#utility.yul\":8935:8940   */\n      dup3\n        /* \"#utility.yul\":8917:8941   */\n      tag_132\n      jump\t// in\n    tag_264:\n        /* \"#utility.yul\":8908:8941   */\n      swap2\n      pop\n        /* \"#utility.yul\":8963:9029   */\n      0xffffffffffffffffffffffffffffffffffffffffffffffffffffffffffffffff\n        /* \"#utility.yul\":8956:8961   */\n      dup3\n        /* \"#utility.yul\":8953:9030   */\n      sub\n        /* \"#utility.yul\":8950:9053   */\n      tag_265\n      jumpi\n        /* \"#utility.yul\":9033:9051   */\n      tag_266\n      tag_154\n      jump\t// in\n    tag_266:\n        /* \"#utility.yul\":8950:9053   */\n    tag_265:\n        /* \"#utility.yul\":9080:9081   */\n      0x01\n        /* \"#utility.yul\":9073:9078   */\n      dup3\n        /* \"#utility.yul\":9069:9082   */\n      add\n        /* \"#utility.yul\":9062:9082   */\n      swap1\n      pop\n        /* \"#utility.yul\":8855:9088   */\n      swap2\n      swap1\n      pop\n      jump\t// out\n        /* \"#utility.yul\":9094:9242   */\n    tag_155:\n        /* \"#utility.yul\":9196:9207   */\n      0x00\n        /* \"#utility.yul\":9233:9236   */\n      dup2\n        /* \"#utility.yul\":9218:9236   */\n      swap1\n      pop\n        /* \"#utility.yul\":9094:9242   */\n      swap3\n      swap2\n      pop\n      pop\n      jump\t// out\n        /* \"#utility.yul\":9248:9638   */\n    tag_156:\n        /* \"#utility.yul\":9354:9357   */\n      0x00\n        /* \"#utility.yul\":9382:9421   */\n      tag_269\n        /* \"#utility.yul\":9415:9420   */\n      dup3\n        /* \"#utility.yul\":9382:9421   */\n      tag_136\n      jump\t// in\n    tag_269:\n        /* \"#utility.yul\":9437:9526   */\n      tag_270\n        /* \"#utility.yul\":9519:9525   */\n      dup2\n        /* \"#utility.yul\":9514:9517   */\n      dup6\n        /* \"#utility.yul\":9437:9526   */\n      tag_155\n      jump\t// in\n    tag_270:\n        /* \"#utility.yul\":9430:9526   */\n      swap4\n      pop\n        /* \"#utility.yul\":9535:9600   */\n      tag_271\n        /* \"#utility.yul\":9593:9599   */\n      dup2\n        /* \"#utility.yul\":9588:9591   */\n      dup6\n        /* \"#utility.yul\":9581:9585   */\n      0x20\n        /* \"#utility.yul\":9574:9579   */\n      dup7\n        /* \"#utility.yul\":9570:9586   */\n      add\n        /* \"#utility.yul\":9535:9600   */\n      tag_138\n      jump\t// in\n    tag_271:\n        /* \"#utility.yul\":9625:9631   */\n      dup1\n        /* \"#utility.yul\":9620:9623   */\n      dup5\n        /* \"#utility.yul\":9616:9632   */\n      add\n        /* \"#utility.yul\":9609:9632   */\n      swap2\n      pop\n        /* \"#utility.yul\":9358:9638   */\n      pop\n        /* \"#utility.yul\":9248:9638   */\n      swap3\n      swap2\n      pop\n      pop\n      jump\t// out\n        /* \"#utility.yul\":9644:9919   */\n    tag_99:\n        /* \"#utility.yul\":9776:9779   */\n      0x00\n        /* \"#utility.yul\":9798:9893   */\n      tag_273\n        /* \"#utility.yul\":9889:9892   */\n      dup3\n        /* \"#utility.yul\":9880:9886   */\n      dup5\n        /* \"#utility.yul\":9798:9893   */\n      tag_156\n      jump\t// in\n    tag_273:\n        /* \"#utility.yul\":9791:9893   */\n      swap2\n      pop\n        /* \"#utility.yul\":9910:9913   */\n      dup2\n        /* \"#utility.yul\":9903:9913   */\n      swap1\n      pop\n        /* \"#utility.yul\":9644:9919   */\n      swap3\n      swap2\n      pop\n      pop\n      jump\t// out\n        /* \"#utility.yul\":9925:10105   */\n    tag_157:\n        /* \"#utility.yul\":9973:10050   */\n      0x4e487b7100000000000000000000000000000000000000000000000000000000\n        /* \"#utility.yul\":9970:9971   */\n      0x00\n        /* \"#utility.yul\":9963:10051   */\n      mstore\n        /* \"#utility.yul\":10070:10074   */\n      0x22\n        /* \"#utility.yul\":10067:10068   */\n      0x04\n        /* \"#utility.yul\":10060:10075   */\n      mstore\n        /* \"#utility.yul\":10094:10098   */\n      0x24\n        /* \"#utility.yul\":10091:10092   */\n      0x00\n        /* \"#utility.yul\":10084:10099   */\n      revert\n        /* \"#utility.yul\":10111:10431   */\n    tag_106:\n        /* \"#utility.yul\":10155:10161   */\n      0x00\n        /* \"#utility.yul\":10192:10193   */\n      0x02\n        /* \"#utility.yul\":10186:10190   */\n      dup3\n        /* \"#utility.yul\":10182:10194   */\n      div\n        /* \"#utility.yul\":10172:10194   */\n      swap1\n      pop\n        /* \"#utility.yul\":10239:10240   */\n      0x01\n        /* \"#utility.yul\":10233:10237   */\n      dup3\n        /* \"#utility.yul\":10229:10241   */\n      and\n        /* \"#utility.yul\":10260:10278   */\n      dup1\n        /* \"#utility.yul\":10250:10331   */\n      tag_276\n      jumpi\n        /* \"#utility.yul\":10316:10320   */\n      0x7f\n        /* \"#utility.yul\":10308:10314   */\n      dup3\n        /* \"#utility.yul\":10304:10321   */\n      and\n        /* \"#utility.yul\":10294:10321   */\n      swap2\n      pop\n        /* \"#utility.yul\":10250:10331   */\n    tag_276:\n        /* \"#utility.yul\":10378:10380   */\n      0x20\n        /* \"#utility.yul\":10370:10376   */\n      dup3\n        /* \"#utility.yul\":10367:10381   */\n      lt\n        /* \"#utility.yul\":10347:10365   */\n      dup2\n        /* \"#utility.yul\":10344:10382   */\n      sub\n        /* \"#utility.yul\":10341:10425   */\n      tag_277\n      jumpi\n        /* \"#utility.yul\":10397:10415   */\n      tag_278\n      tag_157\n      jump\t// in\n    tag_278:\n        /* \"#utility.yul\":10341:10425   */\n    tag_277:\n        /* \"#utility.yul\":10162:10431   */\n      pop\n        /* \"#utility.yul\":10111:10431   */\n      swap2\n      swap1\n      pop\n      jump\t// out\n        /* \"#utility.yul\":10437:10871   */\n    tag_158:\n        /* \"#utility.yul\":10526:10531   */\n      0x00\n        /* \"#utility.yul\":10551:10617   */\n      tag_280\n        /* \"#utility.yul\":10567:10616   */\n      tag_281\n        /* \"#utility.yul\":10609:10615   */\n      dup5\n        /* \"#utility.yul\":10567:10616   */\n      tag_146\n      jump\t// in\n    tag_281:\n        /* \"#utility.yul\":10551:10617   */\n      tag_145\n      jump\t// in\n    tag_280:\n        /* \"#utility.yul\":10542:10617   */\n      swap1\n      pop\n        /* \"#utility.yul\":10640:10646   */\n      dup3\n        /* \"#utility.yul\":10633:10638   */\n      dup2\n        /* \"#utility.yul\":10626:10647   */\n      mstore\n        /* \"#utility.yul\":10678:10682   */\n      0x20\n        /* \"#utility.yul\":10671:10676   */\n      dup2\n        /* \"#utility.yul\":10667:10683   */\n      add\n        /* \"#utility.yul\":10716:10719   */\n      dup5\n        /* \"#utility.yul\":10707:10713   */\n      dup5\n        /* \"#utility.yul\":10702:10705   */\n      dup5\n        /* \"#utility.yul\":10698:10714   */\n      add\n        /* \"#utility.yul\":10695:10720   */\n      gt\n        /* \"#utility.yul\":10692:10804   */\n      iszero\n      tag_282\n      jumpi\n        /* \"#utility.yul\":10723:10802   */\n      tag_283\n      tag_142\n      jump\t// in\n    tag_283:\n        /* \"#utility.yul\":10692:10804   */\n    tag_282:\n        /* \"#utility.yul\":10813:10865   */\n      tag_284\n        /* \"#utility.yul\":10858:10864   */\n      dup5\n        /* \"#utility.yul\":10853:10856   */\n      dup3\n        /* \"#utility.yul\":10848:10851   */\n      dup6\n        /* \"#utility.yul\":10813:10865   */\n      tag_138\n      jump\t// in\n    tag_284:\n        /* \"#utility.yul\":10532:10871   */\n      pop\n        /* \"#utility.yul\":10437:10871   */\n      swap4\n      swap3\n      pop\n      pop\n      pop\n      jump\t// out\n        /* \"#utility.yul\":10891:11246   */\n    tag_159:\n        /* \"#utility.yul\":10958:10963   */\n      0x00\n        /* \"#utility.yul\":11007:11010   */\n      dup3\n        /* \"#utility.yul\":11000:11004   */\n      0x1f\n        /* \"#utility.yul\":10992:10998   */\n      dup4\n        /* \"#utility.yul\":10988:11005   */\n      add\n        /* \"#utility.yul\":10984:11011   */\n      slt\n        /* \"#utility.yul\":10974:11096   */\n      tag_286\n      jumpi\n        /* \"#utility.yul\":11015:11094   */\n      tag_287\n      tag_141\n      jump\t// in\n    tag_287:\n        /* \"#utility.yul\":10974:11096   */\n    tag_286:\n        /* \"#utility.yul\":11125:11131   */\n      dup2\n        /* \"#utility.yul\":11119:11132   */\n      mload\n        /* \"#utility.yul\":11150:11240   */\n      tag_288\n        /* \"#utility.yul\":11236:11239   */\n      dup5\n        /* \"#utility.yul\":11228:11234   */\n      dup3\n        /* \"#utility.yul\":11221:11225   */\n      0x20\n        /* \"#utility.yul\":11213:11219   */\n      dup7\n        /* \"#utility.yul\":11209:11226   */\n      add\n        /* \"#utility.yul\":11150:11240   */\n      tag_158\n      jump\t// in\n    tag_288:\n        /* \"#utility.yul\":11141:11240   */\n      swap2\n      pop\n        /* \"#utility.yul\":10964:11246   */\n      pop\n        /* \"#utility.yul\":10891:11246   */\n      swap3\n      swap2\n      pop\n      pop\n      jump\t// out\n        /* \"#utility.yul\":11252:11776   */\n    tag_123:\n        /* \"#utility.yul\":11332:11338   */\n      0x00\n        /* \"#utility.yul\":11381:11383   */\n      0x20\n        /* \"#utility.yul\":11369:11378   */\n      dup3\n        /* \"#utility.yul\":11360:11367   */\n      dup5\n        /* \"#utility.yul\":11356:11379   */\n      sub\n        /* \"#utility.yul\":11352:11384   */\n      slt\n        /* \"#utility.yul\":11349:11468   */\n      iszero\n      tag_290\n      jumpi\n        /* \"#utility.yul\":11387:11466   */\n      tag_291\n      tag_125\n      jump\t// in\n    tag_291:\n        /* \"#utility.yul\":11349:11468   */\n    tag_290:\n        /* \"#utility.yul\":11528:11529   */\n      0x00\n        /* \"#utility.yul\":11517:11526   */\n      dup3\n        /* \"#utility.yul\":11513:11530   */\n      add\n        /* \"#utility.yul\":11507:11531   */\n      mload\n        /* \"#utility.yul\":11558:11576   */\n      0xffffffffffffffff\n        /* \"#utility.yul\":11550:11556   */\n      dup2\n        /* \"#utility.yul\":11547:11577   */\n      gt\n        /* \"#utility.yul\":11544:11661   */\n      iszero\n      tag_292\n      jumpi\n        /* \"#utility.yul\":11580:11659   */\n      tag_293\n      tag_126\n      jump\t// in\n    tag_293:\n        /* \"#utility.yul\":11544:11661   */\n    tag_292:\n        /* \"#utility.yul\":11685:11759   */\n      tag_294\n        /* \"#utility.yul\":11751:11758   */\n      dup5\n        /* \"#utility.yul\":11742:11748   */\n      dup3\n        /* \"#utility.yul\":11731:11740   */\n      dup6\n        /* \"#utility.yul\":11727:11749   */\n      add\n        /* \"#utility.yul\":11685:11759   */\n      tag_159\n      jump\t// in\n    tag_294:\n        /* \"#utility.yul\":11675:11759   */\n      swap2\n      pop\n        /* \"#utility.yul\":11478:11769   */\n      pop\n        /* \"#utility.yul\":11252:11776   */\n      swap3\n      swap2\n      pop\n      pop\n      jump\t// out\n\n    auxdata: 0xa26469706673582212204a763fb145cd167674003bd83753010d4e1154c97e2084eea165246300d71d6964736f6c634300081a0033\n}\n",
				"bytecode": {
					"linkReferences": {},
					"object": "60806040526040518060400160405280601181526020017f486f6c647320736f6d6520737472696e67000000000000000000000000000000815250600590816100489190610294565b50348015610054575f80fd5b50610363565b5f81519050919050565b7f4e487b71000000000000000000000000000000000000000000000000000000005f52604160045260245ffd5b7f4e487b71000000000000000000000000000000000000000000000000000000005f52602260045260245ffd5b5f60028204905060018216806100d557607f821691505b6020821081036100e8576100e7610091565b5b50919050565b5f819050815f5260205f209050919050565b5f6020601f8301049050919050565b5f82821b905092915050565b5f6008830261014a7fffffffffffffffffffffffffffffffffffffffffffffffffffffffffffffffff8261010f565b610154868361010f565b95508019841693508086168417925050509392505050565b5f819050919050565b5f819050919050565b5f61019861019361018e8461016c565b610175565b61016c565b9050919050565b5f819050919050565b6101b18361017e565b6101c56101bd8261019f565b84845461011b565b825550505050565b5f90565b6101d96101cd565b6101e48184846101a8565b505050565b5b81811015610207576101fc5f826101d1565b6001810190506101ea565b5050565b601f82111561024c5761021d816100ee565b61022684610100565b81016020851015610235578190505b61024961024185610100565b8301826101e9565b50505b505050565b5f82821c905092915050565b5f61026c5f1984600802610251565b1980831691505092915050565b5f610284838361025d565b9150826002028217905092915050565b61029d8261005a565b67ffffffffffffffff8111156102b6576102b5610064565b5b6102c082546100be565b6102cb82828561020b565b5f60209050601f8311600181146102fc575f84156102ea578287015190505b6102f48582610279565b86555061035b565b601f19841661030a866100ee565b5f5b828110156103315784890151825560018201915060208501945060208101905061030c565b8683101561034e578489015161034a601f89168261025d565b8355505b6001600288020188555050505b505050505050565b610ca2806103705f395ff3fe608060405234801561000f575f80fd5b50600436106100f3575f3560e01c80638fda356d11610095578063b633941811610064578063b633941814610272578063bca353be1461028e578063c19d93fb14610298578063e0819c9a146102b6576100f3565b80638fda356d146101fd5780639e7a13ad14610207578063a621d15e14610238578063a7e1a36414610256576100f3565b806329cd1d96116100d157806329cd1d96146101635780633a32b549146101935780636f760f41146101b15780638bab8dd5146101cd576100f3565b80630664c448146100f75780630cd2636e1461012757806322f3e2d414610145575b5f80fd5b610111600480360381019061010c9190610668565b6102d4565b60405161011e91906106ad565b60405180910390f35b61012f6102f0565b60405161013c91906106de565b60405180910390f35b61014d61032c565b60405161015a91906106ad565b60405180910390f35b61017d60048036038101906101789190610721565b61036c565b60405161018a91906106de565b60405180910390f35b61019b61038c565b6040516101a891906107bc565b60405180910390f35b6101cb60048036038101906101c69190610908565b6103c9565b005b6101e760048036038101906101e29190610962565b6103f0565b6040516101f491906106de565b60405180910390f35b61020561041d565b005b610221600480360381019061021c9190610721565b610448565b60405161022f9291906109a9565b60405180910390f35b6102406104fd565b60405161024d91906106de565b60405180910390f35b610270600480360381019061026b9190610721565b610505565b005b61028c60048036038101906102879190610721565b61052e565b005b61029661056f565b005b6102a061059b565b6040516102ad9190610a4a565b60405180910390f35b6102be6105ad565b6040516102cb91906107bc565b60405180910390f35b5f815f5413156102e757600190506102eb565b5f90505b919050565b5f805f90505f600190505b5f54811161032457808261030f9190610a90565b9150808061031c90610ac3565b9150506102fb565b508091505090565b5f805f6001811115610341576103406109d7565b5b60035f9054906101000a900460ff166001811115610362576103616109d7565b5b1490508091505090565b6001818154811061037b575f80fd5b905f5260205f20015f915090505481565b60606040518060400160405280601c81526020017f5468697320697320616e2065787465726e616c2066756e6374696f6e00000000815250905090565b806004836040516103da9190610b44565b9081526020016040518091039020819055505050565b6004818051602081018201805184825260208301602085012081835280955050505050505f915090505481565b5f60035f6101000a81548160ff02191690836001811115610441576104406109d7565b5b0217905550565b60028181548110610457575f80fd5b905f5260205f2090600202015f91509050805f01805461047690610b87565b80601f01602080910402602001604051908101604052809291908181526020018280546104a290610b87565b80156104ed5780601f106104c4576101008083540402835291602001916104ed565b820191905f5260205f20905b8154815290600101906020018083116104d057829003601f168201915b5050505050908060010154905082565b5f8054905090565b600181908060018154018082558091505060019003905f5260205f20015f909190919091505550565b805f819055507f939f2783f4b99373bd9b6912aff8f7316ea141b98eb02e47c8a96bdae0d654b35f5460405161056491906106de565b60405180910390a150565b600160035f6101000a81548160ff02191690836001811115610594576105936109d7565b5b0217905550565b60035f9054906101000a900460ff1681565b60603073ffffffffffffffffffffffffffffffffffffffff16633a32b5496040518163ffffffff1660e01b81526004015f60405180830381865afa1580156105f7573d5f803e3d5ffd5b505050506040513d5f823e3d601f19601f8201168201806040525081019061061f9190610c25565b905090565b5f604051905090565b5f80fd5b5f80fd5b5f819050919050565b61064781610635565b8114610651575f80fd5b50565b5f813590506106628161063e565b92915050565b5f6020828403121561067d5761067c61062d565b5b5f61068a84828501610654565b91505092915050565b5f8115159050919050565b6106a781610693565b82525050565b5f6020820190506106c05f83018461069e565b92915050565b5f819050919050565b6106d8816106c6565b82525050565b5f6020820190506106f15f8301846106cf565b92915050565b610700816106c6565b811461070a575f80fd5b50565b5f8135905061071b816106f7565b92915050565b5f602082840312156107365761073561062d565b5b5f6107438482850161070d565b91505092915050565b5f81519050919050565b5f82825260208201905092915050565b8281835e5f83830152505050565b5f601f19601f8301169050919050565b5f61078e8261074c565b6107988185610756565b93506107a8818560208601610766565b6107b181610774565b840191505092915050565b5f6020820190508181035f8301526107d48184610784565b905092915050565b5f80fd5b5f80fd5b7f4e487b71000000000000000000000000000000000000000000000000000000005f52604160045260245ffd5b61081a82610774565b810181811067ffffffffffffffff82111715610839576108386107e4565b5b80604052505050565b5f61084b610624565b90506108578282610811565b919050565b5f67ffffffffffffffff821115610876576108756107e4565b5b61087f82610774565b9050602081019050919050565b828183375f83830152505050565b5f6108ac6108a78461085c565b610842565b9050828152602081018484840111156108c8576108c76107e0565b5b6108d384828561088c565b509392505050565b5f82601f8301126108ef576108ee6107dc565b5b81356108ff84826020860161089a565b91505092915050565b5f806040838503121561091e5761091d61062d565b5b5f83013567ffffffffffffffff81111561093b5761093a610631565b5b610947858286016108db565b92505060206109588582860161070d565b9150509250929050565b5f602082840312156109775761097661062d565b5b5f82013567ffffffffffffffff81111561099457610993610631565b5b6109a0848285016108db565b91505092915050565b5f6040820190508181035f8301526109c18185610784565b90506109d060208301846106cf565b9392505050565b7f4e487b71000000000000000000000000000000000000000000000000000000005f52602160045260245ffd5b60028110610a1557610a146109d7565b5b50565b5f819050610a2582610a04565b919050565b5f610a3482610a18565b9050919050565b610a4481610a2a565b82525050565b5f602082019050610a5d5f830184610a3b565b92915050565b7f4e487b71000000000000000000000000000000000000000000000000000000005f52601160045260245ffd5b5f610a9a826106c6565b9150610aa5836106c6565b9250828201905080821115610abd57610abc610a63565b5b92915050565b5f610acd826106c6565b91507fffffffffffffffffffffffffffffffffffffffffffffffffffffffffffffffff8203610aff57610afe610a63565b5b600182019050919050565b5f81905092915050565b5f610b1e8261074c565b610b288185610b0a565b9350610b38818560208601610766565b80840191505092915050565b5f610b4f8284610b14565b915081905092915050565b7f4e487b71000000000000000000000000000000000000000000000000000000005f52602260045260245ffd5b5f6002820490506001821680610b9e57607f821691505b602082108103610bb157610bb0610b5a565b5b50919050565b5f610bc9610bc48461085c565b610842565b905082815260208101848484011115610be557610be46107e0565b5b610bf0848285610766565b509392505050565b5f82601f830112610c0c57610c0b6107dc565b5b8151610c1c848260208601610bb7565b91505092915050565b5f60208284031215610c3a57610c3961062d565b5b5f82015167ffffffffffffffff811115610c5757610c56610631565b5b610c6384828501610bf8565b9150509291505056fea26469706673582212204a763fb145cd167674003bd83753010d4e1154c97e2084eea165246300d71d6964736f6c634300081a0033",
					"opcodes": "PUSH1 0x80 PUSH1 0x40 MSTORE PUSH1 0x40 MLOAD DUP1 PUSH1 0x40 ADD PUSH1 0x40 MSTORE DUP1 PUSH1 0x11 DUP2 MSTORE PUSH1 0x20 ADD PUSH32 0x486F6C647320736F6D6520737472696E67000000000000000000000000000000 DUP2 MSTORE POP PUSH1 0x5 SWAP1 DUP2 PUSH2 0x48 SWAP2 SWAP1 PUSH2 0x294 JUMP JUMPDEST POP CALLVALUE DUP1 ISZERO PUSH2 0x54 JUMPI PUSH0 DUP1 REVERT JUMPDEST POP PUSH2 0x363 JUMP JUMPDEST PUSH0 DUP2 MLOAD SWAP1 POP SWAP2 SWAP1 POP JUMP JUMPDEST PUSH32 0x4E487B7100000000000000000000000000000000000000000000000000000000 PUSH0 MSTORE PUSH1 0x41 PUSH1 0x4 MSTORE PUSH1 0x24 PUSH0 REVERT JUMPDEST PUSH32 0x4E487B7100000000000000000000000000000000000000000000000000000000 PUSH0 MSTORE PUSH1 0x22 PUSH1 0x4 MSTORE PUSH1 0x24 PUSH0 REVERT JUMPDEST PUSH0 PUSH1 0x2 DUP3 DIV SWAP1 POP PUSH1 0x1 DUP3 AND DUP1 PUSH2 0xD5 JUMPI PUSH1 0x7F DUP3 AND SWAP2 POP JUMPDEST PUSH1 0x20 DUP3 LT DUP2 SUB PUSH2 0xE8 JUMPI PUSH2 0xE7 PUSH2 0x91 JUMP JUMPDEST JUMPDEST POP SWAP2 SWAP1 POP JUMP JUMPDEST PUSH0 DUP2 SWAP1 POP DUP2 PUSH0 MSTORE PUSH1 0x20 PUSH0 KECCAK256 SWAP1 POP SWAP2 SWAP1 POP JUMP JUMPDEST PUSH0 PUSH1 0x20 PUSH1 0x1F DUP4 ADD DIV SWAP1 POP SWAP2 SWAP1 POP JUMP JUMPDEST PUSH0 DUP3 DUP3 SHL SWAP1 POP SWAP3 SWAP2 POP POP JUMP JUMPDEST PUSH0 PUSH1 0x8 DUP4 MUL PUSH2 0x14A PUSH32 0xFFFFFFFFFFFFFFFFFFFFFFFFFFFFFFFFFFFFFFFFFFFFFFFFFFFFFFFFFFFFFFFF DUP3 PUSH2 0x10F JUMP JUMPDEST PUSH2 0x154 DUP7 DUP4 PUSH2 0x10F JUMP JUMPDEST SWAP6 POP DUP1 NOT DUP5 AND SWAP4 POP DUP1 DUP7 AND DUP5 OR SWAP3 POP POP POP SWAP4 SWAP3 POP POP POP JUMP JUMPDEST PUSH0 DUP2 SWAP1 POP SWAP2 SWAP1 POP JUMP JUMPDEST PUSH0 DUP2 SWAP1 POP SWAP2 SWAP1 POP JUMP JUMPDEST PUSH0 PUSH2 0x198 PUSH2 0x193 PUSH2 0x18E DUP5 PUSH2 0x16C JUMP JUMPDEST PUSH2 0x175 JUMP JUMPDEST PUSH2 0x16C JUMP JUMPDEST SWAP1 POP SWAP2 SWAP1 POP JUMP JUMPDEST PUSH0 DUP2 SWAP1 POP SWAP2 SWAP1 POP JUMP JUMPDEST PUSH2 0x1B1 DUP4 PUSH2 0x17E JUMP JUMPDEST PUSH2 0x1C5 PUSH2 0x1BD DUP3 PUSH2 0x19F JUMP JUMPDEST DUP5 DUP5 SLOAD PUSH2 0x11B JUMP JUMPDEST DUP3 SSTORE POP POP POP POP JUMP JUMPDEST PUSH0 SWAP1 JUMP JUMPDEST PUSH2 0x1D9 PUSH2 0x1CD JUMP JUMPDEST PUSH2 0x1E4 DUP2 DUP5 DUP5 PUSH2 0x1A8 JUMP JUMPDEST POP POP POP JUMP JUMPDEST JUMPDEST DUP2 DUP2 LT ISZERO PUSH2 0x207 JUMPI PUSH2 0x1FC PUSH0 DUP3 PUSH2 0x1D1 JUMP JUMPDEST PUSH1 0x1 DUP2 ADD SWAP1 POP PUSH2 0x1EA JUMP JUMPDEST POP POP JUMP JUMPDEST PUSH1 0x1F DUP3 GT ISZERO PUSH2 0x24C JUMPI PUSH2 0x21D DUP2 PUSH2 0xEE JUMP JUMPDEST PUSH2 0x226 DUP5 PUSH2 0x100 JUMP JUMPDEST DUP2 ADD PUSH1 0x20 DUP6 LT ISZERO PUSH2 0x235 JUMPI DUP2 SWAP1 POP JUMPDEST PUSH2 0x249 PUSH2 0x241 DUP6 PUSH2 0x100 JUMP JUMPDEST DUP4 ADD DUP3 PUSH2 0x1E9 JUMP JUMPDEST POP POP JUMPDEST POP POP POP JUMP JUMPDEST PUSH0 DUP3 DUP3 SHR SWAP1 POP SWAP3 SWAP2 POP POP JUMP JUMPDEST PUSH0 PUSH2 0x26C PUSH0 NOT DUP5 PUSH1 0x8 MUL PUSH2 0x251 JUMP JUMPDEST NOT DUP1 DUP4 AND SWAP2 POP POP SWAP3 SWAP2 POP POP JUMP JUMPDEST PUSH0 PUSH2 0x284 DUP4 DUP4 PUSH2 0x25D JUMP JUMPDEST SWAP2 POP DUP3 PUSH1 0x2 MUL DUP3 OR SWAP1 POP SWAP3 SWAP2 POP POP JUMP JUMPDEST PUSH2 0x29D DUP3 PUSH2 0x5A JUMP JUMPDEST PUSH8 0xFFFFFFFFFFFFFFFF DUP2 GT ISZERO PUSH2 0x2B6 JUMPI PUSH2 0x2B5 PUSH2 0x64 JUMP JUMPDEST JUMPDEST PUSH2 0x2C0 DUP3 SLOAD PUSH2 0xBE JUMP JUMPDEST PUSH2 0x2CB DUP3 DUP3 DUP6 PUSH2 0x20B JUMP JUMPDEST PUSH0 PUSH1 0x20 SWAP1 POP PUSH1 0x1F DUP4 GT PUSH1 0x1 DUP2 EQ PUSH2 0x2FC JUMPI PUSH0 DUP5 ISZERO PUSH2 0x2EA JUMPI DUP3 DUP8 ADD MLOAD SWAP1 POP JUMPDEST PUSH2 0x2F4 DUP6 DUP3 PUSH2 0x279 JUMP JUMPDEST DUP7 SSTORE POP PUSH2 0x35B JUMP JUMPDEST PUSH1 0x1F NOT DUP5 AND PUSH2 0x30A DUP7 PUSH2 0xEE JUMP JUMPDEST PUSH0 JUMPDEST DUP3 DUP2 LT ISZERO PUSH2 0x331 JUMPI DUP5 DUP10 ADD MLOAD DUP3 SSTORE PUSH1 0x1 DUP3 ADD SWAP2 POP PUSH1 0x20 DUP6 ADD SWAP5 POP PUSH1 0x20 DUP2 ADD SWAP1 POP PUSH2 0x30C JUMP JUMPDEST DUP7 DUP4 LT ISZERO PUSH2 0x34E JUMPI DUP5 DUP10 ADD MLOAD PUSH2 0x34A PUSH1 0x1F DUP10 AND DUP3 PUSH2 0x25D JUMP JUMPDEST DUP4 SSTORE POP JUMPDEST PUSH1 0x1 PUSH1 0x2 DUP9 MUL ADD DUP9 SSTORE POP POP POP JUMPDEST POP POP POP POP POP POP JUMP JUMPDEST PUSH2 0xCA2 DUP1 PUSH2 0x370 PUSH0 CODECOPY PUSH0 RETURN INVALID PUSH1 0x80 PUSH1 0x40 MSTORE CALLVALUE DUP1 ISZERO PUSH2 0xF JUMPI PUSH0 DUP1 REVERT JUMPDEST POP PUSH1 0x4 CALLDATASIZE LT PUSH2 0xF3 JUMPI PUSH0 CALLDATALOAD PUSH1 0xE0 SHR DUP1 PUSH4 0x8FDA356D GT PUSH2 0x95 JUMPI DUP1 PUSH4 0xB6339418 GT PUSH2 0x64 JUMPI DUP1 PUSH4 0xB6339418 EQ PUSH2 0x272 JUMPI DUP1 PUSH4 0xBCA353BE EQ PUSH2 0x28E JUMPI DUP1 PUSH4 0xC19D93FB EQ PUSH2 0x298 JUMPI DUP1 PUSH4 0xE0819C9A EQ PUSH2 0x2B6 JUMPI PUSH2 0xF3 JUMP JUMPDEST DUP1 PUSH4 0x8FDA356D EQ PUSH2 0x1FD JUMPI DUP1 PUSH4 0x9E7A13AD EQ PUSH2 0x207 JUMPI DUP1 PUSH4 0xA621D15E EQ PUSH2 0x238 JUMPI DUP1 PUSH4 0xA7E1A364 EQ PUSH2 0x256 JUMPI PUSH2 0xF3 JUMP JUMPDEST DUP1 PUSH4 0x29CD1D96 GT PUSH2 0xD1 JUMPI DUP1 PUSH4 0x29CD1D96 EQ PUSH2 0x163 JUMPI DUP1 PUSH4 0x3A32B549 EQ PUSH2 0x193 JUMPI DUP1 PUSH4 0x6F760F41 EQ PUSH2 0x1B1 JUMPI DUP1 PUSH4 0x8BAB8DD5 EQ PUSH2 0x1CD JUMPI PUSH2 0xF3 JUMP JUMPDEST DUP1 PUSH4 0x664C448 EQ PUSH2 0xF7 JUMPI DUP1 PUSH4 0xCD2636E EQ PUSH2 0x127 JUMPI DUP1 PUSH4 0x22F3E2D4 EQ PUSH2 0x145 JUMPI JUMPDEST PUSH0 DUP1 REVERT JUMPDEST PUSH2 0x111 PUSH1 0x4 DUP1 CALLDATASIZE SUB DUP2 ADD SWAP1 PUSH2 0x10C SWAP2 SWAP1 PUSH2 0x668 JUMP JUMPDEST PUSH2 0x2D4 JUMP JUMPDEST PUSH1 0x40 MLOAD PUSH2 0x11E SWAP2 SWAP1 PUSH2 0x6AD JUMP JUMPDEST PUSH1 0x40 MLOAD DUP1 SWAP2 SUB SWAP1 RETURN JUMPDEST PUSH2 0x12F PUSH2 0x2F0 JUMP JUMPDEST PUSH1 0x40 MLOAD PUSH2 0x13C SWAP2 SWAP1 PUSH2 0x6DE JUMP JUMPDEST PUSH1 0x40 MLOAD DUP1 SWAP2 SUB SWAP1 RETURN JUMPDEST PUSH2 0x14D PUSH2 0x32C JUMP JUMPDEST PUSH1 0x40 MLOAD PUSH2 0x15A SWAP2 SWAP1 PUSH2 0x6AD JUMP JUMPDEST PUSH1 0x40 MLOAD DUP1 SWAP2 SUB SWAP1 RETURN JUMPDEST PUSH2 0x17D PUSH1 0x4 DUP1 CALLDATASIZE SUB DUP2 ADD SWAP1 PUSH2 0x178 SWAP2 SWAP1 PUSH2 0x721 JUMP JUMPDEST PUSH2 0x36C JUMP JUMPDEST PUSH1 0x40 MLOAD PUSH2 0x18A SWAP2 SWAP1 PUSH2 0x6DE JUMP JUMPDEST PUSH1 0x40 MLOAD DUP1 SWAP2 SUB SWAP1 RETURN JUMPDEST PUSH2 0x19B PUSH2 0x38C JUMP JUMPDEST PUSH1 0x40 MLOAD PUSH2 0x1A8 SWAP2 SWAP1 PUSH2 0x7BC JUMP JUMPDEST PUSH1 0x40 MLOAD DUP1 SWAP2 SUB SWAP1 RETURN JUMPDEST PUSH2 0x1CB PUSH1 0x4 DUP1 CALLDATASIZE SUB DUP2 ADD SWAP1 PUSH2 0x1C6 SWAP2 SWAP1 PUSH2 0x908 JUMP JUMPDEST PUSH2 0x3C9 JUMP JUMPDEST STOP JUMPDEST PUSH2 0x1E7 PUSH1 0x4 DUP1 CALLDATASIZE SUB DUP2 ADD SWAP1 PUSH2 0x1E2 SWAP2 SWAP1 PUSH2 0x962 JUMP JUMPDEST PUSH2 0x3F0 JUMP JUMPDEST PUSH1 0x40 MLOAD PUSH2 0x1F4 SWAP2 SWAP1 PUSH2 0x6DE JUMP JUMPDEST PUSH1 0x40 MLOAD DUP1 SWAP2 SUB SWAP1 RETURN JUMPDEST PUSH2 0x205 PUSH2 0x41D JUMP JUMPDEST STOP JUMPDEST PUSH2 0x221 PUSH1 0x4 DUP1 CALLDATASIZE SUB DUP2 ADD SWAP1 PUSH2 0x21C SWAP2 SWAP1 PUSH2 0x721 JUMP JUMPDEST PUSH2 0x448 JUMP JUMPDEST PUSH1 0x40 MLOAD PUSH2 0x22F SWAP3 SWAP2 SWAP1 PUSH2 0x9A9 JUMP JUMPDEST PUSH1 0x40 MLOAD DUP1 SWAP2 SUB SWAP1 RETURN JUMPDEST PUSH2 0x240 PUSH2 0x4FD JUMP JUMPDEST PUSH1 0x40 MLOAD PUSH2 0x24D SWAP2 SWAP1 PUSH2 0x6DE JUMP JUMPDEST PUSH1 0x40 MLOAD DUP1 SWAP2 SUB SWAP1 RETURN JUMPDEST PUSH2 0x270 PUSH1 0x4 DUP1 CALLDATASIZE SUB DUP2 ADD SWAP1 PUSH2 0x26B SWAP2 SWAP1 PUSH2 0x721 JUMP JUMPDEST PUSH2 0x505 JUMP JUMPDEST STOP JUMPDEST PUSH2 0x28C PUSH1 0x4 DUP1 CALLDATASIZE SUB DUP2 ADD SWAP1 PUSH2 0x287 SWAP2 SWAP1 PUSH2 0x721 JUMP JUMPDEST PUSH2 0x52E JUMP JUMPDEST STOP JUMPDEST PUSH2 0x296 PUSH2 0x56F JUMP JUMPDEST STOP JUMPDEST PUSH2 0x2A0 PUSH2 0x59B JUMP JUMPDEST PUSH1 0x40 MLOAD PUSH2 0x2AD SWAP2 SWAP1 PUSH2 0xA4A JUMP JUMPDEST PUSH1 0x40 MLOAD DUP1 SWAP2 SUB SWAP1 RETURN JUMPDEST PUSH2 0x2BE PUSH2 0x5AD JUMP JUMPDEST PUSH1 0x40 MLOAD PUSH2 0x2CB SWAP2 SWAP1 PUSH2 0x7BC JUMP JUMPDEST PUSH1 0x40 MLOAD DUP1 SWAP2 SUB SWAP1 RETURN JUMPDEST PUSH0 DUP2 PUSH0 SLOAD SGT ISZERO PUSH2 0x2E7 JUMPI PUSH1 0x1 SWAP1 POP PUSH2 0x2EB JUMP JUMPDEST PUSH0 SWAP1 POP JUMPDEST SWAP2 SWAP1 POP JUMP JUMPDEST PUSH0 DUP1 PUSH0 SWAP1 POP PUSH0 PUSH1 0x1 SWAP1 POP JUMPDEST PUSH0 SLOAD DUP2 GT PUSH2 0x324 JUMPI DUP1 DUP3 PUSH2 0x30F SWAP2 SWAP1 PUSH2 0xA90 JUMP JUMPDEST SWAP2 POP DUP1 DUP1 PUSH2 0x31C SWAP1 PUSH2 0xAC3 JUMP JUMPDEST SWAP2 POP POP PUSH2 0x2FB JUMP JUMPDEST POP DUP1 SWAP2 POP POP SWAP1 JUMP JUMPDEST PUSH0 DUP1 PUSH0 PUSH1 0x1 DUP2 GT ISZERO PUSH2 0x341 JUMPI PUSH2 0x340 PUSH2 0x9D7 JUMP JUMPDEST JUMPDEST PUSH1 0x3 PUSH0 SWAP1 SLOAD SWAP1 PUSH2 0x100 EXP SWAP1 DIV PUSH1 0xFF AND PUSH1 0x1 DUP2 GT ISZERO PUSH2 0x362 JUMPI PUSH2 0x361 PUSH2 0x9D7 JUMP JUMPDEST JUMPDEST EQ SWAP1 POP DUP1 SWAP2 POP POP SWAP1 JUMP JUMPDEST PUSH1 0x1 DUP2 DUP2 SLOAD DUP2 LT PUSH2 0x37B JUMPI PUSH0 DUP1 REVERT JUMPDEST SWAP1 PUSH0 MSTORE PUSH1 0x20 PUSH0 KECCAK256 ADD PUSH0 SWAP2 POP SWAP1 POP SLOAD DUP2 JUMP JUMPDEST PUSH1 0x60 PUSH1 0x40 MLOAD DUP1 PUSH1 0x40 ADD PUSH1 0x40 MSTORE DUP1 PUSH1 0x1C DUP2 MSTORE PUSH1 0x20 ADD PUSH32 0x5468697320697320616E2065787465726E616C2066756E6374696F6E00000000 DUP2 MSTORE POP SWAP1 POP SWAP1 JUMP JUMPDEST DUP1 PUSH1 0x4 DUP4 PUSH1 0x40 MLOAD PUSH2 0x3DA SWAP2 SWAP1 PUSH2 0xB44 JUMP JUMPDEST SWAP1 DUP2 MSTORE PUSH1 0x20 ADD PUSH1 0x40 MLOAD DUP1 SWAP2 SUB SWAP1 KECCAK256 DUP2 SWAP1 SSTORE POP POP POP JUMP JUMPDEST PUSH1 0x4 DUP2 DUP1 MLOAD PUSH1 0x20 DUP2 ADD DUP3 ADD DUP1 MLOAD DUP5 DUP3 MSTORE PUSH1 0x20 DUP4 ADD PUSH1 0x20 DUP6 ADD KECCAK256 DUP2 DUP4 MSTORE DUP1 SWAP6 POP POP POP POP POP POP PUSH0 SWAP2 POP SWAP1 POP SLOAD DUP2 JUMP JUMPDEST PUSH0 PUSH1 0x3 PUSH0 PUSH2 0x100 EXP DUP2 SLOAD DUP2 PUSH1 0xFF MUL NOT AND SWAP1 DUP4 PUSH1 0x1 DUP2 GT ISZERO PUSH2 0x441 JUMPI PUSH2 0x440 PUSH2 0x9D7 JUMP JUMPDEST JUMPDEST MUL OR SWAP1 SSTORE POP JUMP JUMPDEST PUSH1 0x2 DUP2 DUP2 SLOAD DUP2 LT PUSH2 0x457 JUMPI PUSH0 DUP1 REVERT JUMPDEST SWAP1 PUSH0 MSTORE PUSH1 0x20 PUSH0 KECCAK256 SWAP1 PUSH1 0x2 MUL ADD PUSH0 SWAP2 POP SWAP1 POP DUP1 PUSH0 ADD DUP1 SLOAD PUSH2 0x476 SWAP1 PUSH2 0xB87 JUMP JUMPDEST DUP1 PUSH1 0x1F ADD PUSH1 0x20 DUP1 SWAP2 DIV MUL PUSH1 0x20 ADD PUSH1 0x40 MLOAD SWAP1 DUP2 ADD PUSH1 0x40 MSTORE DUP1 SWAP3 SWAP2 SWAP1 DUP2 DUP2 MSTORE PUSH1 0x20 ADD DUP3 DUP1 SLOAD PUSH2 0x4A2 SWAP1 PUSH2 0xB87 JUMP JUMPDEST DUP1 ISZERO PUSH2 0x4ED JUMPI DUP1 PUSH1 0x1F LT PUSH2 0x4C4 JUMPI PUSH2 0x100 DUP1 DUP4 SLOAD DIV MUL DUP4 MSTORE SWAP2 PUSH1 0x20 ADD SWAP2 PUSH2 0x4ED JUMP JUMPDEST DUP3 ADD SWAP2 SWAP1 PUSH0 MSTORE PUSH1 0x20 PUSH0 KECCAK256 SWAP1 JUMPDEST DUP2 SLOAD DUP2 MSTORE SWAP1 PUSH1 0x1 ADD SWAP1 PUSH1 0x20 ADD DUP1 DUP4 GT PUSH2 0x4D0 JUMPI DUP3 SWAP1 SUB PUSH1 0x1F AND DUP3 ADD SWAP2 JUMPDEST POP POP POP POP POP SWAP1 DUP1 PUSH1 0x1 ADD SLOAD SWAP1 POP DUP3 JUMP JUMPDEST PUSH0 DUP1 SLOAD SWAP1 POP SWAP1 JUMP JUMPDEST PUSH1 0x1 DUP2 SWAP1 DUP1 PUSH1 0x1 DUP2 SLOAD ADD DUP1 DUP3 SSTORE DUP1 SWAP2 POP POP PUSH1 0x1 SWAP1 SUB SWAP1 PUSH0 MSTORE PUSH1 0x20 PUSH0 KECCAK256 ADD PUSH0 SWAP1 SWAP2 SWAP1 SWAP2 SWAP1 SWAP2 POP SSTORE POP JUMP JUMPDEST DUP1 PUSH0 DUP2 SWAP1 SSTORE POP PUSH32 0x939F2783F4B99373BD9B6912AFF8F7316EA141B98EB02E47C8A96BDAE0D654B3 PUSH0 SLOAD PUSH1 0x40 MLOAD PUSH2 0x564 SWAP2 SWAP1 PUSH2 0x6DE JUMP JUMPDEST PUSH1 0x40 MLOAD DUP1 SWAP2 SUB SWAP1 LOG1 POP JUMP JUMPDEST PUSH1 0x1 PUSH1 0x3 PUSH0 PUSH2 0x100 EXP DUP2 SLOAD DUP2 PUSH1 0xFF MUL NOT AND SWAP1 DUP4 PUSH1 0x1 DUP2 GT ISZERO PUSH2 0x594 JUMPI PUSH2 0x593 PUSH2 0x9D7 JUMP JUMPDEST JUMPDEST MUL OR SWAP1 SSTORE POP JUMP JUMPDEST PUSH1 0x3 PUSH0 SWAP1 SLOAD SWAP1 PUSH2 0x100 EXP SWAP1 DIV PUSH1 0xFF AND DUP2 JUMP JUMPDEST PUSH1 0x60 ADDRESS PUSH20 0xFFFFFFFFFFFFFFFFFFFFFFFFFFFFFFFFFFFFFFFF AND PUSH4 0x3A32B549 PUSH1 0x40 MLOAD DUP2 PUSH4 0xFFFFFFFF AND PUSH1 0xE0 SHL DUP2 MSTORE PUSH1 0x4 ADD PUSH0 PUSH1 0x40 MLOAD DUP1 DUP4 SUB DUP2 DUP7 GAS STATICCALL ISZERO DUP1 ISZERO PUSH2 0x5F7 JUMPI RETURNDATASIZE PUSH0 DUP1 RETURNDATACOPY RETURNDATASIZE PUSH0 REVERT JUMPDEST POP POP POP POP PUSH1 0x40 MLOAD RETURNDATASIZE PUSH0 DUP3 RETURNDATACOPY RETURNDATASIZE PUSH1 0x1F NOT PUSH1 0x1F DUP3 ADD AND DUP3 ADD DUP1 PUSH1 0x40 MSTORE POP DUP2 ADD SWAP1 PUSH2 0x61F SWAP2 SWAP1 PUSH2 0xC25 JUMP JUMPDEST SWAP1 POP SWAP1 JUMP JUMPDEST PUSH0 PUSH1 0x40 MLOAD SWAP1 POP SWAP1 JUMP JUMPDEST PUSH0 DUP1 REVERT JUMPDEST PUSH0 DUP1 REVERT JUMPDEST PUSH0 DUP2 SWAP1 POP SWAP2 SWAP1 POP JUMP JUMPDEST PUSH2 0x647 DUP2 PUSH2 0x635 JUMP JUMPDEST DUP2 EQ PUSH2 0x651 JUMPI PUSH0 DUP1 REVERT JUMPDEST POP JUMP JUMPDEST PUSH0 DUP2 CALLDATALOAD SWAP1 POP PUSH2 0x662 DUP2 PUSH2 0x63E JUMP JUMPDEST SWAP3 SWAP2 POP POP JUMP JUMPDEST PUSH0 PUSH1 0x20 DUP3 DUP5 SUB SLT ISZERO PUSH2 0x67D JUMPI PUSH2 0x67C PUSH2 0x62D JUMP JUMPDEST JUMPDEST PUSH0 PUSH2 0x68A DUP5 DUP3 DUP6 ADD PUSH2 0x654 JUMP JUMPDEST SWAP2 POP POP SWAP3 SWAP2 POP POP JUMP JUMPDEST PUSH0 DUP2 ISZERO ISZERO SWAP1 POP SWAP2 SWAP1 POP JUMP JUMPDEST PUSH2 0x6A7 DUP2 PUSH2 0x693 JUMP JUMPDEST DUP3 MSTORE POP POP JUMP JUMPDEST PUSH0 PUSH1 0x20 DUP3 ADD SWAP1 POP PUSH2 0x6C0 PUSH0 DUP4 ADD DUP5 PUSH2 0x69E JUMP JUMPDEST SWAP3 SWAP2 POP POP JUMP JUMPDEST PUSH0 DUP2 SWAP1 POP SWAP2 SWAP1 POP JUMP JUMPDEST PUSH2 0x6D8 DUP2 PUSH2 0x6C6 JUMP JUMPDEST DUP3 MSTORE POP POP JUMP JUMPDEST PUSH0 PUSH1 0x20 DUP3 ADD SWAP1 POP PUSH2 0x6F1 PUSH0 DUP4 ADD DUP5 PUSH2 0x6CF JUMP JUMPDEST SWAP3 SWAP2 POP POP JUMP JUMPDEST PUSH2 0x700 DUP2 PUSH2 0x6C6 JUMP JUMPDEST DUP2 EQ PUSH2 0x70A JUMPI PUSH0 DUP1 REVERT JUMPDEST POP JUMP JUMPDEST PUSH0 DUP2 CALLDATALOAD SWAP1 POP PUSH2 0x71B DUP2 PUSH2 0x6F7 JUMP JUMPDEST SWAP3 SWAP2 POP POP JUMP JUMPDEST PUSH0 PUSH1 0x20 DUP3 DUP5 SUB SLT ISZERO PUSH2 0x736 JUMPI PUSH2 0x735 PUSH2 0x62D JUMP JUMPDEST JUMPDEST PUSH0 PUSH2 0x743 DUP5 DUP3 DUP6 ADD PUSH2 0x70D JUMP JUMPDEST SWAP2 POP POP SWAP3 SWAP2 POP POP JUMP JUMPDEST PUSH0 DUP2 MLOAD SWAP1 POP SWAP2 SWAP1 POP JUMP JUMPDEST PUSH0 DUP3 DUP3 MSTORE PUSH1 0x20 DUP3 ADD SWAP1 POP SWAP3 SWAP2 POP POP JUMP JUMPDEST DUP3 DUP2 DUP4 MCOPY PUSH0 DUP4 DUP4 ADD MSTORE POP POP POP JUMP JUMPDEST PUSH0 PUSH1 0x1F NOT PUSH1 0x1F DUP4 ADD AND SWAP1 POP SWAP2 SWAP1 POP JUMP JUMPDEST PUSH0 PUSH2 0x78E DUP3 PUSH2 0x74C JUMP JUMPDEST PUSH2 0x798 DUP2 DUP6 PUSH2 0x756 JUMP JUMPDEST SWAP4 POP PUSH2 0x7A8 DUP2 DUP6 PUSH1 0x20 DUP7 ADD PUSH2 0x766 JUMP JUMPDEST PUSH2 0x7B1 DUP2 PUSH2 0x774 JUMP JUMPDEST DUP5 ADD SWAP2 POP POP SWAP3 SWAP2 POP POP JUMP JUMPDEST PUSH0 PUSH1 0x20 DUP3 ADD SWAP1 POP DUP2 DUP2 SUB PUSH0 DUP4 ADD MSTORE PUSH2 0x7D4 DUP2 DUP5 PUSH2 0x784 JUMP JUMPDEST SWAP1 POP SWAP3 SWAP2 POP POP JUMP JUMPDEST PUSH0 DUP1 REVERT JUMPDEST PUSH0 DUP1 REVERT JUMPDEST PUSH32 0x4E487B7100000000000000000000000000000000000000000000000000000000 PUSH0 MSTORE PUSH1 0x41 PUSH1 0x4 MSTORE PUSH1 0x24 PUSH0 REVERT JUMPDEST PUSH2 0x81A DUP3 PUSH2 0x774 JUMP JUMPDEST DUP2 ADD DUP2 DUP2 LT PUSH8 0xFFFFFFFFFFFFFFFF DUP3 GT OR ISZERO PUSH2 0x839 JUMPI PUSH2 0x838 PUSH2 0x7E4 JUMP JUMPDEST JUMPDEST DUP1 PUSH1 0x40 MSTORE POP POP POP JUMP JUMPDEST PUSH0 PUSH2 0x84B PUSH2 0x624 JUMP JUMPDEST SWAP1 POP PUSH2 0x857 DUP3 DUP3 PUSH2 0x811 JUMP JUMPDEST SWAP2 SWAP1 POP JUMP JUMPDEST PUSH0 PUSH8 0xFFFFFFFFFFFFFFFF DUP3 GT ISZERO PUSH2 0x876 JUMPI PUSH2 0x875 PUSH2 0x7E4 JUMP JUMPDEST JUMPDEST PUSH2 0x87F DUP3 PUSH2 0x774 JUMP JUMPDEST SWAP1 POP PUSH1 0x20 DUP2 ADD SWAP1 POP SWAP2 SWAP1 POP JUMP JUMPDEST DUP3 DUP2 DUP4 CALLDATACOPY PUSH0 DUP4 DUP4 ADD MSTORE POP POP POP JUMP JUMPDEST PUSH0 PUSH2 0x8AC PUSH2 0x8A7 DUP5 PUSH2 0x85C JUMP JUMPDEST PUSH2 0x842 JUMP JUMPDEST SWAP1 POP DUP3 DUP2 MSTORE PUSH1 0x20 DUP2 ADD DUP5 DUP5 DUP5 ADD GT ISZERO PUSH2 0x8C8 JUMPI PUSH2 0x8C7 PUSH2 0x7E0 JUMP JUMPDEST JUMPDEST PUSH2 0x8D3 DUP5 DUP3 DUP6 PUSH2 0x88C JUMP JUMPDEST POP SWAP4 SWAP3 POP POP POP JUMP JUMPDEST PUSH0 DUP3 PUSH1 0x1F DUP4 ADD SLT PUSH2 0x8EF JUMPI PUSH2 0x8EE PUSH2 0x7DC JUMP JUMPDEST JUMPDEST DUP2 CALLDATALOAD PUSH2 0x8FF DUP5 DUP3 PUSH1 0x20 DUP7 ADD PUSH2 0x89A JUMP JUMPDEST SWAP2 POP POP SWAP3 SWAP2 POP POP JUMP JUMPDEST PUSH0 DUP1 PUSH1 0x40 DUP4 DUP6 SUB SLT ISZERO PUSH2 0x91E JUMPI PUSH2 0x91D PUSH2 0x62D JUMP JUMPDEST JUMPDEST PUSH0 DUP4 ADD CALLDATALOAD PUSH8 0xFFFFFFFFFFFFFFFF DUP2 GT ISZERO PUSH2 0x93B JUMPI PUSH2 0x93A PUSH2 0x631 JUMP JUMPDEST JUMPDEST PUSH2 0x947 DUP6 DUP3 DUP7 ADD PUSH2 0x8DB JUMP JUMPDEST SWAP3 POP POP PUSH1 0x20 PUSH2 0x958 DUP6 DUP3 DUP7 ADD PUSH2 0x70D JUMP JUMPDEST SWAP2 POP POP SWAP3 POP SWAP3 SWAP1 POP JUMP JUMPDEST PUSH0 PUSH1 0x20 DUP3 DUP5 SUB SLT ISZERO PUSH2 0x977 JUMPI PUSH2 0x976 PUSH2 0x62D JUMP JUMPDEST JUMPDEST PUSH0 DUP3 ADD CALLDATALOAD PUSH8 0xFFFFFFFFFFFFFFFF DUP2 GT ISZERO PUSH2 0x994 JUMPI PUSH2 0x993 PUSH2 0x631 JUMP JUMPDEST JUMPDEST PUSH2 0x9A0 DUP5 DUP3 DUP6 ADD PUSH2 0x8DB JUMP JUMPDEST SWAP2 POP POP SWAP3 SWAP2 POP POP JUMP JUMPDEST PUSH0 PUSH1 0x40 DUP3 ADD SWAP1 POP DUP2 DUP2 SUB PUSH0 DUP4 ADD MSTORE PUSH2 0x9C1 DUP2 DUP6 PUSH2 0x784 JUMP JUMPDEST SWAP1 POP PUSH2 0x9D0 PUSH1 0x20 DUP4 ADD DUP5 PUSH2 0x6CF JUMP JUMPDEST SWAP4 SWAP3 POP POP POP JUMP JUMPDEST PUSH32 0x4E487B7100000000000000000000000000000000000000000000000000000000 PUSH0 MSTORE PUSH1 0x21 PUSH1 0x4 MSTORE PUSH1 0x24 PUSH0 REVERT JUMPDEST PUSH1 0x2 DUP2 LT PUSH2 0xA15 JUMPI PUSH2 0xA14 PUSH2 0x9D7 JUMP JUMPDEST JUMPDEST POP JUMP JUMPDEST PUSH0 DUP2 SWAP1 POP PUSH2 0xA25 DUP3 PUSH2 0xA04 JUMP JUMPDEST SWAP2 SWAP1 POP JUMP JUMPDEST PUSH0 PUSH2 0xA34 DUP3 PUSH2 0xA18 JUMP JUMPDEST SWAP1 POP SWAP2 SWAP1 POP JUMP JUMPDEST PUSH2 0xA44 DUP2 PUSH2 0xA2A JUMP JUMPDEST DUP3 MSTORE POP POP JUMP JUMPDEST PUSH0 PUSH1 0x20 DUP3 ADD SWAP1 POP PUSH2 0xA5D PUSH0 DUP4 ADD DUP5 PUSH2 0xA3B JUMP JUMPDEST SWAP3 SWAP2 POP POP JUMP JUMPDEST PUSH32 0x4E487B7100000000000000000000000000000000000000000000000000000000 PUSH0 MSTORE PUSH1 0x11 PUSH1 0x4 MSTORE PUSH1 0x24 PUSH0 REVERT JUMPDEST PUSH0 PUSH2 0xA9A DUP3 PUSH2 0x6C6 JUMP JUMPDEST SWAP2 POP PUSH2 0xAA5 DUP4 PUSH2 0x6C6 JUMP JUMPDEST SWAP3 POP DUP3 DUP3 ADD SWAP1 POP DUP1 DUP3 GT ISZERO PUSH2 0xABD JUMPI PUSH2 0xABC PUSH2 0xA63 JUMP JUMPDEST JUMPDEST SWAP3 SWAP2 POP POP JUMP JUMPDEST PUSH0 PUSH2 0xACD DUP3 PUSH2 0x6C6 JUMP JUMPDEST SWAP2 POP PUSH32 0xFFFFFFFFFFFFFFFFFFFFFFFFFFFFFFFFFFFFFFFFFFFFFFFFFFFFFFFFFFFFFFFF DUP3 SUB PUSH2 0xAFF JUMPI PUSH2 0xAFE PUSH2 0xA63 JUMP JUMPDEST JUMPDEST PUSH1 0x1 DUP3 ADD SWAP1 POP SWAP2 SWAP1 POP JUMP JUMPDEST PUSH0 DUP2 SWAP1 POP SWAP3 SWAP2 POP POP JUMP JUMPDEST PUSH0 PUSH2 0xB1E DUP3 PUSH2 0x74C JUMP JUMPDEST PUSH2 0xB28 DUP2 DUP6 PUSH2 0xB0A JUMP JUMPDEST SWAP4 POP PUSH2 0xB38 DUP2 DUP6 PUSH1 0x20 DUP7 ADD PUSH2 0x766 JUMP JUMPDEST DUP1 DUP5 ADD SWAP2 POP POP SWAP3 SWAP2 POP POP JUMP JUMPDEST PUSH0 PUSH2 0xB4F DUP3 DUP5 PUSH2 0xB14 JUMP JUMPDEST SWAP2 POP DUP2 SWAP1 POP SWAP3 SWAP2 POP POP JUMP JUMPDEST PUSH32 0x4E487B7100000000000000000000000000000000000000000000000000000000 PUSH0 MSTORE PUSH1 0x22 PUSH1 0x4 MSTORE PUSH1 0x24 PUSH0 REVERT JUMPDEST PUSH0 PUSH1 0x2 DUP3 DIV SWAP1 POP PUSH1 0x1 DUP3 AND DUP1 PUSH2 0xB9E JUMPI PUSH1 0x7F DUP3 AND SWAP2 POP JUMPDEST PUSH1 0x20 DUP3 LT DUP2 SUB PUSH2 0xBB1 JUMPI PUSH2 0xBB0 PUSH2 0xB5A JUMP JUMPDEST JUMPDEST POP SWAP2 SWAP1 POP JUMP JUMPDEST PUSH0 PUSH2 0xBC9 PUSH2 0xBC4 DUP5 PUSH2 0x85C JUMP JUMPDEST PUSH2 0x842 JUMP JUMPDEST SWAP1 POP DUP3 DUP2 MSTORE PUSH1 0x20 DUP2 ADD DUP5 DUP5 DUP5 ADD GT ISZERO PUSH2 0xBE5 JUMPI PUSH2 0xBE4 PUSH2 0x7E0 JUMP JUMPDEST JUMPDEST PUSH2 0xBF0 DUP5 DUP3 DUP6 PUSH2 0x766 JUMP JUMPDEST POP SWAP4 SWAP3 POP POP POP JUMP JUMPDEST PUSH0 DUP3 PUSH1 0x1F DUP4 ADD SLT PUSH2 0xC0C JUMPI PUSH2 0xC0B PUSH2 0x7DC JUMP JUMPDEST JUMPDEST DUP2 MLOAD PUSH2 0xC1C DUP5 DUP3 PUSH1 0x20 DUP7 ADD PUSH2 0xBB7 JUMP JUMPDEST SWAP2 POP POP SWAP3 SWAP2 POP POP JUMP JUMPDEST PUSH0 PUSH1 0x20 DUP3 DUP5 SUB SLT ISZERO PUSH2 0xC3A JUMPI PUSH2 0xC39 PUSH2 0x62D JUMP JUMPDEST JUMPDEST PUSH0 DUP3 ADD MLOAD PUSH8 0xFFFFFFFFFFFFFFFF DUP2 GT ISZERO PUSH2 0xC57 JUMPI PUSH2 0xC56 PUSH2 0x631 JUMP JUMPDEST JUMPDEST PUSH2 0xC63 DUP5 DUP3 DUP6 ADD PUSH2 0xBF8 JUMP JUMPDEST SWAP2 POP POP SWAP3 SWAP2 POP POP JUMP INVALID LOG2 PUSH5 0x6970667358 0x22 SLT KECCAK256 BLOBBASEFEE PUSH23 0x3FB145CD167674003BD83753010D4E1154C97E2084EEA1 PUSH6 0x246300D71D69 PUSH5 0x736F6C6343 STOP ADDMOD BYTE STOP CALLER "
				},
				"gasEstimates": {
					"creation": {
						"codeDepositCost": "646800",
						"executionCost": "infinite",
						"totalCost": "infinite"
					},
					"external": {
						"activateContract()": "24451",
						"addFavoriteNumber(uint256)": "46910",
						"addPerson(string,uint256)": "infinite",
						"deactivateContract()": "24473",
						"externalFunction()": "infinite",
						"favoriteNumbers(uint256)": "infinite",
						"getFavoriteNumber()": "2499",
						"isActive()": "2611",
						"isGreatherThan(int256)": "2759",
						"nameToFavoriteNumber(string)": "infinite",
						"people(uint256)": "infinite",
						"state()": "2620",
						"storeNumber(uint256)": "infinite",
						"sumToFavoriteNumber()": "infinite",
						"testExternalFunction()": "infinite"
					},
					"internal": {
						"callInternalFunction()": "infinite",
						"internalFunction()": "infinite"
					}
				},
				"methodIdentifiers": {
					"activateContract()": "8fda356d",
					"addFavoriteNumber(uint256)": "a7e1a364",
					"addPerson(string,uint256)": "6f760f41",
					"deactivateContract()": "bca353be",
					"externalFunction()": "3a32b549",
					"favoriteNumbers(uint256)": "29cd1d96",
					"getFavoriteNumber()": "a621d15e",
					"isActive()": "22f3e2d4",
					"isGreatherThan(int256)": "0664c448",
					"nameToFavoriteNumber(string)": "8bab8dd5",
					"people(uint256)": "9e7a13ad",
					"state()": "c19d93fb",
					"storeNumber(uint256)": "b6339418",
					"sumToFavoriteNumber()": "0cd2636e",
					"testExternalFunction()": "e0819c9a"
				}
			},
			"storageLayout": {
				"storage": [
					{
						"astId": 3,
						"contract": "SimpleStorage.sol:SimpleStorage",
						"label": "favoriteNumber",
						"offset": 0,
						"slot": "0",
						"type": "t_uint256"
					},
					{
						"astId": 6,
						"contract": "SimpleStorage.sol:SimpleStorage",
						"label": "favoriteNumbers",
						"offset": 0,
						"slot": "1",
						"type": "t_array(t_uint256)dyn_storage"
					},
					{
						"astId": 15,
						"contract": "SimpleStorage.sol:SimpleStorage",
						"label": "people",
						"offset": 0,
						"slot": "2",
						"type": "t_array(t_struct(Person)11_storage)dyn_storage"
					},
					{
						"astId": 21,
						"contract": "SimpleStorage.sol:SimpleStorage",
						"label": "state",
						"offset": 0,
						"slot": "3",
						"type": "t_enum(ContractState)18"
					},
					{
						"astId": 25,
						"contract": "SimpleStorage.sol:SimpleStorage",
						"label": "nameToFavoriteNumber",
						"offset": 0,
						"slot": "4",
						"type": "t_mapping(t_string_memory_ptr,t_uint256)"
					},
					{
						"astId": 105,
						"contract": "SimpleStorage.sol:SimpleStorage",
						"label": "AnInternalVariable",
						"offset": 0,
						"slot": "5",
						"type": "t_string_storage"
					}
				],
				"types": {
					"t_array(t_struct(Person)11_storage)dyn_storage": {
						"base": "t_struct(Person)11_storage",
						"encoding": "dynamic_array",
						"label": "struct SimpleStorage.Person[]",
						"numberOfBytes": "32"
					},
					"t_array(t_uint256)dyn_storage": {
						"base": "t_uint256",
						"encoding": "dynamic_array",
						"label": "uint256[]",
						"numberOfBytes": "32"
					},
					"t_enum(ContractState)18": {
						"encoding": "inplace",
						"label": "enum SimpleStorage.ContractState",
						"numberOfBytes": "1"
					},
					"t_mapping(t_string_memory_ptr,t_uint256)": {
						"encoding": "mapping",
						"key": "t_string_memory_ptr",
						"label": "mapping(string => uint256)",
						"numberOfBytes": "32",
						"value": "t_uint256"
					},
					"t_string_memory_ptr": {
						"encoding": "bytes",
						"label": "string",
						"numberOfBytes": "32"
					},
					"t_string_storage": {
						"encoding": "bytes",
						"label": "string",
						"numberOfBytes": "32"
					},
					"t_struct(Person)11_storage": {
						"encoding": "inplace",
						"label": "struct SimpleStorage.Person",
						"members": [
							{
								"astId": 8,
								"contract": "SimpleStorage.sol:SimpleStorage",
								"label": "name",
								"offset": 0,
								"slot": "0",
								"type": "t_string_storage"
							},
							{
								"astId": 10,
								"contract": "SimpleStorage.sol:SimpleStorage",
								"label": "favoriteNumber",
								"offset": 0,
								"slot": "1",
								"type": "t_uint256"
							}
						],
						"numberOfBytes": "64"
					},
					"t_uint256": {
						"encoding": "inplace",
						"label": "uint256",
						"numberOfBytes": "32"
					}
				}
			},
			"userdoc": {
				"kind": "user",
				"methods": {},
				"version": 1
			}
		}
	}
}