{
	"SimpleStorage.sol": {
		"SimpleStorage": {
			"abi": [
				{
					"inputs": [],
					"name": "activateContract",
					"outputs": [],
					"stateMutability": "nonpayable",
					"type": "function"
				},
				{
					"inputs": [
						{
							"internalType": "uint256",
							"name": "userFavoriteNumber",
							"type": "uint256"
						}
					],
					"name": "addFavoriteNumber",
					"outputs": [],
					"stateMutability": "nonpayable",
					"type": "function"
				},
				{
					"inputs": [
						{
							"internalType": "string",
							"name": "_name",
							"type": "string"
						},
						{
							"internalType": "uint256",
							"name": "_favoriteNumber",
							"type": "uint256"
						}
					],
					"name": "addPerson",
					"outputs": [],
					"stateMutability": "nonpayable",
					"type": "function"
				},
				{
					"inputs": [],
					"name": "deactivateContract",
					"outputs": [],
					"stateMutability": "nonpayable",
					"type": "function"
				},
				{
					"inputs": [],
					"name": "externalFunction",
					"outputs": [
						{
							"internalType": "string",
							"name": "",
							"type": "string"
						}
					],
					"stateMutability": "pure",
					"type": "function"
				},
				{
					"inputs": [
						{
							"internalType": "uint256",
							"name": "",
							"type": "uint256"
						}
					],
					"name": "favoriteNumbers",
					"outputs": [
						{
							"internalType": "uint256",
							"name": "",
							"type": "uint256"
						}
					],
					"stateMutability": "view",
					"type": "function"
				},
				{
					"inputs": [],
					"name": "getFavoriteNumber",
					"outputs": [
						{
							"internalType": "uint256",
							"name": "",
							"type": "uint256"
						}
					],
					"stateMutability": "view",
					"type": "function"
				},
				{
					"inputs": [],
					"name": "isActive",
					"outputs": [
						{
							"internalType": "bool",
							"name": "",
							"type": "bool"
						}
					],
					"stateMutability": "view",
					"type": "function"
				},
				{
					"inputs": [
						{
							"internalType": "int256",
							"name": "userInputValue",
							"type": "int256"
						}
					],
					"name": "isGreatherThan",
					"outputs": [
						{
							"internalType": "bool",
							"name": "",
							"type": "bool"
						}
					],
					"stateMutability": "view",
					"type": "function"
				},
				{
					"inputs": [
						{
							"internalType": "uint256",
							"name": "",
							"type": "uint256"
						}
					],
					"name": "people",
					"outputs": [
						{
							"internalType": "string",
							"name": "name",
							"type": "string"
						},
						{
							"internalType": "uint256",
							"name": "favoriteNumber",
							"type": "uint256"
						}
					],
					"stateMutability": "view",
					"type": "function"
				},
				{
					"inputs": [],
					"name": "state",
					"outputs": [
						{
							"internalType": "enum SimpleStorage.ContractState",
							"name": "",
							"type": "uint8"
						}
					],
					"stateMutability": "view",
					"type": "function"
				},
				{
					"inputs": [
						{
							"internalType": "uint256",
							"name": "number",
							"type": "uint256"
						}
					],
					"name": "storeNumber",
					"outputs": [],
					"stateMutability": "nonpayable",
					"type": "function"
				},
				{
					"inputs": [],
					"name": "sumToFavoriteNumber",
					"outputs": [
						{
							"internalType": "uint256",
							"name": "",
							"type": "uint256"
						}
					],
					"stateMutability": "view",
					"type": "function"
				},
				{
					"inputs": [],
					"name": "testExternalFunction",
					"outputs": [
						{
							"internalType": "string",
							"name": "",
							"type": "string"
						}
					],
					"stateMutability": "view",
					"type": "function"
				}
			],
			"devdoc": {
				"kind": "dev",
				"methods": {},
				"version": 1
			},
			"evm": {
				"assembly": "    /* \"SimpleStorage.sol\":117:2895  contract SimpleStorage {... */\n  mstore(0x40, 0x80)\n    /* \"SimpleStorage.sol\":1507:1563  string internal AnInternalVariable = \"Holds some string\" */\n  mload(0x40)\n  dup1\n  0x40\n  add\n  0x40\n  mstore\n  dup1\n  0x11\n  dup2\n  mstore\n  0x20\n  add\n  0x486f6c647320736f6d6520737472696e67000000000000000000000000000000\n  dup2\n  mstore\n  pop\n  0x04\n  swap1\n  dup2\n  tag_1\n  swap2\n  swap1\n  tag_2\n  jump\t// in\ntag_1:\n  pop\n    /* \"SimpleStorage.sol\":117:2895  contract SimpleStorage {... */\n  callvalue\n  dup1\n  iszero\n  tag_3\n  jumpi\n  0x00\n  dup1\n  revert\ntag_3:\n  pop\n  jump(tag_4)\n    /* \"#utility.yul\":7:106   */\ntag_5:\n    /* \"#utility.yul\":59:65   */\n  0x00\n    /* \"#utility.yul\":93:98   */\n  dup2\n    /* \"#utility.yul\":87:99   */\n  mload\n    /* \"#utility.yul\":77:99   */\n  swap1\n  pop\n    /* \"#utility.yul\":7:106   */\n  swap2\n  swap1\n  pop\n  jump\t// out\n    /* \"#utility.yul\":112:292   */\ntag_6:\n    /* \"#utility.yul\":160:237   */\n  0x4e487b7100000000000000000000000000000000000000000000000000000000\n    /* \"#utility.yul\":157:158   */\n  0x00\n    /* \"#utility.yul\":150:238   */\n  mstore\n    /* \"#utility.yul\":257:261   */\n  0x41\n    /* \"#utility.yul\":254:255   */\n  0x04\n    /* \"#utility.yul\":247:262   */\n  mstore\n    /* \"#utility.yul\":281:285   */\n  0x24\n    /* \"#utility.yul\":278:279   */\n  0x00\n    /* \"#utility.yul\":271:286   */\n  revert\n    /* \"#utility.yul\":298:478   */\ntag_7:\n    /* \"#utility.yul\":346:423   */\n  0x4e487b7100000000000000000000000000000000000000000000000000000000\n    /* \"#utility.yul\":343:344   */\n  0x00\n    /* \"#utility.yul\":336:424   */\n  mstore\n    /* \"#utility.yul\":443:447   */\n  0x22\n    /* \"#utility.yul\":440:441   */\n  0x04\n    /* \"#utility.yul\":433:448   */\n  mstore\n    /* \"#utility.yul\":467:471   */\n  0x24\n    /* \"#utility.yul\":464:465   */\n  0x00\n    /* \"#utility.yul\":457:472   */\n  revert\n    /* \"#utility.yul\":484:804   */\ntag_8:\n    /* \"#utility.yul\":528:534   */\n  0x00\n    /* \"#utility.yul\":565:566   */\n  0x02\n    /* \"#utility.yul\":559:563   */\n  dup3\n    /* \"#utility.yul\":555:567   */\n  div\n    /* \"#utility.yul\":545:567   */\n  swap1\n  pop\n    /* \"#utility.yul\":612:613   */\n  0x01\n    /* \"#utility.yul\":606:610   */\n  dup3\n    /* \"#utility.yul\":602:614   */\n  and\n    /* \"#utility.yul\":633:651   */\n  dup1\n    /* \"#utility.yul\":623:704   */\n  tag_30\n  jumpi\n    /* \"#utility.yul\":689:693   */\n  0x7f\n    /* \"#utility.yul\":681:687   */\n  dup3\n    /* \"#utility.yul\":677:694   */\n  and\n    /* \"#utility.yul\":667:694   */\n  swap2\n  pop\n    /* \"#utility.yul\":623:704   */\ntag_30:\n    /* \"#utility.yul\":751:753   */\n  0x20\n    /* \"#utility.yul\":743:749   */\n  dup3\n    /* \"#utility.yul\":740:754   */\n  lt\n    /* \"#utility.yul\":720:738   */\n  dup2\n    /* \"#utility.yul\":717:755   */\n  sub\n    /* \"#utility.yul\":714:798   */\n  tag_31\n  jumpi\n    /* \"#utility.yul\":770:788   */\n  tag_32\n  tag_7\n  jump\t// in\ntag_32:\n    /* \"#utility.yul\":714:798   */\ntag_31:\n    /* \"#utility.yul\":535:804   */\n  pop\n    /* \"#utility.yul\":484:804   */\n  swap2\n  swap1\n  pop\n  jump\t// out\n    /* \"#utility.yul\":810:951   */\ntag_9:\n    /* \"#utility.yul\":859:863   */\n  0x00\n    /* \"#utility.yul\":882:885   */\n  dup2\n    /* \"#utility.yul\":874:885   */\n  swap1\n  pop\n    /* \"#utility.yul\":905:908   */\n  dup2\n    /* \"#utility.yul\":902:903   */\n  0x00\n    /* \"#utility.yul\":895:909   */\n  mstore\n    /* \"#utility.yul\":939:943   */\n  0x20\n    /* \"#utility.yul\":936:937   */\n  0x00\n    /* \"#utility.yul\":926:944   */\n  keccak256\n    /* \"#utility.yul\":918:944   */\n  swap1\n  pop\n    /* \"#utility.yul\":810:951   */\n  swap2\n  swap1\n  pop\n  jump\t// out\n    /* \"#utility.yul\":957:1050   */\ntag_10:\n    /* \"#utility.yul\":994:1000   */\n  0x00\n    /* \"#utility.yul\":1041:1043   */\n  0x20\n    /* \"#utility.yul\":1036:1038   */\n  0x1f\n    /* \"#utility.yul\":1029:1034   */\n  dup4\n    /* \"#utility.yul\":1025:1039   */\n  add\n    /* \"#utility.yul\":1021:1044   */\n  div\n    /* \"#utility.yul\":1011:1044   */\n  swap1\n  pop\n    /* \"#utility.yul\":957:1050   */\n  swap2\n  swap1\n  pop\n  jump\t// out\n    /* \"#utility.yul\":1056:1163   */\ntag_11:\n    /* \"#utility.yul\":1100:1108   */\n  0x00\n    /* \"#utility.yul\":1150:1155   */\n  dup3\n    /* \"#utility.yul\":1144:1148   */\n  dup3\n    /* \"#utility.yul\":1140:1156   */\n  shl\n    /* \"#utility.yul\":1119:1156   */\n  swap1\n  pop\n    /* \"#utility.yul\":1056:1163   */\n  swap3\n  swap2\n  pop\n  pop\n  jump\t// out\n    /* \"#utility.yul\":1169:1562   */\ntag_12:\n    /* \"#utility.yul\":1238:1244   */\n  0x00\n    /* \"#utility.yul\":1288:1289   */\n  0x08\n    /* \"#utility.yul\":1276:1286   */\n  dup4\n    /* \"#utility.yul\":1272:1290   */\n  mul\n    /* \"#utility.yul\":1311:1408   */\n  tag_37\n    /* \"#utility.yul\":1341:1407   */\n  0xffffffffffffffffffffffffffffffffffffffffffffffffffffffffffffffff\n    /* \"#utility.yul\":1330:1339   */\n  dup3\n    /* \"#utility.yul\":1311:1408   */\n  tag_11\n  jump\t// in\ntag_37:\n    /* \"#utility.yul\":1429:1468   */\n  tag_38\n    /* \"#utility.yul\":1459:1467   */\n  dup7\n    /* \"#utility.yul\":1448:1457   */\n  dup4\n    /* \"#utility.yul\":1429:1468   */\n  tag_11\n  jump\t// in\ntag_38:\n    /* \"#utility.yul\":1417:1468   */\n  swap6\n  pop\n    /* \"#utility.yul\":1501:1505   */\n  dup1\n    /* \"#utility.yul\":1497:1506   */\n  not\n    /* \"#utility.yul\":1490:1495   */\n  dup5\n    /* \"#utility.yul\":1486:1507   */\n  and\n    /* \"#utility.yul\":1477:1507   */\n  swap4\n  pop\n    /* \"#utility.yul\":1550:1554   */\n  dup1\n    /* \"#utility.yul\":1540:1548   */\n  dup7\n    /* \"#utility.yul\":1536:1555   */\n  and\n    /* \"#utility.yul\":1529:1534   */\n  dup5\n    /* \"#utility.yul\":1526:1556   */\n  or\n    /* \"#utility.yul\":1516:1556   */\n  swap3\n  pop\n    /* \"#utility.yul\":1245:1562   */\n  pop\n  pop\n    /* \"#utility.yul\":1169:1562   */\n  swap4\n  swap3\n  pop\n  pop\n  pop\n  jump\t// out\n    /* \"#utility.yul\":1568:1645   */\ntag_13:\n    /* \"#utility.yul\":1605:1612   */\n  0x00\n    /* \"#utility.yul\":1634:1639   */\n  dup2\n    /* \"#utility.yul\":1623:1639   */\n  swap1\n  pop\n    /* \"#utility.yul\":1568:1645   */\n  swap2\n  swap1\n  pop\n  jump\t// out\n    /* \"#utility.yul\":1651:1711   */\ntag_14:\n    /* \"#utility.yul\":1679:1682   */\n  0x00\n    /* \"#utility.yul\":1700:1705   */\n  dup2\n    /* \"#utility.yul\":1693:1705   */\n  swap1\n  pop\n    /* \"#utility.yul\":1651:1711   */\n  swap2\n  swap1\n  pop\n  jump\t// out\n    /* \"#utility.yul\":1717:1859   */\ntag_15:\n    /* \"#utility.yul\":1767:1776   */\n  0x00\n    /* \"#utility.yul\":1800:1853   */\n  tag_42\n    /* \"#utility.yul\":1818:1852   */\n  tag_43\n    /* \"#utility.yul\":1827:1851   */\n  tag_44\n    /* \"#utility.yul\":1845:1850   */\n  dup5\n    /* \"#utility.yul\":1827:1851   */\n  tag_13\n  jump\t// in\ntag_44:\n    /* \"#utility.yul\":1818:1852   */\n  tag_14\n  jump\t// in\ntag_43:\n    /* \"#utility.yul\":1800:1853   */\n  tag_13\n  jump\t// in\ntag_42:\n    /* \"#utility.yul\":1787:1853   */\n  swap1\n  pop\n    /* \"#utility.yul\":1717:1859   */\n  swap2\n  swap1\n  pop\n  jump\t// out\n    /* \"#utility.yul\":1865:1940   */\ntag_16:\n    /* \"#utility.yul\":1908:1911   */\n  0x00\n    /* \"#utility.yul\":1929:1934   */\n  dup2\n    /* \"#utility.yul\":1922:1934   */\n  swap1\n  pop\n    /* \"#utility.yul\":1865:1940   */\n  swap2\n  swap1\n  pop\n  jump\t// out\n    /* \"#utility.yul\":1946:2215   */\ntag_17:\n    /* \"#utility.yul\":2056:2095   */\n  tag_47\n    /* \"#utility.yul\":2087:2094   */\n  dup4\n    /* \"#utility.yul\":2056:2095   */\n  tag_15\n  jump\t// in\ntag_47:\n    /* \"#utility.yul\":2117:2208   */\n  tag_48\n    /* \"#utility.yul\":2166:2207   */\n  tag_49\n    /* \"#utility.yul\":2190:2206   */\n  dup3\n    /* \"#utility.yul\":2166:2207   */\n  tag_16\n  jump\t// in\ntag_49:\n    /* \"#utility.yul\":2158:2164   */\n  dup5\n    /* \"#utility.yul\":2151:2155   */\n  dup5\n    /* \"#utility.yul\":2145:2156   */\n  sload\n    /* \"#utility.yul\":2117:2208   */\n  tag_12\n  jump\t// in\ntag_48:\n    /* \"#utility.yul\":2111:2115   */\n  dup3\n    /* \"#utility.yul\":2104:2209   */\n  sstore\n    /* \"#utility.yul\":2022:2215   */\n  pop\n    /* \"#utility.yul\":1946:2215   */\n  pop\n  pop\n  pop\n  jump\t// out\n    /* \"#utility.yul\":2221:2294   */\ntag_18:\n    /* \"#utility.yul\":2266:2269   */\n  0x00\n    /* \"#utility.yul\":2221:2294   */\n  swap1\n  jump\t// out\n    /* \"#utility.yul\":2300:2489   */\ntag_19:\n    /* \"#utility.yul\":2377:2409   */\n  tag_52\n  tag_18\n  jump\t// in\ntag_52:\n    /* \"#utility.yul\":2418:2483   */\n  tag_53\n    /* \"#utility.yul\":2476:2482   */\n  dup2\n    /* \"#utility.yul\":2468:2474   */\n  dup5\n    /* \"#utility.yul\":2462:2466   */\n  dup5\n    /* \"#utility.yul\":2418:2483   */\n  tag_17\n  jump\t// in\ntag_53:\n    /* \"#utility.yul\":2353:2489   */\n  pop\n    /* \"#utility.yul\":2300:2489   */\n  pop\n  pop\n  jump\t// out\n    /* \"#utility.yul\":2495:2681   */\ntag_20:\n    /* \"#utility.yul\":2555:2675   */\ntag_55:\n    /* \"#utility.yul\":2572:2575   */\n  dup2\n    /* \"#utility.yul\":2565:2570   */\n  dup2\n    /* \"#utility.yul\":2562:2576   */\n  lt\n    /* \"#utility.yul\":2555:2675   */\n  iszero\n  tag_57\n  jumpi\n    /* \"#utility.yul\":2626:2665   */\n  tag_58\n    /* \"#utility.yul\":2663:2664   */\n  0x00\n    /* \"#utility.yul\":2656:2661   */\n  dup3\n    /* \"#utility.yul\":2626:2665   */\n  tag_19\n  jump\t// in\ntag_58:\n    /* \"#utility.yul\":2599:2600   */\n  0x01\n    /* \"#utility.yul\":2592:2597   */\n  dup2\n    /* \"#utility.yul\":2588:2601   */\n  add\n    /* \"#utility.yul\":2579:2601   */\n  swap1\n  pop\n    /* \"#utility.yul\":2555:2675   */\n  jump(tag_55)\ntag_57:\n    /* \"#utility.yul\":2495:2681   */\n  pop\n  pop\n  jump\t// out\n    /* \"#utility.yul\":2687:3230   */\ntag_21:\n    /* \"#utility.yul\":2788:2790   */\n  0x1f\n    /* \"#utility.yul\":2783:2786   */\n  dup3\n    /* \"#utility.yul\":2780:2791   */\n  gt\n    /* \"#utility.yul\":2777:3223   */\n  iszero\n  tag_60\n  jumpi\n    /* \"#utility.yul\":2822:2860   */\n  tag_61\n    /* \"#utility.yul\":2854:2859   */\n  dup2\n    /* \"#utility.yul\":2822:2860   */\n  tag_9\n  jump\t// in\ntag_61:\n    /* \"#utility.yul\":2906:2935   */\n  tag_62\n    /* \"#utility.yul\":2924:2934   */\n  dup5\n    /* \"#utility.yul\":2906:2935   */\n  tag_10\n  jump\t// in\ntag_62:\n    /* \"#utility.yul\":2896:2904   */\n  dup2\n    /* \"#utility.yul\":2892:2936   */\n  add\n    /* \"#utility.yul\":3089:3091   */\n  0x20\n    /* \"#utility.yul\":3077:3087   */\n  dup6\n    /* \"#utility.yul\":3074:3092   */\n  lt\n    /* \"#utility.yul\":3071:3120   */\n  iszero\n  tag_63\n  jumpi\n    /* \"#utility.yul\":3110:3118   */\n  dup2\n    /* \"#utility.yul\":3095:3118   */\n  swap1\n  pop\n    /* \"#utility.yul\":3071:3120   */\ntag_63:\n    /* \"#utility.yul\":3133:3213   */\n  tag_64\n    /* \"#utility.yul\":3189:3211   */\n  tag_65\n    /* \"#utility.yul\":3207:3210   */\n  dup6\n    /* \"#utility.yul\":3189:3211   */\n  tag_10\n  jump\t// in\ntag_65:\n    /* \"#utility.yul\":3179:3187   */\n  dup4\n    /* \"#utility.yul\":3175:3212   */\n  add\n    /* \"#utility.yul\":3162:3173   */\n  dup3\n    /* \"#utility.yul\":3133:3213   */\n  tag_20\n  jump\t// in\ntag_64:\n    /* \"#utility.yul\":2792:3223   */\n  pop\n  pop\n    /* \"#utility.yul\":2777:3223   */\ntag_60:\n    /* \"#utility.yul\":2687:3230   */\n  pop\n  pop\n  pop\n  jump\t// out\n    /* \"#utility.yul\":3236:3353   */\ntag_22:\n    /* \"#utility.yul\":3290:3298   */\n  0x00\n    /* \"#utility.yul\":3340:3345   */\n  dup3\n    /* \"#utility.yul\":3334:3338   */\n  dup3\n    /* \"#utility.yul\":3330:3346   */\n  shr\n    /* \"#utility.yul\":3309:3346   */\n  swap1\n  pop\n    /* \"#utility.yul\":3236:3353   */\n  swap3\n  swap2\n  pop\n  pop\n  jump\t// out\n    /* \"#utility.yul\":3359:3528   */\ntag_23:\n    /* \"#utility.yul\":3403:3409   */\n  0x00\n    /* \"#utility.yul\":3436:3487   */\n  tag_68\n    /* \"#utility.yul\":3484:3485   */\n  0x00\n    /* \"#utility.yul\":3480:3486   */\n  not\n    /* \"#utility.yul\":3472:3477   */\n  dup5\n    /* \"#utility.yul\":3469:3470   */\n  0x08\n    /* \"#utility.yul\":3465:3478   */\n  mul\n    /* \"#utility.yul\":3436:3487   */\n  tag_22\n  jump\t// in\ntag_68:\n    /* \"#utility.yul\":3432:3488   */\n  not\n    /* \"#utility.yul\":3517:3521   */\n  dup1\n    /* \"#utility.yul\":3511:3515   */\n  dup4\n    /* \"#utility.yul\":3507:3522   */\n  and\n    /* \"#utility.yul\":3497:3522   */\n  swap2\n  pop\n    /* \"#utility.yul\":3410:3528   */\n  pop\n    /* \"#utility.yul\":3359:3528   */\n  swap3\n  swap2\n  pop\n  pop\n  jump\t// out\n    /* \"#utility.yul\":3533:3828   */\ntag_24:\n    /* \"#utility.yul\":3609:3613   */\n  0x00\n    /* \"#utility.yul\":3755:3784   */\n  tag_70\n    /* \"#utility.yul\":3780:3783   */\n  dup4\n    /* \"#utility.yul\":3774:3778   */\n  dup4\n    /* \"#utility.yul\":3755:3784   */\n  tag_23\n  jump\t// in\ntag_70:\n    /* \"#utility.yul\":3747:3784   */\n  swap2\n  pop\n    /* \"#utility.yul\":3817:3820   */\n  dup3\n    /* \"#utility.yul\":3814:3815   */\n  0x02\n    /* \"#utility.yul\":3810:3821   */\n  mul\n    /* \"#utility.yul\":3804:3808   */\n  dup3\n    /* \"#utility.yul\":3801:3822   */\n  or\n    /* \"#utility.yul\":3793:3822   */\n  swap1\n  pop\n    /* \"#utility.yul\":3533:3828   */\n  swap3\n  swap2\n  pop\n  pop\n  jump\t// out\n    /* \"#utility.yul\":3833:5228   */\ntag_2:\n    /* \"#utility.yul\":3950:3987   */\n  tag_72\n    /* \"#utility.yul\":3983:3986   */\n  dup3\n    /* \"#utility.yul\":3950:3987   */\n  tag_5\n  jump\t// in\ntag_72:\n    /* \"#utility.yul\":4052:4070   */\n  0xffffffffffffffff\n    /* \"#utility.yul\":4044:4050   */\n  dup2\n    /* \"#utility.yul\":4041:4071   */\n  gt\n    /* \"#utility.yul\":4038:4094   */\n  iszero\n  tag_73\n  jumpi\n    /* \"#utility.yul\":4074:4092   */\n  tag_74\n  tag_6\n  jump\t// in\ntag_74:\n    /* \"#utility.yul\":4038:4094   */\ntag_73:\n    /* \"#utility.yul\":4118:4156   */\n  tag_75\n    /* \"#utility.yul\":4150:4154   */\n  dup3\n    /* \"#utility.yul\":4144:4155   */\n  sload\n    /* \"#utility.yul\":4118:4156   */\n  tag_8\n  jump\t// in\ntag_75:\n    /* \"#utility.yul\":4203:4270   */\n  tag_76\n    /* \"#utility.yul\":4263:4269   */\n  dup3\n    /* \"#utility.yul\":4255:4261   */\n  dup3\n    /* \"#utility.yul\":4249:4253   */\n  dup6\n    /* \"#utility.yul\":4203:4270   */\n  tag_21\n  jump\t// in\ntag_76:\n    /* \"#utility.yul\":4297:4298   */\n  0x00\n    /* \"#utility.yul\":4321:4325   */\n  0x20\n    /* \"#utility.yul\":4308:4325   */\n  swap1\n  pop\n    /* \"#utility.yul\":4353:4355   */\n  0x1f\n    /* \"#utility.yul\":4345:4351   */\n  dup4\n    /* \"#utility.yul\":4342:4356   */\n  gt\n    /* \"#utility.yul\":4370:4371   */\n  0x01\n    /* \"#utility.yul\":4365:4983   */\n  dup2\n  eq\n  tag_78\n  jumpi\n    /* \"#utility.yul\":5027:5028   */\n  0x00\n    /* \"#utility.yul\":5044:5050   */\n  dup5\n    /* \"#utility.yul\":5041:5118   */\n  iszero\n  tag_79\n  jumpi\n    /* \"#utility.yul\":5093:5102   */\n  dup3\n    /* \"#utility.yul\":5088:5091   */\n  dup8\n    /* \"#utility.yul\":5084:5103   */\n  add\n    /* \"#utility.yul\":5078:5104   */\n  mload\n    /* \"#utility.yul\":5069:5104   */\n  swap1\n  pop\n    /* \"#utility.yul\":5041:5118   */\ntag_79:\n    /* \"#utility.yul\":5144:5211   */\n  tag_80\n    /* \"#utility.yul\":5204:5210   */\n  dup6\n    /* \"#utility.yul\":5197:5202   */\n  dup3\n    /* \"#utility.yul\":5144:5211   */\n  tag_24\n  jump\t// in\ntag_80:\n    /* \"#utility.yul\":5138:5142   */\n  dup7\n    /* \"#utility.yul\":5131:5212   */\n  sstore\n    /* \"#utility.yul\":5000:5222   */\n  pop\n    /* \"#utility.yul\":4335:5222   */\n  jump(tag_77)\n    /* \"#utility.yul\":4365:4983   */\ntag_78:\n    /* \"#utility.yul\":4417:4421   */\n  0x1f\n    /* \"#utility.yul\":4413:4422   */\n  not\n    /* \"#utility.yul\":4405:4411   */\n  dup5\n    /* \"#utility.yul\":4401:4423   */\n  and\n    /* \"#utility.yul\":4451:4488   */\n  tag_81\n    /* \"#utility.yul\":4483:4487   */\n  dup7\n    /* \"#utility.yul\":4451:4488   */\n  tag_9\n  jump\t// in\ntag_81:\n    /* \"#utility.yul\":4510:4511   */\n  0x00\n    /* \"#utility.yul\":4524:4732   */\ntag_82:\n    /* \"#utility.yul\":4538:4545   */\n  dup3\n    /* \"#utility.yul\":4535:4536   */\n  dup2\n    /* \"#utility.yul\":4532:4546   */\n  lt\n    /* \"#utility.yul\":4524:4732   */\n  iszero\n  tag_84\n  jumpi\n    /* \"#utility.yul\":4617:4626   */\n  dup5\n    /* \"#utility.yul\":4612:4615   */\n  dup10\n    /* \"#utility.yul\":4608:4627   */\n  add\n    /* \"#utility.yul\":4602:4628   */\n  mload\n    /* \"#utility.yul\":4594:4600   */\n  dup3\n    /* \"#utility.yul\":4587:4629   */\n  sstore\n    /* \"#utility.yul\":4668:4669   */\n  0x01\n    /* \"#utility.yul\":4660:4666   */\n  dup3\n    /* \"#utility.yul\":4656:4670   */\n  add\n    /* \"#utility.yul\":4646:4670   */\n  swap2\n  pop\n    /* \"#utility.yul\":4715:4717   */\n  0x20\n    /* \"#utility.yul\":4704:4713   */\n  dup6\n    /* \"#utility.yul\":4700:4718   */\n  add\n    /* \"#utility.yul\":4687:4718   */\n  swap5\n  pop\n    /* \"#utility.yul\":4561:4565   */\n  0x20\n    /* \"#utility.yul\":4558:4559   */\n  dup2\n    /* \"#utility.yul\":4554:4566   */\n  add\n    /* \"#utility.yul\":4549:4566   */\n  swap1\n  pop\n    /* \"#utility.yul\":4524:4732   */\n  jump(tag_82)\ntag_84:\n    /* \"#utility.yul\":4760:4766   */\n  dup7\n    /* \"#utility.yul\":4751:4758   */\n  dup4\n    /* \"#utility.yul\":4748:4767   */\n  lt\n    /* \"#utility.yul\":4745:4924   */\n  iszero\n  tag_85\n  jumpi\n    /* \"#utility.yul\":4818:4827   */\n  dup5\n    /* \"#utility.yul\":4813:4816   */\n  dup10\n    /* \"#utility.yul\":4809:4828   */\n  add\n    /* \"#utility.yul\":4803:4829   */\n  mload\n    /* \"#utility.yul\":4861:4909   */\n  tag_86\n    /* \"#utility.yul\":4903:4907   */\n  0x1f\n    /* \"#utility.yul\":4895:4901   */\n  dup10\n    /* \"#utility.yul\":4891:4908   */\n  and\n    /* \"#utility.yul\":4880:4889   */\n  dup3\n    /* \"#utility.yul\":4861:4909   */\n  tag_23\n  jump\t// in\ntag_86:\n    /* \"#utility.yul\":4853:4859   */\n  dup4\n    /* \"#utility.yul\":4846:4910   */\n  sstore\n    /* \"#utility.yul\":4768:4924   */\n  pop\n    /* \"#utility.yul\":4745:4924   */\ntag_85:\n    /* \"#utility.yul\":4970:4971   */\n  0x01\n    /* \"#utility.yul\":4966:4967   */\n  0x02\n    /* \"#utility.yul\":4958:4964   */\n  dup9\n    /* \"#utility.yul\":4954:4968   */\n  mul\n    /* \"#utility.yul\":4950:4972   */\n  add\n    /* \"#utility.yul\":4944:4948   */\n  dup9\n    /* \"#utility.yul\":4937:4973   */\n  sstore\n    /* \"#utility.yul\":4372:4983   */\n  pop\n  pop\n  pop\n    /* \"#utility.yul\":4335:5222   */\ntag_77:\n  pop\n    /* \"#utility.yul\":3925:5228   */\n  pop\n  pop\n  pop\n    /* \"#utility.yul\":3833:5228   */\n  pop\n  pop\n  jump\t// out\n    /* \"SimpleStorage.sol\":117:2895  contract SimpleStorage {... */\ntag_4:\n  dataSize(sub_0)\n  dup1\n  dataOffset(sub_0)\n  0x00\n  codecopy\n  0x00\n  return\nstop\n\nsub_0: assembly {\n        /* \"SimpleStorage.sol\":117:2895  contract SimpleStorage {... */\n      mstore(0x40, 0x80)\n      callvalue\n      dup1\n      iszero\n      tag_1\n      jumpi\n      0x00\n      dup1\n      revert\n    tag_1:\n      pop\n      jumpi(tag_2, lt(calldatasize, 0x04))\n      shr(0xe0, calldataload(0x00))\n      dup1\n      0x9e7a13ad\n      gt\n      tag_17\n      jumpi\n      dup1\n      0xb6339418\n      gt\n      tag_18\n      jumpi\n      dup1\n      0xb6339418\n      eq\n      tag_13\n      jumpi\n      dup1\n      0xbca353be\n      eq\n      tag_14\n      jumpi\n      dup1\n      0xc19d93fb\n      eq\n      tag_15\n      jumpi\n      dup1\n      0xe0819c9a\n      eq\n      tag_16\n      jumpi\n      jump(tag_2)\n    tag_18:\n      dup1\n      0x9e7a13ad\n      eq\n      tag_10\n      jumpi\n      dup1\n      0xa621d15e\n      eq\n      tag_11\n      jumpi\n      dup1\n      0xa7e1a364\n      eq\n      tag_12\n      jumpi\n      jump(tag_2)\n    tag_17:\n      dup1\n      0x29cd1d96\n      gt\n      tag_19\n      jumpi\n      dup1\n      0x29cd1d96\n      eq\n      tag_6\n      jumpi\n      dup1\n      0x3a32b549\n      eq\n      tag_7\n      jumpi\n      dup1\n      0x6f760f41\n      eq\n      tag_8\n      jumpi\n      dup1\n      0x8fda356d\n      eq\n      tag_9\n      jumpi\n      jump(tag_2)\n    tag_19:\n      dup1\n      0x0664c448\n      eq\n      tag_3\n      jumpi\n      dup1\n      0x0cd2636e\n      eq\n      tag_4\n      jumpi\n      dup1\n      0x22f3e2d4\n      eq\n      tag_5\n      jumpi\n    tag_2:\n      0x00\n      dup1\n      revert\n        /* \"SimpleStorage.sol\":1077:1288  function isGreatherThan(int userInputValue) public view returns (bool) {... */\n    tag_3:\n      tag_20\n      0x04\n      dup1\n      calldatasize\n      sub\n      dup2\n      add\n      swap1\n      tag_21\n      swap2\n      swap1\n      tag_22\n      jump\t// in\n    tag_21:\n      tag_23\n      jump\t// in\n    tag_20:\n      mload(0x40)\n      tag_24\n      swap2\n      swap1\n      tag_25\n      jump\t// in\n    tag_24:\n      mload(0x40)\n      dup1\n      swap2\n      sub\n      swap1\n      return\n        /* \"SimpleStorage.sol\":1294:1501  function sumToFavoriteNumber() public view returns (uint256) {... */\n    tag_4:\n      tag_26\n      tag_27\n      jump\t// in\n    tag_26:\n      mload(0x40)\n      tag_28\n      swap2\n      swap1\n      tag_29\n      jump\t// in\n    tag_28:\n      mload(0x40)\n      dup1\n      swap2\n      sub\n      swap1\n      return\n        /* \"SimpleStorage.sol\":2742:2892  function isActive() public view returns (bool) {... */\n    tag_5:\n      tag_30\n      tag_31\n      jump\t// in\n    tag_30:\n      mload(0x40)\n      tag_32\n      swap2\n      swap1\n      tag_25\n      jump\t// in\n    tag_32:\n      mload(0x40)\n      dup1\n      swap2\n      sub\n      swap1\n      return\n        /* \"SimpleStorage.sol\":220:252  uint256[] public favoriteNumbers */\n    tag_6:\n      tag_33\n      0x04\n      dup1\n      calldatasize\n      sub\n      dup2\n      add\n      swap1\n      tag_34\n      swap2\n      swap1\n      tag_35\n      jump\t// in\n    tag_34:\n      tag_36\n      jump\t// in\n    tag_33:\n      mload(0x40)\n      tag_37\n      swap2\n      swap1\n      tag_29\n      jump\t// in\n    tag_37:\n      mload(0x40)\n      dup1\n      swap2\n      sub\n      swap1\n      return\n        /* \"SimpleStorage.sol\":1827:1947  function externalFunction() external pure returns (string memory) {... */\n    tag_7:\n      tag_38\n      tag_39\n      jump\t// in\n    tag_38:\n      mload(0x40)\n      tag_40\n      swap2\n      swap1\n      tag_41\n      jump\t// in\n    tag_40:\n      mload(0x40)\n      dup1\n      swap2\n      sub\n      swap1\n      return\n        /* \"SimpleStorage.sol\":2289:2417  function addPerson(string memory _name, uint _favoriteNumber) public {... */\n    tag_8:\n      tag_42\n      0x04\n      dup1\n      calldatasize\n      sub\n      dup2\n      add\n      swap1\n      tag_43\n      swap2\n      swap1\n      tag_44\n      jump\t// in\n    tag_43:\n      tag_45\n      jump\t// in\n    tag_42:\n      stop\n        /* \"SimpleStorage.sol\":2465:2544  function activateContract() public {... */\n    tag_9:\n      tag_46\n      tag_47\n      jump\t// in\n    tag_46:\n      stop\n        /* \"SimpleStorage.sol\":500:522  Person[] public people */\n    tag_10:\n      tag_48\n      0x04\n      dup1\n      calldatasize\n      sub\n      dup2\n      add\n      swap1\n      tag_49\n      swap2\n      swap1\n      tag_35\n      jump\t// in\n    tag_49:\n      tag_50\n      jump\t// in\n    tag_48:\n      mload(0x40)\n      tag_51\n      swap3\n      swap2\n      swap1\n      tag_52\n      jump\t// in\n    tag_51:\n      mload(0x40)\n      dup1\n      swap2\n      sub\n      swap1\n      return\n        /* \"SimpleStorage.sol\":974:1071  function getFavoriteNumber() public view returns (uint256) {... */\n    tag_11:\n      tag_53\n      tag_54\n      jump\t// in\n    tag_53:\n      mload(0x40)\n      tag_55\n      swap2\n      swap1\n      tag_29\n      jump\t// in\n    tag_55:\n      mload(0x40)\n      dup1\n      swap2\n      sub\n      swap1\n      return\n        /* \"SimpleStorage.sol\":2137:2253  function addFavoriteNumber(uint userFavoriteNumber) public {... */\n    tag_12:\n      tag_56\n      0x04\n      dup1\n      calldatasize\n      sub\n      dup2\n      add\n      swap1\n      tag_57\n      swap2\n      swap1\n      tag_35\n      jump\t// in\n    tag_57:\n      tag_58\n      jump\t// in\n    tag_56:\n      stop\n        /* \"SimpleStorage.sol\":883:967  function storeNumber(uint256 number) public {... */\n    tag_13:\n      tag_59\n      0x04\n      dup1\n      calldatasize\n      sub\n      dup2\n      add\n      swap1\n      tag_60\n      swap2\n      swap1\n      tag_35\n      jump\t// in\n    tag_60:\n      tag_61\n      jump\t// in\n    tag_59:\n      stop\n        /* \"SimpleStorage.sol\":2592:2675  function deactivateContract() public {... */\n    tag_14:\n      tag_62\n      tag_63\n      jump\t// in\n    tag_62:\n      stop\n        /* \"SimpleStorage.sol\":796:822  ContractState public state */\n    tag_15:\n      tag_64\n      tag_65\n      jump\t// in\n    tag_64:\n      mload(0x40)\n      tag_66\n      swap2\n      swap1\n      tag_67\n      jump\t// in\n    tag_66:\n      mload(0x40)\n      dup1\n      swap2\n      sub\n      swap1\n      return\n        /* \"SimpleStorage.sol\":1983:2097  function testExternalFunction() public view returns(string memory) {... */\n    tag_16:\n      tag_68\n      tag_69\n      jump\t// in\n    tag_68:\n      mload(0x40)\n      tag_70\n      swap2\n      swap1\n      tag_41\n      jump\t// in\n    tag_70:\n      mload(0x40)\n      dup1\n      swap2\n      sub\n      swap1\n      return\n        /* \"SimpleStorage.sol\":1077:1288  function isGreatherThan(int userInputValue) public view returns (bool) {... */\n    tag_23:\n        /* \"SimpleStorage.sol\":1142:1146  bool */\n      0x00\n        /* \"SimpleStorage.sol\":1187:1201  userInputValue */\n      dup2\n        /* \"SimpleStorage.sol\":1169:1183  favoriteNumber */\n      sload(0x00)\n        /* \"SimpleStorage.sol\":1162:1201  int256(favoriteNumber) > userInputValue */\n      sgt\n        /* \"SimpleStorage.sol\":1158:1282  if (int256(favoriteNumber) > userInputValue) {... */\n      iszero\n      tag_72\n      jumpi\n        /* \"SimpleStorage.sol\":1224:1228  true */\n      0x01\n        /* \"SimpleStorage.sol\":1217:1228  return true */\n      swap1\n      pop\n      jump(tag_71)\n        /* \"SimpleStorage.sol\":1158:1282  if (int256(favoriteNumber) > userInputValue) {... */\n    tag_72:\n        /* \"SimpleStorage.sol\":1266:1271  false */\n      0x00\n        /* \"SimpleStorage.sol\":1259:1271  return false */\n      swap1\n      pop\n        /* \"SimpleStorage.sol\":1077:1288  function isGreatherThan(int userInputValue) public view returns (bool) {... */\n    tag_71:\n      swap2\n      swap1\n      pop\n      jump\t// out\n        /* \"SimpleStorage.sol\":1294:1501  function sumToFavoriteNumber() public view returns (uint256) {... */\n    tag_27:\n        /* \"SimpleStorage.sol\":1346:1353  uint256 */\n      0x00\n        /* \"SimpleStorage.sol\":1365:1376  uint256 sum */\n      dup1\n        /* \"SimpleStorage.sol\":1379:1380  0 */\n      0x00\n        /* \"SimpleStorage.sol\":1365:1380  uint256 sum = 0 */\n      swap1\n      pop\n        /* \"SimpleStorage.sol\":1395:1404  uint256 i */\n      0x00\n        /* \"SimpleStorage.sol\":1407:1408  1 */\n      0x01\n        /* \"SimpleStorage.sol\":1395:1408  uint256 i = 1 */\n      swap1\n      pop\n        /* \"SimpleStorage.sol\":1390:1475  for (uint256 i = 1; i <= favoriteNumber; i++ ) {... */\n    tag_75:\n        /* \"SimpleStorage.sol\":1415:1429  favoriteNumber */\n      sload(0x00)\n        /* \"SimpleStorage.sol\":1410:1411  i */\n      dup2\n        /* \"SimpleStorage.sol\":1410:1429  i <= favoriteNumber */\n      gt\n        /* \"SimpleStorage.sol\":1390:1475  for (uint256 i = 1; i <= favoriteNumber; i++ ) {... */\n      tag_76\n      jumpi\n        /* \"SimpleStorage.sol\":1463:1464  i */\n      dup1\n        /* \"SimpleStorage.sol\":1457:1460  sum */\n      dup3\n        /* \"SimpleStorage.sol\":1457:1464  sum + i */\n      tag_78\n      swap2\n      swap1\n      tag_79\n      jump\t// in\n    tag_78:\n        /* \"SimpleStorage.sol\":1451:1464  sum = sum + i */\n      swap2\n      pop\n        /* \"SimpleStorage.sol\":1431:1434  i++ */\n      dup1\n      dup1\n      tag_80\n      swap1\n      tag_81\n      jump\t// in\n    tag_80:\n      swap2\n      pop\n      pop\n        /* \"SimpleStorage.sol\":1390:1475  for (uint256 i = 1; i <= favoriteNumber; i++ ) {... */\n      jump(tag_75)\n    tag_76:\n      pop\n        /* \"SimpleStorage.sol\":1491:1494  sum */\n      dup1\n        /* \"SimpleStorage.sol\":1484:1494  return sum */\n      swap2\n      pop\n      pop\n        /* \"SimpleStorage.sol\":1294:1501  function sumToFavoriteNumber() public view returns (uint256) {... */\n      swap1\n      jump\t// out\n        /* \"SimpleStorage.sol\":2742:2892  function isActive() public view returns (bool) {... */\n    tag_31:\n        /* \"SimpleStorage.sol\":2783:2787  bool */\n      0x00\n        /* \"SimpleStorage.sol\":2799:2817  bool isActiveState */\n      dup1\n        /* \"SimpleStorage.sol\":2830:2850  ContractState.Active */\n      0x00\n        /* \"SimpleStorage.sol\":2821:2850  state == ContractState.Active */\n      0x01\n      dup2\n      gt\n      iszero\n      tag_83\n      jumpi\n      tag_84\n      tag_85\n      jump\t// in\n    tag_84:\n    tag_83:\n        /* \"SimpleStorage.sol\":2821:2826  state */\n      0x03\n      0x00\n      swap1\n      sload\n      swap1\n      0x0100\n      exp\n      swap1\n      div\n      0xff\n      and\n        /* \"SimpleStorage.sol\":2821:2850  state == ContractState.Active */\n      0x01\n      dup2\n      gt\n      iszero\n      tag_86\n      jumpi\n      tag_87\n      tag_85\n      jump\t// in\n    tag_87:\n    tag_86:\n      eq\n        /* \"SimpleStorage.sol\":2799:2851  bool isActiveState = (state == ContractState.Active) */\n      swap1\n      pop\n        /* \"SimpleStorage.sol\":2872:2885  isActiveState */\n      dup1\n        /* \"SimpleStorage.sol\":2865:2885  return isActiveState */\n      swap2\n      pop\n      pop\n        /* \"SimpleStorage.sol\":2742:2892  function isActive() public view returns (bool) {... */\n      swap1\n      jump\t// out\n        /* \"SimpleStorage.sol\":220:252  uint256[] public favoriteNumbers */\n    tag_36:\n      0x01\n      dup2\n      dup2\n      sload\n      dup2\n      lt\n      tag_88\n      jumpi\n      0x00\n      dup1\n      revert\n    tag_88:\n      swap1\n      0x00\n      mstore\n      keccak256(0x00, 0x20)\n      add\n      0x00\n      swap2\n      pop\n      swap1\n      pop\n      sload\n      dup2\n      jump\t// out\n        /* \"SimpleStorage.sol\":1827:1947  function externalFunction() external pure returns (string memory) {... */\n    tag_39:\n        /* \"SimpleStorage.sol\":1878:1891  string memory */\n      0x60\n        /* \"SimpleStorage.sol\":1903:1940  return \"This is an external function\" */\n      mload(0x40)\n      dup1\n      0x40\n      add\n      0x40\n      mstore\n      dup1\n      0x1c\n      dup2\n      mstore\n      0x20\n      add\n      0x5468697320697320616e2065787465726e616c2066756e6374696f6e00000000\n      dup2\n      mstore\n      pop\n      swap1\n      pop\n        /* \"SimpleStorage.sol\":1827:1947  function externalFunction() external pure returns (string memory) {... */\n      swap1\n      jump\t// out\n        /* \"SimpleStorage.sol\":2289:2417  function addPerson(string memory _name, uint _favoriteNumber) public {... */\n    tag_45:\n        /* \"SimpleStorage.sol\":2368:2374  people */\n      0x02\n        /* \"SimpleStorage.sol\":2380:2410  Person(_name, _favoriteNumber) */\n      mload(0x40)\n      dup1\n      0x40\n      add\n      0x40\n      mstore\n      dup1\n        /* \"SimpleStorage.sol\":2387:2392  _name */\n      dup5\n        /* \"SimpleStorage.sol\":2380:2410  Person(_name, _favoriteNumber) */\n      dup2\n      mstore\n      0x20\n      add\n        /* \"SimpleStorage.sol\":2394:2409  _favoriteNumber */\n      dup4\n        /* \"SimpleStorage.sol\":2380:2410  Person(_name, _favoriteNumber) */\n      dup2\n      mstore\n      pop\n        /* \"SimpleStorage.sol\":2368:2411  people.push(Person(_name, _favoriteNumber)) */\n      swap1\n      dup1\n      0x01\n      dup2\n      sload\n      add\n      dup1\n      dup3\n      sstore\n      dup1\n      swap2\n      pop\n      pop\n      0x01\n      swap1\n      sub\n      swap1\n      0x00\n      mstore\n      keccak256(0x00, 0x20)\n      swap1\n      0x02\n      mul\n      add\n      0x00\n      swap1\n      swap2\n      swap1\n      swap2\n      swap1\n      swap2\n      pop\n      0x00\n      dup3\n      add\n      mload\n      dup2\n      0x00\n      add\n      swap1\n      dup2\n      tag_93\n      swap2\n      swap1\n      tag_94\n      jump\t// in\n    tag_93:\n      pop\n      0x20\n      dup3\n      add\n      mload\n      dup2\n      0x01\n      add\n      sstore\n      pop\n      pop\n        /* \"SimpleStorage.sol\":2289:2417  function addPerson(string memory _name, uint _favoriteNumber) public {... */\n      pop\n      pop\n      jump\t// out\n        /* \"SimpleStorage.sol\":2465:2544  function activateContract() public {... */\n    tag_47:\n        /* \"SimpleStorage.sol\":2518:2538  ContractState.Active */\n      0x00\n        /* \"SimpleStorage.sol\":2510:2515  state */\n      0x03\n      0x00\n        /* \"SimpleStorage.sol\":2510:2538  state = ContractState.Active */\n      0x0100\n      exp\n      dup2\n      sload\n      dup2\n      0xff\n      mul\n      not\n      and\n      swap1\n      dup4\n      0x01\n      dup2\n      gt\n      iszero\n      tag_96\n      jumpi\n      tag_97\n      tag_85\n      jump\t// in\n    tag_97:\n    tag_96:\n      mul\n      or\n      swap1\n      sstore\n      pop\n        /* \"SimpleStorage.sol\":2465:2544  function activateContract() public {... */\n      jump\t// out\n        /* \"SimpleStorage.sol\":500:522  Person[] public people */\n    tag_50:\n      0x02\n      dup2\n      dup2\n      sload\n      dup2\n      lt\n      tag_98\n      jumpi\n      0x00\n      dup1\n      revert\n    tag_98:\n      swap1\n      0x00\n      mstore\n      keccak256(0x00, 0x20)\n      swap1\n      0x02\n      mul\n      add\n      0x00\n      swap2\n      pop\n      swap1\n      pop\n      dup1\n      0x00\n      add\n      dup1\n      sload\n      tag_100\n      swap1\n      tag_101\n      jump\t// in\n    tag_100:\n      dup1\n      0x1f\n      add\n      0x20\n      dup1\n      swap2\n      div\n      mul\n      0x20\n      add\n      mload(0x40)\n      swap1\n      dup2\n      add\n      0x40\n      mstore\n      dup1\n      swap3\n      swap2\n      swap1\n      dup2\n      dup2\n      mstore\n      0x20\n      add\n      dup3\n      dup1\n      sload\n      tag_102\n      swap1\n      tag_101\n      jump\t// in\n    tag_102:\n      dup1\n      iszero\n      tag_103\n      jumpi\n      dup1\n      0x1f\n      lt\n      tag_104\n      jumpi\n      0x0100\n      dup1\n      dup4\n      sload\n      div\n      mul\n      dup4\n      mstore\n      swap2\n      0x20\n      add\n      swap2\n      jump(tag_103)\n    tag_104:\n      dup3\n      add\n      swap2\n      swap1\n      0x00\n      mstore\n      keccak256(0x00, 0x20)\n      swap1\n    tag_105:\n      dup2\n      sload\n      dup2\n      mstore\n      swap1\n      0x01\n      add\n      swap1\n      0x20\n      add\n      dup1\n      dup4\n      gt\n      tag_105\n      jumpi\n      dup3\n      swap1\n      sub\n      0x1f\n      and\n      dup3\n      add\n      swap2\n    tag_103:\n      pop\n      pop\n      pop\n      pop\n      pop\n      swap1\n      dup1\n      0x01\n      add\n      sload\n      swap1\n      pop\n      dup3\n      jump\t// out\n        /* \"SimpleStorage.sol\":974:1071  function getFavoriteNumber() public view returns (uint256) {... */\n    tag_54:\n        /* \"SimpleStorage.sol\":1024:1031  uint256 */\n      0x00\n        /* \"SimpleStorage.sol\":1050:1064  favoriteNumber */\n      dup1\n      sload\n        /* \"SimpleStorage.sol\":1043:1064  return favoriteNumber */\n      swap1\n      pop\n        /* \"SimpleStorage.sol\":974:1071  function getFavoriteNumber() public view returns (uint256) {... */\n      swap1\n      jump\t// out\n        /* \"SimpleStorage.sol\":2137:2253  function addFavoriteNumber(uint userFavoriteNumber) public {... */\n    tag_58:\n        /* \"SimpleStorage.sol\":2206:2221  favoriteNumbers */\n      0x01\n        /* \"SimpleStorage.sol\":2227:2245  userFavoriteNumber */\n      dup2\n        /* \"SimpleStorage.sol\":2206:2246  favoriteNumbers.push(userFavoriteNumber) */\n      swap1\n      dup1\n      0x01\n      dup2\n      sload\n      add\n      dup1\n      dup3\n      sstore\n      dup1\n      swap2\n      pop\n      pop\n      0x01\n      swap1\n      sub\n      swap1\n      0x00\n      mstore\n      keccak256(0x00, 0x20)\n      add\n      0x00\n      swap1\n      swap2\n      swap1\n      swap2\n      swap1\n      swap2\n      pop\n      sstore\n        /* \"SimpleStorage.sol\":2137:2253  function addFavoriteNumber(uint userFavoriteNumber) public {... */\n      pop\n      jump\t// out\n        /* \"SimpleStorage.sol\":883:967  function storeNumber(uint256 number) public {... */\n    tag_61:\n        /* \"SimpleStorage.sol\":954:960  number */\n      dup1\n        /* \"SimpleStorage.sol\":937:951  favoriteNumber */\n      0x00\n        /* \"SimpleStorage.sol\":937:960  favoriteNumber = number */\n      dup2\n      swap1\n      sstore\n      pop\n        /* \"SimpleStorage.sol\":883:967  function storeNumber(uint256 number) public {... */\n      pop\n      jump\t// out\n        /* \"SimpleStorage.sol\":2592:2675  function deactivateContract() public {... */\n    tag_63:\n        /* \"SimpleStorage.sol\":2647:2669  ContractState.Inactive */\n      0x01\n        /* \"SimpleStorage.sol\":2639:2644  state */\n      0x03\n      0x00\n        /* \"SimpleStorage.sol\":2639:2669  state = ContractState.Inactive */\n      0x0100\n      exp\n      dup2\n      sload\n      dup2\n      0xff\n      mul\n      not\n      and\n      swap1\n      dup4\n      0x01\n      dup2\n      gt\n      iszero\n      tag_111\n      jumpi\n      tag_112\n      tag_85\n      jump\t// in\n    tag_112:\n    tag_111:\n      mul\n      or\n      swap1\n      sstore\n      pop\n        /* \"SimpleStorage.sol\":2592:2675  function deactivateContract() public {... */\n      jump\t// out\n        /* \"SimpleStorage.sol\":796:822  ContractState public state */\n    tag_65:\n      0x03\n      0x00\n      swap1\n      sload\n      swap1\n      0x0100\n      exp\n      swap1\n      div\n      0xff\n      and\n      dup2\n      jump\t// out\n        /* \"SimpleStorage.sol\":1983:2097  function testExternalFunction() public view returns(string memory) {... */\n    tag_69:\n        /* \"SimpleStorage.sol\":2035:2048  string memory */\n      0x60\n        /* \"SimpleStorage.sol\":2067:2071  this */\n      address\n        /* \"SimpleStorage.sol\":2067:2088  this.externalFunction */\n      0xffffffffffffffffffffffffffffffffffffffff\n      and\n      0x3a32b549\n        /* \"SimpleStorage.sol\":2067:2090  this.externalFunction() */\n      mload(0x40)\n      dup2\n      0xffffffff\n      and\n      0xe0\n      shl\n      dup2\n      mstore\n      0x04\n      add\n      0x00\n      mload(0x40)\n      dup1\n      dup4\n      sub\n      dup2\n      dup7\n      gas\n      staticcall\n      iszero\n      dup1\n      iszero\n      tag_115\n      jumpi\n      returndatasize\n      0x00\n      dup1\n      returndatacopy\n      revert(0x00, returndatasize)\n    tag_115:\n      pop\n      pop\n      pop\n      pop\n      mload(0x40)\n      returndatasize\n      0x00\n      dup3\n      returndatacopy\n      returndatasize\n      not(0x1f)\n      0x1f\n      dup3\n      add\n      and\n      dup3\n      add\n      dup1\n      0x40\n      mstore\n      pop\n      dup2\n      add\n      swap1\n      tag_116\n      swap2\n      swap1\n      tag_117\n      jump\t// in\n    tag_116:\n        /* \"SimpleStorage.sol\":2060:2090  return this.externalFunction() */\n      swap1\n      pop\n        /* \"SimpleStorage.sol\":1983:2097  function testExternalFunction() public view returns(string memory) {... */\n      swap1\n      jump\t// out\n        /* \"#utility.yul\":7:82   */\n    tag_118:\n        /* \"#utility.yul\":40:46   */\n      0x00\n        /* \"#utility.yul\":73:75   */\n      0x40\n        /* \"#utility.yul\":67:76   */\n      mload\n        /* \"#utility.yul\":57:76   */\n      swap1\n      pop\n        /* \"#utility.yul\":7:82   */\n      swap1\n      jump\t// out\n        /* \"#utility.yul\":88:205   */\n    tag_119:\n        /* \"#utility.yul\":197:198   */\n      0x00\n        /* \"#utility.yul\":194:195   */\n      dup1\n        /* \"#utility.yul\":187:199   */\n      revert\n        /* \"#utility.yul\":211:328   */\n    tag_120:\n        /* \"#utility.yul\":320:321   */\n      0x00\n        /* \"#utility.yul\":317:318   */\n      dup1\n        /* \"#utility.yul\":310:322   */\n      revert\n        /* \"#utility.yul\":334:410   */\n    tag_121:\n        /* \"#utility.yul\":370:377   */\n      0x00\n        /* \"#utility.yul\":399:404   */\n      dup2\n        /* \"#utility.yul\":388:404   */\n      swap1\n      pop\n        /* \"#utility.yul\":334:410   */\n      swap2\n      swap1\n      pop\n      jump\t// out\n        /* \"#utility.yul\":416:536   */\n    tag_122:\n        /* \"#utility.yul\":488:511   */\n      tag_173\n        /* \"#utility.yul\":505:510   */\n      dup2\n        /* \"#utility.yul\":488:511   */\n      tag_121\n      jump\t// in\n    tag_173:\n        /* \"#utility.yul\":481:486   */\n      dup2\n        /* \"#utility.yul\":478:512   */\n      eq\n        /* \"#utility.yul\":468:530   */\n      tag_174\n      jumpi\n        /* \"#utility.yul\":526:527   */\n      0x00\n        /* \"#utility.yul\":523:524   */\n      dup1\n        /* \"#utility.yul\":516:528   */\n      revert\n        /* \"#utility.yul\":468:530   */\n    tag_174:\n        /* \"#utility.yul\":416:536   */\n      pop\n      jump\t// out\n        /* \"#utility.yul\":542:679   */\n    tag_123:\n        /* \"#utility.yul\":587:592   */\n      0x00\n        /* \"#utility.yul\":625:631   */\n      dup2\n        /* \"#utility.yul\":612:632   */\n      calldataload\n        /* \"#utility.yul\":603:632   */\n      swap1\n      pop\n        /* \"#utility.yul\":641:673   */\n      tag_176\n        /* \"#utility.yul\":667:672   */\n      dup2\n        /* \"#utility.yul\":641:673   */\n      tag_122\n      jump\t// in\n    tag_176:\n        /* \"#utility.yul\":542:679   */\n      swap3\n      swap2\n      pop\n      pop\n      jump\t// out\n        /* \"#utility.yul\":685:1012   */\n    tag_22:\n        /* \"#utility.yul\":743:749   */\n      0x00\n        /* \"#utility.yul\":792:794   */\n      0x20\n        /* \"#utility.yul\":780:789   */\n      dup3\n        /* \"#utility.yul\":771:778   */\n      dup5\n        /* \"#utility.yul\":767:790   */\n      sub\n        /* \"#utility.yul\":763:795   */\n      slt\n        /* \"#utility.yul\":760:879   */\n      iszero\n      tag_178\n      jumpi\n        /* \"#utility.yul\":798:877   */\n      tag_179\n      tag_119\n      jump\t// in\n    tag_179:\n        /* \"#utility.yul\":760:879   */\n    tag_178:\n        /* \"#utility.yul\":918:919   */\n      0x00\n        /* \"#utility.yul\":943:995   */\n      tag_180\n        /* \"#utility.yul\":987:994   */\n      dup5\n        /* \"#utility.yul\":978:984   */\n      dup3\n        /* \"#utility.yul\":967:976   */\n      dup6\n        /* \"#utility.yul\":963:985   */\n      add\n        /* \"#utility.yul\":943:995   */\n      tag_123\n      jump\t// in\n    tag_180:\n        /* \"#utility.yul\":933:995   */\n      swap2\n      pop\n        /* \"#utility.yul\":889:1005   */\n      pop\n        /* \"#utility.yul\":685:1012   */\n      swap3\n      swap2\n      pop\n      pop\n      jump\t// out\n        /* \"#utility.yul\":1018:1108   */\n    tag_124:\n        /* \"#utility.yul\":1052:1059   */\n      0x00\n        /* \"#utility.yul\":1095:1100   */\n      dup2\n        /* \"#utility.yul\":1088:1101   */\n      iszero\n        /* \"#utility.yul\":1081:1102   */\n      iszero\n        /* \"#utility.yul\":1070:1102   */\n      swap1\n      pop\n        /* \"#utility.yul\":1018:1108   */\n      swap2\n      swap1\n      pop\n      jump\t// out\n        /* \"#utility.yul\":1114:1223   */\n    tag_125:\n        /* \"#utility.yul\":1195:1216   */\n      tag_183\n        /* \"#utility.yul\":1210:1215   */\n      dup2\n        /* \"#utility.yul\":1195:1216   */\n      tag_124\n      jump\t// in\n    tag_183:\n        /* \"#utility.yul\":1190:1193   */\n      dup3\n        /* \"#utility.yul\":1183:1217   */\n      mstore\n        /* \"#utility.yul\":1114:1223   */\n      pop\n      pop\n      jump\t// out\n        /* \"#utility.yul\":1229:1439   */\n    tag_25:\n        /* \"#utility.yul\":1316:1320   */\n      0x00\n        /* \"#utility.yul\":1354:1356   */\n      0x20\n        /* \"#utility.yul\":1343:1352   */\n      dup3\n        /* \"#utility.yul\":1339:1357   */\n      add\n        /* \"#utility.yul\":1331:1357   */\n      swap1\n      pop\n        /* \"#utility.yul\":1367:1432   */\n      tag_185\n        /* \"#utility.yul\":1429:1430   */\n      0x00\n        /* \"#utility.yul\":1418:1427   */\n      dup4\n        /* \"#utility.yul\":1414:1431   */\n      add\n        /* \"#utility.yul\":1405:1411   */\n      dup5\n        /* \"#utility.yul\":1367:1432   */\n      tag_125\n      jump\t// in\n    tag_185:\n        /* \"#utility.yul\":1229:1439   */\n      swap3\n      swap2\n      pop\n      pop\n      jump\t// out\n        /* \"#utility.yul\":1445:1522   */\n    tag_126:\n        /* \"#utility.yul\":1482:1489   */\n      0x00\n        /* \"#utility.yul\":1511:1516   */\n      dup2\n        /* \"#utility.yul\":1500:1516   */\n      swap1\n      pop\n        /* \"#utility.yul\":1445:1522   */\n      swap2\n      swap1\n      pop\n      jump\t// out\n        /* \"#utility.yul\":1528:1646   */\n    tag_127:\n        /* \"#utility.yul\":1615:1639   */\n      tag_188\n        /* \"#utility.yul\":1633:1638   */\n      dup2\n        /* \"#utility.yul\":1615:1639   */\n      tag_126\n      jump\t// in\n    tag_188:\n        /* \"#utility.yul\":1610:1613   */\n      dup3\n        /* \"#utility.yul\":1603:1640   */\n      mstore\n        /* \"#utility.yul\":1528:1646   */\n      pop\n      pop\n      jump\t// out\n        /* \"#utility.yul\":1652:1874   */\n    tag_29:\n        /* \"#utility.yul\":1745:1749   */\n      0x00\n        /* \"#utility.yul\":1783:1785   */\n      0x20\n        /* \"#utility.yul\":1772:1781   */\n      dup3\n        /* \"#utility.yul\":1768:1786   */\n      add\n        /* \"#utility.yul\":1760:1786   */\n      swap1\n      pop\n        /* \"#utility.yul\":1796:1867   */\n      tag_190\n        /* \"#utility.yul\":1864:1865   */\n      0x00\n        /* \"#utility.yul\":1853:1862   */\n      dup4\n        /* \"#utility.yul\":1849:1866   */\n      add\n        /* \"#utility.yul\":1840:1846   */\n      dup5\n        /* \"#utility.yul\":1796:1867   */\n      tag_127\n      jump\t// in\n    tag_190:\n        /* \"#utility.yul\":1652:1874   */\n      swap3\n      swap2\n      pop\n      pop\n      jump\t// out\n        /* \"#utility.yul\":1880:2002   */\n    tag_128:\n        /* \"#utility.yul\":1953:1977   */\n      tag_192\n        /* \"#utility.yul\":1971:1976   */\n      dup2\n        /* \"#utility.yul\":1953:1977   */\n      tag_126\n      jump\t// in\n    tag_192:\n        /* \"#utility.yul\":1946:1951   */\n      dup2\n        /* \"#utility.yul\":1943:1978   */\n      eq\n        /* \"#utility.yul\":1933:1996   */\n      tag_193\n      jumpi\n        /* \"#utility.yul\":1992:1993   */\n      0x00\n        /* \"#utility.yul\":1989:1990   */\n      dup1\n        /* \"#utility.yul\":1982:1994   */\n      revert\n        /* \"#utility.yul\":1933:1996   */\n    tag_193:\n        /* \"#utility.yul\":1880:2002   */\n      pop\n      jump\t// out\n        /* \"#utility.yul\":2008:2147   */\n    tag_129:\n        /* \"#utility.yul\":2054:2059   */\n      0x00\n        /* \"#utility.yul\":2092:2098   */\n      dup2\n        /* \"#utility.yul\":2079:2099   */\n      calldataload\n        /* \"#utility.yul\":2070:2099   */\n      swap1\n      pop\n        /* \"#utility.yul\":2108:2141   */\n      tag_195\n        /* \"#utility.yul\":2135:2140   */\n      dup2\n        /* \"#utility.yul\":2108:2141   */\n      tag_128\n      jump\t// in\n    tag_195:\n        /* \"#utility.yul\":2008:2147   */\n      swap3\n      swap2\n      pop\n      pop\n      jump\t// out\n        /* \"#utility.yul\":2153:2482   */\n    tag_35:\n        /* \"#utility.yul\":2212:2218   */\n      0x00\n        /* \"#utility.yul\":2261:2263   */\n      0x20\n        /* \"#utility.yul\":2249:2258   */\n      dup3\n        /* \"#utility.yul\":2240:2247   */\n      dup5\n        /* \"#utility.yul\":2236:2259   */\n      sub\n        /* \"#utility.yul\":2232:2264   */\n      slt\n        /* \"#utility.yul\":2229:2348   */\n      iszero\n      tag_197\n      jumpi\n        /* \"#utility.yul\":2267:2346   */\n      tag_198\n      tag_119\n      jump\t// in\n    tag_198:\n        /* \"#utility.yul\":2229:2348   */\n    tag_197:\n        /* \"#utility.yul\":2387:2388   */\n      0x00\n        /* \"#utility.yul\":2412:2465   */\n      tag_199\n        /* \"#utility.yul\":2457:2464   */\n      dup5\n        /* \"#utility.yul\":2448:2454   */\n      dup3\n        /* \"#utility.yul\":2437:2446   */\n      dup6\n        /* \"#utility.yul\":2433:2455   */\n      add\n        /* \"#utility.yul\":2412:2465   */\n      tag_129\n      jump\t// in\n    tag_199:\n        /* \"#utility.yul\":2402:2465   */\n      swap2\n      pop\n        /* \"#utility.yul\":2358:2475   */\n      pop\n        /* \"#utility.yul\":2153:2482   */\n      swap3\n      swap2\n      pop\n      pop\n      jump\t// out\n        /* \"#utility.yul\":2488:2587   */\n    tag_130:\n        /* \"#utility.yul\":2540:2546   */\n      0x00\n        /* \"#utility.yul\":2574:2579   */\n      dup2\n        /* \"#utility.yul\":2568:2580   */\n      mload\n        /* \"#utility.yul\":2558:2580   */\n      swap1\n      pop\n        /* \"#utility.yul\":2488:2587   */\n      swap2\n      swap1\n      pop\n      jump\t// out\n        /* \"#utility.yul\":2593:2762   */\n    tag_131:\n        /* \"#utility.yul\":2677:2688   */\n      0x00\n        /* \"#utility.yul\":2711:2717   */\n      dup3\n        /* \"#utility.yul\":2706:2709   */\n      dup3\n        /* \"#utility.yul\":2699:2718   */\n      mstore\n        /* \"#utility.yul\":2751:2755   */\n      0x20\n        /* \"#utility.yul\":2746:2749   */\n      dup3\n        /* \"#utility.yul\":2742:2756   */\n      add\n        /* \"#utility.yul\":2727:2756   */\n      swap1\n      pop\n        /* \"#utility.yul\":2593:2762   */\n      swap3\n      swap2\n      pop\n      pop\n      jump\t// out\n        /* \"#utility.yul\":2768:2907   */\n    tag_132:\n        /* \"#utility.yul\":2857:2863   */\n      dup3\n        /* \"#utility.yul\":2852:2855   */\n      dup2\n        /* \"#utility.yul\":2847:2850   */\n      dup4\n        /* \"#utility.yul\":2841:2864   */\n      mcopy\n        /* \"#utility.yul\":2898:2899   */\n      0x00\n        /* \"#utility.yul\":2889:2895   */\n      dup4\n        /* \"#utility.yul\":2884:2887   */\n      dup4\n        /* \"#utility.yul\":2880:2896   */\n      add\n        /* \"#utility.yul\":2873:2900   */\n      mstore\n        /* \"#utility.yul\":2768:2907   */\n      pop\n      pop\n      pop\n      jump\t// out\n        /* \"#utility.yul\":2913:3015   */\n    tag_133:\n        /* \"#utility.yul\":2954:2960   */\n      0x00\n        /* \"#utility.yul\":3005:3007   */\n      0x1f\n        /* \"#utility.yul\":3001:3008   */\n      not\n        /* \"#utility.yul\":2996:2998   */\n      0x1f\n        /* \"#utility.yul\":2989:2994   */\n      dup4\n        /* \"#utility.yul\":2985:2999   */\n      add\n        /* \"#utility.yul\":2981:3009   */\n      and\n        /* \"#utility.yul\":2971:3009   */\n      swap1\n      pop\n        /* \"#utility.yul\":2913:3015   */\n      swap2\n      swap1\n      pop\n      jump\t// out\n        /* \"#utility.yul\":3021:3398   */\n    tag_134:\n        /* \"#utility.yul\":3109:3112   */\n      0x00\n        /* \"#utility.yul\":3137:3176   */\n      tag_205\n        /* \"#utility.yul\":3170:3175   */\n      dup3\n        /* \"#utility.yul\":3137:3176   */\n      tag_130\n      jump\t// in\n    tag_205:\n        /* \"#utility.yul\":3192:3263   */\n      tag_206\n        /* \"#utility.yul\":3256:3262   */\n      dup2\n        /* \"#utility.yul\":3251:3254   */\n      dup6\n        /* \"#utility.yul\":3192:3263   */\n      tag_131\n      jump\t// in\n    tag_206:\n        /* \"#utility.yul\":3185:3263   */\n      swap4\n      pop\n        /* \"#utility.yul\":3272:3337   */\n      tag_207\n        /* \"#utility.yul\":3330:3336   */\n      dup2\n        /* \"#utility.yul\":3325:3328   */\n      dup6\n        /* \"#utility.yul\":3318:3322   */\n      0x20\n        /* \"#utility.yul\":3311:3316   */\n      dup7\n        /* \"#utility.yul\":3307:3323   */\n      add\n        /* \"#utility.yul\":3272:3337   */\n      tag_132\n      jump\t// in\n    tag_207:\n        /* \"#utility.yul\":3362:3391   */\n      tag_208\n        /* \"#utility.yul\":3384:3390   */\n      dup2\n        /* \"#utility.yul\":3362:3391   */\n      tag_133\n      jump\t// in\n    tag_208:\n        /* \"#utility.yul\":3357:3360   */\n      dup5\n        /* \"#utility.yul\":3353:3392   */\n      add\n        /* \"#utility.yul\":3346:3392   */\n      swap2\n      pop\n        /* \"#utility.yul\":3113:3398   */\n      pop\n        /* \"#utility.yul\":3021:3398   */\n      swap3\n      swap2\n      pop\n      pop\n      jump\t// out\n        /* \"#utility.yul\":3404:3717   */\n    tag_41:\n        /* \"#utility.yul\":3517:3521   */\n      0x00\n        /* \"#utility.yul\":3555:3557   */\n      0x20\n        /* \"#utility.yul\":3544:3553   */\n      dup3\n        /* \"#utility.yul\":3540:3558   */\n      add\n        /* \"#utility.yul\":3532:3558   */\n      swap1\n      pop\n        /* \"#utility.yul\":3604:3613   */\n      dup2\n        /* \"#utility.yul\":3598:3602   */\n      dup2\n        /* \"#utility.yul\":3594:3614   */\n      sub\n        /* \"#utility.yul\":3590:3591   */\n      0x00\n        /* \"#utility.yul\":3579:3588   */\n      dup4\n        /* \"#utility.yul\":3575:3592   */\n      add\n        /* \"#utility.yul\":3568:3615   */\n      mstore\n        /* \"#utility.yul\":3632:3710   */\n      tag_210\n        /* \"#utility.yul\":3705:3709   */\n      dup2\n        /* \"#utility.yul\":3696:3702   */\n      dup5\n        /* \"#utility.yul\":3632:3710   */\n      tag_134\n      jump\t// in\n    tag_210:\n        /* \"#utility.yul\":3624:3710   */\n      swap1\n      pop\n        /* \"#utility.yul\":3404:3717   */\n      swap3\n      swap2\n      pop\n      pop\n      jump\t// out\n        /* \"#utility.yul\":3723:3840   */\n    tag_135:\n        /* \"#utility.yul\":3832:3833   */\n      0x00\n        /* \"#utility.yul\":3829:3830   */\n      dup1\n        /* \"#utility.yul\":3822:3834   */\n      revert\n        /* \"#utility.yul\":3846:3963   */\n    tag_136:\n        /* \"#utility.yul\":3955:3956   */\n      0x00\n        /* \"#utility.yul\":3952:3953   */\n      dup1\n        /* \"#utility.yul\":3945:3957   */\n      revert\n        /* \"#utility.yul\":3969:4149   */\n    tag_137:\n        /* \"#utility.yul\":4017:4094   */\n      0x4e487b7100000000000000000000000000000000000000000000000000000000\n        /* \"#utility.yul\":4014:4015   */\n      0x00\n        /* \"#utility.yul\":4007:4095   */\n      mstore\n        /* \"#utility.yul\":4114:4118   */\n      0x41\n        /* \"#utility.yul\":4111:4112   */\n      0x04\n        /* \"#utility.yul\":4104:4119   */\n      mstore\n        /* \"#utility.yul\":4138:4142   */\n      0x24\n        /* \"#utility.yul\":4135:4136   */\n      0x00\n        /* \"#utility.yul\":4128:4143   */\n      revert\n        /* \"#utility.yul\":4155:4436   */\n    tag_138:\n        /* \"#utility.yul\":4238:4265   */\n      tag_215\n        /* \"#utility.yul\":4260:4264   */\n      dup3\n        /* \"#utility.yul\":4238:4265   */\n      tag_133\n      jump\t// in\n    tag_215:\n        /* \"#utility.yul\":4230:4236   */\n      dup2\n        /* \"#utility.yul\":4226:4266   */\n      add\n        /* \"#utility.yul\":4368:4374   */\n      dup2\n        /* \"#utility.yul\":4356:4366   */\n      dup2\n        /* \"#utility.yul\":4353:4375   */\n      lt\n        /* \"#utility.yul\":4332:4350   */\n      0xffffffffffffffff\n        /* \"#utility.yul\":4320:4330   */\n      dup3\n        /* \"#utility.yul\":4317:4351   */\n      gt\n        /* \"#utility.yul\":4314:4376   */\n      or\n        /* \"#utility.yul\":4311:4399   */\n      iszero\n      tag_216\n      jumpi\n        /* \"#utility.yul\":4379:4397   */\n      tag_217\n      tag_137\n      jump\t// in\n    tag_217:\n        /* \"#utility.yul\":4311:4399   */\n    tag_216:\n        /* \"#utility.yul\":4419:4429   */\n      dup1\n        /* \"#utility.yul\":4415:4417   */\n      0x40\n        /* \"#utility.yul\":4408:4430   */\n      mstore\n        /* \"#utility.yul\":4198:4436   */\n      pop\n        /* \"#utility.yul\":4155:4436   */\n      pop\n      pop\n      jump\t// out\n        /* \"#utility.yul\":4442:4571   */\n    tag_139:\n        /* \"#utility.yul\":4476:4482   */\n      0x00\n        /* \"#utility.yul\":4503:4523   */\n      tag_219\n      tag_118\n      jump\t// in\n    tag_219:\n        /* \"#utility.yul\":4493:4523   */\n      swap1\n      pop\n        /* \"#utility.yul\":4532:4565   */\n      tag_220\n        /* \"#utility.yul\":4560:4564   */\n      dup3\n        /* \"#utility.yul\":4552:4558   */\n      dup3\n        /* \"#utility.yul\":4532:4565   */\n      tag_138\n      jump\t// in\n    tag_220:\n        /* \"#utility.yul\":4442:4571   */\n      swap2\n      swap1\n      pop\n      jump\t// out\n        /* \"#utility.yul\":4577:4885   */\n    tag_140:\n        /* \"#utility.yul\":4639:4643   */\n      0x00\n        /* \"#utility.yul\":4729:4747   */\n      0xffffffffffffffff\n        /* \"#utility.yul\":4721:4727   */\n      dup3\n        /* \"#utility.yul\":4718:4748   */\n      gt\n        /* \"#utility.yul\":4715:4771   */\n      iszero\n      tag_222\n      jumpi\n        /* \"#utility.yul\":4751:4769   */\n      tag_223\n      tag_137\n      jump\t// in\n    tag_223:\n        /* \"#utility.yul\":4715:4771   */\n    tag_222:\n        /* \"#utility.yul\":4789:4818   */\n      tag_224\n        /* \"#utility.yul\":4811:4817   */\n      dup3\n        /* \"#utility.yul\":4789:4818   */\n      tag_133\n      jump\t// in\n    tag_224:\n        /* \"#utility.yul\":4781:4818   */\n      swap1\n      pop\n        /* \"#utility.yul\":4873:4877   */\n      0x20\n        /* \"#utility.yul\":4867:4871   */\n      dup2\n        /* \"#utility.yul\":4863:4878   */\n      add\n        /* \"#utility.yul\":4855:4878   */\n      swap1\n      pop\n        /* \"#utility.yul\":4577:4885   */\n      swap2\n      swap1\n      pop\n      jump\t// out\n        /* \"#utility.yul\":4891:5039   */\n    tag_141:\n        /* \"#utility.yul\":4989:4995   */\n      dup3\n        /* \"#utility.yul\":4984:4987   */\n      dup2\n        /* \"#utility.yul\":4979:4982   */\n      dup4\n        /* \"#utility.yul\":4966:4996   */\n      calldatacopy\n        /* \"#utility.yul\":5030:5031   */\n      0x00\n        /* \"#utility.yul\":5021:5027   */\n      dup4\n        /* \"#utility.yul\":5016:5019   */\n      dup4\n        /* \"#utility.yul\":5012:5028   */\n      add\n        /* \"#utility.yul\":5005:5032   */\n      mstore\n        /* \"#utility.yul\":4891:5039   */\n      pop\n      pop\n      pop\n      jump\t// out\n        /* \"#utility.yul\":5045:5470   */\n    tag_142:\n        /* \"#utility.yul\":5123:5128   */\n      0x00\n        /* \"#utility.yul\":5148:5214   */\n      tag_227\n        /* \"#utility.yul\":5164:5213   */\n      tag_228\n        /* \"#utility.yul\":5206:5212   */\n      dup5\n        /* \"#utility.yul\":5164:5213   */\n      tag_140\n      jump\t// in\n    tag_228:\n        /* \"#utility.yul\":5148:5214   */\n      tag_139\n      jump\t// in\n    tag_227:\n        /* \"#utility.yul\":5139:5214   */\n      swap1\n      pop\n        /* \"#utility.yul\":5237:5243   */\n      dup3\n        /* \"#utility.yul\":5230:5235   */\n      dup2\n        /* \"#utility.yul\":5223:5244   */\n      mstore\n        /* \"#utility.yul\":5275:5279   */\n      0x20\n        /* \"#utility.yul\":5268:5273   */\n      dup2\n        /* \"#utility.yul\":5264:5280   */\n      add\n        /* \"#utility.yul\":5313:5316   */\n      dup5\n        /* \"#utility.yul\":5304:5310   */\n      dup5\n        /* \"#utility.yul\":5299:5302   */\n      dup5\n        /* \"#utility.yul\":5295:5311   */\n      add\n        /* \"#utility.yul\":5292:5317   */\n      gt\n        /* \"#utility.yul\":5289:5401   */\n      iszero\n      tag_229\n      jumpi\n        /* \"#utility.yul\":5320:5399   */\n      tag_230\n      tag_136\n      jump\t// in\n    tag_230:\n        /* \"#utility.yul\":5289:5401   */\n    tag_229:\n        /* \"#utility.yul\":5410:5464   */\n      tag_231\n        /* \"#utility.yul\":5457:5463   */\n      dup5\n        /* \"#utility.yul\":5452:5455   */\n      dup3\n        /* \"#utility.yul\":5447:5450   */\n      dup6\n        /* \"#utility.yul\":5410:5464   */\n      tag_141\n      jump\t// in\n    tag_231:\n        /* \"#utility.yul\":5129:5470   */\n      pop\n        /* \"#utility.yul\":5045:5470   */\n      swap4\n      swap3\n      pop\n      pop\n      pop\n      jump\t// out\n        /* \"#utility.yul\":5490:5830   */\n    tag_143:\n        /* \"#utility.yul\":5546:5551   */\n      0x00\n        /* \"#utility.yul\":5595:5598   */\n      dup3\n        /* \"#utility.yul\":5588:5592   */\n      0x1f\n        /* \"#utility.yul\":5580:5586   */\n      dup4\n        /* \"#utility.yul\":5576:5593   */\n      add\n        /* \"#utility.yul\":5572:5599   */\n      slt\n        /* \"#utility.yul\":5562:5684   */\n      tag_233\n      jumpi\n        /* \"#utility.yul\":5603:5682   */\n      tag_234\n      tag_135\n      jump\t// in\n    tag_234:\n        /* \"#utility.yul\":5562:5684   */\n    tag_233:\n        /* \"#utility.yul\":5720:5726   */\n      dup2\n        /* \"#utility.yul\":5707:5727   */\n      calldataload\n        /* \"#utility.yul\":5745:5824   */\n      tag_235\n        /* \"#utility.yul\":5820:5823   */\n      dup5\n        /* \"#utility.yul\":5812:5818   */\n      dup3\n        /* \"#utility.yul\":5805:5809   */\n      0x20\n        /* \"#utility.yul\":5797:5803   */\n      dup7\n        /* \"#utility.yul\":5793:5810   */\n      add\n        /* \"#utility.yul\":5745:5824   */\n      tag_142\n      jump\t// in\n    tag_235:\n        /* \"#utility.yul\":5736:5824   */\n      swap2\n      pop\n        /* \"#utility.yul\":5552:5830   */\n      pop\n        /* \"#utility.yul\":5490:5830   */\n      swap3\n      swap2\n      pop\n      pop\n      jump\t// out\n        /* \"#utility.yul\":5836:6490   */\n    tag_44:\n        /* \"#utility.yul\":5914:5920   */\n      0x00\n        /* \"#utility.yul\":5922:5928   */\n      dup1\n        /* \"#utility.yul\":5971:5973   */\n      0x40\n        /* \"#utility.yul\":5959:5968   */\n      dup4\n        /* \"#utility.yul\":5950:5957   */\n      dup6\n        /* \"#utility.yul\":5946:5969   */\n      sub\n        /* \"#utility.yul\":5942:5974   */\n      slt\n        /* \"#utility.yul\":5939:6058   */\n      iszero\n      tag_237\n      jumpi\n        /* \"#utility.yul\":5977:6056   */\n      tag_238\n      tag_119\n      jump\t// in\n    tag_238:\n        /* \"#utility.yul\":5939:6058   */\n    tag_237:\n        /* \"#utility.yul\":6125:6126   */\n      0x00\n        /* \"#utility.yul\":6114:6123   */\n      dup4\n        /* \"#utility.yul\":6110:6127   */\n      add\n        /* \"#utility.yul\":6097:6128   */\n      calldataload\n        /* \"#utility.yul\":6155:6173   */\n      0xffffffffffffffff\n        /* \"#utility.yul\":6147:6153   */\n      dup2\n        /* \"#utility.yul\":6144:6174   */\n      gt\n        /* \"#utility.yul\":6141:6258   */\n      iszero\n      tag_239\n      jumpi\n        /* \"#utility.yul\":6177:6256   */\n      tag_240\n      tag_120\n      jump\t// in\n    tag_240:\n        /* \"#utility.yul\":6141:6258   */\n    tag_239:\n        /* \"#utility.yul\":6282:6345   */\n      tag_241\n        /* \"#utility.yul\":6337:6344   */\n      dup6\n        /* \"#utility.yul\":6328:6334   */\n      dup3\n        /* \"#utility.yul\":6317:6326   */\n      dup7\n        /* \"#utility.yul\":6313:6335   */\n      add\n        /* \"#utility.yul\":6282:6345   */\n      tag_143\n      jump\t// in\n    tag_241:\n        /* \"#utility.yul\":6272:6345   */\n      swap3\n      pop\n        /* \"#utility.yul\":6068:6355   */\n      pop\n        /* \"#utility.yul\":6394:6396   */\n      0x20\n        /* \"#utility.yul\":6420:6473   */\n      tag_242\n        /* \"#utility.yul\":6465:6472   */\n      dup6\n        /* \"#utility.yul\":6456:6462   */\n      dup3\n        /* \"#utility.yul\":6445:6454   */\n      dup7\n        /* \"#utility.yul\":6441:6463   */\n      add\n        /* \"#utility.yul\":6420:6473   */\n      tag_129\n      jump\t// in\n    tag_242:\n        /* \"#utility.yul\":6410:6473   */\n      swap2\n      pop\n        /* \"#utility.yul\":6365:6483   */\n      pop\n        /* \"#utility.yul\":5836:6490   */\n      swap3\n      pop\n      swap3\n      swap1\n      pop\n      jump\t// out\n        /* \"#utility.yul\":6496:6919   */\n    tag_52:\n        /* \"#utility.yul\":6637:6641   */\n      0x00\n        /* \"#utility.yul\":6675:6677   */\n      0x40\n        /* \"#utility.yul\":6664:6673   */\n      dup3\n        /* \"#utility.yul\":6660:6678   */\n      add\n        /* \"#utility.yul\":6652:6678   */\n      swap1\n      pop\n        /* \"#utility.yul\":6724:6733   */\n      dup2\n        /* \"#utility.yul\":6718:6722   */\n      dup2\n        /* \"#utility.yul\":6714:6734   */\n      sub\n        /* \"#utility.yul\":6710:6711   */\n      0x00\n        /* \"#utility.yul\":6699:6708   */\n      dup4\n        /* \"#utility.yul\":6695:6712   */\n      add\n        /* \"#utility.yul\":6688:6735   */\n      mstore\n        /* \"#utility.yul\":6752:6830   */\n      tag_244\n        /* \"#utility.yul\":6825:6829   */\n      dup2\n        /* \"#utility.yul\":6816:6822   */\n      dup6\n        /* \"#utility.yul\":6752:6830   */\n      tag_134\n      jump\t// in\n    tag_244:\n        /* \"#utility.yul\":6744:6830   */\n      swap1\n      pop\n        /* \"#utility.yul\":6840:6912   */\n      tag_245\n        /* \"#utility.yul\":6908:6910   */\n      0x20\n        /* \"#utility.yul\":6897:6906   */\n      dup4\n        /* \"#utility.yul\":6893:6911   */\n      add\n        /* \"#utility.yul\":6884:6890   */\n      dup5\n        /* \"#utility.yul\":6840:6912   */\n      tag_127\n      jump\t// in\n    tag_245:\n        /* \"#utility.yul\":6496:6919   */\n      swap4\n      swap3\n      pop\n      pop\n      pop\n      jump\t// out\n        /* \"#utility.yul\":6925:7105   */\n    tag_85:\n        /* \"#utility.yul\":6973:7050   */\n      0x4e487b7100000000000000000000000000000000000000000000000000000000\n        /* \"#utility.yul\":6970:6971   */\n      0x00\n        /* \"#utility.yul\":6963:7051   */\n      mstore\n        /* \"#utility.yul\":7070:7074   */\n      0x21\n        /* \"#utility.yul\":7067:7068   */\n      0x04\n        /* \"#utility.yul\":7060:7075   */\n      mstore\n        /* \"#utility.yul\":7094:7098   */\n      0x24\n        /* \"#utility.yul\":7091:7092   */\n      0x00\n        /* \"#utility.yul\":7084:7099   */\n      revert\n        /* \"#utility.yul\":7111:7232   */\n    tag_144:\n        /* \"#utility.yul\":7200:7201   */\n      0x02\n        /* \"#utility.yul\":7193:7198   */\n      dup2\n        /* \"#utility.yul\":7190:7202   */\n      lt\n        /* \"#utility.yul\":7180:7226   */\n      tag_248\n      jumpi\n        /* \"#utility.yul\":7206:7224   */\n      tag_249\n      tag_85\n      jump\t// in\n    tag_249:\n        /* \"#utility.yul\":7180:7226   */\n    tag_248:\n        /* \"#utility.yul\":7111:7232   */\n      pop\n      jump\t// out\n        /* \"#utility.yul\":7238:7381   */\n    tag_145:\n        /* \"#utility.yul\":7291:7298   */\n      0x00\n        /* \"#utility.yul\":7320:7325   */\n      dup2\n        /* \"#utility.yul\":7309:7325   */\n      swap1\n      pop\n        /* \"#utility.yul\":7326:7375   */\n      tag_251\n        /* \"#utility.yul\":7369:7374   */\n      dup3\n        /* \"#utility.yul\":7326:7375   */\n      tag_144\n      jump\t// in\n    tag_251:\n        /* \"#utility.yul\":7238:7381   */\n      swap2\n      swap1\n      pop\n      jump\t// out\n        /* \"#utility.yul\":7387:7530   */\n    tag_146:\n        /* \"#utility.yul\":7451:7460   */\n      0x00\n        /* \"#utility.yul\":7484:7524   */\n      tag_253\n        /* \"#utility.yul\":7518:7523   */\n      dup3\n        /* \"#utility.yul\":7484:7524   */\n      tag_145\n      jump\t// in\n    tag_253:\n        /* \"#utility.yul\":7471:7524   */\n      swap1\n      pop\n        /* \"#utility.yul\":7387:7530   */\n      swap2\n      swap1\n      pop\n      jump\t// out\n        /* \"#utility.yul\":7536:7695   */\n    tag_147:\n        /* \"#utility.yul\":7637:7688   */\n      tag_255\n        /* \"#utility.yul\":7682:7687   */\n      dup2\n        /* \"#utility.yul\":7637:7688   */\n      tag_146\n      jump\t// in\n    tag_255:\n        /* \"#utility.yul\":7632:7635   */\n      dup3\n        /* \"#utility.yul\":7625:7689   */\n      mstore\n        /* \"#utility.yul\":7536:7695   */\n      pop\n      pop\n      jump\t// out\n        /* \"#utility.yul\":7701:7951   */\n    tag_67:\n        /* \"#utility.yul\":7808:7812   */\n      0x00\n        /* \"#utility.yul\":7846:7848   */\n      0x20\n        /* \"#utility.yul\":7835:7844   */\n      dup3\n        /* \"#utility.yul\":7831:7849   */\n      add\n        /* \"#utility.yul\":7823:7849   */\n      swap1\n      pop\n        /* \"#utility.yul\":7859:7944   */\n      tag_257\n        /* \"#utility.yul\":7941:7942   */\n      0x00\n        /* \"#utility.yul\":7930:7939   */\n      dup4\n        /* \"#utility.yul\":7926:7943   */\n      add\n        /* \"#utility.yul\":7917:7923   */\n      dup5\n        /* \"#utility.yul\":7859:7944   */\n      tag_147\n      jump\t// in\n    tag_257:\n        /* \"#utility.yul\":7701:7951   */\n      swap3\n      swap2\n      pop\n      pop\n      jump\t// out\n        /* \"#utility.yul\":7957:8137   */\n    tag_148:\n        /* \"#utility.yul\":8005:8082   */\n      0x4e487b7100000000000000000000000000000000000000000000000000000000\n        /* \"#utility.yul\":8002:8003   */\n      0x00\n        /* \"#utility.yul\":7995:8083   */\n      mstore\n        /* \"#utility.yul\":8102:8106   */\n      0x11\n        /* \"#utility.yul\":8099:8100   */\n      0x04\n        /* \"#utility.yul\":8092:8107   */\n      mstore\n        /* \"#utility.yul\":8126:8130   */\n      0x24\n        /* \"#utility.yul\":8123:8124   */\n      0x00\n        /* \"#utility.yul\":8116:8131   */\n      revert\n        /* \"#utility.yul\":8143:8334   */\n    tag_79:\n        /* \"#utility.yul\":8183:8186   */\n      0x00\n        /* \"#utility.yul\":8202:8222   */\n      tag_260\n        /* \"#utility.yul\":8220:8221   */\n      dup3\n        /* \"#utility.yul\":8202:8222   */\n      tag_126\n      jump\t// in\n    tag_260:\n        /* \"#utility.yul\":8197:8222   */\n      swap2\n      pop\n        /* \"#utility.yul\":8236:8256   */\n      tag_261\n        /* \"#utility.yul\":8254:8255   */\n      dup4\n        /* \"#utility.yul\":8236:8256   */\n      tag_126\n      jump\t// in\n    tag_261:\n        /* \"#utility.yul\":8231:8256   */\n      swap3\n      pop\n        /* \"#utility.yul\":8279:8280   */\n      dup3\n        /* \"#utility.yul\":8276:8277   */\n      dup3\n        /* \"#utility.yul\":8272:8281   */\n      add\n        /* \"#utility.yul\":8265:8281   */\n      swap1\n      pop\n        /* \"#utility.yul\":8300:8303   */\n      dup1\n        /* \"#utility.yul\":8297:8298   */\n      dup3\n        /* \"#utility.yul\":8294:8304   */\n      gt\n        /* \"#utility.yul\":8291:8327   */\n      iszero\n      tag_262\n      jumpi\n        /* \"#utility.yul\":8307:8325   */\n      tag_263\n      tag_148\n      jump\t// in\n    tag_263:\n        /* \"#utility.yul\":8291:8327   */\n    tag_262:\n        /* \"#utility.yul\":8143:8334   */\n      swap3\n      swap2\n      pop\n      pop\n      jump\t// out\n        /* \"#utility.yul\":8340:8573   */\n    tag_81:\n        /* \"#utility.yul\":8379:8382   */\n      0x00\n        /* \"#utility.yul\":8402:8426   */\n      tag_265\n        /* \"#utility.yul\":8420:8425   */\n      dup3\n        /* \"#utility.yul\":8402:8426   */\n      tag_126\n      jump\t// in\n    tag_265:\n        /* \"#utility.yul\":8393:8426   */\n      swap2\n      pop\n        /* \"#utility.yul\":8448:8514   */\n      0xffffffffffffffffffffffffffffffffffffffffffffffffffffffffffffffff\n        /* \"#utility.yul\":8441:8446   */\n      dup3\n        /* \"#utility.yul\":8438:8515   */\n      sub\n        /* \"#utility.yul\":8435:8538   */\n      tag_266\n      jumpi\n        /* \"#utility.yul\":8518:8536   */\n      tag_267\n      tag_148\n      jump\t// in\n    tag_267:\n        /* \"#utility.yul\":8435:8538   */\n    tag_266:\n        /* \"#utility.yul\":8565:8566   */\n      0x01\n        /* \"#utility.yul\":8558:8563   */\n      dup3\n        /* \"#utility.yul\":8554:8567   */\n      add\n        /* \"#utility.yul\":8547:8567   */\n      swap1\n      pop\n        /* \"#utility.yul\":8340:8573   */\n      swap2\n      swap1\n      pop\n      jump\t// out\n        /* \"#utility.yul\":8579:8759   */\n    tag_149:\n        /* \"#utility.yul\":8627:8704   */\n      0x4e487b7100000000000000000000000000000000000000000000000000000000\n        /* \"#utility.yul\":8624:8625   */\n      0x00\n        /* \"#utility.yul\":8617:8705   */\n      mstore\n        /* \"#utility.yul\":8724:8728   */\n      0x22\n        /* \"#utility.yul\":8721:8722   */\n      0x04\n        /* \"#utility.yul\":8714:8729   */\n      mstore\n        /* \"#utility.yul\":8748:8752   */\n      0x24\n        /* \"#utility.yul\":8745:8746   */\n      0x00\n        /* \"#utility.yul\":8738:8753   */\n      revert\n        /* \"#utility.yul\":8765:9085   */\n    tag_101:\n        /* \"#utility.yul\":8809:8815   */\n      0x00\n        /* \"#utility.yul\":8846:8847   */\n      0x02\n        /* \"#utility.yul\":8840:8844   */\n      dup3\n        /* \"#utility.yul\":8836:8848   */\n      div\n        /* \"#utility.yul\":8826:8848   */\n      swap1\n      pop\n        /* \"#utility.yul\":8893:8894   */\n      0x01\n        /* \"#utility.yul\":8887:8891   */\n      dup3\n        /* \"#utility.yul\":8883:8895   */\n      and\n        /* \"#utility.yul\":8914:8932   */\n      dup1\n        /* \"#utility.yul\":8904:8985   */\n      tag_270\n      jumpi\n        /* \"#utility.yul\":8970:8974   */\n      0x7f\n        /* \"#utility.yul\":8962:8968   */\n      dup3\n        /* \"#utility.yul\":8958:8975   */\n      and\n        /* \"#utility.yul\":8948:8975   */\n      swap2\n      pop\n        /* \"#utility.yul\":8904:8985   */\n    tag_270:\n        /* \"#utility.yul\":9032:9034   */\n      0x20\n        /* \"#utility.yul\":9024:9030   */\n      dup3\n        /* \"#utility.yul\":9021:9035   */\n      lt\n        /* \"#utility.yul\":9001:9019   */\n      dup2\n        /* \"#utility.yul\":8998:9036   */\n      sub\n        /* \"#utility.yul\":8995:9079   */\n      tag_271\n      jumpi\n        /* \"#utility.yul\":9051:9069   */\n      tag_272\n      tag_149\n      jump\t// in\n    tag_272:\n        /* \"#utility.yul\":8995:9079   */\n    tag_271:\n        /* \"#utility.yul\":8816:9085   */\n      pop\n        /* \"#utility.yul\":8765:9085   */\n      swap2\n      swap1\n      pop\n      jump\t// out\n        /* \"#utility.yul\":9091:9232   */\n    tag_150:\n        /* \"#utility.yul\":9140:9144   */\n      0x00\n        /* \"#utility.yul\":9163:9166   */\n      dup2\n        /* \"#utility.yul\":9155:9166   */\n      swap1\n      pop\n        /* \"#utility.yul\":9186:9189   */\n      dup2\n        /* \"#utility.yul\":9183:9184   */\n      0x00\n        /* \"#utility.yul\":9176:9190   */\n      mstore\n        /* \"#utility.yul\":9220:9224   */\n      0x20\n        /* \"#utility.yul\":9217:9218   */\n      0x00\n        /* \"#utility.yul\":9207:9225   */\n      keccak256\n        /* \"#utility.yul\":9199:9225   */\n      swap1\n      pop\n        /* \"#utility.yul\":9091:9232   */\n      swap2\n      swap1\n      pop\n      jump\t// out\n        /* \"#utility.yul\":9238:9331   */\n    tag_151:\n        /* \"#utility.yul\":9275:9281   */\n      0x00\n        /* \"#utility.yul\":9322:9324   */\n      0x20\n        /* \"#utility.yul\":9317:9319   */\n      0x1f\n        /* \"#utility.yul\":9310:9315   */\n      dup4\n        /* \"#utility.yul\":9306:9320   */\n      add\n        /* \"#utility.yul\":9302:9325   */\n      div\n        /* \"#utility.yul\":9292:9325   */\n      swap1\n      pop\n        /* \"#utility.yul\":9238:9331   */\n      swap2\n      swap1\n      pop\n      jump\t// out\n        /* \"#utility.yul\":9337:9444   */\n    tag_152:\n        /* \"#utility.yul\":9381:9389   */\n      0x00\n        /* \"#utility.yul\":9431:9436   */\n      dup3\n        /* \"#utility.yul\":9425:9429   */\n      dup3\n        /* \"#utility.yul\":9421:9437   */\n      shl\n        /* \"#utility.yul\":9400:9437   */\n      swap1\n      pop\n        /* \"#utility.yul\":9337:9444   */\n      swap3\n      swap2\n      pop\n      pop\n      jump\t// out\n        /* \"#utility.yul\":9450:9843   */\n    tag_153:\n        /* \"#utility.yul\":9519:9525   */\n      0x00\n        /* \"#utility.yul\":9569:9570   */\n      0x08\n        /* \"#utility.yul\":9557:9567   */\n      dup4\n        /* \"#utility.yul\":9553:9571   */\n      mul\n        /* \"#utility.yul\":9592:9689   */\n      tag_277\n        /* \"#utility.yul\":9622:9688   */\n      0xffffffffffffffffffffffffffffffffffffffffffffffffffffffffffffffff\n        /* \"#utility.yul\":9611:9620   */\n      dup3\n        /* \"#utility.yul\":9592:9689   */\n      tag_152\n      jump\t// in\n    tag_277:\n        /* \"#utility.yul\":9710:9749   */\n      tag_278\n        /* \"#utility.yul\":9740:9748   */\n      dup7\n        /* \"#utility.yul\":9729:9738   */\n      dup4\n        /* \"#utility.yul\":9710:9749   */\n      tag_152\n      jump\t// in\n    tag_278:\n        /* \"#utility.yul\":9698:9749   */\n      swap6\n      pop\n        /* \"#utility.yul\":9782:9786   */\n      dup1\n        /* \"#utility.yul\":9778:9787   */\n      not\n        /* \"#utility.yul\":9771:9776   */\n      dup5\n        /* \"#utility.yul\":9767:9788   */\n      and\n        /* \"#utility.yul\":9758:9788   */\n      swap4\n      pop\n        /* \"#utility.yul\":9831:9835   */\n      dup1\n        /* \"#utility.yul\":9821:9829   */\n      dup7\n        /* \"#utility.yul\":9817:9836   */\n      and\n        /* \"#utility.yul\":9810:9815   */\n      dup5\n        /* \"#utility.yul\":9807:9837   */\n      or\n        /* \"#utility.yul\":9797:9837   */\n      swap3\n      pop\n        /* \"#utility.yul\":9526:9843   */\n      pop\n      pop\n        /* \"#utility.yul\":9450:9843   */\n      swap4\n      swap3\n      pop\n      pop\n      pop\n      jump\t// out\n        /* \"#utility.yul\":9849:9909   */\n    tag_154:\n        /* \"#utility.yul\":9877:9880   */\n      0x00\n        /* \"#utility.yul\":9898:9903   */\n      dup2\n        /* \"#utility.yul\":9891:9903   */\n      swap1\n      pop\n        /* \"#utility.yul\":9849:9909   */\n      swap2\n      swap1\n      pop\n      jump\t// out\n        /* \"#utility.yul\":9915:10057   */\n    tag_155:\n        /* \"#utility.yul\":9965:9974   */\n      0x00\n        /* \"#utility.yul\":9998:10051   */\n      tag_281\n        /* \"#utility.yul\":10016:10050   */\n      tag_282\n        /* \"#utility.yul\":10025:10049   */\n      tag_283\n        /* \"#utility.yul\":10043:10048   */\n      dup5\n        /* \"#utility.yul\":10025:10049   */\n      tag_126\n      jump\t// in\n    tag_283:\n        /* \"#utility.yul\":10016:10050   */\n      tag_154\n      jump\t// in\n    tag_282:\n        /* \"#utility.yul\":9998:10051   */\n      tag_126\n      jump\t// in\n    tag_281:\n        /* \"#utility.yul\":9985:10051   */\n      swap1\n      pop\n        /* \"#utility.yul\":9915:10057   */\n      swap2\n      swap1\n      pop\n      jump\t// out\n        /* \"#utility.yul\":10063:10138   */\n    tag_156:\n        /* \"#utility.yul\":10106:10109   */\n      0x00\n        /* \"#utility.yul\":10127:10132   */\n      dup2\n        /* \"#utility.yul\":10120:10132   */\n      swap1\n      pop\n        /* \"#utility.yul\":10063:10138   */\n      swap2\n      swap1\n      pop\n      jump\t// out\n        /* \"#utility.yul\":10144:10413   */\n    tag_157:\n        /* \"#utility.yul\":10254:10293   */\n      tag_286\n        /* \"#utility.yul\":10285:10292   */\n      dup4\n        /* \"#utility.yul\":10254:10293   */\n      tag_155\n      jump\t// in\n    tag_286:\n        /* \"#utility.yul\":10315:10406   */\n      tag_287\n        /* \"#utility.yul\":10364:10405   */\n      tag_288\n        /* \"#utility.yul\":10388:10404   */\n      dup3\n        /* \"#utility.yul\":10364:10405   */\n      tag_156\n      jump\t// in\n    tag_288:\n        /* \"#utility.yul\":10356:10362   */\n      dup5\n        /* \"#utility.yul\":10349:10353   */\n      dup5\n        /* \"#utility.yul\":10343:10354   */\n      sload\n        /* \"#utility.yul\":10315:10406   */\n      tag_153\n      jump\t// in\n    tag_287:\n        /* \"#utility.yul\":10309:10313   */\n      dup3\n        /* \"#utility.yul\":10302:10407   */\n      sstore\n        /* \"#utility.yul\":10220:10413   */\n      pop\n        /* \"#utility.yul\":10144:10413   */\n      pop\n      pop\n      pop\n      jump\t// out\n        /* \"#utility.yul\":10419:10492   */\n    tag_158:\n        /* \"#utility.yul\":10464:10467   */\n      0x00\n        /* \"#utility.yul\":10419:10492   */\n      swap1\n      jump\t// out\n        /* \"#utility.yul\":10498:10687   */\n    tag_159:\n        /* \"#utility.yul\":10575:10607   */\n      tag_291\n      tag_158\n      jump\t// in\n    tag_291:\n        /* \"#utility.yul\":10616:10681   */\n      tag_292\n        /* \"#utility.yul\":10674:10680   */\n      dup2\n        /* \"#utility.yul\":10666:10672   */\n      dup5\n        /* \"#utility.yul\":10660:10664   */\n      dup5\n        /* \"#utility.yul\":10616:10681   */\n      tag_157\n      jump\t// in\n    tag_292:\n        /* \"#utility.yul\":10551:10687   */\n      pop\n        /* \"#utility.yul\":10498:10687   */\n      pop\n      pop\n      jump\t// out\n        /* \"#utility.yul\":10693:10879   */\n    tag_160:\n        /* \"#utility.yul\":10753:10873   */\n    tag_294:\n        /* \"#utility.yul\":10770:10773   */\n      dup2\n        /* \"#utility.yul\":10763:10768   */\n      dup2\n        /* \"#utility.yul\":10760:10774   */\n      lt\n        /* \"#utility.yul\":10753:10873   */\n      iszero\n      tag_296\n      jumpi\n        /* \"#utility.yul\":10824:10863   */\n      tag_297\n        /* \"#utility.yul\":10861:10862   */\n      0x00\n        /* \"#utility.yul\":10854:10859   */\n      dup3\n        /* \"#utility.yul\":10824:10863   */\n      tag_159\n      jump\t// in\n    tag_297:\n        /* \"#utility.yul\":10797:10798   */\n      0x01\n        /* \"#utility.yul\":10790:10795   */\n      dup2\n        /* \"#utility.yul\":10786:10799   */\n      add\n        /* \"#utility.yul\":10777:10799   */\n      swap1\n      pop\n        /* \"#utility.yul\":10753:10873   */\n      jump(tag_294)\n    tag_296:\n        /* \"#utility.yul\":10693:10879   */\n      pop\n      pop\n      jump\t// out\n        /* \"#utility.yul\":10885:11428   */\n    tag_161:\n        /* \"#utility.yul\":10986:10988   */\n      0x1f\n        /* \"#utility.yul\":10981:10984   */\n      dup3\n        /* \"#utility.yul\":10978:10989   */\n      gt\n        /* \"#utility.yul\":10975:11421   */\n      iszero\n      tag_299\n      jumpi\n        /* \"#utility.yul\":11020:11058   */\n      tag_300\n        /* \"#utility.yul\":11052:11057   */\n      dup2\n        /* \"#utility.yul\":11020:11058   */\n      tag_150\n      jump\t// in\n    tag_300:\n        /* \"#utility.yul\":11104:11133   */\n      tag_301\n        /* \"#utility.yul\":11122:11132   */\n      dup5\n        /* \"#utility.yul\":11104:11133   */\n      tag_151\n      jump\t// in\n    tag_301:\n        /* \"#utility.yul\":11094:11102   */\n      dup2\n        /* \"#utility.yul\":11090:11134   */\n      add\n        /* \"#utility.yul\":11287:11289   */\n      0x20\n        /* \"#utility.yul\":11275:11285   */\n      dup6\n        /* \"#utility.yul\":11272:11290   */\n      lt\n        /* \"#utility.yul\":11269:11318   */\n      iszero\n      tag_302\n      jumpi\n        /* \"#utility.yul\":11308:11316   */\n      dup2\n        /* \"#utility.yul\":11293:11316   */\n      swap1\n      pop\n        /* \"#utility.yul\":11269:11318   */\n    tag_302:\n        /* \"#utility.yul\":11331:11411   */\n      tag_303\n        /* \"#utility.yul\":11387:11409   */\n      tag_304\n        /* \"#utility.yul\":11405:11408   */\n      dup6\n        /* \"#utility.yul\":11387:11409   */\n      tag_151\n      jump\t// in\n    tag_304:\n        /* \"#utility.yul\":11377:11385   */\n      dup4\n        /* \"#utility.yul\":11373:11410   */\n      add\n        /* \"#utility.yul\":11360:11371   */\n      dup3\n        /* \"#utility.yul\":11331:11411   */\n      tag_160\n      jump\t// in\n    tag_303:\n        /* \"#utility.yul\":10990:11421   */\n      pop\n      pop\n        /* \"#utility.yul\":10975:11421   */\n    tag_299:\n        /* \"#utility.yul\":10885:11428   */\n      pop\n      pop\n      pop\n      jump\t// out\n        /* \"#utility.yul\":11434:11551   */\n    tag_162:\n        /* \"#utility.yul\":11488:11496   */\n      0x00\n        /* \"#utility.yul\":11538:11543   */\n      dup3\n        /* \"#utility.yul\":11532:11536   */\n      dup3\n        /* \"#utility.yul\":11528:11544   */\n      shr\n        /* \"#utility.yul\":11507:11544   */\n      swap1\n      pop\n        /* \"#utility.yul\":11434:11551   */\n      swap3\n      swap2\n      pop\n      pop\n      jump\t// out\n        /* \"#utility.yul\":11557:11726   */\n    tag_163:\n        /* \"#utility.yul\":11601:11607   */\n      0x00\n        /* \"#utility.yul\":11634:11685   */\n      tag_307\n        /* \"#utility.yul\":11682:11683   */\n      0x00\n        /* \"#utility.yul\":11678:11684   */\n      not\n        /* \"#utility.yul\":11670:11675   */\n      dup5\n        /* \"#utility.yul\":11667:11668   */\n      0x08\n        /* \"#utility.yul\":11663:11676   */\n      mul\n        /* \"#utility.yul\":11634:11685   */\n      tag_162\n      jump\t// in\n    tag_307:\n        /* \"#utility.yul\":11630:11686   */\n      not\n        /* \"#utility.yul\":11715:11719   */\n      dup1\n        /* \"#utility.yul\":11709:11713   */\n      dup4\n        /* \"#utility.yul\":11705:11720   */\n      and\n        /* \"#utility.yul\":11695:11720   */\n      swap2\n      pop\n        /* \"#utility.yul\":11608:11726   */\n      pop\n        /* \"#utility.yul\":11557:11726   */\n      swap3\n      swap2\n      pop\n      pop\n      jump\t// out\n        /* \"#utility.yul\":11731:12026   */\n    tag_164:\n        /* \"#utility.yul\":11807:11811   */\n      0x00\n        /* \"#utility.yul\":11953:11982   */\n      tag_309\n        /* \"#utility.yul\":11978:11981   */\n      dup4\n        /* \"#utility.yul\":11972:11976   */\n      dup4\n        /* \"#utility.yul\":11953:11982   */\n      tag_163\n      jump\t// in\n    tag_309:\n        /* \"#utility.yul\":11945:11982   */\n      swap2\n      pop\n        /* \"#utility.yul\":12015:12018   */\n      dup3\n        /* \"#utility.yul\":12012:12013   */\n      0x02\n        /* \"#utility.yul\":12008:12019   */\n      mul\n        /* \"#utility.yul\":12002:12006   */\n      dup3\n        /* \"#utility.yul\":11999:12020   */\n      or\n        /* \"#utility.yul\":11991:12020   */\n      swap1\n      pop\n        /* \"#utility.yul\":11731:12026   */\n      swap3\n      swap2\n      pop\n      pop\n      jump\t// out\n        /* \"#utility.yul\":12031:13426   */\n    tag_94:\n        /* \"#utility.yul\":12148:12185   */\n      tag_311\n        /* \"#utility.yul\":12181:12184   */\n      dup3\n        /* \"#utility.yul\":12148:12185   */\n      tag_130\n      jump\t// in\n    tag_311:\n        /* \"#utility.yul\":12250:12268   */\n      0xffffffffffffffff\n        /* \"#utility.yul\":12242:12248   */\n      dup2\n        /* \"#utility.yul\":12239:12269   */\n      gt\n        /* \"#utility.yul\":12236:12292   */\n      iszero\n      tag_312\n      jumpi\n        /* \"#utility.yul\":12272:12290   */\n      tag_313\n      tag_137\n      jump\t// in\n    tag_313:\n        /* \"#utility.yul\":12236:12292   */\n    tag_312:\n        /* \"#utility.yul\":12316:12354   */\n      tag_314\n        /* \"#utility.yul\":12348:12352   */\n      dup3\n        /* \"#utility.yul\":12342:12353   */\n      sload\n        /* \"#utility.yul\":12316:12354   */\n      tag_101\n      jump\t// in\n    tag_314:\n        /* \"#utility.yul\":12401:12468   */\n      tag_315\n        /* \"#utility.yul\":12461:12467   */\n      dup3\n        /* \"#utility.yul\":12453:12459   */\n      dup3\n        /* \"#utility.yul\":12447:12451   */\n      dup6\n        /* \"#utility.yul\":12401:12468   */\n      tag_161\n      jump\t// in\n    tag_315:\n        /* \"#utility.yul\":12495:12496   */\n      0x00\n        /* \"#utility.yul\":12519:12523   */\n      0x20\n        /* \"#utility.yul\":12506:12523   */\n      swap1\n      pop\n        /* \"#utility.yul\":12551:12553   */\n      0x1f\n        /* \"#utility.yul\":12543:12549   */\n      dup4\n        /* \"#utility.yul\":12540:12554   */\n      gt\n        /* \"#utility.yul\":12568:12569   */\n      0x01\n        /* \"#utility.yul\":12563:13181   */\n      dup2\n      eq\n      tag_317\n      jumpi\n        /* \"#utility.yul\":13225:13226   */\n      0x00\n        /* \"#utility.yul\":13242:13248   */\n      dup5\n        /* \"#utility.yul\":13239:13316   */\n      iszero\n      tag_318\n      jumpi\n        /* \"#utility.yul\":13291:13300   */\n      dup3\n        /* \"#utility.yul\":13286:13289   */\n      dup8\n        /* \"#utility.yul\":13282:13301   */\n      add\n        /* \"#utility.yul\":13276:13302   */\n      mload\n        /* \"#utility.yul\":13267:13302   */\n      swap1\n      pop\n        /* \"#utility.yul\":13239:13316   */\n    tag_318:\n        /* \"#utility.yul\":13342:13409   */\n      tag_319\n        /* \"#utility.yul\":13402:13408   */\n      dup6\n        /* \"#utility.yul\":13395:13400   */\n      dup3\n        /* \"#utility.yul\":13342:13409   */\n      tag_164\n      jump\t// in\n    tag_319:\n        /* \"#utility.yul\":13336:13340   */\n      dup7\n        /* \"#utility.yul\":13329:13410   */\n      sstore\n        /* \"#utility.yul\":13198:13420   */\n      pop\n        /* \"#utility.yul\":12533:13420   */\n      jump(tag_316)\n        /* \"#utility.yul\":12563:13181   */\n    tag_317:\n        /* \"#utility.yul\":12615:12619   */\n      0x1f\n        /* \"#utility.yul\":12611:12620   */\n      not\n        /* \"#utility.yul\":12603:12609   */\n      dup5\n        /* \"#utility.yul\":12599:12621   */\n      and\n        /* \"#utility.yul\":12649:12686   */\n      tag_320\n        /* \"#utility.yul\":12681:12685   */\n      dup7\n        /* \"#utility.yul\":12649:12686   */\n      tag_150\n      jump\t// in\n    tag_320:\n        /* \"#utility.yul\":12708:12709   */\n      0x00\n        /* \"#utility.yul\":12722:12930   */\n    tag_321:\n        /* \"#utility.yul\":12736:12743   */\n      dup3\n        /* \"#utility.yul\":12733:12734   */\n      dup2\n        /* \"#utility.yul\":12730:12744   */\n      lt\n        /* \"#utility.yul\":12722:12930   */\n      iszero\n      tag_323\n      jumpi\n        /* \"#utility.yul\":12815:12824   */\n      dup5\n        /* \"#utility.yul\":12810:12813   */\n      dup10\n        /* \"#utility.yul\":12806:12825   */\n      add\n        /* \"#utility.yul\":12800:12826   */\n      mload\n        /* \"#utility.yul\":12792:12798   */\n      dup3\n        /* \"#utility.yul\":12785:12827   */\n      sstore\n        /* \"#utility.yul\":12866:12867   */\n      0x01\n        /* \"#utility.yul\":12858:12864   */\n      dup3\n        /* \"#utility.yul\":12854:12868   */\n      add\n        /* \"#utility.yul\":12844:12868   */\n      swap2\n      pop\n        /* \"#utility.yul\":12913:12915   */\n      0x20\n        /* \"#utility.yul\":12902:12911   */\n      dup6\n        /* \"#utility.yul\":12898:12916   */\n      add\n        /* \"#utility.yul\":12885:12916   */\n      swap5\n      pop\n        /* \"#utility.yul\":12759:12763   */\n      0x20\n        /* \"#utility.yul\":12756:12757   */\n      dup2\n        /* \"#utility.yul\":12752:12764   */\n      add\n        /* \"#utility.yul\":12747:12764   */\n      swap1\n      pop\n        /* \"#utility.yul\":12722:12930   */\n      jump(tag_321)\n    tag_323:\n        /* \"#utility.yul\":12958:12964   */\n      dup7\n        /* \"#utility.yul\":12949:12956   */\n      dup4\n        /* \"#utility.yul\":12946:12965   */\n      lt\n        /* \"#utility.yul\":12943:13122   */\n      iszero\n      tag_324\n      jumpi\n        /* \"#utility.yul\":13016:13025   */\n      dup5\n        /* \"#utility.yul\":13011:13014   */\n      dup10\n        /* \"#utility.yul\":13007:13026   */\n      add\n        /* \"#utility.yul\":13001:13027   */\n      mload\n        /* \"#utility.yul\":13059:13107   */\n      tag_325\n        /* \"#utility.yul\":13101:13105   */\n      0x1f\n        /* \"#utility.yul\":13093:13099   */\n      dup10\n        /* \"#utility.yul\":13089:13106   */\n      and\n        /* \"#utility.yul\":13078:13087   */\n      dup3\n        /* \"#utility.yul\":13059:13107   */\n      tag_163\n      jump\t// in\n    tag_325:\n        /* \"#utility.yul\":13051:13057   */\n      dup4\n        /* \"#utility.yul\":13044:13108   */\n      sstore\n        /* \"#utility.yul\":12966:13122   */\n      pop\n        /* \"#utility.yul\":12943:13122   */\n    tag_324:\n        /* \"#utility.yul\":13168:13169   */\n      0x01\n        /* \"#utility.yul\":13164:13165   */\n      0x02\n        /* \"#utility.yul\":13156:13162   */\n      dup9\n        /* \"#utility.yul\":13152:13166   */\n      mul\n        /* \"#utility.yul\":13148:13170   */\n      add\n        /* \"#utility.yul\":13142:13146   */\n      dup9\n        /* \"#utility.yul\":13135:13171   */\n      sstore\n        /* \"#utility.yul\":12570:13181   */\n      pop\n      pop\n      pop\n        /* \"#utility.yul\":12533:13420   */\n    tag_316:\n      pop\n        /* \"#utility.yul\":12123:13426   */\n      pop\n      pop\n      pop\n        /* \"#utility.yul\":12031:13426   */\n      pop\n      pop\n      jump\t// out\n        /* \"#utility.yul\":13432:13866   */\n    tag_165:\n        /* \"#utility.yul\":13521:13526   */\n      0x00\n        /* \"#utility.yul\":13546:13612   */\n      tag_327\n        /* \"#utility.yul\":13562:13611   */\n      tag_328\n        /* \"#utility.yul\":13604:13610   */\n      dup5\n        /* \"#utility.yul\":13562:13611   */\n      tag_140\n      jump\t// in\n    tag_328:\n        /* \"#utility.yul\":13546:13612   */\n      tag_139\n      jump\t// in\n    tag_327:\n        /* \"#utility.yul\":13537:13612   */\n      swap1\n      pop\n        /* \"#utility.yul\":13635:13641   */\n      dup3\n        /* \"#utility.yul\":13628:13633   */\n      dup2\n        /* \"#utility.yul\":13621:13642   */\n      mstore\n        /* \"#utility.yul\":13673:13677   */\n      0x20\n        /* \"#utility.yul\":13666:13671   */\n      dup2\n        /* \"#utility.yul\":13662:13678   */\n      add\n        /* \"#utility.yul\":13711:13714   */\n      dup5\n        /* \"#utility.yul\":13702:13708   */\n      dup5\n        /* \"#utility.yul\":13697:13700   */\n      dup5\n        /* \"#utility.yul\":13693:13709   */\n      add\n        /* \"#utility.yul\":13690:13715   */\n      gt\n        /* \"#utility.yul\":13687:13799   */\n      iszero\n      tag_329\n      jumpi\n        /* \"#utility.yul\":13718:13797   */\n      tag_330\n      tag_136\n      jump\t// in\n    tag_330:\n        /* \"#utility.yul\":13687:13799   */\n    tag_329:\n        /* \"#utility.yul\":13808:13860   */\n      tag_331\n        /* \"#utility.yul\":13853:13859   */\n      dup5\n        /* \"#utility.yul\":13848:13851   */\n      dup3\n        /* \"#utility.yul\":13843:13846   */\n      dup6\n        /* \"#utility.yul\":13808:13860   */\n      tag_132\n      jump\t// in\n    tag_331:\n        /* \"#utility.yul\":13527:13866   */\n      pop\n        /* \"#utility.yul\":13432:13866   */\n      swap4\n      swap3\n      pop\n      pop\n      pop\n      jump\t// out\n        /* \"#utility.yul\":13886:14241   */\n    tag_166:\n        /* \"#utility.yul\":13953:13958   */\n      0x00\n        /* \"#utility.yul\":14002:14005   */\n      dup3\n        /* \"#utility.yul\":13995:13999   */\n      0x1f\n        /* \"#utility.yul\":13987:13993   */\n      dup4\n        /* \"#utility.yul\":13983:14000   */\n      add\n        /* \"#utility.yul\":13979:14006   */\n      slt\n        /* \"#utility.yul\":13969:14091   */\n      tag_333\n      jumpi\n        /* \"#utility.yul\":14010:14089   */\n      tag_334\n      tag_135\n      jump\t// in\n    tag_334:\n        /* \"#utility.yul\":13969:14091   */\n    tag_333:\n        /* \"#utility.yul\":14120:14126   */\n      dup2\n        /* \"#utility.yul\":14114:14127   */\n      mload\n        /* \"#utility.yul\":14145:14235   */\n      tag_335\n        /* \"#utility.yul\":14231:14234   */\n      dup5\n        /* \"#utility.yul\":14223:14229   */\n      dup3\n        /* \"#utility.yul\":14216:14220   */\n      0x20\n        /* \"#utility.yul\":14208:14214   */\n      dup7\n        /* \"#utility.yul\":14204:14221   */\n      add\n        /* \"#utility.yul\":14145:14235   */\n      tag_165\n      jump\t// in\n    tag_335:\n        /* \"#utility.yul\":14136:14235   */\n      swap2\n      pop\n        /* \"#utility.yul\":13959:14241   */\n      pop\n        /* \"#utility.yul\":13886:14241   */\n      swap3\n      swap2\n      pop\n      pop\n      jump\t// out\n        /* \"#utility.yul\":14247:14771   */\n    tag_117:\n        /* \"#utility.yul\":14327:14333   */\n      0x00\n        /* \"#utility.yul\":14376:14378   */\n      0x20\n        /* \"#utility.yul\":14364:14373   */\n      dup3\n        /* \"#utility.yul\":14355:14362   */\n      dup5\n        /* \"#utility.yul\":14351:14374   */\n      sub\n        /* \"#utility.yul\":14347:14379   */\n      slt\n        /* \"#utility.yul\":14344:14463   */\n      iszero\n      tag_337\n      jumpi\n        /* \"#utility.yul\":14382:14461   */\n      tag_338\n      tag_119\n      jump\t// in\n    tag_338:\n        /* \"#utility.yul\":14344:14463   */\n    tag_337:\n        /* \"#utility.yul\":14523:14524   */\n      0x00\n        /* \"#utility.yul\":14512:14521   */\n      dup3\n        /* \"#utility.yul\":14508:14525   */\n      add\n        /* \"#utility.yul\":14502:14526   */\n      mload\n        /* \"#utility.yul\":14553:14571   */\n      0xffffffffffffffff\n        /* \"#utility.yul\":14545:14551   */\n      dup2\n        /* \"#utility.yul\":14542:14572   */\n      gt\n        /* \"#utility.yul\":14539:14656   */\n      iszero\n      tag_339\n      jumpi\n        /* \"#utility.yul\":14575:14654   */\n      tag_340\n      tag_120\n      jump\t// in\n    tag_340:\n        /* \"#utility.yul\":14539:14656   */\n    tag_339:\n        /* \"#utility.yul\":14680:14754   */\n      tag_341\n        /* \"#utility.yul\":14746:14753   */\n      dup5\n        /* \"#utility.yul\":14737:14743   */\n      dup3\n        /* \"#utility.yul\":14726:14735   */\n      dup6\n        /* \"#utility.yul\":14722:14744   */\n      add\n        /* \"#utility.yul\":14680:14754   */\n      tag_166\n      jump\t// in\n    tag_341:\n        /* \"#utility.yul\":14670:14754   */\n      swap2\n      pop\n        /* \"#utility.yul\":14473:14764   */\n      pop\n        /* \"#utility.yul\":14247:14771   */\n      swap3\n      swap2\n      pop\n      pop\n      jump\t// out\n\n    auxdata: 0xa2646970667358221220d8891b69d0cbab831cd4cba379dfb300086fc2801d674c1a33e115ae917849b764736f6c634300081a0033\n}\n",
				"bytecode": {
					"linkReferences": {},
					"object": "60806040526040518060400160405280601181526020017f486f6c647320736f6d6520737472696e67000000000000000000000000000000815250600490816100489190610294565b50348015610054575f80fd5b50610363565b5f81519050919050565b7f4e487b71000000000000000000000000000000000000000000000000000000005f52604160045260245ffd5b7f4e487b71000000000000000000000000000000000000000000000000000000005f52602260045260245ffd5b5f60028204905060018216806100d557607f821691505b6020821081036100e8576100e7610091565b5b50919050565b5f819050815f5260205f209050919050565b5f6020601f8301049050919050565b5f82821b905092915050565b5f6008830261014a7fffffffffffffffffffffffffffffffffffffffffffffffffffffffffffffffff8261010f565b610154868361010f565b95508019841693508086168417925050509392505050565b5f819050919050565b5f819050919050565b5f61019861019361018e8461016c565b610175565b61016c565b9050919050565b5f819050919050565b6101b18361017e565b6101c56101bd8261019f565b84845461011b565b825550505050565b5f90565b6101d96101cd565b6101e48184846101a8565b505050565b5b81811015610207576101fc5f826101d1565b6001810190506101ea565b5050565b601f82111561024c5761021d816100ee565b61022684610100565b81016020851015610235578190505b61024961024185610100565b8301826101e9565b50505b505050565b5f82821c905092915050565b5f61026c5f1984600802610251565b1980831691505092915050565b5f610284838361025d565b9150826002028217905092915050565b61029d8261005a565b67ffffffffffffffff8111156102b6576102b5610064565b5b6102c082546100be565b6102cb82828561020b565b5f60209050601f8311600181146102fc575f84156102ea578287015190505b6102f48582610279565b86555061035b565b601f19841661030a866100ee565b5f5b828110156103315784890151825560018201915060208501945060208101905061030c565b8683101561034e578489015161034a601f89168261025d565b8355505b6001600288020188555050505b505050505050565b610e11806103705f395ff3fe608060405234801561000f575f80fd5b50600436106100e8575f3560e01c80639e7a13ad1161008a578063b633941811610064578063b633941814610237578063bca353be14610253578063c19d93fb1461025d578063e0819c9a1461027b576100e8565b80639e7a13ad146101cc578063a621d15e146101fd578063a7e1a3641461021b576100e8565b806329cd1d96116100c657806329cd1d96146101585780633a32b549146101885780636f760f41146101a65780638fda356d146101c2576100e8565b80630664c448146100ec5780630cd2636e1461011c57806322f3e2d41461013a575b5f80fd5b61010660048036038101906101019190610602565b610299565b6040516101139190610647565b60405180910390f35b6101246102b5565b6040516101319190610678565b60405180910390f35b6101426102f1565b60405161014f9190610647565b60405180910390f35b610172600480360381019061016d91906106bb565b610331565b60405161017f9190610678565b60405180910390f35b610190610351565b60405161019d9190610756565b60405180910390f35b6101c060048036038101906101bb91906108a2565b61038e565b005b6101ca6103ef565b005b6101e660048036038101906101e191906106bb565b61041a565b6040516101f49291906108fc565b60405180910390f35b6102056104cf565b6040516102129190610678565b60405180910390f35b610235600480360381019061023091906106bb565b6104d7565b005b610251600480360381019061024c91906106bb565b610500565b005b61025b610509565b005b610265610535565b604051610272919061099d565b60405180910390f35b610283610547565b6040516102909190610756565b60405180910390f35b5f815f5413156102ac57600190506102b0565b5f90505b919050565b5f805f90505f600190505b5f5481116102e95780826102d491906109e3565b915080806102e190610a16565b9150506102c0565b508091505090565b5f805f60018111156103065761030561092a565b5b60035f9054906101000a900460ff1660018111156103275761032661092a565b5b1490508091505090565b60018181548110610340575f80fd5b905f5260205f20015f915090505481565b60606040518060400160405280601c81526020017f5468697320697320616e2065787465726e616c2066756e6374696f6e00000000815250905090565b6002604051806040016040528084815260200183815250908060018154018082558091505060019003905f5260205f2090600202015f909190919091505f820151815f0190816103de9190610c57565b506020820151816001015550505050565b5f60035f6101000a81548160ff021916908360018111156104135761041261092a565b5b0217905550565b60028181548110610429575f80fd5b905f5260205f2090600202015f91509050805f01805461044890610a8a565b80601f016020809104026020016040519081016040528092919081815260200182805461047490610a8a565b80156104bf5780601f10610496576101008083540402835291602001916104bf565b820191905f5260205f20905b8154815290600101906020018083116104a257829003601f168201915b5050505050908060010154905082565b5f8054905090565b600181908060018154018082558091505060019003905f5260205f20015f909190919091505550565b805f8190555050565b600160035f6101000a81548160ff0219169083600181111561052e5761052d61092a565b5b0217905550565b60035f9054906101000a900460ff1681565b60603073ffffffffffffffffffffffffffffffffffffffff16633a32b5496040518163ffffffff1660e01b81526004015f60405180830381865afa158015610591573d5f803e3d5ffd5b505050506040513d5f823e3d601f19601f820116820180604052508101906105b99190610d94565b905090565b5f604051905090565b5f80fd5b5f80fd5b5f819050919050565b6105e1816105cf565b81146105eb575f80fd5b50565b5f813590506105fc816105d8565b92915050565b5f60208284031215610617576106166105c7565b5b5f610624848285016105ee565b91505092915050565b5f8115159050919050565b6106418161062d565b82525050565b5f60208201905061065a5f830184610638565b92915050565b5f819050919050565b61067281610660565b82525050565b5f60208201905061068b5f830184610669565b92915050565b61069a81610660565b81146106a4575f80fd5b50565b5f813590506106b581610691565b92915050565b5f602082840312156106d0576106cf6105c7565b5b5f6106dd848285016106a7565b91505092915050565b5f81519050919050565b5f82825260208201905092915050565b8281835e5f83830152505050565b5f601f19601f8301169050919050565b5f610728826106e6565b61073281856106f0565b9350610742818560208601610700565b61074b8161070e565b840191505092915050565b5f6020820190508181035f83015261076e818461071e565b905092915050565b5f80fd5b5f80fd5b7f4e487b71000000000000000000000000000000000000000000000000000000005f52604160045260245ffd5b6107b48261070e565b810181811067ffffffffffffffff821117156107d3576107d261077e565b5b80604052505050565b5f6107e56105be565b90506107f182826107ab565b919050565b5f67ffffffffffffffff8211156108105761080f61077e565b5b6108198261070e565b9050602081019050919050565b828183375f83830152505050565b5f610846610841846107f6565b6107dc565b9050828152602081018484840111156108625761086161077a565b5b61086d848285610826565b509392505050565b5f82601f83011261088957610888610776565b5b8135610899848260208601610834565b91505092915050565b5f80604083850312156108b8576108b76105c7565b5b5f83013567ffffffffffffffff8111156108d5576108d46105cb565b5b6108e185828601610875565b92505060206108f2858286016106a7565b9150509250929050565b5f6040820190508181035f830152610914818561071e565b90506109236020830184610669565b9392505050565b7f4e487b71000000000000000000000000000000000000000000000000000000005f52602160045260245ffd5b600281106109685761096761092a565b5b50565b5f81905061097882610957565b919050565b5f6109878261096b565b9050919050565b6109978161097d565b82525050565b5f6020820190506109b05f83018461098e565b92915050565b7f4e487b71000000000000000000000000000000000000000000000000000000005f52601160045260245ffd5b5f6109ed82610660565b91506109f883610660565b9250828201905080821115610a1057610a0f6109b6565b5b92915050565b5f610a2082610660565b91507fffffffffffffffffffffffffffffffffffffffffffffffffffffffffffffffff8203610a5257610a516109b6565b5b600182019050919050565b7f4e487b71000000000000000000000000000000000000000000000000000000005f52602260045260245ffd5b5f6002820490506001821680610aa157607f821691505b602082108103610ab457610ab3610a5d565b5b50919050565b5f819050815f5260205f209050919050565b5f6020601f8301049050919050565b5f82821b905092915050565b5f60088302610b167fffffffffffffffffffffffffffffffffffffffffffffffffffffffffffffffff82610adb565b610b208683610adb565b95508019841693508086168417925050509392505050565b5f819050919050565b5f610b5b610b56610b5184610660565b610b38565b610660565b9050919050565b5f819050919050565b610b7483610b41565b610b88610b8082610b62565b848454610ae7565b825550505050565b5f90565b610b9c610b90565b610ba7818484610b6b565b505050565b5b81811015610bca57610bbf5f82610b94565b600181019050610bad565b5050565b601f821115610c0f57610be081610aba565b610be984610acc565b81016020851015610bf8578190505b610c0c610c0485610acc565b830182610bac565b50505b505050565b5f82821c905092915050565b5f610c2f5f1984600802610c14565b1980831691505092915050565b5f610c478383610c20565b9150826002028217905092915050565b610c60826106e6565b67ffffffffffffffff811115610c7957610c7861077e565b5b610c838254610a8a565b610c8e828285610bce565b5f60209050601f831160018114610cbf575f8415610cad578287015190505b610cb78582610c3c565b865550610d1e565b601f198416610ccd86610aba565b5f5b82811015610cf457848901518255600182019150602085019450602081019050610ccf565b86831015610d115784890151610d0d601f891682610c20565b8355505b6001600288020188555050505b505050505050565b5f610d38610d33846107f6565b6107dc565b905082815260208101848484011115610d5457610d5361077a565b5b610d5f848285610700565b509392505050565b5f82601f830112610d7b57610d7a610776565b5b8151610d8b848260208601610d26565b91505092915050565b5f60208284031215610da957610da86105c7565b5b5f82015167ffffffffffffffff811115610dc657610dc56105cb565b5b610dd284828501610d67565b9150509291505056fea2646970667358221220d8891b69d0cbab831cd4cba379dfb300086fc2801d674c1a33e115ae917849b764736f6c634300081a0033",
					"opcodes": "PUSH1 0x80 PUSH1 0x40 MSTORE PUSH1 0x40 MLOAD DUP1 PUSH1 0x40 ADD PUSH1 0x40 MSTORE DUP1 PUSH1 0x11 DUP2 MSTORE PUSH1 0x20 ADD PUSH32 0x486F6C647320736F6D6520737472696E67000000000000000000000000000000 DUP2 MSTORE POP PUSH1 0x4 SWAP1 DUP2 PUSH2 0x48 SWAP2 SWAP1 PUSH2 0x294 JUMP JUMPDEST POP CALLVALUE DUP1 ISZERO PUSH2 0x54 JUMPI PUSH0 DUP1 REVERT JUMPDEST POP PUSH2 0x363 JUMP JUMPDEST PUSH0 DUP2 MLOAD SWAP1 POP SWAP2 SWAP1 POP JUMP JUMPDEST PUSH32 0x4E487B7100000000000000000000000000000000000000000000000000000000 PUSH0 MSTORE PUSH1 0x41 PUSH1 0x4 MSTORE PUSH1 0x24 PUSH0 REVERT JUMPDEST PUSH32 0x4E487B7100000000000000000000000000000000000000000000000000000000 PUSH0 MSTORE PUSH1 0x22 PUSH1 0x4 MSTORE PUSH1 0x24 PUSH0 REVERT JUMPDEST PUSH0 PUSH1 0x2 DUP3 DIV SWAP1 POP PUSH1 0x1 DUP3 AND DUP1 PUSH2 0xD5 JUMPI PUSH1 0x7F DUP3 AND SWAP2 POP JUMPDEST PUSH1 0x20 DUP3 LT DUP2 SUB PUSH2 0xE8 JUMPI PUSH2 0xE7 PUSH2 0x91 JUMP JUMPDEST JUMPDEST POP SWAP2 SWAP1 POP JUMP JUMPDEST PUSH0 DUP2 SWAP1 POP DUP2 PUSH0 MSTORE PUSH1 0x20 PUSH0 KECCAK256 SWAP1 POP SWAP2 SWAP1 POP JUMP JUMPDEST PUSH0 PUSH1 0x20 PUSH1 0x1F DUP4 ADD DIV SWAP1 POP SWAP2 SWAP1 POP JUMP JUMPDEST PUSH0 DUP3 DUP3 SHL SWAP1 POP SWAP3 SWAP2 POP POP JUMP JUMPDEST PUSH0 PUSH1 0x8 DUP4 MUL PUSH2 0x14A PUSH32 0xFFFFFFFFFFFFFFFFFFFFFFFFFFFFFFFFFFFFFFFFFFFFFFFFFFFFFFFFFFFFFFFF DUP3 PUSH2 0x10F JUMP JUMPDEST PUSH2 0x154 DUP7 DUP4 PUSH2 0x10F JUMP JUMPDEST SWAP6 POP DUP1 NOT DUP5 AND SWAP4 POP DUP1 DUP7 AND DUP5 OR SWAP3 POP POP POP SWAP4 SWAP3 POP POP POP JUMP JUMPDEST PUSH0 DUP2 SWAP1 POP SWAP2 SWAP1 POP JUMP JUMPDEST PUSH0 DUP2 SWAP1 POP SWAP2 SWAP1 POP JUMP JUMPDEST PUSH0 PUSH2 0x198 PUSH2 0x193 PUSH2 0x18E DUP5 PUSH2 0x16C JUMP JUMPDEST PUSH2 0x175 JUMP JUMPDEST PUSH2 0x16C JUMP JUMPDEST SWAP1 POP SWAP2 SWAP1 POP JUMP JUMPDEST PUSH0 DUP2 SWAP1 POP SWAP2 SWAP1 POP JUMP JUMPDEST PUSH2 0x1B1 DUP4 PUSH2 0x17E JUMP JUMPDEST PUSH2 0x1C5 PUSH2 0x1BD DUP3 PUSH2 0x19F JUMP JUMPDEST DUP5 DUP5 SLOAD PUSH2 0x11B JUMP JUMPDEST DUP3 SSTORE POP POP POP POP JUMP JUMPDEST PUSH0 SWAP1 JUMP JUMPDEST PUSH2 0x1D9 PUSH2 0x1CD JUMP JUMPDEST PUSH2 0x1E4 DUP2 DUP5 DUP5 PUSH2 0x1A8 JUMP JUMPDEST POP POP POP JUMP JUMPDEST JUMPDEST DUP2 DUP2 LT ISZERO PUSH2 0x207 JUMPI PUSH2 0x1FC PUSH0 DUP3 PUSH2 0x1D1 JUMP JUMPDEST PUSH1 0x1 DUP2 ADD SWAP1 POP PUSH2 0x1EA JUMP JUMPDEST POP POP JUMP JUMPDEST PUSH1 0x1F DUP3 GT ISZERO PUSH2 0x24C JUMPI PUSH2 0x21D DUP2 PUSH2 0xEE JUMP JUMPDEST PUSH2 0x226 DUP5 PUSH2 0x100 JUMP JUMPDEST DUP2 ADD PUSH1 0x20 DUP6 LT ISZERO PUSH2 0x235 JUMPI DUP2 SWAP1 POP JUMPDEST PUSH2 0x249 PUSH2 0x241 DUP6 PUSH2 0x100 JUMP JUMPDEST DUP4 ADD DUP3 PUSH2 0x1E9 JUMP JUMPDEST POP POP JUMPDEST POP POP POP JUMP JUMPDEST PUSH0 DUP3 DUP3 SHR SWAP1 POP SWAP3 SWAP2 POP POP JUMP JUMPDEST PUSH0 PUSH2 0x26C PUSH0 NOT DUP5 PUSH1 0x8 MUL PUSH2 0x251 JUMP JUMPDEST NOT DUP1 DUP4 AND SWAP2 POP POP SWAP3 SWAP2 POP POP JUMP JUMPDEST PUSH0 PUSH2 0x284 DUP4 DUP4 PUSH2 0x25D JUMP JUMPDEST SWAP2 POP DUP3 PUSH1 0x2 MUL DUP3 OR SWAP1 POP SWAP3 SWAP2 POP POP JUMP JUMPDEST PUSH2 0x29D DUP3 PUSH2 0x5A JUMP JUMPDEST PUSH8 0xFFFFFFFFFFFFFFFF DUP2 GT ISZERO PUSH2 0x2B6 JUMPI PUSH2 0x2B5 PUSH2 0x64 JUMP JUMPDEST JUMPDEST PUSH2 0x2C0 DUP3 SLOAD PUSH2 0xBE JUMP JUMPDEST PUSH2 0x2CB DUP3 DUP3 DUP6 PUSH2 0x20B JUMP JUMPDEST PUSH0 PUSH1 0x20 SWAP1 POP PUSH1 0x1F DUP4 GT PUSH1 0x1 DUP2 EQ PUSH2 0x2FC JUMPI PUSH0 DUP5 ISZERO PUSH2 0x2EA JUMPI DUP3 DUP8 ADD MLOAD SWAP1 POP JUMPDEST PUSH2 0x2F4 DUP6 DUP3 PUSH2 0x279 JUMP JUMPDEST DUP7 SSTORE POP PUSH2 0x35B JUMP JUMPDEST PUSH1 0x1F NOT DUP5 AND PUSH2 0x30A DUP7 PUSH2 0xEE JUMP JUMPDEST PUSH0 JUMPDEST DUP3 DUP2 LT ISZERO PUSH2 0x331 JUMPI DUP5 DUP10 ADD MLOAD DUP3 SSTORE PUSH1 0x1 DUP3 ADD SWAP2 POP PUSH1 0x20 DUP6 ADD SWAP5 POP PUSH1 0x20 DUP2 ADD SWAP1 POP PUSH2 0x30C JUMP JUMPDEST DUP7 DUP4 LT ISZERO PUSH2 0x34E JUMPI DUP5 DUP10 ADD MLOAD PUSH2 0x34A PUSH1 0x1F DUP10 AND DUP3 PUSH2 0x25D JUMP JUMPDEST DUP4 SSTORE POP JUMPDEST PUSH1 0x1 PUSH1 0x2 DUP9 MUL ADD DUP9 SSTORE POP POP POP JUMPDEST POP POP POP POP POP POP JUMP JUMPDEST PUSH2 0xE11 DUP1 PUSH2 0x370 PUSH0 CODECOPY PUSH0 RETURN INVALID PUSH1 0x80 PUSH1 0x40 MSTORE CALLVALUE DUP1 ISZERO PUSH2 0xF JUMPI PUSH0 DUP1 REVERT JUMPDEST POP PUSH1 0x4 CALLDATASIZE LT PUSH2 0xE8 JUMPI PUSH0 CALLDATALOAD PUSH1 0xE0 SHR DUP1 PUSH4 0x9E7A13AD GT PUSH2 0x8A JUMPI DUP1 PUSH4 0xB6339418 GT PUSH2 0x64 JUMPI DUP1 PUSH4 0xB6339418 EQ PUSH2 0x237 JUMPI DUP1 PUSH4 0xBCA353BE EQ PUSH2 0x253 JUMPI DUP1 PUSH4 0xC19D93FB EQ PUSH2 0x25D JUMPI DUP1 PUSH4 0xE0819C9A EQ PUSH2 0x27B JUMPI PUSH2 0xE8 JUMP JUMPDEST DUP1 PUSH4 0x9E7A13AD EQ PUSH2 0x1CC JUMPI DUP1 PUSH4 0xA621D15E EQ PUSH2 0x1FD JUMPI DUP1 PUSH4 0xA7E1A364 EQ PUSH2 0x21B JUMPI PUSH2 0xE8 JUMP JUMPDEST DUP1 PUSH4 0x29CD1D96 GT PUSH2 0xC6 JUMPI DUP1 PUSH4 0x29CD1D96 EQ PUSH2 0x158 JUMPI DUP1 PUSH4 0x3A32B549 EQ PUSH2 0x188 JUMPI DUP1 PUSH4 0x6F760F41 EQ PUSH2 0x1A6 JUMPI DUP1 PUSH4 0x8FDA356D EQ PUSH2 0x1C2 JUMPI PUSH2 0xE8 JUMP JUMPDEST DUP1 PUSH4 0x664C448 EQ PUSH2 0xEC JUMPI DUP1 PUSH4 0xCD2636E EQ PUSH2 0x11C JUMPI DUP1 PUSH4 0x22F3E2D4 EQ PUSH2 0x13A JUMPI JUMPDEST PUSH0 DUP1 REVERT JUMPDEST PUSH2 0x106 PUSH1 0x4 DUP1 CALLDATASIZE SUB DUP2 ADD SWAP1 PUSH2 0x101 SWAP2 SWAP1 PUSH2 0x602 JUMP JUMPDEST PUSH2 0x299 JUMP JUMPDEST PUSH1 0x40 MLOAD PUSH2 0x113 SWAP2 SWAP1 PUSH2 0x647 JUMP JUMPDEST PUSH1 0x40 MLOAD DUP1 SWAP2 SUB SWAP1 RETURN JUMPDEST PUSH2 0x124 PUSH2 0x2B5 JUMP JUMPDEST PUSH1 0x40 MLOAD PUSH2 0x131 SWAP2 SWAP1 PUSH2 0x678 JUMP JUMPDEST PUSH1 0x40 MLOAD DUP1 SWAP2 SUB SWAP1 RETURN JUMPDEST PUSH2 0x142 PUSH2 0x2F1 JUMP JUMPDEST PUSH1 0x40 MLOAD PUSH2 0x14F SWAP2 SWAP1 PUSH2 0x647 JUMP JUMPDEST PUSH1 0x40 MLOAD DUP1 SWAP2 SUB SWAP1 RETURN JUMPDEST PUSH2 0x172 PUSH1 0x4 DUP1 CALLDATASIZE SUB DUP2 ADD SWAP1 PUSH2 0x16D SWAP2 SWAP1 PUSH2 0x6BB JUMP JUMPDEST PUSH2 0x331 JUMP JUMPDEST PUSH1 0x40 MLOAD PUSH2 0x17F SWAP2 SWAP1 PUSH2 0x678 JUMP JUMPDEST PUSH1 0x40 MLOAD DUP1 SWAP2 SUB SWAP1 RETURN JUMPDEST PUSH2 0x190 PUSH2 0x351 JUMP JUMPDEST PUSH1 0x40 MLOAD PUSH2 0x19D SWAP2 SWAP1 PUSH2 0x756 JUMP JUMPDEST PUSH1 0x40 MLOAD DUP1 SWAP2 SUB SWAP1 RETURN JUMPDEST PUSH2 0x1C0 PUSH1 0x4 DUP1 CALLDATASIZE SUB DUP2 ADD SWAP1 PUSH2 0x1BB SWAP2 SWAP1 PUSH2 0x8A2 JUMP JUMPDEST PUSH2 0x38E JUMP JUMPDEST STOP JUMPDEST PUSH2 0x1CA PUSH2 0x3EF JUMP JUMPDEST STOP JUMPDEST PUSH2 0x1E6 PUSH1 0x4 DUP1 CALLDATASIZE SUB DUP2 ADD SWAP1 PUSH2 0x1E1 SWAP2 SWAP1 PUSH2 0x6BB JUMP JUMPDEST PUSH2 0x41A JUMP JUMPDEST PUSH1 0x40 MLOAD PUSH2 0x1F4 SWAP3 SWAP2 SWAP1 PUSH2 0x8FC JUMP JUMPDEST PUSH1 0x40 MLOAD DUP1 SWAP2 SUB SWAP1 RETURN JUMPDEST PUSH2 0x205 PUSH2 0x4CF JUMP JUMPDEST PUSH1 0x40 MLOAD PUSH2 0x212 SWAP2 SWAP1 PUSH2 0x678 JUMP JUMPDEST PUSH1 0x40 MLOAD DUP1 SWAP2 SUB SWAP1 RETURN JUMPDEST PUSH2 0x235 PUSH1 0x4 DUP1 CALLDATASIZE SUB DUP2 ADD SWAP1 PUSH2 0x230 SWAP2 SWAP1 PUSH2 0x6BB JUMP JUMPDEST PUSH2 0x4D7 JUMP JUMPDEST STOP JUMPDEST PUSH2 0x251 PUSH1 0x4 DUP1 CALLDATASIZE SUB DUP2 ADD SWAP1 PUSH2 0x24C SWAP2 SWAP1 PUSH2 0x6BB JUMP JUMPDEST PUSH2 0x500 JUMP JUMPDEST STOP JUMPDEST PUSH2 0x25B PUSH2 0x509 JUMP JUMPDEST STOP JUMPDEST PUSH2 0x265 PUSH2 0x535 JUMP JUMPDEST PUSH1 0x40 MLOAD PUSH2 0x272 SWAP2 SWAP1 PUSH2 0x99D JUMP JUMPDEST PUSH1 0x40 MLOAD DUP1 SWAP2 SUB SWAP1 RETURN JUMPDEST PUSH2 0x283 PUSH2 0x547 JUMP JUMPDEST PUSH1 0x40 MLOAD PUSH2 0x290 SWAP2 SWAP1 PUSH2 0x756 JUMP JUMPDEST PUSH1 0x40 MLOAD DUP1 SWAP2 SUB SWAP1 RETURN JUMPDEST PUSH0 DUP2 PUSH0 SLOAD SGT ISZERO PUSH2 0x2AC JUMPI PUSH1 0x1 SWAP1 POP PUSH2 0x2B0 JUMP JUMPDEST PUSH0 SWAP1 POP JUMPDEST SWAP2 SWAP1 POP JUMP JUMPDEST PUSH0 DUP1 PUSH0 SWAP1 POP PUSH0 PUSH1 0x1 SWAP1 POP JUMPDEST PUSH0 SLOAD DUP2 GT PUSH2 0x2E9 JUMPI DUP1 DUP3 PUSH2 0x2D4 SWAP2 SWAP1 PUSH2 0x9E3 JUMP JUMPDEST SWAP2 POP DUP1 DUP1 PUSH2 0x2E1 SWAP1 PUSH2 0xA16 JUMP JUMPDEST SWAP2 POP POP PUSH2 0x2C0 JUMP JUMPDEST POP DUP1 SWAP2 POP POP SWAP1 JUMP JUMPDEST PUSH0 DUP1 PUSH0 PUSH1 0x1 DUP2 GT ISZERO PUSH2 0x306 JUMPI PUSH2 0x305 PUSH2 0x92A JUMP JUMPDEST JUMPDEST PUSH1 0x3 PUSH0 SWAP1 SLOAD SWAP1 PUSH2 0x100 EXP SWAP1 DIV PUSH1 0xFF AND PUSH1 0x1 DUP2 GT ISZERO PUSH2 0x327 JUMPI PUSH2 0x326 PUSH2 0x92A JUMP JUMPDEST JUMPDEST EQ SWAP1 POP DUP1 SWAP2 POP POP SWAP1 JUMP JUMPDEST PUSH1 0x1 DUP2 DUP2 SLOAD DUP2 LT PUSH2 0x340 JUMPI PUSH0 DUP1 REVERT JUMPDEST SWAP1 PUSH0 MSTORE PUSH1 0x20 PUSH0 KECCAK256 ADD PUSH0 SWAP2 POP SWAP1 POP SLOAD DUP2 JUMP JUMPDEST PUSH1 0x60 PUSH1 0x40 MLOAD DUP1 PUSH1 0x40 ADD PUSH1 0x40 MSTORE DUP1 PUSH1 0x1C DUP2 MSTORE PUSH1 0x20 ADD PUSH32 0x5468697320697320616E2065787465726E616C2066756E6374696F6E00000000 DUP2 MSTORE POP SWAP1 POP SWAP1 JUMP JUMPDEST PUSH1 0x2 PUSH1 0x40 MLOAD DUP1 PUSH1 0x40 ADD PUSH1 0x40 MSTORE DUP1 DUP5 DUP2 MSTORE PUSH1 0x20 ADD DUP4 DUP2 MSTORE POP SWAP1 DUP1 PUSH1 0x1 DUP2 SLOAD ADD DUP1 DUP3 SSTORE DUP1 SWAP2 POP POP PUSH1 0x1 SWAP1 SUB SWAP1 PUSH0 MSTORE PUSH1 0x20 PUSH0 KECCAK256 SWAP1 PUSH1 0x2 MUL ADD PUSH0 SWAP1 SWAP2 SWAP1 SWAP2 SWAP1 SWAP2 POP PUSH0 DUP3 ADD MLOAD DUP2 PUSH0 ADD SWAP1 DUP2 PUSH2 0x3DE SWAP2 SWAP1 PUSH2 0xC57 JUMP JUMPDEST POP PUSH1 0x20 DUP3 ADD MLOAD DUP2 PUSH1 0x1 ADD SSTORE POP POP POP POP JUMP JUMPDEST PUSH0 PUSH1 0x3 PUSH0 PUSH2 0x100 EXP DUP2 SLOAD DUP2 PUSH1 0xFF MUL NOT AND SWAP1 DUP4 PUSH1 0x1 DUP2 GT ISZERO PUSH2 0x413 JUMPI PUSH2 0x412 PUSH2 0x92A JUMP JUMPDEST JUMPDEST MUL OR SWAP1 SSTORE POP JUMP JUMPDEST PUSH1 0x2 DUP2 DUP2 SLOAD DUP2 LT PUSH2 0x429 JUMPI PUSH0 DUP1 REVERT JUMPDEST SWAP1 PUSH0 MSTORE PUSH1 0x20 PUSH0 KECCAK256 SWAP1 PUSH1 0x2 MUL ADD PUSH0 SWAP2 POP SWAP1 POP DUP1 PUSH0 ADD DUP1 SLOAD PUSH2 0x448 SWAP1 PUSH2 0xA8A JUMP JUMPDEST DUP1 PUSH1 0x1F ADD PUSH1 0x20 DUP1 SWAP2 DIV MUL PUSH1 0x20 ADD PUSH1 0x40 MLOAD SWAP1 DUP2 ADD PUSH1 0x40 MSTORE DUP1 SWAP3 SWAP2 SWAP1 DUP2 DUP2 MSTORE PUSH1 0x20 ADD DUP3 DUP1 SLOAD PUSH2 0x474 SWAP1 PUSH2 0xA8A JUMP JUMPDEST DUP1 ISZERO PUSH2 0x4BF JUMPI DUP1 PUSH1 0x1F LT PUSH2 0x496 JUMPI PUSH2 0x100 DUP1 DUP4 SLOAD DIV MUL DUP4 MSTORE SWAP2 PUSH1 0x20 ADD SWAP2 PUSH2 0x4BF JUMP JUMPDEST DUP3 ADD SWAP2 SWAP1 PUSH0 MSTORE PUSH1 0x20 PUSH0 KECCAK256 SWAP1 JUMPDEST DUP2 SLOAD DUP2 MSTORE SWAP1 PUSH1 0x1 ADD SWAP1 PUSH1 0x20 ADD DUP1 DUP4 GT PUSH2 0x4A2 JUMPI DUP3 SWAP1 SUB PUSH1 0x1F AND DUP3 ADD SWAP2 JUMPDEST POP POP POP POP POP SWAP1 DUP1 PUSH1 0x1 ADD SLOAD SWAP1 POP DUP3 JUMP JUMPDEST PUSH0 DUP1 SLOAD SWAP1 POP SWAP1 JUMP JUMPDEST PUSH1 0x1 DUP2 SWAP1 DUP1 PUSH1 0x1 DUP2 SLOAD ADD DUP1 DUP3 SSTORE DUP1 SWAP2 POP POP PUSH1 0x1 SWAP1 SUB SWAP1 PUSH0 MSTORE PUSH1 0x20 PUSH0 KECCAK256 ADD PUSH0 SWAP1 SWAP2 SWAP1 SWAP2 SWAP1 SWAP2 POP SSTORE POP JUMP JUMPDEST DUP1 PUSH0 DUP2 SWAP1 SSTORE POP POP JUMP JUMPDEST PUSH1 0x1 PUSH1 0x3 PUSH0 PUSH2 0x100 EXP DUP2 SLOAD DUP2 PUSH1 0xFF MUL NOT AND SWAP1 DUP4 PUSH1 0x1 DUP2 GT ISZERO PUSH2 0x52E JUMPI PUSH2 0x52D PUSH2 0x92A JUMP JUMPDEST JUMPDEST MUL OR SWAP1 SSTORE POP JUMP JUMPDEST PUSH1 0x3 PUSH0 SWAP1 SLOAD SWAP1 PUSH2 0x100 EXP SWAP1 DIV PUSH1 0xFF AND DUP2 JUMP JUMPDEST PUSH1 0x60 ADDRESS PUSH20 0xFFFFFFFFFFFFFFFFFFFFFFFFFFFFFFFFFFFFFFFF AND PUSH4 0x3A32B549 PUSH1 0x40 MLOAD DUP2 PUSH4 0xFFFFFFFF AND PUSH1 0xE0 SHL DUP2 MSTORE PUSH1 0x4 ADD PUSH0 PUSH1 0x40 MLOAD DUP1 DUP4 SUB DUP2 DUP7 GAS STATICCALL ISZERO DUP1 ISZERO PUSH2 0x591 JUMPI RETURNDATASIZE PUSH0 DUP1 RETURNDATACOPY RETURNDATASIZE PUSH0 REVERT JUMPDEST POP POP POP POP PUSH1 0x40 MLOAD RETURNDATASIZE PUSH0 DUP3 RETURNDATACOPY RETURNDATASIZE PUSH1 0x1F NOT PUSH1 0x1F DUP3 ADD AND DUP3 ADD DUP1 PUSH1 0x40 MSTORE POP DUP2 ADD SWAP1 PUSH2 0x5B9 SWAP2 SWAP1 PUSH2 0xD94 JUMP JUMPDEST SWAP1 POP SWAP1 JUMP JUMPDEST PUSH0 PUSH1 0x40 MLOAD SWAP1 POP SWAP1 JUMP JUMPDEST PUSH0 DUP1 REVERT JUMPDEST PUSH0 DUP1 REVERT JUMPDEST PUSH0 DUP2 SWAP1 POP SWAP2 SWAP1 POP JUMP JUMPDEST PUSH2 0x5E1 DUP2 PUSH2 0x5CF JUMP JUMPDEST DUP2 EQ PUSH2 0x5EB JUMPI PUSH0 DUP1 REVERT JUMPDEST POP JUMP JUMPDEST PUSH0 DUP2 CALLDATALOAD SWAP1 POP PUSH2 0x5FC DUP2 PUSH2 0x5D8 JUMP JUMPDEST SWAP3 SWAP2 POP POP JUMP JUMPDEST PUSH0 PUSH1 0x20 DUP3 DUP5 SUB SLT ISZERO PUSH2 0x617 JUMPI PUSH2 0x616 PUSH2 0x5C7 JUMP JUMPDEST JUMPDEST PUSH0 PUSH2 0x624 DUP5 DUP3 DUP6 ADD PUSH2 0x5EE JUMP JUMPDEST SWAP2 POP POP SWAP3 SWAP2 POP POP JUMP JUMPDEST PUSH0 DUP2 ISZERO ISZERO SWAP1 POP SWAP2 SWAP1 POP JUMP JUMPDEST PUSH2 0x641 DUP2 PUSH2 0x62D JUMP JUMPDEST DUP3 MSTORE POP POP JUMP JUMPDEST PUSH0 PUSH1 0x20 DUP3 ADD SWAP1 POP PUSH2 0x65A PUSH0 DUP4 ADD DUP5 PUSH2 0x638 JUMP JUMPDEST SWAP3 SWAP2 POP POP JUMP JUMPDEST PUSH0 DUP2 SWAP1 POP SWAP2 SWAP1 POP JUMP JUMPDEST PUSH2 0x672 DUP2 PUSH2 0x660 JUMP JUMPDEST DUP3 MSTORE POP POP JUMP JUMPDEST PUSH0 PUSH1 0x20 DUP3 ADD SWAP1 POP PUSH2 0x68B PUSH0 DUP4 ADD DUP5 PUSH2 0x669 JUMP JUMPDEST SWAP3 SWAP2 POP POP JUMP JUMPDEST PUSH2 0x69A DUP2 PUSH2 0x660 JUMP JUMPDEST DUP2 EQ PUSH2 0x6A4 JUMPI PUSH0 DUP1 REVERT JUMPDEST POP JUMP JUMPDEST PUSH0 DUP2 CALLDATALOAD SWAP1 POP PUSH2 0x6B5 DUP2 PUSH2 0x691 JUMP JUMPDEST SWAP3 SWAP2 POP POP JUMP JUMPDEST PUSH0 PUSH1 0x20 DUP3 DUP5 SUB SLT ISZERO PUSH2 0x6D0 JUMPI PUSH2 0x6CF PUSH2 0x5C7 JUMP JUMPDEST JUMPDEST PUSH0 PUSH2 0x6DD DUP5 DUP3 DUP6 ADD PUSH2 0x6A7 JUMP JUMPDEST SWAP2 POP POP SWAP3 SWAP2 POP POP JUMP JUMPDEST PUSH0 DUP2 MLOAD SWAP1 POP SWAP2 SWAP1 POP JUMP JUMPDEST PUSH0 DUP3 DUP3 MSTORE PUSH1 0x20 DUP3 ADD SWAP1 POP SWAP3 SWAP2 POP POP JUMP JUMPDEST DUP3 DUP2 DUP4 MCOPY PUSH0 DUP4 DUP4 ADD MSTORE POP POP POP JUMP JUMPDEST PUSH0 PUSH1 0x1F NOT PUSH1 0x1F DUP4 ADD AND SWAP1 POP SWAP2 SWAP1 POP JUMP JUMPDEST PUSH0 PUSH2 0x728 DUP3 PUSH2 0x6E6 JUMP JUMPDEST PUSH2 0x732 DUP2 DUP6 PUSH2 0x6F0 JUMP JUMPDEST SWAP4 POP PUSH2 0x742 DUP2 DUP6 PUSH1 0x20 DUP7 ADD PUSH2 0x700 JUMP JUMPDEST PUSH2 0x74B DUP2 PUSH2 0x70E JUMP JUMPDEST DUP5 ADD SWAP2 POP POP SWAP3 SWAP2 POP POP JUMP JUMPDEST PUSH0 PUSH1 0x20 DUP3 ADD SWAP1 POP DUP2 DUP2 SUB PUSH0 DUP4 ADD MSTORE PUSH2 0x76E DUP2 DUP5 PUSH2 0x71E JUMP JUMPDEST SWAP1 POP SWAP3 SWAP2 POP POP JUMP JUMPDEST PUSH0 DUP1 REVERT JUMPDEST PUSH0 DUP1 REVERT JUMPDEST PUSH32 0x4E487B7100000000000000000000000000000000000000000000000000000000 PUSH0 MSTORE PUSH1 0x41 PUSH1 0x4 MSTORE PUSH1 0x24 PUSH0 REVERT JUMPDEST PUSH2 0x7B4 DUP3 PUSH2 0x70E JUMP JUMPDEST DUP2 ADD DUP2 DUP2 LT PUSH8 0xFFFFFFFFFFFFFFFF DUP3 GT OR ISZERO PUSH2 0x7D3 JUMPI PUSH2 0x7D2 PUSH2 0x77E JUMP JUMPDEST JUMPDEST DUP1 PUSH1 0x40 MSTORE POP POP POP JUMP JUMPDEST PUSH0 PUSH2 0x7E5 PUSH2 0x5BE JUMP JUMPDEST SWAP1 POP PUSH2 0x7F1 DUP3 DUP3 PUSH2 0x7AB JUMP JUMPDEST SWAP2 SWAP1 POP JUMP JUMPDEST PUSH0 PUSH8 0xFFFFFFFFFFFFFFFF DUP3 GT ISZERO PUSH2 0x810 JUMPI PUSH2 0x80F PUSH2 0x77E JUMP JUMPDEST JUMPDEST PUSH2 0x819 DUP3 PUSH2 0x70E JUMP JUMPDEST SWAP1 POP PUSH1 0x20 DUP2 ADD SWAP1 POP SWAP2 SWAP1 POP JUMP JUMPDEST DUP3 DUP2 DUP4 CALLDATACOPY PUSH0 DUP4 DUP4 ADD MSTORE POP POP POP JUMP JUMPDEST PUSH0 PUSH2 0x846 PUSH2 0x841 DUP5 PUSH2 0x7F6 JUMP JUMPDEST PUSH2 0x7DC JUMP JUMPDEST SWAP1 POP DUP3 DUP2 MSTORE PUSH1 0x20 DUP2 ADD DUP5 DUP5 DUP5 ADD GT ISZERO PUSH2 0x862 JUMPI PUSH2 0x861 PUSH2 0x77A JUMP JUMPDEST JUMPDEST PUSH2 0x86D DUP5 DUP3 DUP6 PUSH2 0x826 JUMP JUMPDEST POP SWAP4 SWAP3 POP POP POP JUMP JUMPDEST PUSH0 DUP3 PUSH1 0x1F DUP4 ADD SLT PUSH2 0x889 JUMPI PUSH2 0x888 PUSH2 0x776 JUMP JUMPDEST JUMPDEST DUP2 CALLDATALOAD PUSH2 0x899 DUP5 DUP3 PUSH1 0x20 DUP7 ADD PUSH2 0x834 JUMP JUMPDEST SWAP2 POP POP SWAP3 SWAP2 POP POP JUMP JUMPDEST PUSH0 DUP1 PUSH1 0x40 DUP4 DUP6 SUB SLT ISZERO PUSH2 0x8B8 JUMPI PUSH2 0x8B7 PUSH2 0x5C7 JUMP JUMPDEST JUMPDEST PUSH0 DUP4 ADD CALLDATALOAD PUSH8 0xFFFFFFFFFFFFFFFF DUP2 GT ISZERO PUSH2 0x8D5 JUMPI PUSH2 0x8D4 PUSH2 0x5CB JUMP JUMPDEST JUMPDEST PUSH2 0x8E1 DUP6 DUP3 DUP7 ADD PUSH2 0x875 JUMP JUMPDEST SWAP3 POP POP PUSH1 0x20 PUSH2 0x8F2 DUP6 DUP3 DUP7 ADD PUSH2 0x6A7 JUMP JUMPDEST SWAP2 POP POP SWAP3 POP SWAP3 SWAP1 POP JUMP JUMPDEST PUSH0 PUSH1 0x40 DUP3 ADD SWAP1 POP DUP2 DUP2 SUB PUSH0 DUP4 ADD MSTORE PUSH2 0x914 DUP2 DUP6 PUSH2 0x71E JUMP JUMPDEST SWAP1 POP PUSH2 0x923 PUSH1 0x20 DUP4 ADD DUP5 PUSH2 0x669 JUMP JUMPDEST SWAP4 SWAP3 POP POP POP JUMP JUMPDEST PUSH32 0x4E487B7100000000000000000000000000000000000000000000000000000000 PUSH0 MSTORE PUSH1 0x21 PUSH1 0x4 MSTORE PUSH1 0x24 PUSH0 REVERT JUMPDEST PUSH1 0x2 DUP2 LT PUSH2 0x968 JUMPI PUSH2 0x967 PUSH2 0x92A JUMP JUMPDEST JUMPDEST POP JUMP JUMPDEST PUSH0 DUP2 SWAP1 POP PUSH2 0x978 DUP3 PUSH2 0x957 JUMP JUMPDEST SWAP2 SWAP1 POP JUMP JUMPDEST PUSH0 PUSH2 0x987 DUP3 PUSH2 0x96B JUMP JUMPDEST SWAP1 POP SWAP2 SWAP1 POP JUMP JUMPDEST PUSH2 0x997 DUP2 PUSH2 0x97D JUMP JUMPDEST DUP3 MSTORE POP POP JUMP JUMPDEST PUSH0 PUSH1 0x20 DUP3 ADD SWAP1 POP PUSH2 0x9B0 PUSH0 DUP4 ADD DUP5 PUSH2 0x98E JUMP JUMPDEST SWAP3 SWAP2 POP POP JUMP JUMPDEST PUSH32 0x4E487B7100000000000000000000000000000000000000000000000000000000 PUSH0 MSTORE PUSH1 0x11 PUSH1 0x4 MSTORE PUSH1 0x24 PUSH0 REVERT JUMPDEST PUSH0 PUSH2 0x9ED DUP3 PUSH2 0x660 JUMP JUMPDEST SWAP2 POP PUSH2 0x9F8 DUP4 PUSH2 0x660 JUMP JUMPDEST SWAP3 POP DUP3 DUP3 ADD SWAP1 POP DUP1 DUP3 GT ISZERO PUSH2 0xA10 JUMPI PUSH2 0xA0F PUSH2 0x9B6 JUMP JUMPDEST JUMPDEST SWAP3 SWAP2 POP POP JUMP JUMPDEST PUSH0 PUSH2 0xA20 DUP3 PUSH2 0x660 JUMP JUMPDEST SWAP2 POP PUSH32 0xFFFFFFFFFFFFFFFFFFFFFFFFFFFFFFFFFFFFFFFFFFFFFFFFFFFFFFFFFFFFFFFF DUP3 SUB PUSH2 0xA52 JUMPI PUSH2 0xA51 PUSH2 0x9B6 JUMP JUMPDEST JUMPDEST PUSH1 0x1 DUP3 ADD SWAP1 POP SWAP2 SWAP1 POP JUMP JUMPDEST PUSH32 0x4E487B7100000000000000000000000000000000000000000000000000000000 PUSH0 MSTORE PUSH1 0x22 PUSH1 0x4 MSTORE PUSH1 0x24 PUSH0 REVERT JUMPDEST PUSH0 PUSH1 0x2 DUP3 DIV SWAP1 POP PUSH1 0x1 DUP3 AND DUP1 PUSH2 0xAA1 JUMPI PUSH1 0x7F DUP3 AND SWAP2 POP JUMPDEST PUSH1 0x20 DUP3 LT DUP2 SUB PUSH2 0xAB4 JUMPI PUSH2 0xAB3 PUSH2 0xA5D JUMP JUMPDEST JUMPDEST POP SWAP2 SWAP1 POP JUMP JUMPDEST PUSH0 DUP2 SWAP1 POP DUP2 PUSH0 MSTORE PUSH1 0x20 PUSH0 KECCAK256 SWAP1 POP SWAP2 SWAP1 POP JUMP JUMPDEST PUSH0 PUSH1 0x20 PUSH1 0x1F DUP4 ADD DIV SWAP1 POP SWAP2 SWAP1 POP JUMP JUMPDEST PUSH0 DUP3 DUP3 SHL SWAP1 POP SWAP3 SWAP2 POP POP JUMP JUMPDEST PUSH0 PUSH1 0x8 DUP4 MUL PUSH2 0xB16 PUSH32 0xFFFFFFFFFFFFFFFFFFFFFFFFFFFFFFFFFFFFFFFFFFFFFFFFFFFFFFFFFFFFFFFF DUP3 PUSH2 0xADB JUMP JUMPDEST PUSH2 0xB20 DUP7 DUP4 PUSH2 0xADB JUMP JUMPDEST SWAP6 POP DUP1 NOT DUP5 AND SWAP4 POP DUP1 DUP7 AND DUP5 OR SWAP3 POP POP POP SWAP4 SWAP3 POP POP POP JUMP JUMPDEST PUSH0 DUP2 SWAP1 POP SWAP2 SWAP1 POP JUMP JUMPDEST PUSH0 PUSH2 0xB5B PUSH2 0xB56 PUSH2 0xB51 DUP5 PUSH2 0x660 JUMP JUMPDEST PUSH2 0xB38 JUMP JUMPDEST PUSH2 0x660 JUMP JUMPDEST SWAP1 POP SWAP2 SWAP1 POP JUMP JUMPDEST PUSH0 DUP2 SWAP1 POP SWAP2 SWAP1 POP JUMP JUMPDEST PUSH2 0xB74 DUP4 PUSH2 0xB41 JUMP JUMPDEST PUSH2 0xB88 PUSH2 0xB80 DUP3 PUSH2 0xB62 JUMP JUMPDEST DUP5 DUP5 SLOAD PUSH2 0xAE7 JUMP JUMPDEST DUP3 SSTORE POP POP POP POP JUMP JUMPDEST PUSH0 SWAP1 JUMP JUMPDEST PUSH2 0xB9C PUSH2 0xB90 JUMP JUMPDEST PUSH2 0xBA7 DUP2 DUP5 DUP5 PUSH2 0xB6B JUMP JUMPDEST POP POP POP JUMP JUMPDEST JUMPDEST DUP2 DUP2 LT ISZERO PUSH2 0xBCA JUMPI PUSH2 0xBBF PUSH0 DUP3 PUSH2 0xB94 JUMP JUMPDEST PUSH1 0x1 DUP2 ADD SWAP1 POP PUSH2 0xBAD JUMP JUMPDEST POP POP JUMP JUMPDEST PUSH1 0x1F DUP3 GT ISZERO PUSH2 0xC0F JUMPI PUSH2 0xBE0 DUP2 PUSH2 0xABA JUMP JUMPDEST PUSH2 0xBE9 DUP5 PUSH2 0xACC JUMP JUMPDEST DUP2 ADD PUSH1 0x20 DUP6 LT ISZERO PUSH2 0xBF8 JUMPI DUP2 SWAP1 POP JUMPDEST PUSH2 0xC0C PUSH2 0xC04 DUP6 PUSH2 0xACC JUMP JUMPDEST DUP4 ADD DUP3 PUSH2 0xBAC JUMP JUMPDEST POP POP JUMPDEST POP POP POP JUMP JUMPDEST PUSH0 DUP3 DUP3 SHR SWAP1 POP SWAP3 SWAP2 POP POP JUMP JUMPDEST PUSH0 PUSH2 0xC2F PUSH0 NOT DUP5 PUSH1 0x8 MUL PUSH2 0xC14 JUMP JUMPDEST NOT DUP1 DUP4 AND SWAP2 POP POP SWAP3 SWAP2 POP POP JUMP JUMPDEST PUSH0 PUSH2 0xC47 DUP4 DUP4 PUSH2 0xC20 JUMP JUMPDEST SWAP2 POP DUP3 PUSH1 0x2 MUL DUP3 OR SWAP1 POP SWAP3 SWAP2 POP POP JUMP JUMPDEST PUSH2 0xC60 DUP3 PUSH2 0x6E6 JUMP JUMPDEST PUSH8 0xFFFFFFFFFFFFFFFF DUP2 GT ISZERO PUSH2 0xC79 JUMPI PUSH2 0xC78 PUSH2 0x77E JUMP JUMPDEST JUMPDEST PUSH2 0xC83 DUP3 SLOAD PUSH2 0xA8A JUMP JUMPDEST PUSH2 0xC8E DUP3 DUP3 DUP6 PUSH2 0xBCE JUMP JUMPDEST PUSH0 PUSH1 0x20 SWAP1 POP PUSH1 0x1F DUP4 GT PUSH1 0x1 DUP2 EQ PUSH2 0xCBF JUMPI PUSH0 DUP5 ISZERO PUSH2 0xCAD JUMPI DUP3 DUP8 ADD MLOAD SWAP1 POP JUMPDEST PUSH2 0xCB7 DUP6 DUP3 PUSH2 0xC3C JUMP JUMPDEST DUP7 SSTORE POP PUSH2 0xD1E JUMP JUMPDEST PUSH1 0x1F NOT DUP5 AND PUSH2 0xCCD DUP7 PUSH2 0xABA JUMP JUMPDEST PUSH0 JUMPDEST DUP3 DUP2 LT ISZERO PUSH2 0xCF4 JUMPI DUP5 DUP10 ADD MLOAD DUP3 SSTORE PUSH1 0x1 DUP3 ADD SWAP2 POP PUSH1 0x20 DUP6 ADD SWAP5 POP PUSH1 0x20 DUP2 ADD SWAP1 POP PUSH2 0xCCF JUMP JUMPDEST DUP7 DUP4 LT ISZERO PUSH2 0xD11 JUMPI DUP5 DUP10 ADD MLOAD PUSH2 0xD0D PUSH1 0x1F DUP10 AND DUP3 PUSH2 0xC20 JUMP JUMPDEST DUP4 SSTORE POP JUMPDEST PUSH1 0x1 PUSH1 0x2 DUP9 MUL ADD DUP9 SSTORE POP POP POP JUMPDEST POP POP POP POP POP POP JUMP JUMPDEST PUSH0 PUSH2 0xD38 PUSH2 0xD33 DUP5 PUSH2 0x7F6 JUMP JUMPDEST PUSH2 0x7DC JUMP JUMPDEST SWAP1 POP DUP3 DUP2 MSTORE PUSH1 0x20 DUP2 ADD DUP5 DUP5 DUP5 ADD GT ISZERO PUSH2 0xD54 JUMPI PUSH2 0xD53 PUSH2 0x77A JUMP JUMPDEST JUMPDEST PUSH2 0xD5F DUP5 DUP3 DUP6 PUSH2 0x700 JUMP JUMPDEST POP SWAP4 SWAP3 POP POP POP JUMP JUMPDEST PUSH0 DUP3 PUSH1 0x1F DUP4 ADD SLT PUSH2 0xD7B JUMPI PUSH2 0xD7A PUSH2 0x776 JUMP JUMPDEST JUMPDEST DUP2 MLOAD PUSH2 0xD8B DUP5 DUP3 PUSH1 0x20 DUP7 ADD PUSH2 0xD26 JUMP JUMPDEST SWAP2 POP POP SWAP3 SWAP2 POP POP JUMP JUMPDEST PUSH0 PUSH1 0x20 DUP3 DUP5 SUB SLT ISZERO PUSH2 0xDA9 JUMPI PUSH2 0xDA8 PUSH2 0x5C7 JUMP JUMPDEST JUMPDEST PUSH0 DUP3 ADD MLOAD PUSH8 0xFFFFFFFFFFFFFFFF DUP2 GT ISZERO PUSH2 0xDC6 JUMPI PUSH2 0xDC5 PUSH2 0x5CB JUMP JUMPDEST JUMPDEST PUSH2 0xDD2 DUP5 DUP3 DUP6 ADD PUSH2 0xD67 JUMP JUMPDEST SWAP2 POP POP SWAP3 SWAP2 POP POP JUMP INVALID LOG2 PUSH5 0x6970667358 0x22 SLT KECCAK256 0xD8 DUP10 SHL PUSH10 0xD0CBAB831CD4CBA379DF 0xB3 STOP ADDMOD PUSH16 0xC2801D674C1A33E115AE917849B76473 PUSH16 0x6C634300081A00330000000000000000 "
				},
				"gasEstimates": {
					"creation": {
						"codeDepositCost": "720200",
						"executionCost": "infinite",
						"totalCost": "infinite"
					},
					"external": {
						"activateContract()": "24517",
						"addFavoriteNumber(uint256)": "46888",
						"addPerson(string,uint256)": "infinite",
						"deactivateContract()": "24473",
						"externalFunction()": "infinite",
						"favoriteNumbers(uint256)": "infinite",
						"getFavoriteNumber()": "2477",
						"isActive()": "2611",
						"isGreatherThan(int256)": "2759",
						"people(uint256)": "infinite",
						"state()": "2620",
						"storeNumber(uint256)": "22536",
						"sumToFavoriteNumber()": "infinite",
						"testExternalFunction()": "infinite"
					},
					"internal": {
						"callInternalFunction()": "infinite",
						"internalFunction()": "infinite"
					}
				},
				"methodIdentifiers": {
					"activateContract()": "8fda356d",
					"addFavoriteNumber(uint256)": "a7e1a364",
					"addPerson(string,uint256)": "6f760f41",
					"deactivateContract()": "bca353be",
					"externalFunction()": "3a32b549",
					"favoriteNumbers(uint256)": "29cd1d96",
					"getFavoriteNumber()": "a621d15e",
					"isActive()": "22f3e2d4",
					"isGreatherThan(int256)": "0664c448",
					"people(uint256)": "9e7a13ad",
					"state()": "c19d93fb",
					"storeNumber(uint256)": "b6339418",
					"sumToFavoriteNumber()": "0cd2636e",
					"testExternalFunction()": "e0819c9a"
				}
			},
			"storageLayout": {
				"storage": [
					{
						"astId": 3,
						"contract": "SimpleStorage.sol:SimpleStorage",
						"label": "favoriteNumber",
						"offset": 0,
						"slot": "0",
						"type": "t_uint256"
					},
					{
						"astId": 6,
						"contract": "SimpleStorage.sol:SimpleStorage",
						"label": "favoriteNumbers",
						"offset": 0,
						"slot": "1",
						"type": "t_array(t_uint256)dyn_storage"
					},
					{
						"astId": 15,
						"contract": "SimpleStorage.sol:SimpleStorage",
						"label": "people",
						"offset": 0,
						"slot": "2",
						"type": "t_array(t_struct(Person)11_storage)dyn_storage"
					},
					{
						"astId": 21,
						"contract": "SimpleStorage.sol:SimpleStorage",
						"label": "state",
						"offset": 0,
						"slot": "3",
						"type": "t_enum(ContractState)18"
					},
					{
						"astId": 93,
						"contract": "SimpleStorage.sol:SimpleStorage",
						"label": "AnInternalVariable",
						"offset": 0,
						"slot": "4",
						"type": "t_string_storage"
					}
				],
				"types": {
					"t_array(t_struct(Person)11_storage)dyn_storage": {
						"base": "t_struct(Person)11_storage",
						"encoding": "dynamic_array",
						"label": "struct SimpleStorage.Person[]",
						"numberOfBytes": "32"
					},
					"t_array(t_uint256)dyn_storage": {
						"base": "t_uint256",
						"encoding": "dynamic_array",
						"label": "uint256[]",
						"numberOfBytes": "32"
					},
					"t_enum(ContractState)18": {
						"encoding": "inplace",
						"label": "enum SimpleStorage.ContractState",
						"numberOfBytes": "1"
					},
					"t_string_storage": {
						"encoding": "bytes",
						"label": "string",
						"numberOfBytes": "32"
					},
					"t_struct(Person)11_storage": {
						"encoding": "inplace",
						"label": "struct SimpleStorage.Person",
						"members": [
							{
								"astId": 8,
								"contract": "SimpleStorage.sol:SimpleStorage",
								"label": "name",
								"offset": 0,
								"slot": "0",
								"type": "t_string_storage"
							},
							{
								"astId": 10,
								"contract": "SimpleStorage.sol:SimpleStorage",
								"label": "favoriteNumber",
								"offset": 0,
								"slot": "1",
								"type": "t_uint256"
							}
						],
						"numberOfBytes": "64"
					},
					"t_uint256": {
						"encoding": "inplace",
						"label": "uint256",
						"numberOfBytes": "32"
					}
				}
			},
			"userdoc": {
				"kind": "user",
				"methods": {},
				"version": 1
			}
		}
	}
}